{
  "contractName": "CoffeeSupplyChain",
  "abi": [
    {
      "constant": false,
      "inputs": [],
      "name": "renounceOwnership",
      "outputs": [],
      "payable": false,
      "stateMutability": "nonpayable",
      "type": "function"
    },
    {
      "constant": true,
      "inputs": [],
      "name": "owner",
      "outputs": [
        {
          "name": "",
          "type": "address"
        }
      ],
      "payable": false,
      "stateMutability": "view",
      "type": "function"
    },
    {
      "constant": false,
      "inputs": [
        {
          "name": "newOwner",
          "type": "address"
        }
      ],
      "name": "transferOwnership",
      "outputs": [],
      "payable": false,
      "stateMutability": "nonpayable",
      "type": "function"
    },
    {
      "inputs": [
        {
          "name": "_supplyChainAddress",
          "type": "address"
        }
      ],
      "payable": false,
      "stateMutability": "nonpayable",
      "type": "constructor"
    },
    {
      "anonymous": false,
      "inputs": [
        {
          "indexed": true,
          "name": "user",
          "type": "address"
        },
        {
          "indexed": false,
          "name": "name",
          "type": "string"
        },
        {
          "indexed": false,
          "name": "contactNo",
          "type": "string"
        },
        {
          "indexed": false,
          "name": "role",
          "type": "string"
        },
        {
          "indexed": false,
          "name": "isActive",
          "type": "bool"
        },
        {
          "indexed": false,
          "name": "profileHash",
          "type": "string"
        }
      ],
      "name": "UserUpdate",
      "type": "event"
    },
    {
      "anonymous": false,
      "inputs": [
        {
          "indexed": true,
          "name": "user",
          "type": "address"
        },
        {
          "indexed": false,
          "name": "role",
          "type": "string"
        }
      ],
      "name": "UserRoleUpdate",
      "type": "event"
    },
    {
      "anonymous": false,
      "inputs": [
        {
          "indexed": true,
          "name": "user",
          "type": "address"
        },
        {
          "indexed": false,
          "name": "batchNo",
          "type": "address"
        }
      ],
      "name": "PerformCultivation",
      "type": "event"
    },
    {
      "anonymous": false,
      "inputs": [
        {
          "indexed": true,
          "name": "user",
          "type": "address"
        },
        {
          "indexed": false,
          "name": "batchNo",
          "type": "address"
        }
      ],
      "name": "DoneInspection",
      "type": "event"
    },
    {
      "anonymous": false,
      "inputs": [
        {
          "indexed": true,
          "name": "user",
          "type": "address"
        },
        {
          "indexed": false,
          "name": "batchNo",
          "type": "address"
        }
      ],
      "name": "DoneHarvesting",
      "type": "event"
    },
    {
      "anonymous": false,
      "inputs": [
        {
          "indexed": true,
          "name": "user",
          "type": "address"
        },
        {
          "indexed": false,
          "name": "batchNo",
          "type": "address"
        }
      ],
      "name": "DoneExporting",
      "type": "event"
    },
    {
      "anonymous": false,
      "inputs": [
        {
          "indexed": true,
          "name": "user",
          "type": "address"
        },
        {
          "indexed": false,
          "name": "batchNo",
          "type": "address"
        }
      ],
      "name": "DoneImporting",
      "type": "event"
    },
    {
      "anonymous": false,
      "inputs": [
        {
          "indexed": true,
          "name": "user",
          "type": "address"
        },
        {
          "indexed": false,
          "name": "batchNo",
          "type": "address"
        }
      ],
      "name": "DoneProcessing",
      "type": "event"
    },
    {
      "anonymous": false,
      "inputs": [
        {
          "indexed": true,
          "name": "previousOwner",
          "type": "address"
        }
      ],
      "name": "OwnershipRenounced",
      "type": "event"
    },
    {
      "anonymous": false,
      "inputs": [
        {
          "indexed": true,
          "name": "previousOwner",
          "type": "address"
        },
        {
          "indexed": true,
          "name": "newOwner",
          "type": "address"
        }
      ],
      "name": "OwnershipTransferred",
      "type": "event"
    },
    {
      "constant": true,
      "inputs": [],
      "name": "getStorageAddress",
      "outputs": [
        {
          "name": "",
          "type": "address"
        }
      ],
      "payable": false,
      "stateMutability": "view",
      "type": "function"
    },
    {
      "constant": true,
      "inputs": [
        {
          "name": "_batchNo",
          "type": "address"
        }
      ],
      "name": "getNextAction",
      "outputs": [
        {
          "name": "",
          "type": "string"
        }
      ],
      "payable": false,
      "stateMutability": "view",
      "type": "function"
    },
    {
      "constant": false,
      "inputs": [
        {
          "name": "_name",
          "type": "string"
        },
        {
          "name": "_contactNo",
          "type": "string"
        },
        {
          "name": "_role",
          "type": "string"
        },
        {
          "name": "_isActive",
          "type": "bool"
        },
        {
          "name": "_profileHash",
          "type": "string"
        }
      ],
      "name": "updateUser",
      "outputs": [
        {
          "name": "",
          "type": "bool"
        }
      ],
      "payable": false,
      "stateMutability": "nonpayable",
      "type": "function"
    },
    {
      "constant": false,
      "inputs": [
        {
          "name": "_userAddress",
          "type": "address"
        },
        {
          "name": "_name",
          "type": "string"
        },
        {
          "name": "_contactNo",
          "type": "string"
        },
        {
          "name": "_role",
          "type": "string"
        },
        {
          "name": "_isActive",
          "type": "bool"
        },
        {
          "name": "_profileHash",
          "type": "string"
        }
      ],
      "name": "updateUserForAdmin",
      "outputs": [
        {
          "name": "",
          "type": "bool"
        }
      ],
      "payable": false,
      "stateMutability": "nonpayable",
      "type": "function"
    },
    {
      "constant": true,
      "inputs": [
        {
          "name": "_userAddress",
          "type": "address"
        }
      ],
      "name": "getUser",
      "outputs": [
        {
          "name": "name",
          "type": "string"
        },
        {
          "name": "contactNo",
          "type": "string"
        },
        {
          "name": "role",
          "type": "string"
        },
        {
          "name": "isActive",
          "type": "bool"
        },
        {
          "name": "profileHash",
          "type": "string"
        }
      ],
      "payable": false,
      "stateMutability": "view",
      "type": "function"
    },
    {
      "constant": false,
      "inputs": [
        {
          "name": "_registrationNo",
          "type": "string"
        },
        {
          "name": "_farmerName",
          "type": "string"
        },
        {
          "name": "_farmAddress",
          "type": "string"
        },
        {
          "name": "_exporterName",
          "type": "string"
        },
        {
          "name": "_importerName",
          "type": "string"
        }
      ],
      "name": "addBasicDetails",
      "outputs": [
        {
          "name": "",
          "type": "address"
        }
      ],
      "payable": false,
      "stateMutability": "nonpayable",
      "type": "function"
    },
    {
      "constant": true,
      "inputs": [
        {
          "name": "_batchNo",
          "type": "address"
        }
      ],
      "name": "getFarmInspectorData",
      "outputs": [
        {
          "name": "coffeeFamily",
          "type": "string"
        },
        {
          "name": "typeOfSeed",
          "type": "string"
        },
        {
          "name": "fertilizerUsed",
          "type": "string"
        }
      ],
      "payable": false,
      "stateMutability": "view",
      "type": "function"
    },
    {
      "constant": false,
      "inputs": [
        {
          "name": "_batchNo",
          "type": "address"
        },
        {
          "name": "_coffeeFamily",
          "type": "string"
        },
        {
          "name": "_typeOfSeed",
          "type": "string"
        },
        {
          "name": "_fertilizerUsed",
          "type": "string"
        }
      ],
      "name": "updateFarmInspectorData",
      "outputs": [
        {
          "name": "",
          "type": "bool"
        }
      ],
      "payable": false,
      "stateMutability": "nonpayable",
      "type": "function"
    },
    {
      "constant": true,
      "inputs": [
        {
          "name": "_batchNo",
          "type": "address"
        }
      ],
      "name": "getHarvesterData",
      "outputs": [
        {
          "name": "cropVariety",
          "type": "string"
        },
        {
          "name": "tempatureUsed",
          "type": "string"
        },
        {
          "name": "humidity",
          "type": "string"
        }
      ],
      "payable": false,
      "stateMutability": "view",
      "type": "function"
    },
    {
      "constant": false,
      "inputs": [
        {
          "name": "_batchNo",
          "type": "address"
        },
        {
          "name": "_cropVariety",
          "type": "string"
        },
        {
          "name": "_tempatureUsed",
          "type": "string"
        },
        {
          "name": "_humidity",
          "type": "string"
        }
      ],
      "name": "updateHarvesterData",
      "outputs": [
        {
          "name": "",
          "type": "bool"
        }
      ],
      "payable": false,
      "stateMutability": "nonpayable",
      "type": "function"
    },
    {
      "constant": true,
      "inputs": [
        {
          "name": "_batchNo",
          "type": "address"
        }
      ],
      "name": "getExporterData",
      "outputs": [
        {
          "name": "quantity",
          "type": "uint256"
        },
        {
          "name": "destinationAddress",
          "type": "string"
        },
        {
          "name": "shipName",
          "type": "string"
        },
        {
          "name": "shipNo",
          "type": "string"
        },
        {
          "name": "departureDateTime",
          "type": "uint256"
        },
        {
          "name": "estimateDateTime",
          "type": "uint256"
        },
        {
          "name": "plantNo",
          "type": "uint256"
        },
        {
          "name": "exporterId",
          "type": "uint256"
        }
      ],
      "payable": false,
      "stateMutability": "view",
      "type": "function"
    },
    {
      "constant": false,
      "inputs": [
        {
          "name": "_batchNo",
          "type": "address"
        },
        {
          "name": "_quantity",
          "type": "uint256"
        },
        {
          "name": "_destinationAddress",
          "type": "string"
        },
        {
          "name": "_shipName",
          "type": "string"
        },
        {
          "name": "_shipNo",
          "type": "string"
        },
        {
          "name": "_estimateDateTime",
          "type": "uint256"
        },
        {
          "name": "_plantNo",
          "type": "uint256"
        },
        {
          "name": "_exporterId",
          "type": "uint256"
        }
      ],
      "name": "updateExporterData",
      "outputs": [
        {
          "name": "",
          "type": "bool"
        }
      ],
      "payable": false,
      "stateMutability": "nonpayable",
      "type": "function"
    },
    {
      "constant": true,
      "inputs": [
        {
          "name": "_batchNo",
          "type": "address"
        }
      ],
      "name": "getImporterData",
      "outputs": [
        {
          "name": "quantity",
          "type": "uint256"
        },
        {
          "name": "shipName",
          "type": "string"
        },
        {
          "name": "shipNo",
          "type": "string"
        },
        {
          "name": "arrivalDateTime",
          "type": "uint256"
        },
        {
          "name": "transportInfo",
          "type": "string"
        },
        {
          "name": "warehouseName",
          "type": "string"
        },
        {
          "name": "warehouseAddress",
          "type": "string"
        },
        {
          "name": "importerId",
          "type": "uint256"
        }
      ],
      "payable": false,
      "stateMutability": "view",
      "type": "function"
    },
    {
      "constant": false,
      "inputs": [
        {
          "name": "_batchNo",
          "type": "address"
        },
        {
          "name": "_quantity",
          "type": "uint256"
        },
        {
          "name": "_shipName",
          "type": "string"
        },
        {
          "name": "_shipNo",
          "type": "string"
        },
        {
          "name": "_transportInfo",
          "type": "string"
        },
        {
          "name": "_warehouseName",
          "type": "string"
        },
        {
          "name": "_warehouseAddress",
          "type": "string"
        },
        {
          "name": "_importerId",
          "type": "uint256"
        }
      ],
      "name": "updateImporterData",
      "outputs": [
        {
          "name": "",
          "type": "bool"
        }
      ],
      "payable": false,
      "stateMutability": "nonpayable",
      "type": "function"
    },
    {
      "constant": true,
      "inputs": [
        {
          "name": "_batchNo",
          "type": "address"
        }
      ],
      "name": "getProccesorData",
      "outputs": [
        {
          "name": "quantity",
          "type": "uint256"
        },
        {
          "name": "tempature",
          "type": "string"
        },
        {
          "name": "rostingDuration",
          "type": "uint256"
        },
        {
          "name": "internalBatchNo",
          "type": "string"
        },
        {
          "name": "packageDateTime",
          "type": "uint256"
        },
        {
          "name": "processorName",
          "type": "string"
        },
        {
          "name": "processorAddress",
          "type": "string"
        }
      ],
      "payable": false,
      "stateMutability": "view",
      "type": "function"
    },
    {
      "constant": false,
      "inputs": [
        {
          "name": "_batchNo",
          "type": "address"
        },
        {
          "name": "_quantity",
          "type": "uint256"
        },
        {
          "name": "_tempature",
          "type": "string"
        },
        {
          "name": "_rostingDuration",
          "type": "uint256"
        },
        {
          "name": "_internalBatchNo",
          "type": "string"
        },
        {
          "name": "_packageDateTime",
          "type": "uint256"
        },
        {
          "name": "_processorName",
          "type": "string"
        },
        {
          "name": "_processorAddress",
          "type": "string"
        }
      ],
      "name": "updateProcessorData",
      "outputs": [
        {
          "name": "",
          "type": "bool"
        }
      ],
      "payable": false,
      "stateMutability": "nonpayable",
      "type": "function"
    }
  ],
  "bytecode": "0x608060405234801561001057600080fd5b506040516020806200643e83398101806040528101908080519060200190929190505050336000806101000a81548173ffffffffffffffffffffffffffffffffffffffff021916908373ffffffffffffffffffffffffffffffffffffffff16021790555080600160006101000a81548173ffffffffffffffffffffffffffffffffffffffff021916908373ffffffffffffffffffffffffffffffffffffffff16021790555080600260006101000a81548173ffffffffffffffffffffffffffffffffffffffff021916908373ffffffffffffffffffffffffffffffffffffffff1602179055505061633780620001076000396000f300608060405260043610610107576000357c0100000000000000000000000000000000000000000000000000000000900463ffffffff16806302e716ca1461010c578063044448f2146102d957806306ecd6d41461042e5780631e7d76aa146105e5578063317bc7ab14610764578063393a4d34146109795780634b205122146109d05780634d6b5e0014610b915780636f77926b14610c4d578063715018a614610e585780637f89e94b14610e6f57806381f960c21461100357806389d42c2e146111305780638da5cb5b146112c1578063ca5322e514611318578063ebca7e1c146114ac578063f2fde38b146115d9578063f5c8dee91461161c578063febd04921461177b575b600080fd5b34801561011857600080fd5b506102bf600480360381019080803573ffffffffffffffffffffffffffffffffffffffff16906020019092919080359060200190929190803590602001908201803590602001908080601f0160208091040260200160405190810160405280939291908181526020018383808284378201915050505050509192919290803590602001908201803590602001908080601f0160208091040260200160405190810160405280939291908181526020018383808284378201915050505050509192919290803590602001908201803590602001908080601f0160208091040260200160405190810160405280939291908181526020018383808284378201915050505050509192919290803590602001908201803590602001908080601f0160208091040260200160405190810160405280939291908181526020018383808284378201915050505050509192919290803590602001908201803590602001908080601f0160208091040260200160405190810160405280939291908181526020018383808284378201915050505050509192919290803590602001909291905050506119fc565b604051808215151515815260200191505060405180910390f35b3480156102e557600080fd5b50610414600480360381019080803573ffffffffffffffffffffffffffffffffffffffff16906020019092919080359060200190929190803590602001908201803590602001908080601f0160208091040260200160405190810160405280939291908181526020018383808284378201915050505050509192919290803590602001908201803590602001908080601f0160208091040260200160405190810160405280939291908181526020018383808284378201915050505050509192919290803590602001908201803590602001908080601f016020809104026020016040519081016040528093929190818152602001838380828437820191505050505050919291929080359060200190929190803590602001909291908035906020019092919050505061223b565b604051808215151515815260200191505060405180910390f35b34801561043a57600080fd5b5061046f600480360381019080803573ffffffffffffffffffffffffffffffffffffffff1690602001909291905050506129b0565b6040518089815260200180602001806020018060200188815260200187815260200186815260200185815260200184810384528b818151815260200191508051906020019080838360005b838110156104d55780820151818401526020810190506104ba565b50505050905090810190601f1680156105025780820380516001836020036101000a031916815260200191505b5084810383528a818151815260200191508051906020019080838360005b8381101561053b578082015181840152602081019050610520565b50505050905090810190601f1680156105685780820380516001836020036101000a031916815260200191505b50848103825289818151815260200191508051906020019080838360005b838110156105a1578082015181840152602081019050610586565b50505050905090810190601f1680156105ce5780820380516001836020036101000a031916815260200191505b509b50505050505050505050505060405180910390f35b3480156105f157600080fd5b5061074a600480360381019080803573ffffffffffffffffffffffffffffffffffffffff169060200190929190803590602001908201803590602001908080601f0160208091040260200160405190810160405280939291908181526020018383808284378201915050505050509192919290803590602001908201803590602001908080601f0160208091040260200160405190810160405280939291908181526020018383808284378201915050505050509192919290803590602001908201803590602001908080601f0160208091040260200160405190810160405280939291908181526020018383808284378201915050505050509192919290803515159060200190929190803590602001908201803590602001908080601f0160208091040260200160405190810160405280939291908181526020018383808284378201915050505050509192919290505050612c22565b604051808215151515815260200191505060405180910390f35b34801561077057600080fd5b506107a5600480360381019080803573ffffffffffffffffffffffffffffffffffffffff16906020019092919050505061323d565b604051808881526020018060200187815260200180602001868152602001806020018060200185810385528b818151815260200191508051906020019080838360005b838110156108035780820151818401526020810190506107e8565b50505050905090810190601f1680156108305780820380516001836020036101000a031916815260200191505b50858103845289818151815260200191508051906020019080838360005b8381101561086957808201518184015260208101905061084e565b50505050905090810190601f1680156108965780820380516001836020036101000a031916815260200191505b50858103835287818151815260200191508051906020019080838360005b838110156108cf5780820151818401526020810190506108b4565b50505050905090810190601f1680156108fc5780820380516001836020036101000a031916815260200191505b50858103825286818151815260200191508051906020019080838360005b8381101561093557808201518184015260208101905061091a565b50505050905090810190601f1680156109625780820380516001836020036101000a031916815260200191505b509b50505050505050505050505060405180910390f35b34801561098557600080fd5b5061098e6134df565b604051808273ffffffffffffffffffffffffffffffffffffffff1673ffffffffffffffffffffffffffffffffffffffff16815260200191505060405180910390f35b3480156109dc57600080fd5b50610b4f600480360381019080803590602001908201803590602001908080601f0160208091040260200160405190810160405280939291908181526020018383808284378201915050505050509192919290803590602001908201803590602001908080601f0160208091040260200160405190810160405280939291908181526020018383808284378201915050505050509192919290803590602001908201803590602001908080601f0160208091040260200160405190810160405280939291908181526020018383808284378201915050505050509192919290803590602001908201803590602001908080601f0160208091040260200160405190810160405280939291908181526020018383808284378201915050505050509192919290803590602001908201803590602001908080601f0160208091040260200160405190810160405280939291908181526020018383808284378201915050505050509192919290505050613564565b604051808273ffffffffffffffffffffffffffffffffffffffff1673ffffffffffffffffffffffffffffffffffffffff16815260200191505060405180910390f35b348015610b9d57600080fd5b50610bd2600480360381019080803573ffffffffffffffffffffffffffffffffffffffff169060200190929190505050613930565b6040518080602001828103825283818151815260200191508051906020019080838360005b83811015610c12578082015181840152602081019050610bf7565b50505050905090810190601f168015610c3f5780820380516001836020036101000a031916815260200191505b509250505060405180910390f35b348015610c5957600080fd5b50610c8e600480360381019080803573ffffffffffffffffffffffffffffffffffffffff169060200190929190505050613a87565b60405180806020018060200180602001861515151581526020018060200185810385528a818151815260200191508051906020019080838360005b83811015610ce4578082015181840152602081019050610cc9565b50505050905090810190601f168015610d115780820380516001836020036101000a031916815260200191505b50858103845289818151815260200191508051906020019080838360005b83811015610d4a578082015181840152602081019050610d2f565b50505050905090810190601f168015610d775780820380516001836020036101000a031916815260200191505b50858103835288818151815260200191508051906020019080838360005b83811015610db0578082015181840152602081019050610d95565b50505050905090810190601f168015610ddd5780820380516001836020036101000a031916815260200191505b50858103825286818151815260200191508051906020019080838360005b83811015610e16578082015181840152602081019050610dfb565b50505050905090810190601f168015610e435780820380516001836020036101000a031916815260200191505b50995050505050505050505060405180910390f35b348015610e6457600080fd5b50610e6d613d3d565b005b348015610e7b57600080fd5b50610eb0600480360381019080803573ffffffffffffffffffffffffffffffffffffffff169060200190929190505050613e3f565b60405180806020018060200180602001848103845287818151815260200191508051906020019080838360005b83811015610ef8578082015181840152602081019050610edd565b50505050905090810190601f168015610f255780820380516001836020036101000a031916815260200191505b50848103835286818151815260200191508051906020019080838360005b83811015610f5e578082015181840152602081019050610f43565b50505050905090810190601f168015610f8b5780820380516001836020036101000a031916815260200191505b50848103825285818151815260200191508051906020019080838360005b83811015610fc4578082015181840152602081019050610fa9565b50505050905090810190601f168015610ff15780820380516001836020036101000a031916815260200191505b50965050505050505060405180910390f35b34801561100f57600080fd5b50611116600480360381019080803573ffffffffffffffffffffffffffffffffffffffff169060200190929190803590602001908201803590602001908080601f0160208091040260200160405190810160405280939291908181526020018383808284378201915050505050509192919290803590602001908201803590602001908080601f0160208091040260200160405190810160405280939291908181526020018383808284378201915050505050509192919290803590602001908201803590602001908080601f016020809104026020016040519081016040528093929190818152602001838380828437820191505050505050919291929050505061404c565b604051808215151515815260200191505060405180910390f35b34801561113c57600080fd5b506112a7600480360381019080803573ffffffffffffffffffffffffffffffffffffffff16906020019092919080359060200190929190803590602001908201803590602001908080601f016020809104026020016040519081016040528093929190818152602001838380828437820191505050505050919291929080359060200190929190803590602001908201803590602001908080601f016020809104026020016040519081016040528093929190818152602001838380828437820191505050505050919291929080359060200190929190803590602001908201803590602001908080601f0160208091040260200160405190810160405280939291908181526020018383808284378201915050505050509192919290803590602001908201803590602001908080601f016020809104026020016040519081016040528093929190818152602001838380828437820191505050505050919291929050505061479d565b604051808215151515815260200191505060405180910390f35b3480156112cd57600080fd5b506112d6614f77565b604051808273ffffffffffffffffffffffffffffffffffffffff1673ffffffffffffffffffffffffffffffffffffffff16815260200191505060405180910390f35b34801561132457600080fd5b50611359600480360381019080803573ffffffffffffffffffffffffffffffffffffffff169060200190929190505050614f9c565b60405180806020018060200180602001848103845287818151815260200191508051906020019080838360005b838110156113a1578082015181840152602081019050611386565b50505050905090810190601f1680156113ce5780820380516001836020036101000a031916815260200191505b50848103835286818151815260200191508051906020019080838360005b838110156114075780820151818401526020810190506113ec565b50505050905090810190601f1680156114345780820380516001836020036101000a031916815260200191505b50848103825285818151815260200191508051906020019080838360005b8381101561146d578082015181840152602081019050611452565b50505050905090810190601f16801561149a5780820380516001836020036101000a031916815260200191505b50965050505050505060405180910390f35b3480156114b857600080fd5b506115bf600480360381019080803573ffffffffffffffffffffffffffffffffffffffff169060200190929190803590602001908201803590602001908080601f0160208091040260200160405190810160405280939291908181526020018383808284378201915050505050509192919290803590602001908201803590602001908080601f0160208091040260200160405190810160405280939291908181526020018383808284378201915050505050509192919290803590602001908201803590602001908080601f01602080910402602001604051908101604052809392919081815260200183838082843782019150505050505091929192905050506151a9565b604051808215151515815260200191505060405180910390f35b3480156115e557600080fd5b5061161a600480360381019080803573ffffffffffffffffffffffffffffffffffffffff1690602001909291905050506158fa565b005b34801561162857600080fd5b50611761600480360381019080803590602001908201803590602001908080601f0160208091040260200160405190810160405280939291908181526020018383808284378201915050505050509192919290803590602001908201803590602001908080601f0160208091040260200160405190810160405280939291908181526020018383808284378201915050505050509192919290803590602001908201803590602001908080601f0160208091040260200160405190810160405280939291908181526020018383808284378201915050505050509192919290803515159060200190929190803590602001908201803590602001908080601f0160208091040260200160405190810160405280939291908181526020018383808284378201915050505050509192919290505050615a4f565b604051808215151515815260200191505060405180910390f35b34801561178757600080fd5b506117bc600480360381019080803573ffffffffffffffffffffffffffffffffffffffff16906020019092919050505061600e565b60405180898152602001806020018060200188815260200180602001806020018060200187815260200186810386528d818151815260200191508051906020019080838360005b8381101561181e578082015181840152602081019050611803565b50505050905090810190601f16801561184b5780820380516001836020036101000a031916815260200191505b5086810385528c818151815260200191508051906020019080838360005b83811015611884578082015181840152602081019050611869565b50505050905090810190601f1680156118b15780820380516001836020036101000a031916815260200191505b5086810384528a818151815260200191508051906020019080838360005b838110156118ea5780820151818401526020810190506118cf565b50505050905090810190601f1680156119175780820380516001836020036101000a031916815260200191505b50868103835289818151815260200191508051906020019080838360005b83811015611950578082015181840152602081019050611935565b50505050905090810190601f16801561197d5780820380516001836020036101000a031916815260200191505b50868103825288818151815260200191508051906020019080838360005b838110156119b657808201518184015260208101905061199b565b50505050905090810190601f1680156119e35780820380516001836020036101000a031916815260200191505b509d505050505050505050505050505060405180910390f35b600080896040805190810160405280600881526020017f494d504f52544552000000000000000000000000000000000000000000000000815250806040518082805190602001908083835b602083101515611a6c5780518252602082019150602081019050602083039250611a47565b6001836020036101000a038019825116818451168082178552505050505050905001915050604051809103902060001916600160009054906101000a900473ffffffffffffffffffffffffffffffffffffffff1673ffffffffffffffffffffffffffffffffffffffff166327820851336040518263ffffffff167c0100000000000000000000000000000000000000000000000000000000028152600401808273ffffffffffffffffffffffffffffffffffffffff1673ffffffffffffffffffffffffffffffffffffffff168152602001915050600060405180830381600087803b158015611b5a57600080fd5b505af1158015611b6e573d6000803e3d6000fd5b505050506040513d6000823e3d601f19601f820116820180604052506020811015611b9857600080fd5b810190808051640100000000811115611bb057600080fd5b82810190506020810184811115611bc657600080fd5b8151856001820283011164010000000082111715611be357600080fd5b50509291905050506040518082805190602001908083835b602083101515611c205780518252602082019150602081019050602083039250611bfb565b6001836020036101000a038019825116818451168082178552505050505050905001915050604051809103902060001916141515611c5d57600080fd5b806040518082805190602001908083835b602083101515611c935780518252602082019150602081019050602083039250611c6e565b6001836020036101000a038019825116818451168082178552505050505050905001915050604051809103902060001916600160009054906101000a900473ffffffffffffffffffffffffffffffffffffffff1673ffffffffffffffffffffffffffffffffffffffff16634d6b5e00846040518263ffffffff167c0100000000000000000000000000000000000000000000000000000000028152600401808273ffffffffffffffffffffffffffffffffffffffff1673ffffffffffffffffffffffffffffffffffffffff168152602001915050600060405180830381600087803b158015611d8157600080fd5b505af1158015611d95573d6000803e3d6000fd5b505050506040513d6000823e3d601f19601f820116820180604052506020811015611dbf57600080fd5b810190808051640100000000811115611dd757600080fd5b82810190506020810184811115611ded57600080fd5b8151856001820283011164010000000082111715611e0a57600080fd5b50509291905050506040518082805190602001908083835b602083101515611e475780518252602082019150602081019050602083039250611e22565b6001836020036101000a038019825116818451168082178552505050505050905001915050604051809103902060001916141515611e8457600080fd5b600160009054906101000a900473ffffffffffffffffffffffffffffffffffffffff1673ffffffffffffffffffffffffffffffffffffffff16636115eec28d8d8d8d8d8d8d8d6040518963ffffffff167c0100000000000000000000000000000000000000000000000000000000028152600401808973ffffffffffffffffffffffffffffffffffffffff1673ffffffffffffffffffffffffffffffffffffffff168152602001888152602001806020018060200180602001806020018060200187815260200186810386528c818151815260200191508051906020019080838360005b83811015611f83578082015181840152602081019050611f68565b50505050905090810190601f168015611fb05780820380516001836020036101000a031916815260200191505b5086810385528b818151815260200191508051906020019080838360005b83811015611fe9578082015181840152602081019050611fce565b50505050905090810190601f1680156120165780820380516001836020036101000a031916815260200191505b5086810384528a818151815260200191508051906020019080838360005b8381101561204f578082015181840152602081019050612034565b50505050905090810190601f16801561207c5780820380516001836020036101000a031916815260200191505b50868103835289818151815260200191508051906020019080838360005b838110156120b557808201518184015260208101905061209a565b50505050905090810190601f1680156120e25780820380516001836020036101000a031916815260200191505b50868103825288818151815260200191508051906020019080838360005b8381101561211b578082015181840152602081019050612100565b50505050905090810190601f1680156121485780820380516001836020036101000a031916815260200191505b509d5050505050505050505050505050602060405180830381600087803b15801561217257600080fd5b505af1158015612186573d6000803e3d6000fd5b505050506040513d602081101561219c57600080fd5b810190808051906020019092919050505092503373ffffffffffffffffffffffffffffffffffffffff167fd42f803be1969ed3d7fe76e90571304a3e70f2f32b20773cbc303eff548cb05f8d604051808273ffffffffffffffffffffffffffffffffffffffff1673ffffffffffffffffffffffffffffffffffffffff16815260200191505060405180910390a282935050505098975050505050505050565b600080896040805190810160405280600881526020017f4558504f52544552000000000000000000000000000000000000000000000000815250806040518082805190602001908083835b6020831015156122ab5780518252602082019150602081019050602083039250612286565b6001836020036101000a038019825116818451168082178552505050505050905001915050604051809103902060001916600160009054906101000a900473ffffffffffffffffffffffffffffffffffffffff1673ffffffffffffffffffffffffffffffffffffffff166327820851336040518263ffffffff167c0100000000000000000000000000000000000000000000000000000000028152600401808273ffffffffffffffffffffffffffffffffffffffff1673ffffffffffffffffffffffffffffffffffffffff168152602001915050600060405180830381600087803b15801561239957600080fd5b505af11580156123ad573d6000803e3d6000fd5b505050506040513d6000823e3d601f19601f8201168201806040525060208110156123d757600080fd5b8101908080516401000000008111156123ef57600080fd5b8281019050602081018481111561240557600080fd5b815185600182028301116401000000008211171561242257600080fd5b50509291905050506040518082805190602001908083835b60208310151561245f578051825260208201915060208101905060208303925061243a565b6001836020036101000a03801982511681845116808217855250505050505090500191505060405180910390206000191614151561249c57600080fd5b806040518082805190602001908083835b6020831015156124d257805182526020820191506020810190506020830392506124ad565b6001836020036101000a038019825116818451168082178552505050505050905001915050604051809103902060001916600160009054906101000a900473ffffffffffffffffffffffffffffffffffffffff1673ffffffffffffffffffffffffffffffffffffffff16634d6b5e00846040518263ffffffff167c0100000000000000000000000000000000000000000000000000000000028152600401808273ffffffffffffffffffffffffffffffffffffffff1673ffffffffffffffffffffffffffffffffffffffff168152602001915050600060405180830381600087803b1580156125c057600080fd5b505af11580156125d4573d6000803e3d6000fd5b505050506040513d6000823e3d601f19601f8201168201806040525060208110156125fe57600080fd5b81019080805164010000000081111561261657600080fd5b8281019050602081018481111561262c57600080fd5b815185600182028301116401000000008211171561264957600080fd5b50509291905050506040518082805190602001908083835b6020831015156126865780518252602082019150602081019050602083039250612661565b6001836020036101000a0380198251168184511680821785525050505050509050019150506040518091039020600019161415156126c357600080fd5b600160009054906101000a900473ffffffffffffffffffffffffffffffffffffffff1673ffffffffffffffffffffffffffffffffffffffff1663c36de9668d8d8d8d8d8d8d8d6040518963ffffffff167c0100000000000000000000000000000000000000000000000000000000028152600401808973ffffffffffffffffffffffffffffffffffffffff1673ffffffffffffffffffffffffffffffffffffffff16815260200188815260200180602001806020018060200187815260200186815260200185815260200184810384528a818151815260200191508051906020019080838360005b838110156127c65780820151818401526020810190506127ab565b50505050905090810190601f1680156127f35780820380516001836020036101000a031916815260200191505b50848103835289818151815260200191508051906020019080838360005b8381101561282c578082015181840152602081019050612811565b50505050905090810190601f1680156128595780820380516001836020036101000a031916815260200191505b50848103825288818151815260200191508051906020019080838360005b83811015612892578082015181840152602081019050612877565b50505050905090810190601f1680156128bf5780820380516001836020036101000a031916815260200191505b509b505050505050505050505050602060405180830381600087803b1580156128e757600080fd5b505af11580156128fb573d6000803e3d6000fd5b505050506040513d602081101561291157600080fd5b810190808051906020019092919050505092503373ffffffffffffffffffffffffffffffffffffffff167feaba9e3c271bb82a9fd28bf677c9ee9b7a261f8ac7340051834c654f445e7db88d604051808273ffffffffffffffffffffffffffffffffffffffff1673ffffffffffffffffffffffffffffffffffffffff16815260200191505060405180910390a282935050505098975050505050505050565b60006060806060600080600080600160009054906101000a900473ffffffffffffffffffffffffffffffffffffffff1673ffffffffffffffffffffffffffffffffffffffff166306ecd6d48a6040518263ffffffff167c0100000000000000000000000000000000000000000000000000000000028152600401808273ffffffffffffffffffffffffffffffffffffffff1673ffffffffffffffffffffffffffffffffffffffff168152602001915050600060405180830381600087803b158015612a7a57600080fd5b505af1158015612a8e573d6000803e3d6000fd5b505050506040513d6000823e3d601f19601f82011682018060405250610100811015612ab957600080fd5b81019080805190602001909291908051640100000000811115612adb57600080fd5b82810190506020810184811115612af157600080fd5b8151856001820283011164010000000082111715612b0e57600080fd5b50509291906020018051640100000000811115612b2a57600080fd5b82810190506020810184811115612b4057600080fd5b8151856001820283011164010000000082111715612b5d57600080fd5b50509291906020018051640100000000811115612b7957600080fd5b82810190506020810184811115612b8f57600080fd5b8151856001820283011164010000000082111715612bac57600080fd5b505092919060200180519060200190929190805190602001909291908051906020019092919080519060200190929190505050809850819950829a50839b50849c50859d50869e50879f505050505050505050878787878787878797509750975097509750975097509750919395975091939597565b6000806000809054906101000a900473ffffffffffffffffffffffffffffffffffffffff1673ffffffffffffffffffffffffffffffffffffffff163373ffffffffffffffffffffffffffffffffffffffff16141515612c8057600080fd5b600073ffffffffffffffffffffffffffffffffffffffff168873ffffffffffffffffffffffffffffffffffffffff1614151515612cbc57600080fd5b600160009054906101000a900473ffffffffffffffffffffffffffffffffffffffff1673ffffffffffffffffffffffffffffffffffffffff1663fb7a20af8989898989896040518763ffffffff167c0100000000000000000000000000000000000000000000000000000000028152600401808773ffffffffffffffffffffffffffffffffffffffff1673ffffffffffffffffffffffffffffffffffffffff168152602001806020018060200180602001861515151581526020018060200185810385528a818151815260200191508051906020019080838360005b83811015612db3578082015181840152602081019050612d98565b50505050905090810190601f168015612de05780820380516001836020036101000a031916815260200191505b50858103845289818151815260200191508051906020019080838360005b83811015612e19578082015181840152602081019050612dfe565b50505050905090810190601f168015612e465780820380516001836020036101000a031916815260200191505b50858103835288818151815260200191508051906020019080838360005b83811015612e7f578082015181840152602081019050612e64565b50505050905090810190601f168015612eac5780820380516001836020036101000a031916815260200191505b50858103825286818151815260200191508051906020019080838360005b83811015612ee5578082015181840152602081019050612eca565b50505050905090810190601f168015612f125780820380516001836020036101000a031916815260200191505b509a5050505050505050505050602060405180830381600087803b158015612f3957600080fd5b505af1158015612f4d573d6000803e3d6000fd5b505050506040513d6020811015612f6357600080fd5b810190808051906020019092919050505090508773ffffffffffffffffffffffffffffffffffffffff167f913673700610456ef7bb668e20badb980d1e4df0ba5bfbdbb6e7bfb0ddbcc6c9888888888860405180806020018060200180602001861515151581526020018060200185810385528a818151815260200191508051906020019080838360005b83811015613009578082015181840152602081019050612fee565b50505050905090810190601f1680156130365780820380516001836020036101000a031916815260200191505b50858103845289818151815260200191508051906020019080838360005b8381101561306f578082015181840152602081019050613054565b50505050905090810190601f16801561309c5780820380516001836020036101000a031916815260200191505b50858103835288818151815260200191508051906020019080838360005b838110156130d55780820151818401526020810190506130ba565b50505050905090810190601f1680156131025780820380516001836020036101000a031916815260200191505b50858103825286818151815260200191508051906020019080838360005b8381101561313b578082015181840152602081019050613120565b50505050905090810190601f1680156131685780820380516001836020036101000a031916815260200191505b50995050505050505050505060405180910390a28773ffffffffffffffffffffffffffffffffffffffff167f3b419384c2ac88d62e2daac72f8c6e6398c474d91c63e814a307e3641762c8de866040518080602001828103825283818151815260200191508051906020019080838360005b838110156131f55780820151818401526020810190506131da565b50505050905090810190601f1680156132225780820380516001836020036101000a031916815260200191505b509250505060405180910390a2809150509695505050505050565b60006060600060606000606080600160009054906101000a900473ffffffffffffffffffffffffffffffffffffffff1673ffffffffffffffffffffffffffffffffffffffff1663317bc7ab896040518263ffffffff167c0100000000000000000000000000000000000000000000000000000000028152600401808273ffffffffffffffffffffffffffffffffffffffff1673ffffffffffffffffffffffffffffffffffffffff168152602001915050600060405180830381600087803b15801561330757600080fd5b505af115801561331b573d6000803e3d6000fd5b505050506040513d6000823e3d601f19601f8201168201806040525060e081101561334557600080fd5b8101908080519060200190929190805164010000000081111561336757600080fd5b8281019050602081018481111561337d57600080fd5b815185600182028301116401000000008211171561339a57600080fd5b50509291906020018051906020019092919080516401000000008111156133c057600080fd5b828101905060208101848111156133d657600080fd5b81518560018202830111640100000000821117156133f357600080fd5b505092919060200180519060200190929190805164010000000081111561341957600080fd5b8281019050602081018481111561342f57600080fd5b815185600182028301116401000000008211171561344c57600080fd5b5050929190602001805164010000000081111561346857600080fd5b8281019050602081018481111561347e57600080fd5b815185600182028301116401000000008211171561349b57600080fd5b5050929190505050809750819850829950839a50849b50859c50869d5050505050505050868686868686869650965096509650965096509650919395979092949650565b60008060009054906101000a900473ffffffffffffffffffffffffffffffffffffffff1673ffffffffffffffffffffffffffffffffffffffff163373ffffffffffffffffffffffffffffffffffffffff1614151561353c57600080fd5b600260009054906101000a900473ffffffffffffffffffffffffffffffffffffffff16905090565b6000806000809054906101000a900473ffffffffffffffffffffffffffffffffffffffff1673ffffffffffffffffffffffffffffffffffffffff163373ffffffffffffffffffffffffffffffffffffffff161415156135c257600080fd5b600160009054906101000a900473ffffffffffffffffffffffffffffffffffffffff1673ffffffffffffffffffffffffffffffffffffffff1663cf37467488888888886040518663ffffffff167c010000000000000000000000000000000000000000000000000000000002815260040180806020018060200180602001806020018060200186810386528b818151815260200191508051906020019080838360005b83811015613680578082015181840152602081019050613665565b50505050905090810190601f1680156136ad5780820380516001836020036101000a031916815260200191505b5086810385528a818151815260200191508051906020019080838360005b838110156136e65780820151818401526020810190506136cb565b50505050905090810190601f1680156137135780820380516001836020036101000a031916815260200191505b50868103845289818151815260200191508051906020019080838360005b8381101561374c578082015181840152602081019050613731565b50505050905090810190601f1680156137795780820380516001836020036101000a031916815260200191505b50868103835288818151815260200191508051906020019080838360005b838110156137b2578082015181840152602081019050613797565b50505050905090810190601f1680156137df5780820380516001836020036101000a031916815260200191505b50868103825287818151815260200191508051906020019080838360005b838110156138185780820151818401526020810190506137fd565b50505050905090810190601f1680156138455780820380516001836020036101000a031916815260200191505b509a5050505050505050505050602060405180830381600087803b15801561386c57600080fd5b505af1158015613880573d6000803e3d6000fd5b505050506040513d602081101561389657600080fd5b810190808051906020019092919050505090503373ffffffffffffffffffffffffffffffffffffffff167ffb0cd0976d848f2ad8c4a6963c1295c96186b2f3919c8204b4fcb350fc36a31f82604051808273ffffffffffffffffffffffffffffffffffffffff1673ffffffffffffffffffffffffffffffffffffffff16815260200191505060405180910390a28091505095945050505050565b6060600160009054906101000a900473ffffffffffffffffffffffffffffffffffffffff1673ffffffffffffffffffffffffffffffffffffffff16634d6b5e00836040518263ffffffff167c0100000000000000000000000000000000000000000000000000000000028152600401808273ffffffffffffffffffffffffffffffffffffffff1673ffffffffffffffffffffffffffffffffffffffff168152602001915050600060405180830381600087803b1580156139ef57600080fd5b505af1158015613a03573d6000803e3d6000fd5b505050506040513d6000823e3d601f19601f820116820180604052506020811015613a2d57600080fd5b810190808051640100000000811115613a4557600080fd5b82810190506020810184811115613a5b57600080fd5b8151856001820283011164010000000082111715613a7857600080fd5b50509291905050509050919050565b606080606060006060600073ffffffffffffffffffffffffffffffffffffffff168673ffffffffffffffffffffffffffffffffffffffff1614151515613acc57600080fd5b600160009054906101000a900473ffffffffffffffffffffffffffffffffffffffff1673ffffffffffffffffffffffffffffffffffffffff16636f77926b876040518263ffffffff167c0100000000000000000000000000000000000000000000000000000000028152600401808273ffffffffffffffffffffffffffffffffffffffff1673ffffffffffffffffffffffffffffffffffffffff168152602001915050600060405180830381600087803b158015613b8957600080fd5b505af1158015613b9d573d6000803e3d6000fd5b505050506040513d6000823e3d601f19601f8201168201806040525060a0811015613bc757600080fd5b810190808051640100000000811115613bdf57600080fd5b82810190506020810184811115613bf557600080fd5b8151856001820283011164010000000082111715613c1257600080fd5b50509291906020018051640100000000811115613c2e57600080fd5b82810190506020810184811115613c4457600080fd5b8151856001820283011164010000000082111715613c6157600080fd5b50509291906020018051640100000000811115613c7d57600080fd5b82810190506020810184811115613c9357600080fd5b8151856001820283011164010000000082111715613cb057600080fd5b5050929190602001805190602001909291908051640100000000811115613cd657600080fd5b82810190506020810184811115613cec57600080fd5b8151856001820283011164010000000082111715613d0957600080fd5b5050929190505050809550819650829750839850849950505050505084848484849450945094509450945091939590929450565b6000809054906101000a900473ffffffffffffffffffffffffffffffffffffffff1673ffffffffffffffffffffffffffffffffffffffff163373ffffffffffffffffffffffffffffffffffffffff16141515613d9857600080fd5b6000809054906101000a900473ffffffffffffffffffffffffffffffffffffffff1673ffffffffffffffffffffffffffffffffffffffff167ff8df31144d9c2f0f6b59d69b8b98abd5459d07f2742c4df920b25aae33c6482060405160405180910390a260008060006101000a81548173ffffffffffffffffffffffffffffffffffffffff021916908373ffffffffffffffffffffffffffffffffffffffff160217905550565b6060806060600160009054906101000a900473ffffffffffffffffffffffffffffffffffffffff1673ffffffffffffffffffffffffffffffffffffffff16637f89e94b856040518263ffffffff167c0100000000000000000000000000000000000000000000000000000000028152600401808273ffffffffffffffffffffffffffffffffffffffff1673ffffffffffffffffffffffffffffffffffffffff168152602001915050600060405180830381600087803b158015613f0157600080fd5b505af1158015613f15573d6000803e3d6000fd5b505050506040513d6000823e3d601f19601f820116820180604052506060811015613f3f57600080fd5b810190808051640100000000811115613f5757600080fd5b82810190506020810184811115613f6d57600080fd5b8151856001820283011164010000000082111715613f8a57600080fd5b50509291906020018051640100000000811115613fa657600080fd5b82810190506020810184811115613fbc57600080fd5b8151856001820283011164010000000082111715613fd957600080fd5b50509291906020018051640100000000811115613ff557600080fd5b8281019050602081018481111561400b57600080fd5b815185600182028301116401000000008211171561402857600080fd5b50509291905050508093508194508295505050508282829250925092509193909250565b600080856040805190810160405280600f81526020017f4641524d5f494e5350454354494f4e0000000000000000000000000000000000815250806040518082805190602001908083835b6020831015156140bc5780518252602082019150602081019050602083039250614097565b6001836020036101000a038019825116818451168082178552505050505050905001915050604051809103902060001916600160009054906101000a900473ffffffffffffffffffffffffffffffffffffffff1673ffffffffffffffffffffffffffffffffffffffff166327820851336040518263ffffffff167c0100000000000000000000000000000000000000000000000000000000028152600401808273ffffffffffffffffffffffffffffffffffffffff1673ffffffffffffffffffffffffffffffffffffffff168152602001915050600060405180830381600087803b1580156141aa57600080fd5b505af11580156141be573d6000803e3d6000fd5b505050506040513d6000823e3d601f19601f8201168201806040525060208110156141e857600080fd5b81019080805164010000000081111561420057600080fd5b8281019050602081018481111561421657600080fd5b815185600182028301116401000000008211171561423357600080fd5b50509291905050506040518082805190602001908083835b602083101515614270578051825260208201915060208101905060208303925061424b565b6001836020036101000a0380198251168184511680821785525050505050509050019150506040518091039020600019161415156142ad57600080fd5b806040518082805190602001908083835b6020831015156142e357805182526020820191506020810190506020830392506142be565b6001836020036101000a038019825116818451168082178552505050505050905001915050604051809103902060001916600160009054906101000a900473ffffffffffffffffffffffffffffffffffffffff1673ffffffffffffffffffffffffffffffffffffffff16634d6b5e00846040518263ffffffff167c0100000000000000000000000000000000000000000000000000000000028152600401808273ffffffffffffffffffffffffffffffffffffffff1673ffffffffffffffffffffffffffffffffffffffff168152602001915050600060405180830381600087803b1580156143d157600080fd5b505af11580156143e5573d6000803e3d6000fd5b505050506040513d6000823e3d601f19601f82011682018060405250602081101561440f57600080fd5b81019080805164010000000081111561442757600080fd5b8281019050602081018481111561443d57600080fd5b815185600182028301116401000000008211171561445a57600080fd5b50509291905050506040518082805190602001908083835b6020831015156144975780518252602082019150602081019050602083039250614472565b6001836020036101000a0380198251168184511680821785525050505050509050019150506040518091039020600019161415156144d457600080fd5b600160009054906101000a900473ffffffffffffffffffffffffffffffffffffffff1673ffffffffffffffffffffffffffffffffffffffff16631dbcddf4898989896040518563ffffffff167c0100000000000000000000000000000000000000000000000000000000028152600401808573ffffffffffffffffffffffffffffffffffffffff1673ffffffffffffffffffffffffffffffffffffffff168152602001806020018060200180602001848103845287818151815260200191508051906020019080838360005b838110156145bb5780820151818401526020810190506145a0565b50505050905090810190601f1680156145e85780820380516001836020036101000a031916815260200191505b50848103835286818151815260200191508051906020019080838360005b83811015614621578082015181840152602081019050614606565b50505050905090810190601f16801561464e5780820380516001836020036101000a031916815260200191505b50848103825285818151815260200191508051906020019080838360005b8381101561468757808201518184015260208101905061466c565b50505050905090810190601f1680156146b45780820380516001836020036101000a031916815260200191505b50975050505050505050602060405180830381600087803b1580156146d857600080fd5b505af11580156146ec573d6000803e3d6000fd5b505050506040513d602081101561470257600080fd5b810190808051906020019092919050505092503373ffffffffffffffffffffffffffffffffffffffff167ff38048a8487a9352f87561aa442e92de7d09d55718b8bfc9b16720ea061c35c789604051808273ffffffffffffffffffffffffffffffffffffffff1673ffffffffffffffffffffffffffffffffffffffff16815260200191505060405180910390a2829350505050949350505050565b600080896040805190810160405280600981526020017f50524f434553534f520000000000000000000000000000000000000000000000815250806040518082805190602001908083835b60208310151561480d57805182526020820191506020810190506020830392506147e8565b6001836020036101000a038019825116818451168082178552505050505050905001915050604051809103902060001916600160009054906101000a900473ffffffffffffffffffffffffffffffffffffffff1673ffffffffffffffffffffffffffffffffffffffff166327820851336040518263ffffffff167c0100000000000000000000000000000000000000000000000000000000028152600401808273ffffffffffffffffffffffffffffffffffffffff1673ffffffffffffffffffffffffffffffffffffffff168152602001915050600060405180830381600087803b1580156148fb57600080fd5b505af115801561490f573d6000803e3d6000fd5b505050506040513d6000823e3d601f19601f82011682018060405250602081101561493957600080fd5b81019080805164010000000081111561495157600080fd5b8281019050602081018481111561496757600080fd5b815185600182028301116401000000008211171561498457600080fd5b50509291905050506040518082805190602001908083835b6020831015156149c1578051825260208201915060208101905060208303925061499c565b6001836020036101000a0380198251168184511680821785525050505050509050019150506040518091039020600019161415156149fe57600080fd5b806040518082805190602001908083835b602083101515614a345780518252602082019150602081019050602083039250614a0f565b6001836020036101000a038019825116818451168082178552505050505050905001915050604051809103902060001916600160009054906101000a900473ffffffffffffffffffffffffffffffffffffffff1673ffffffffffffffffffffffffffffffffffffffff16634d6b5e00846040518263ffffffff167c0100000000000000000000000000000000000000000000000000000000028152600401808273ffffffffffffffffffffffffffffffffffffffff1673ffffffffffffffffffffffffffffffffffffffff168152602001915050600060405180830381600087803b158015614b2257600080fd5b505af1158015614b36573d6000803e3d6000fd5b505050506040513d6000823e3d601f19601f820116820180604052506020811015614b6057600080fd5b810190808051640100000000811115614b7857600080fd5b82810190506020810184811115614b8e57600080fd5b8151856001820283011164010000000082111715614bab57600080fd5b50509291905050506040518082805190602001908083835b602083101515614be85780518252602082019150602081019050602083039250614bc3565b6001836020036101000a038019825116818451168082178552505050505050905001915050604051809103902060001916141515614c2557600080fd5b600160009054906101000a900473ffffffffffffffffffffffffffffffffffffffff1673ffffffffffffffffffffffffffffffffffffffff166353a7571f8d8d8d8d8d8d8d8d6040518963ffffffff167c0100000000000000000000000000000000000000000000000000000000028152600401808973ffffffffffffffffffffffffffffffffffffffff1673ffffffffffffffffffffffffffffffffffffffff1681526020018881526020018060200187815260200180602001868152602001806020018060200185810385528b818151815260200191508051906020019080838360005b83811015614d26578082015181840152602081019050614d0b565b50505050905090810190601f168015614d535780820380516001836020036101000a031916815260200191505b50858103845289818151815260200191508051906020019080838360005b83811015614d8c578082015181840152602081019050614d71565b50505050905090810190601f168015614db95780820380516001836020036101000a031916815260200191505b50858103835287818151815260200191508051906020019080838360005b83811015614df2578082015181840152602081019050614dd7565b50505050905090810190601f168015614e1f5780820380516001836020036101000a031916815260200191505b50858103825286818151815260200191508051906020019080838360005b83811015614e58578082015181840152602081019050614e3d565b50505050905090810190601f168015614e855780820380516001836020036101000a031916815260200191505b509c50505050505050505050505050602060405180830381600087803b158015614eae57600080fd5b505af1158015614ec2573d6000803e3d6000fd5b505050506040513d6020811015614ed857600080fd5b810190808051906020019092919050505092503373ffffffffffffffffffffffffffffffffffffffff167fe10398ac963823ae3dc8fc855773d4c9c3d53c5aca656e360a2a5c2ae659f2618d604051808273ffffffffffffffffffffffffffffffffffffffff1673ffffffffffffffffffffffffffffffffffffffff16815260200191505060405180910390a282935050505098975050505050505050565b6000809054906101000a900473ffffffffffffffffffffffffffffffffffffffff1681565b6060806060600160009054906101000a900473ffffffffffffffffffffffffffffffffffffffff1673ffffffffffffffffffffffffffffffffffffffff1663ca5322e5856040518263ffffffff167c0100000000000000000000000000000000000000000000000000000000028152600401808273ffffffffffffffffffffffffffffffffffffffff1673ffffffffffffffffffffffffffffffffffffffff168152602001915050600060405180830381600087803b15801561505e57600080fd5b505af1158015615072573d6000803e3d6000fd5b505050506040513d6000823e3d601f19601f82011682018060405250606081101561509c57600080fd5b8101908080516401000000008111156150b457600080fd5b828101905060208101848111156150ca57600080fd5b81518560018202830111640100000000821117156150e757600080fd5b5050929190602001805164010000000081111561510357600080fd5b8281019050602081018481111561511957600080fd5b815185600182028301116401000000008211171561513657600080fd5b5050929190602001805164010000000081111561515257600080fd5b8281019050602081018481111561516857600080fd5b815185600182028301116401000000008211171561518557600080fd5b50509291905050508093508194508295505050508282829250925092509193909250565b600080856040805190810160405280600981526020017f4841525645535445520000000000000000000000000000000000000000000000815250806040518082805190602001908083835b60208310151561521957805182526020820191506020810190506020830392506151f4565b6001836020036101000a038019825116818451168082178552505050505050905001915050604051809103902060001916600160009054906101000a900473ffffffffffffffffffffffffffffffffffffffff1673ffffffffffffffffffffffffffffffffffffffff166327820851336040518263ffffffff167c0100000000000000000000000000000000000000000000000000000000028152600401808273ffffffffffffffffffffffffffffffffffffffff1673ffffffffffffffffffffffffffffffffffffffff168152602001915050600060405180830381600087803b15801561530757600080fd5b505af115801561531b573d6000803e3d6000fd5b505050506040513d6000823e3d601f19601f82011682018060405250602081101561534557600080fd5b81019080805164010000000081111561535d57600080fd5b8281019050602081018481111561537357600080fd5b815185600182028301116401000000008211171561539057600080fd5b50509291905050506040518082805190602001908083835b6020831015156153cd57805182526020820191506020810190506020830392506153a8565b6001836020036101000a03801982511681845116808217855250505050505090500191505060405180910390206000191614151561540a57600080fd5b806040518082805190602001908083835b602083101515615440578051825260208201915060208101905060208303925061541b565b6001836020036101000a038019825116818451168082178552505050505050905001915050604051809103902060001916600160009054906101000a900473ffffffffffffffffffffffffffffffffffffffff1673ffffffffffffffffffffffffffffffffffffffff16634d6b5e00846040518263ffffffff167c0100000000000000000000000000000000000000000000000000000000028152600401808273ffffffffffffffffffffffffffffffffffffffff1673ffffffffffffffffffffffffffffffffffffffff168152602001915050600060405180830381600087803b15801561552e57600080fd5b505af1158015615542573d6000803e3d6000fd5b505050506040513d6000823e3d601f19601f82011682018060405250602081101561556c57600080fd5b81019080805164010000000081111561558457600080fd5b8281019050602081018481111561559a57600080fd5b81518560018202830111640100000000821117156155b757600080fd5b50509291905050506040518082805190602001908083835b6020831015156155f457805182526020820191506020810190506020830392506155cf565b6001836020036101000a03801982511681845116808217855250505050505090500191505060405180910390206000191614151561563157600080fd5b600160009054906101000a900473ffffffffffffffffffffffffffffffffffffffff1673ffffffffffffffffffffffffffffffffffffffff16630ab36749898989896040518563ffffffff167c0100000000000000000000000000000000000000000000000000000000028152600401808573ffffffffffffffffffffffffffffffffffffffff1673ffffffffffffffffffffffffffffffffffffffff168152602001806020018060200180602001848103845287818151815260200191508051906020019080838360005b838110156157185780820151818401526020810190506156fd565b50505050905090810190601f1680156157455780820380516001836020036101000a031916815260200191505b50848103835286818151815260200191508051906020019080838360005b8381101561577e578082015181840152602081019050615763565b50505050905090810190601f1680156157ab5780820380516001836020036101000a031916815260200191505b50848103825285818151815260200191508051906020019080838360005b838110156157e45780820151818401526020810190506157c9565b50505050905090810190601f1680156158115780820380516001836020036101000a031916815260200191505b50975050505050505050602060405180830381600087803b15801561583557600080fd5b505af1158015615849573d6000803e3d6000fd5b505050506040513d602081101561585f57600080fd5b810190808051906020019092919050505092503373ffffffffffffffffffffffffffffffffffffffff167fbb868668319b351e6f49e0d6ed1618eda15ffe73f6f6f371e419b8d3963a6be589604051808273ffffffffffffffffffffffffffffffffffffffff1673ffffffffffffffffffffffffffffffffffffffff16815260200191505060405180910390a2829350505050949350505050565b6000809054906101000a900473ffffffffffffffffffffffffffffffffffffffff1673ffffffffffffffffffffffffffffffffffffffff163373ffffffffffffffffffffffffffffffffffffffff1614151561595557600080fd5b600073ffffffffffffffffffffffffffffffffffffffff168173ffffffffffffffffffffffffffffffffffffffff161415151561599157600080fd5b8073ffffffffffffffffffffffffffffffffffffffff166000809054906101000a900473ffffffffffffffffffffffffffffffffffffffff1673ffffffffffffffffffffffffffffffffffffffff167f8be0079c531659141344cd1fd0a4f28419497f9722a3daafe3b4186f6b6457e060405160405180910390a3806000806101000a81548173ffffffffffffffffffffffffffffffffffffffff021916908373ffffffffffffffffffffffffffffffffffffffff16021790555050565b600080600073ffffffffffffffffffffffffffffffffffffffff163373ffffffffffffffffffffffffffffffffffffffff1614151515615a8e57600080fd5b600160009054906101000a900473ffffffffffffffffffffffffffffffffffffffff1673ffffffffffffffffffffffffffffffffffffffff1663fb7a20af3389898989896040518763ffffffff167c0100000000000000000000000000000000000000000000000000000000028152600401808773ffffffffffffffffffffffffffffffffffffffff1673ffffffffffffffffffffffffffffffffffffffff168152602001806020018060200180602001861515151581526020018060200185810385528a818151815260200191508051906020019080838360005b83811015615b85578082015181840152602081019050615b6a565b50505050905090810190601f168015615bb25780820380516001836020036101000a031916815260200191505b50858103845289818151815260200191508051906020019080838360005b83811015615beb578082015181840152602081019050615bd0565b50505050905090810190601f168015615c185780820380516001836020036101000a031916815260200191505b50858103835288818151815260200191508051906020019080838360005b83811015615c51578082015181840152602081019050615c36565b50505050905090810190601f168015615c7e5780820380516001836020036101000a031916815260200191505b50858103825286818151815260200191508051906020019080838360005b83811015615cb7578082015181840152602081019050615c9c565b50505050905090810190601f168015615ce45780820380516001836020036101000a031916815260200191505b509a5050505050505050505050602060405180830381600087803b158015615d0b57600080fd5b505af1158015615d1f573d6000803e3d6000fd5b505050506040513d6020811015615d3557600080fd5b810190808051906020019092919050505090503373ffffffffffffffffffffffffffffffffffffffff167f913673700610456ef7bb668e20badb980d1e4df0ba5bfbdbb6e7bfb0ddbcc6c9888888888860405180806020018060200180602001861515151581526020018060200185810385528a818151815260200191508051906020019080838360005b83811015615ddb578082015181840152602081019050615dc0565b50505050905090810190601f168015615e085780820380516001836020036101000a031916815260200191505b50858103845289818151815260200191508051906020019080838360005b83811015615e41578082015181840152602081019050615e26565b50505050905090810190601f168015615e6e5780820380516001836020036101000a031916815260200191505b50858103835288818151815260200191508051906020019080838360005b83811015615ea7578082015181840152602081019050615e8c565b50505050905090810190601f168015615ed45780820380516001836020036101000a031916815260200191505b50858103825286818151815260200191508051906020019080838360005b83811015615f0d578082015181840152602081019050615ef2565b50505050905090810190601f168015615f3a5780820380516001836020036101000a031916815260200191505b50995050505050505050505060405180910390a23373ffffffffffffffffffffffffffffffffffffffff167f3b419384c2ac88d62e2daac72f8c6e6398c474d91c63e814a307e3641762c8de866040518080602001828103825283818151815260200191508051906020019080838360005b83811015615fc7578082015181840152602081019050615fac565b50505050905090810190601f168015615ff45780820380516001836020036101000a031916815260200191505b509250505060405180910390a28091505095945050505050565b6000606080600060608060606000600160009054906101000a900473ffffffffffffffffffffffffffffffffffffffff1673ffffffffffffffffffffffffffffffffffffffff1663febd04928a6040518263ffffffff167c0100000000000000000000000000000000000000000000000000000000028152600401808273ffffffffffffffffffffffffffffffffffffffff1673ffffffffffffffffffffffffffffffffffffffff168152602001915050600060405180830381600087803b1580156160d957600080fd5b505af11580156160ed573d6000803e3d6000fd5b505050506040513d6000823e3d601f19601f8201168201806040525061010081101561611857600080fd5b8101908080519060200190929190805164010000000081111561613a57600080fd5b8281019050602081018481111561615057600080fd5b815185600182028301116401000000008211171561616d57600080fd5b5050929190602001805164010000000081111561618957600080fd5b8281019050602081018481111561619f57600080fd5b81518560018202830111640100000000821117156161bc57600080fd5b50509291906020018051906020019092919080516401000000008111156161e257600080fd5b828101905060208101848111156161f857600080fd5b815185600182028301116401000000008211171561621557600080fd5b5050929190602001805164010000000081111561623157600080fd5b8281019050602081018481111561624757600080fd5b815185600182028301116401000000008211171561626457600080fd5b5050929190602001805164010000000081111561628057600080fd5b8281019050602081018481111561629657600080fd5b81518560018202830111640100000000821117156162b357600080fd5b505092919060200180519060200190929190505050809850819950829a50839b50849c50859d50869e50879f5050505050505050508787878787878787975097509750975097509750975097509193959750919395975600a165627a7a723058201b7c4e123b188b73ad24251a2408bffb9e3d0c3bd05a8ed43fc29105ee4eee850029",
  "source": "pragma solidity ^0.4.23;\nimport \"./SupplyChainStorage.sol\";\nimport \"./Ownable.sol\";\n\ncontract CoffeeSupplyChain is Ownable\n{\n    /*Events*/\n    event UserUpdate(address indexed user, string name, string contactNo, string role, bool isActive, string profileHash);\n    event UserRoleUpdate(address indexed user, string role);\n    event PerformCultivation(address indexed user, address batchNo);\n    event DoneInspection(address indexed user, address batchNo);\n    event DoneHarvesting(address indexed user, address batchNo);\n    event DoneExporting(address indexed user, address batchNo);\n    event DoneImporting(address indexed user, address batchNo);\n    event DoneProcessing(address indexed user, address batchNo);\n    \n    /*Modifier*/\n    modifier isValidPerformer(address batchNo, string role) {\n    \n        require(keccak256(supplyChainStorage.getUserRole(msg.sender)) == keccak256(role));\n        require(keccak256(supplyChainStorage.getNextAction(batchNo)) == keccak256(role));\n        _;\n    }\n    \n    /* Storage Variables */    \n    SupplyChainStorage supplyChainStorage;\n    address supplyChainAddress; \n    \n    constructor(address _supplyChainAddress) public {\n        supplyChainStorage = SupplyChainStorage(_supplyChainAddress);\n        supplyChainAddress = _supplyChainAddress;\n    }\n    \n    function getStorageAddress() public view onlyOwner returns(address)\n    {\n        return (supplyChainAddress); \n    }\n    \n    /* Get Next Action  */    \n    function getNextAction(address _batchNo) public view returns(string)\n    {\n        return supplyChainStorage.getNextAction(_batchNo);\n    }\n    \n    \n\n    /* Create/Update User */\n\n    function updateUser(string _name, string _contactNo, string _role, bool _isActive,string _profileHash) public returns(bool)\n    {\n        require(msg.sender != address(0));\n        \n        /* Call Storage Contract */\n        bool status = supplyChainStorage.setUser(msg.sender, _name, _contactNo, _role, _isActive,_profileHash);\n        \n         /*call event*/\n        emit UserUpdate(msg.sender,_name,_contactNo,_role,_isActive,_profileHash);\n        emit UserRoleUpdate(msg.sender,_role);\n        \n        return status;\n    }\n    \n\n    /* Create/Update User For Admin  */\n    function updateUserForAdmin(address _userAddress, string _name, string _contactNo, string _role, bool _isActive,string _profileHash) public onlyOwner returns(bool)\n    {\n        require(_userAddress != address(0));\n        \n        /* Call Storage Contract */\n        bool status = supplyChainStorage.setUser(_userAddress, _name, _contactNo, _role, _isActive, _profileHash);\n        \n         /*call event*/\n        emit UserUpdate(_userAddress,_name,_contactNo,_role,_isActive,_profileHash);\n        emit UserRoleUpdate(_userAddress,_role);\n        \n        return status;\n    }\n\n    \n    /* get User */\n    function getUser(address _userAddress) public view returns(string name, string contactNo, string role, bool isActive , string profileHash){\n        require(_userAddress != address(0));\n        \n        /*Getting value from struct*/\n        (name, contactNo, role, isActive, profileHash) = supplyChainStorage.getUser(_userAddress);\n    \n        return (name, contactNo, role, isActive, profileHash);\n    }\n         \n    /* perform Basic Cultivation */\n    \n    function addBasicDetails(string _registrationNo,\n                             string _farmerName,\n                             string _farmAddress,\n                             string _exporterName,\n                             string _importerName\n                            ) public onlyOwner returns(address) {\n    \n        address batchNo = supplyChainStorage.setBasicDetails(_registrationNo,\n                                                            _farmerName,\n                                                            _farmAddress,\n                                                            _exporterName,\n                                                            _importerName);\n        \n        emit PerformCultivation(msg.sender, batchNo); \n        \n        return (batchNo);\n    }                            \n    \n    /* get Farm Inspection */\n    \n    function getFarmInspectorData(address _batchNo) public view returns (string coffeeFamily,string typeOfSeed,string fertilizerUsed) {\n        /* Call Storage Contract */\n        (coffeeFamily, typeOfSeed, fertilizerUsed) = supplyChainStorage.getFarmInspectorData(_batchNo);  \n        \n        return (coffeeFamily, typeOfSeed, fertilizerUsed);\n    }\n    \n    /* perform Farm Inspection */\n    \n    function updateFarmInspectorData(address _batchNo,\n                                    string _coffeeFamily,\n                                    string _typeOfSeed,\n                                    string _fertilizerUsed) \n                                public isValidPerformer(_batchNo,'FARM_INSPECTION') returns(bool) {\n        /* Call Storage Contract */\n        bool status = supplyChainStorage.setFarmInspectorData(_batchNo, _coffeeFamily, _typeOfSeed, _fertilizerUsed);  \n        \n        emit DoneInspection(msg.sender, _batchNo);\n        return (status);\n    }\n\n    \n    /* get Harvest */\n    \n    function getHarvesterData(address _batchNo) public view returns (string cropVariety, string tempatureUsed, string humidity) {\n        /* Call Storage Contract */\n        (cropVariety, tempatureUsed, humidity) = supplyChainStorage.getHarvesterData(_batchNo);  \n        \n        return (cropVariety, tempatureUsed, humidity);\n    }\n    \n    /* perform Harvest */\n    \n    function updateHarvesterData(address _batchNo,\n                                string _cropVariety,\n                                string _tempatureUsed,\n                                string _humidity) \n                                public isValidPerformer(_batchNo,'HARVESTER') returns(bool) {\n                                    \n        /* Call Storage Contract */\n        bool status = supplyChainStorage.setHarvesterData(_batchNo, _cropVariety, _tempatureUsed, _humidity);  \n        \n        emit DoneHarvesting(msg.sender, _batchNo);\n        return (status);\n    }\n    \n    /* get Export */\n    \n    function getExporterData(address _batchNo) public view returns (uint256 quantity,\n                                                                    string destinationAddress,\n                                                                    string shipName,\n                                                                    string shipNo,\n                                                                    uint256 departureDateTime,\n                                                                    uint256 estimateDateTime,\n                                                                    uint256 plantNo,\n                                                                    uint256 exporterId) {\n        /* Call Storage Contract */\n        (quantity, \n        destinationAddress, \n        shipName, \n        shipNo, \n        departureDateTime, \n        estimateDateTime,\n        plantNo,\n        exporterId) = supplyChainStorage.getExporterData(_batchNo);  \n        \n        return (quantity,destinationAddress,shipName,shipNo,departureDateTime,estimateDateTime,plantNo,exporterId);\n    }\n    \n    /* perform Export */\n    \n    function updateExporterData(address _batchNo,\n                                uint256 _quantity,    \n                                string _destinationAddress,\n                                string _shipName,\n                                string _shipNo,\n                                uint256 _estimateDateTime,\n                                uint256 _plantNo,\n                                uint256 _exporterId) \n                                public isValidPerformer(_batchNo,'EXPORTER') returns(bool) {\n                                    \n        /* Call Storage Contract */\n        bool status = supplyChainStorage.setExporterData(_batchNo, _quantity, _destinationAddress, _shipName,_shipNo, _estimateDateTime,_plantNo,_exporterId);  \n        \n        emit DoneExporting(msg.sender, _batchNo);\n        return (status);\n    }\n    \n    /* get Import */\n    \n    function getImporterData(address _batchNo) public view returns (uint256 quantity,\n                                                                    string shipName,\n                                                                    string shipNo,\n                                                                    uint256 arrivalDateTime,\n                                                                    string transportInfo,\n                                                                    string warehouseName,\n                                                                    string warehouseAddress,\n                                                                    uint256 importerId) {\n        /* Call Storage Contract */\n        (quantity, \n        shipName, \n        shipNo, \n        arrivalDateTime, \n        transportInfo, \n        warehouseName,\n        warehouseAddress,\n        importerId) = supplyChainStorage.getImporterData(_batchNo);  \n        \n        return (quantity,shipName,shipNo,arrivalDateTime,transportInfo,warehouseName,warehouseAddress,importerId);\n    }\n    \n    /* perform Import */\n    \n    function updateImporterData(address _batchNo,\n                                uint256 _quantity, \n                                string _shipName,\n                                string _shipNo,\n                                string _transportInfo,\n                                string _warehouseName,\n                                string _warehouseAddress,\n                                uint256 _importerId) \n                                public isValidPerformer(_batchNo,'IMPORTER') returns(bool) {\n                                    \n        /* Call Storage Contract */\n        bool status = supplyChainStorage.setImporterData(_batchNo, _quantity, _shipName, _shipNo, _transportInfo,_warehouseName,_warehouseAddress,_importerId);  \n        \n        emit DoneImporting(msg.sender, _batchNo);\n        return (status);\n    }\n    \n    \n    /* get Processor */\n    \n    function getProccesorData(address _batchNo) public view returns (uint256 quantity,\n                                                                    string tempature,\n                                                                    uint256 rostingDuration,\n                                                                    string internalBatchNo,\n                                                                    uint256 packageDateTime,\n                                                                    string processorName,\n                                                                    string processorAddress) {\n        /* Call Storage Contract */\n        (quantity, \n        tempature, \n        rostingDuration, \n        internalBatchNo, \n        packageDateTime, \n        processorName,\n        processorAddress) = supplyChainStorage.getProccesorData(_batchNo);  \n        \n        return (quantity,tempature,rostingDuration,internalBatchNo,packageDateTime,processorName,processorAddress);\n    }\n    \n    /* perform Processing */\n    \n    function updateProcessorData(address _batchNo,\n                              uint256 _quantity, \n                              string _tempature,\n                              uint256 _rostingDuration,\n                              string _internalBatchNo,\n                              uint256 _packageDateTime,\n                              string _processorName,\n                              string _processorAddress) public isValidPerformer(_batchNo,'PROCESSOR') returns(bool) {\n                                    \n        /* Call Storage Contract */\n        bool status = supplyChainStorage.setProcessorData(_batchNo, \n                                                        _quantity, \n                                                        _tempature, \n                                                        _rostingDuration, \n                                                        _internalBatchNo,\n                                                        _packageDateTime,\n                                                        _processorName,\n                                                        _processorAddress);  \n        \n        emit DoneProcessing(msg.sender, _batchNo);\n        return (status);\n    }\n}",
  "sourcePath": "/opt/lampp/htdocs/CoffeeSupplyChain-truffle/contracts/CoffeeSupplyChain.sol",
  "compiler": {
    "name": "solc",
    "version": "0.4.23+commit.124ca40d.Emscripten.clang"
  },
  "schemaVersion": "2.0.0",
  "updatedAt": "2018-05-29T12:34:01.141Z"
}