{
  "contractName": "CoffeeSupplyChain",
  "abi": [
    {
      "constant": false,
      "inputs": [],
      "name": "renounceOwnership",
      "outputs": [],
      "payable": false,
      "stateMutability": "nonpayable",
      "type": "function"
    },
    {
      "constant": true,
      "inputs": [],
      "name": "owner",
      "outputs": [
        {
          "name": "",
          "type": "address"
        }
      ],
      "payable": false,
      "stateMutability": "view",
      "type": "function"
    },
    {
      "constant": false,
      "inputs": [
        {
          "name": "newOwner",
          "type": "address"
        }
      ],
      "name": "transferOwnership",
      "outputs": [],
      "payable": false,
      "stateMutability": "nonpayable",
      "type": "function"
    },
    {
      "inputs": [
        {
          "name": "_supplyChainAddress",
          "type": "address"
        }
      ],
      "payable": false,
      "stateMutability": "nonpayable",
      "type": "constructor"
    },
    {
      "anonymous": false,
      "inputs": [
        {
          "indexed": true,
          "name": "user",
          "type": "address"
        },
        {
          "indexed": true,
          "name": "batchNo",
          "type": "address"
        }
      ],
      "name": "PerformCultivation",
      "type": "event"
    },
    {
      "anonymous": false,
      "inputs": [
        {
          "indexed": true,
          "name": "user",
          "type": "address"
        },
        {
          "indexed": true,
          "name": "batchNo",
          "type": "address"
        }
      ],
      "name": "DoneInspection",
      "type": "event"
    },
    {
      "anonymous": false,
      "inputs": [
        {
          "indexed": true,
          "name": "user",
          "type": "address"
        },
        {
          "indexed": true,
          "name": "batchNo",
          "type": "address"
        }
      ],
      "name": "DoneHarvesting",
      "type": "event"
    },
    {
      "anonymous": false,
      "inputs": [
        {
          "indexed": true,
          "name": "user",
          "type": "address"
        },
        {
          "indexed": true,
          "name": "batchNo",
          "type": "address"
        }
      ],
      "name": "DoneExporting",
      "type": "event"
    },
    {
      "anonymous": false,
      "inputs": [
        {
          "indexed": true,
          "name": "user",
          "type": "address"
        },
        {
          "indexed": true,
          "name": "batchNo",
          "type": "address"
        }
      ],
      "name": "DoneImporting",
      "type": "event"
    },
    {
      "anonymous": false,
      "inputs": [
        {
          "indexed": true,
          "name": "user",
          "type": "address"
        },
        {
          "indexed": false,
          "name": "indexedbatchNo",
          "type": "address"
        }
      ],
      "name": "DoneProcessing",
      "type": "event"
    },
    {
      "anonymous": false,
      "inputs": [
        {
          "indexed": true,
          "name": "previousOwner",
          "type": "address"
        }
      ],
      "name": "OwnershipRenounced",
      "type": "event"
    },
    {
      "anonymous": false,
      "inputs": [
        {
          "indexed": true,
          "name": "previousOwner",
          "type": "address"
        },
        {
          "indexed": true,
          "name": "newOwner",
          "type": "address"
        }
      ],
      "name": "OwnershipTransferred",
      "type": "event"
    },
    {
      "constant": true,
      "inputs": [
        {
          "name": "_batchNo",
          "type": "address"
        }
      ],
      "name": "getNextAction",
      "outputs": [
        {
          "name": "action",
          "type": "string"
        }
      ],
      "payable": false,
      "stateMutability": "view",
      "type": "function"
    },
    {
      "constant": false,
      "inputs": [
        {
          "name": "_registrationNo",
          "type": "string"
        },
        {
          "name": "_farmerName",
          "type": "string"
        },
        {
          "name": "_farmAddress",
          "type": "string"
        },
        {
          "name": "_exporterName",
          "type": "string"
        },
        {
          "name": "_importerName",
          "type": "string"
        }
      ],
      "name": "addBasicDetails",
      "outputs": [
        {
          "name": "",
          "type": "address"
        }
      ],
      "payable": false,
      "stateMutability": "nonpayable",
      "type": "function"
    },
    {
      "constant": true,
      "inputs": [
        {
          "name": "_batchNo",
          "type": "address"
        }
      ],
      "name": "getFarmInspectorData",
      "outputs": [
        {
          "name": "coffeeFamily",
          "type": "string"
        },
        {
          "name": "typeOfSeed",
          "type": "string"
        },
        {
          "name": "fertilizerUsed",
          "type": "string"
        }
      ],
      "payable": false,
      "stateMutability": "view",
      "type": "function"
    },
    {
      "constant": false,
      "inputs": [
        {
          "name": "_batchNo",
          "type": "address"
        },
        {
          "name": "_coffeeFamily",
          "type": "string"
        },
        {
          "name": "_typeOfSeed",
          "type": "string"
        },
        {
          "name": "_fertilizerUsed",
          "type": "string"
        }
      ],
      "name": "updateFarmInspectorData",
      "outputs": [
        {
          "name": "",
          "type": "bool"
        }
      ],
      "payable": false,
      "stateMutability": "nonpayable",
      "type": "function"
    },
    {
      "constant": true,
      "inputs": [
        {
          "name": "_batchNo",
          "type": "address"
        }
      ],
      "name": "getHarvesterData",
      "outputs": [
        {
          "name": "cropVariety",
          "type": "string"
        },
        {
          "name": "temperatureUsed",
          "type": "string"
        },
        {
          "name": "humidity",
          "type": "string"
        }
      ],
      "payable": false,
      "stateMutability": "view",
      "type": "function"
    },
    {
      "constant": false,
      "inputs": [
        {
          "name": "_batchNo",
          "type": "address"
        },
        {
          "name": "_cropVariety",
          "type": "string"
        },
        {
          "name": "_tempatureUsed",
          "type": "string"
        },
        {
          "name": "_humidity",
          "type": "string"
        }
      ],
      "name": "updateHarvesterData",
      "outputs": [
        {
          "name": "",
          "type": "bool"
        }
      ],
      "payable": false,
      "stateMutability": "nonpayable",
      "type": "function"
    },
    {
      "constant": true,
      "inputs": [
        {
          "name": "_batchNo",
          "type": "address"
        }
      ],
      "name": "getExporterData",
      "outputs": [
        {
          "name": "quantity",
          "type": "uint256"
        },
        {
          "name": "destinationAddress",
          "type": "string"
        },
        {
          "name": "shipName",
          "type": "string"
        },
        {
          "name": "shipNo",
          "type": "string"
        },
        {
          "name": "departureDateTime",
          "type": "uint256"
        },
        {
          "name": "estimateDateTime",
          "type": "uint256"
        },
        {
          "name": "plantNo",
          "type": "uint256"
        },
        {
          "name": "exporterId",
          "type": "uint256"
        }
      ],
      "payable": false,
      "stateMutability": "view",
      "type": "function"
    },
    {
      "constant": false,
      "inputs": [
        {
          "name": "_batchNo",
          "type": "address"
        },
        {
          "name": "_quantity",
          "type": "uint256"
        },
        {
          "name": "_destinationAddress",
          "type": "string"
        },
        {
          "name": "_shipName",
          "type": "string"
        },
        {
          "name": "_shipNo",
          "type": "string"
        },
        {
          "name": "_estimateDateTime",
          "type": "uint256"
        },
        {
          "name": "_plantNo",
          "type": "uint256"
        },
        {
          "name": "_exporterId",
          "type": "uint256"
        }
      ],
      "name": "updateExporterData",
      "outputs": [
        {
          "name": "",
          "type": "bool"
        }
      ],
      "payable": false,
      "stateMutability": "nonpayable",
      "type": "function"
    },
    {
      "constant": true,
      "inputs": [
        {
          "name": "_batchNo",
          "type": "address"
        }
      ],
      "name": "getImporterData",
      "outputs": [
        {
          "name": "quantity",
          "type": "uint256"
        },
        {
          "name": "shipName",
          "type": "string"
        },
        {
          "name": "shipNo",
          "type": "string"
        },
        {
          "name": "arrivalDateTime",
          "type": "uint256"
        },
        {
          "name": "transportInfo",
          "type": "string"
        },
        {
          "name": "warehouseName",
          "type": "string"
        },
        {
          "name": "warehouseAddress",
          "type": "string"
        },
        {
          "name": "importerId",
          "type": "uint256"
        }
      ],
      "payable": false,
      "stateMutability": "view",
      "type": "function"
    },
    {
      "constant": false,
      "inputs": [
        {
          "name": "_batchNo",
          "type": "address"
        },
        {
          "name": "_quantity",
          "type": "uint256"
        },
        {
          "name": "_shipName",
          "type": "string"
        },
        {
          "name": "_shipNo",
          "type": "string"
        },
        {
          "name": "_transportInfo",
          "type": "string"
        },
        {
          "name": "_warehouseName",
          "type": "string"
        },
        {
          "name": "_warehouseAddress",
          "type": "string"
        },
        {
          "name": "_importerId",
          "type": "uint256"
        }
      ],
      "name": "updateImporterData",
      "outputs": [
        {
          "name": "",
          "type": "bool"
        }
      ],
      "payable": false,
      "stateMutability": "nonpayable",
      "type": "function"
    },
    {
      "constant": true,
      "inputs": [
        {
          "name": "_batchNo",
          "type": "address"
        }
      ],
      "name": "getProccesorData",
      "outputs": [
        {
          "name": "quantity",
          "type": "uint256"
        },
        {
          "name": "tempature",
          "type": "string"
        },
        {
          "name": "rostingDuration",
          "type": "uint256"
        },
        {
          "name": "internalBatchNo",
          "type": "string"
        },
        {
          "name": "packageDateTime",
          "type": "uint256"
        },
        {
          "name": "processorName",
          "type": "string"
        },
        {
          "name": "processorAddress",
          "type": "string"
        }
      ],
      "payable": false,
      "stateMutability": "view",
      "type": "function"
    },
    {
      "constant": false,
      "inputs": [
        {
          "name": "_batchNo",
          "type": "address"
        },
        {
          "name": "_quantity",
          "type": "uint256"
        },
        {
          "name": "_tempature",
          "type": "string"
        },
        {
          "name": "_rostingDuration",
          "type": "uint256"
        },
        {
          "name": "_internalBatchNo",
          "type": "string"
        },
        {
          "name": "_packageDateTime",
          "type": "uint256"
        },
        {
          "name": "_processorName",
          "type": "string"
        },
        {
          "name": "_processorAddress",
          "type": "string"
        }
      ],
      "name": "updateProcessorData",
      "outputs": [
        {
          "name": "",
          "type": "bool"
        }
      ],
      "payable": false,
      "stateMutability": "nonpayable",
      "type": "function"
    }
  ],
  "bytecode": "0x608060405234801561001057600080fd5b50604051602080614edd83398101806040528101908080519060200190929190505050336000806101000a81548173ffffffffffffffffffffffffffffffffffffffff021916908373ffffffffffffffffffffffffffffffffffffffff16021790555080600160006101000a81548173ffffffffffffffffffffffffffffffffffffffff021916908373ffffffffffffffffffffffffffffffffffffffff16021790555050614e19806100c46000396000f3006080604052600436106100db576000357c0100000000000000000000000000000000000000000000000000000000900463ffffffff16806302e716ca146100e0578063044448f2146102ad57806306ecd6d414610402578063317bc7ab146105b95780634b205122146107ce5780634d6b5e001461098f578063715018a614610a4b5780637f89e94b14610a6257806381f960c214610bf657806389d42c2e14610d235780638da5cb5b14610eb4578063ca5322e514610f0b578063ebca7e1c1461109f578063f2fde38b146111cc578063febd04921461120f575b600080fd5b3480156100ec57600080fd5b50610293600480360381019080803573ffffffffffffffffffffffffffffffffffffffff16906020019092919080359060200190929190803590602001908201803590602001908080601f0160208091040260200160405190810160405280939291908181526020018383808284378201915050505050509192919290803590602001908201803590602001908080601f0160208091040260200160405190810160405280939291908181526020018383808284378201915050505050509192919290803590602001908201803590602001908080601f0160208091040260200160405190810160405280939291908181526020018383808284378201915050505050509192919290803590602001908201803590602001908080601f0160208091040260200160405190810160405280939291908181526020018383808284378201915050505050509192919290803590602001908201803590602001908080601f016020809104026020016040519081016040528093929190818152602001838380828437820191505050505050919291929080359060200190929190505050611490565b604051808215151515815260200191505060405180910390f35b3480156102b957600080fd5b506103e8600480360381019080803573ffffffffffffffffffffffffffffffffffffffff16906020019092919080359060200190929190803590602001908201803590602001908080601f0160208091040260200160405190810160405280939291908181526020018383808284378201915050505050509192919290803590602001908201803590602001908080601f0160208091040260200160405190810160405280939291908181526020018383808284378201915050505050509192919290803590602001908201803590602001908080601f0160208091040260200160405190810160405280939291908181526020018383808284378201915050505050509192919290803590602001909291908035906020019092919080359060200190929190505050611caf565b604051808215151515815260200191505060405180910390f35b34801561040e57600080fd5b50610443600480360381019080803573ffffffffffffffffffffffffffffffffffffffff169060200190929190505050612404565b6040518089815260200180602001806020018060200188815260200187815260200186815260200185815260200184810384528b818151815260200191508051906020019080838360005b838110156104a957808201518184015260208101905061048e565b50505050905090810190601f1680156104d65780820380516001836020036101000a031916815260200191505b5084810383528a818151815260200191508051906020019080838360005b8381101561050f5780820151818401526020810190506104f4565b50505050905090810190601f16801561053c5780820380516001836020036101000a031916815260200191505b50848103825289818151815260200191508051906020019080838360005b8381101561057557808201518184015260208101905061055a565b50505050905090810190601f1680156105a25780820380516001836020036101000a031916815260200191505b509b50505050505050505050505060405180910390f35b3480156105c557600080fd5b506105fa600480360381019080803573ffffffffffffffffffffffffffffffffffffffff169060200190929190505050612676565b604051808881526020018060200187815260200180602001868152602001806020018060200185810385528b818151815260200191508051906020019080838360005b8381101561065857808201518184015260208101905061063d565b50505050905090810190601f1680156106855780820380516001836020036101000a031916815260200191505b50858103845289818151815260200191508051906020019080838360005b838110156106be5780820151818401526020810190506106a3565b50505050905090810190601f1680156106eb5780820380516001836020036101000a031916815260200191505b50858103835287818151815260200191508051906020019080838360005b83811015610724578082015181840152602081019050610709565b50505050905090810190601f1680156107515780820380516001836020036101000a031916815260200191505b50858103825286818151815260200191508051906020019080838360005b8381101561078a57808201518184015260208101905061076f565b50505050905090810190601f1680156107b75780820380516001836020036101000a031916815260200191505b509b50505050505050505050505060405180910390f35b3480156107da57600080fd5b5061094d600480360381019080803590602001908201803590602001908080601f0160208091040260200160405190810160405280939291908181526020018383808284378201915050505050509192919290803590602001908201803590602001908080601f0160208091040260200160405190810160405280939291908181526020018383808284378201915050505050509192919290803590602001908201803590602001908080601f0160208091040260200160405190810160405280939291908181526020018383808284378201915050505050509192919290803590602001908201803590602001908080601f0160208091040260200160405190810160405280939291908181526020018383808284378201915050505050509192919290803590602001908201803590602001908080601f0160208091040260200160405190810160405280939291908181526020018383808284378201915050505050509192919290505050612918565b604051808273ffffffffffffffffffffffffffffffffffffffff1673ffffffffffffffffffffffffffffffffffffffff16815260200191505060405180910390f35b34801561099b57600080fd5b506109d0600480360381019080803573ffffffffffffffffffffffffffffffffffffffff169060200190929190505050612cc4565b6040518080602001828103825283818151815260200191508051906020019080838360005b83811015610a105780820151818401526020810190506109f5565b50505050905090810190601f168015610a3d5780820380516001836020036101000a031916815260200191505b509250505060405180910390f35b348015610a5757600080fd5b50610a60612e1e565b005b348015610a6e57600080fd5b50610aa3600480360381019080803573ffffffffffffffffffffffffffffffffffffffff169060200190929190505050612f20565b60405180806020018060200180602001848103845287818151815260200191508051906020019080838360005b83811015610aeb578082015181840152602081019050610ad0565b50505050905090810190601f168015610b185780820380516001836020036101000a031916815260200191505b50848103835286818151815260200191508051906020019080838360005b83811015610b51578082015181840152602081019050610b36565b50505050905090810190601f168015610b7e5780820380516001836020036101000a031916815260200191505b50848103825285818151815260200191508051906020019080838360005b83811015610bb7578082015181840152602081019050610b9c565b50505050905090810190601f168015610be45780820380516001836020036101000a031916815260200191505b50965050505050505060405180910390f35b348015610c0257600080fd5b50610d09600480360381019080803573ffffffffffffffffffffffffffffffffffffffff169060200190929190803590602001908201803590602001908080601f0160208091040260200160405190810160405280939291908181526020018383808284378201915050505050509192919290803590602001908201803590602001908080601f0160208091040260200160405190810160405280939291908181526020018383808284378201915050505050509192919290803590602001908201803590602001908080601f016020809104026020016040519081016040528093929190818152602001838380828437820191505050505050919291929050505061312d565b604051808215151515815260200191505060405180910390f35b348015610d2f57600080fd5b50610e9a600480360381019080803573ffffffffffffffffffffffffffffffffffffffff16906020019092919080359060200190929190803590602001908201803590602001908080601f016020809104026020016040519081016040528093929190818152602001838380828437820191505050505050919291929080359060200190929190803590602001908201803590602001908080601f016020809104026020016040519081016040528093929190818152602001838380828437820191505050505050919291929080359060200190929190803590602001908201803590602001908080601f0160208091040260200160405190810160405280939291908181526020018383808284378201915050505050509192919290803590602001908201803590602001908080601f016020809104026020016040519081016040528093929190818152602001838380828437820191505050505050919291929050505061385e565b604051808215151515815260200191505060405180910390f35b348015610ec057600080fd5b50610ec9614038565b604051808273ffffffffffffffffffffffffffffffffffffffff1673ffffffffffffffffffffffffffffffffffffffff16815260200191505060405180910390f35b348015610f1757600080fd5b50610f4c600480360381019080803573ffffffffffffffffffffffffffffffffffffffff16906020019092919050505061405d565b60405180806020018060200180602001848103845287818151815260200191508051906020019080838360005b83811015610f94578082015181840152602081019050610f79565b50505050905090810190601f168015610fc15780820380516001836020036101000a031916815260200191505b50848103835286818151815260200191508051906020019080838360005b83811015610ffa578082015181840152602081019050610fdf565b50505050905090810190601f1680156110275780820380516001836020036101000a031916815260200191505b50848103825285818151815260200191508051906020019080838360005b83811015611060578082015181840152602081019050611045565b50505050905090810190601f16801561108d5780820380516001836020036101000a031916815260200191505b50965050505050505060405180910390f35b3480156110ab57600080fd5b506111b2600480360381019080803573ffffffffffffffffffffffffffffffffffffffff169060200190929190803590602001908201803590602001908080601f0160208091040260200160405190810160405280939291908181526020018383808284378201915050505050509192919290803590602001908201803590602001908080601f0160208091040260200160405190810160405280939291908181526020018383808284378201915050505050509192919290803590602001908201803590602001908080601f016020809104026020016040519081016040528093929190818152602001838380828437820191505050505050919291929050505061426a565b604051808215151515815260200191505060405180910390f35b3480156111d857600080fd5b5061120d600480360381019080803573ffffffffffffffffffffffffffffffffffffffff16906020019092919050505061499b565b005b34801561121b57600080fd5b50611250600480360381019080803573ffffffffffffffffffffffffffffffffffffffff169060200190929190505050614af0565b60405180898152602001806020018060200188815260200180602001806020018060200187815260200186810386528d818151815260200191508051906020019080838360005b838110156112b2578082015181840152602081019050611297565b50505050905090810190601f1680156112df5780820380516001836020036101000a031916815260200191505b5086810385528c818151815260200191508051906020019080838360005b838110156113185780820151818401526020810190506112fd565b50505050905090810190601f1680156113455780820380516001836020036101000a031916815260200191505b5086810384528a818151815260200191508051906020019080838360005b8381101561137e578082015181840152602081019050611363565b50505050905090810190601f1680156113ab5780820380516001836020036101000a031916815260200191505b50868103835289818151815260200191508051906020019080838360005b838110156113e45780820151818401526020810190506113c9565b50505050905090810190601f1680156114115780820380516001836020036101000a031916815260200191505b50868103825288818151815260200191508051906020019080838360005b8381101561144a57808201518184015260208101905061142f565b50505050905090810190601f1680156114775780820380516001836020036101000a031916815260200191505b509d505050505050505050505050505060405180910390f35b600080896040805190810160405280600881526020017f494d504f52544552000000000000000000000000000000000000000000000000815250806040518082805190602001908083835b60208310151561150057805182526020820191506020810190506020830392506114db565b6001836020036101000a038019825116818451168082178552505050505050905001915050604051809103902060001916600160009054906101000a900473ffffffffffffffffffffffffffffffffffffffff1673ffffffffffffffffffffffffffffffffffffffff166327820851336040518263ffffffff167c0100000000000000000000000000000000000000000000000000000000028152600401808273ffffffffffffffffffffffffffffffffffffffff1673ffffffffffffffffffffffffffffffffffffffff168152602001915050600060405180830381600087803b1580156115ee57600080fd5b505af1158015611602573d6000803e3d6000fd5b505050506040513d6000823e3d601f19601f82011682018060405250602081101561162c57600080fd5b81019080805164010000000081111561164457600080fd5b8281019050602081018481111561165a57600080fd5b815185600182028301116401000000008211171561167757600080fd5b50509291905050506040518082805190602001908083835b6020831015156116b4578051825260208201915060208101905060208303925061168f565b6001836020036101000a0380198251168184511680821785525050505050509050019150506040518091039020600019161415156116f157600080fd5b806040518082805190602001908083835b6020831015156117275780518252602082019150602081019050602083039250611702565b6001836020036101000a038019825116818451168082178552505050505050905001915050604051809103902060001916600160009054906101000a900473ffffffffffffffffffffffffffffffffffffffff1673ffffffffffffffffffffffffffffffffffffffff16634d6b5e00846040518263ffffffff167c0100000000000000000000000000000000000000000000000000000000028152600401808273ffffffffffffffffffffffffffffffffffffffff1673ffffffffffffffffffffffffffffffffffffffff168152602001915050600060405180830381600087803b15801561181557600080fd5b505af1158015611829573d6000803e3d6000fd5b505050506040513d6000823e3d601f19601f82011682018060405250602081101561185357600080fd5b81019080805164010000000081111561186b57600080fd5b8281019050602081018481111561188157600080fd5b815185600182028301116401000000008211171561189e57600080fd5b50509291905050506040518082805190602001908083835b6020831015156118db57805182526020820191506020810190506020830392506118b6565b6001836020036101000a03801982511681845116808217855250505050505090500191505060405180910390206000191614151561191857600080fd5b600160009054906101000a900473ffffffffffffffffffffffffffffffffffffffff1673ffffffffffffffffffffffffffffffffffffffff16636115eec28d8d8d8d8d8d8d8d6040518963ffffffff167c0100000000000000000000000000000000000000000000000000000000028152600401808973ffffffffffffffffffffffffffffffffffffffff1673ffffffffffffffffffffffffffffffffffffffff168152602001888152602001806020018060200180602001806020018060200187815260200186810386528c818151815260200191508051906020019080838360005b83811015611a175780820151818401526020810190506119fc565b50505050905090810190601f168015611a445780820380516001836020036101000a031916815260200191505b5086810385528b818151815260200191508051906020019080838360005b83811015611a7d578082015181840152602081019050611a62565b50505050905090810190601f168015611aaa5780820380516001836020036101000a031916815260200191505b5086810384528a818151815260200191508051906020019080838360005b83811015611ae3578082015181840152602081019050611ac8565b50505050905090810190601f168015611b105780820380516001836020036101000a031916815260200191505b50868103835289818151815260200191508051906020019080838360005b83811015611b49578082015181840152602081019050611b2e565b50505050905090810190601f168015611b765780820380516001836020036101000a031916815260200191505b50868103825288818151815260200191508051906020019080838360005b83811015611baf578082015181840152602081019050611b94565b50505050905090810190601f168015611bdc5780820380516001836020036101000a031916815260200191505b509d5050505050505050505050505050602060405180830381600087803b158015611c0657600080fd5b505af1158015611c1a573d6000803e3d6000fd5b505050506040513d6020811015611c3057600080fd5b810190808051906020019092919050505092508b73ffffffffffffffffffffffffffffffffffffffff163373ffffffffffffffffffffffffffffffffffffffff167fd42f803be1969ed3d7fe76e90571304a3e70f2f32b20773cbc303eff548cb05f60405160405180910390a382935050505098975050505050505050565b600080896040805190810160405280600881526020017f4558504f52544552000000000000000000000000000000000000000000000000815250806040518082805190602001908083835b602083101515611d1f5780518252602082019150602081019050602083039250611cfa565b6001836020036101000a038019825116818451168082178552505050505050905001915050604051809103902060001916600160009054906101000a900473ffffffffffffffffffffffffffffffffffffffff1673ffffffffffffffffffffffffffffffffffffffff166327820851336040518263ffffffff167c0100000000000000000000000000000000000000000000000000000000028152600401808273ffffffffffffffffffffffffffffffffffffffff1673ffffffffffffffffffffffffffffffffffffffff168152602001915050600060405180830381600087803b158015611e0d57600080fd5b505af1158015611e21573d6000803e3d6000fd5b505050506040513d6000823e3d601f19601f820116820180604052506020811015611e4b57600080fd5b810190808051640100000000811115611e6357600080fd5b82810190506020810184811115611e7957600080fd5b8151856001820283011164010000000082111715611e9657600080fd5b50509291905050506040518082805190602001908083835b602083101515611ed35780518252602082019150602081019050602083039250611eae565b6001836020036101000a038019825116818451168082178552505050505050905001915050604051809103902060001916141515611f1057600080fd5b806040518082805190602001908083835b602083101515611f465780518252602082019150602081019050602083039250611f21565b6001836020036101000a038019825116818451168082178552505050505050905001915050604051809103902060001916600160009054906101000a900473ffffffffffffffffffffffffffffffffffffffff1673ffffffffffffffffffffffffffffffffffffffff16634d6b5e00846040518263ffffffff167c0100000000000000000000000000000000000000000000000000000000028152600401808273ffffffffffffffffffffffffffffffffffffffff1673ffffffffffffffffffffffffffffffffffffffff168152602001915050600060405180830381600087803b15801561203457600080fd5b505af1158015612048573d6000803e3d6000fd5b505050506040513d6000823e3d601f19601f82011682018060405250602081101561207257600080fd5b81019080805164010000000081111561208a57600080fd5b828101905060208101848111156120a057600080fd5b81518560018202830111640100000000821117156120bd57600080fd5b50509291905050506040518082805190602001908083835b6020831015156120fa57805182526020820191506020810190506020830392506120d5565b6001836020036101000a03801982511681845116808217855250505050505090500191505060405180910390206000191614151561213757600080fd5b600160009054906101000a900473ffffffffffffffffffffffffffffffffffffffff1673ffffffffffffffffffffffffffffffffffffffff1663c36de9668d8d8d8d8d8d8d8d6040518963ffffffff167c0100000000000000000000000000000000000000000000000000000000028152600401808973ffffffffffffffffffffffffffffffffffffffff1673ffffffffffffffffffffffffffffffffffffffff16815260200188815260200180602001806020018060200187815260200186815260200185815260200184810384528a818151815260200191508051906020019080838360005b8381101561223a57808201518184015260208101905061221f565b50505050905090810190601f1680156122675780820380516001836020036101000a031916815260200191505b50848103835289818151815260200191508051906020019080838360005b838110156122a0578082015181840152602081019050612285565b50505050905090810190601f1680156122cd5780820380516001836020036101000a031916815260200191505b50848103825288818151815260200191508051906020019080838360005b838110156123065780820151818401526020810190506122eb565b50505050905090810190601f1680156123335780820380516001836020036101000a031916815260200191505b509b505050505050505050505050602060405180830381600087803b15801561235b57600080fd5b505af115801561236f573d6000803e3d6000fd5b505050506040513d602081101561238557600080fd5b810190808051906020019092919050505092508b73ffffffffffffffffffffffffffffffffffffffff163373ffffffffffffffffffffffffffffffffffffffff167feaba9e3c271bb82a9fd28bf677c9ee9b7a261f8ac7340051834c654f445e7db860405160405180910390a382935050505098975050505050505050565b60006060806060600080600080600160009054906101000a900473ffffffffffffffffffffffffffffffffffffffff1673ffffffffffffffffffffffffffffffffffffffff166306ecd6d48a6040518263ffffffff167c0100000000000000000000000000000000000000000000000000000000028152600401808273ffffffffffffffffffffffffffffffffffffffff1673ffffffffffffffffffffffffffffffffffffffff168152602001915050600060405180830381600087803b1580156124ce57600080fd5b505af11580156124e2573d6000803e3d6000fd5b505050506040513d6000823e3d601f19601f8201168201806040525061010081101561250d57600080fd5b8101908080519060200190929190805164010000000081111561252f57600080fd5b8281019050602081018481111561254557600080fd5b815185600182028301116401000000008211171561256257600080fd5b5050929190602001805164010000000081111561257e57600080fd5b8281019050602081018481111561259457600080fd5b81518560018202830111640100000000821117156125b157600080fd5b505092919060200180516401000000008111156125cd57600080fd5b828101905060208101848111156125e357600080fd5b815185600182028301116401000000008211171561260057600080fd5b505092919060200180519060200190929190805190602001909291908051906020019092919080519060200190929190505050809850819950829a50839b50849c50859d50869e50879f505050505050505050878787878787878797509750975097509750975097509750919395975091939597565b60006060600060606000606080600160009054906101000a900473ffffffffffffffffffffffffffffffffffffffff1673ffffffffffffffffffffffffffffffffffffffff1663317bc7ab896040518263ffffffff167c0100000000000000000000000000000000000000000000000000000000028152600401808273ffffffffffffffffffffffffffffffffffffffff1673ffffffffffffffffffffffffffffffffffffffff168152602001915050600060405180830381600087803b15801561274057600080fd5b505af1158015612754573d6000803e3d6000fd5b505050506040513d6000823e3d601f19601f8201168201806040525060e081101561277e57600080fd5b810190808051906020019092919080516401000000008111156127a057600080fd5b828101905060208101848111156127b657600080fd5b81518560018202830111640100000000821117156127d357600080fd5b50509291906020018051906020019092919080516401000000008111156127f957600080fd5b8281019050602081018481111561280f57600080fd5b815185600182028301116401000000008211171561282c57600080fd5b505092919060200180519060200190929190805164010000000081111561285257600080fd5b8281019050602081018481111561286857600080fd5b815185600182028301116401000000008211171561288557600080fd5b505092919060200180516401000000008111156128a157600080fd5b828101905060208101848111156128b757600080fd5b81518560018202830111640100000000821117156128d457600080fd5b5050929190505050809750819850829950839a50849b50859c50869d5050505050505050868686868686869650965096509650965096509650919395979092949650565b6000806000809054906101000a900473ffffffffffffffffffffffffffffffffffffffff1673ffffffffffffffffffffffffffffffffffffffff163373ffffffffffffffffffffffffffffffffffffffff1614151561297657600080fd5b600160009054906101000a900473ffffffffffffffffffffffffffffffffffffffff1673ffffffffffffffffffffffffffffffffffffffff1663cf37467488888888886040518663ffffffff167c010000000000000000000000000000000000000000000000000000000002815260040180806020018060200180602001806020018060200186810386528b818151815260200191508051906020019080838360005b83811015612a34578082015181840152602081019050612a19565b50505050905090810190601f168015612a615780820380516001836020036101000a031916815260200191505b5086810385528a818151815260200191508051906020019080838360005b83811015612a9a578082015181840152602081019050612a7f565b50505050905090810190601f168015612ac75780820380516001836020036101000a031916815260200191505b50868103845289818151815260200191508051906020019080838360005b83811015612b00578082015181840152602081019050612ae5565b50505050905090810190601f168015612b2d5780820380516001836020036101000a031916815260200191505b50868103835288818151815260200191508051906020019080838360005b83811015612b66578082015181840152602081019050612b4b565b50505050905090810190601f168015612b935780820380516001836020036101000a031916815260200191505b50868103825287818151815260200191508051906020019080838360005b83811015612bcc578082015181840152602081019050612bb1565b50505050905090810190601f168015612bf95780820380516001836020036101000a031916815260200191505b509a5050505050505050505050602060405180830381600087803b158015612c2057600080fd5b505af1158015612c34573d6000803e3d6000fd5b505050506040513d6020811015612c4a57600080fd5b810190808051906020019092919050505090508073ffffffffffffffffffffffffffffffffffffffff163373ffffffffffffffffffffffffffffffffffffffff167ffb0cd0976d848f2ad8c4a6963c1295c96186b2f3919c8204b4fcb350fc36a31f60405160405180910390a38091505095945050505050565b6060600160009054906101000a900473ffffffffffffffffffffffffffffffffffffffff1673ffffffffffffffffffffffffffffffffffffffff16634d6b5e00836040518263ffffffff167c0100000000000000000000000000000000000000000000000000000000028152600401808273ffffffffffffffffffffffffffffffffffffffff1673ffffffffffffffffffffffffffffffffffffffff168152602001915050600060405180830381600087803b158015612d8357600080fd5b505af1158015612d97573d6000803e3d6000fd5b505050506040513d6000823e3d601f19601f820116820180604052506020811015612dc157600080fd5b810190808051640100000000811115612dd957600080fd5b82810190506020810184811115612def57600080fd5b8151856001820283011164010000000082111715612e0c57600080fd5b50509291905050509050809050919050565b6000809054906101000a900473ffffffffffffffffffffffffffffffffffffffff1673ffffffffffffffffffffffffffffffffffffffff163373ffffffffffffffffffffffffffffffffffffffff16141515612e7957600080fd5b6000809054906101000a900473ffffffffffffffffffffffffffffffffffffffff1673ffffffffffffffffffffffffffffffffffffffff167ff8df31144d9c2f0f6b59d69b8b98abd5459d07f2742c4df920b25aae33c6482060405160405180910390a260008060006101000a81548173ffffffffffffffffffffffffffffffffffffffff021916908373ffffffffffffffffffffffffffffffffffffffff160217905550565b6060806060600160009054906101000a900473ffffffffffffffffffffffffffffffffffffffff1673ffffffffffffffffffffffffffffffffffffffff16637f89e94b856040518263ffffffff167c0100000000000000000000000000000000000000000000000000000000028152600401808273ffffffffffffffffffffffffffffffffffffffff1673ffffffffffffffffffffffffffffffffffffffff168152602001915050600060405180830381600087803b158015612fe257600080fd5b505af1158015612ff6573d6000803e3d6000fd5b505050506040513d6000823e3d601f19601f82011682018060405250606081101561302057600080fd5b81019080805164010000000081111561303857600080fd5b8281019050602081018481111561304e57600080fd5b815185600182028301116401000000008211171561306b57600080fd5b5050929190602001805164010000000081111561308757600080fd5b8281019050602081018481111561309d57600080fd5b81518560018202830111640100000000821117156130ba57600080fd5b505092919060200180516401000000008111156130d657600080fd5b828101905060208101848111156130ec57600080fd5b815185600182028301116401000000008211171561310957600080fd5b50509291905050508093508194508295505050508282829250925092509193909250565b600080856040805190810160405280600f81526020017f4641524d5f494e5350454354494f4e0000000000000000000000000000000000815250806040518082805190602001908083835b60208310151561319d5780518252602082019150602081019050602083039250613178565b6001836020036101000a038019825116818451168082178552505050505050905001915050604051809103902060001916600160009054906101000a900473ffffffffffffffffffffffffffffffffffffffff1673ffffffffffffffffffffffffffffffffffffffff166327820851336040518263ffffffff167c0100000000000000000000000000000000000000000000000000000000028152600401808273ffffffffffffffffffffffffffffffffffffffff1673ffffffffffffffffffffffffffffffffffffffff168152602001915050600060405180830381600087803b15801561328b57600080fd5b505af115801561329f573d6000803e3d6000fd5b505050506040513d6000823e3d601f19601f8201168201806040525060208110156132c957600080fd5b8101908080516401000000008111156132e157600080fd5b828101905060208101848111156132f757600080fd5b815185600182028301116401000000008211171561331457600080fd5b50509291905050506040518082805190602001908083835b602083101515613351578051825260208201915060208101905060208303925061332c565b6001836020036101000a03801982511681845116808217855250505050505090500191505060405180910390206000191614151561338e57600080fd5b806040518082805190602001908083835b6020831015156133c4578051825260208201915060208101905060208303925061339f565b6001836020036101000a038019825116818451168082178552505050505050905001915050604051809103902060001916600160009054906101000a900473ffffffffffffffffffffffffffffffffffffffff1673ffffffffffffffffffffffffffffffffffffffff16634d6b5e00846040518263ffffffff167c0100000000000000000000000000000000000000000000000000000000028152600401808273ffffffffffffffffffffffffffffffffffffffff1673ffffffffffffffffffffffffffffffffffffffff168152602001915050600060405180830381600087803b1580156134b257600080fd5b505af11580156134c6573d6000803e3d6000fd5b505050506040513d6000823e3d601f19601f8201168201806040525060208110156134f057600080fd5b81019080805164010000000081111561350857600080fd5b8281019050602081018481111561351e57600080fd5b815185600182028301116401000000008211171561353b57600080fd5b50509291905050506040518082805190602001908083835b6020831015156135785780518252602082019150602081019050602083039250613553565b6001836020036101000a0380198251168184511680821785525050505050509050019150506040518091039020600019161415156135b557600080fd5b600160009054906101000a900473ffffffffffffffffffffffffffffffffffffffff1673ffffffffffffffffffffffffffffffffffffffff16631dbcddf4898989896040518563ffffffff167c0100000000000000000000000000000000000000000000000000000000028152600401808573ffffffffffffffffffffffffffffffffffffffff1673ffffffffffffffffffffffffffffffffffffffff168152602001806020018060200180602001848103845287818151815260200191508051906020019080838360005b8381101561369c578082015181840152602081019050613681565b50505050905090810190601f1680156136c95780820380516001836020036101000a031916815260200191505b50848103835286818151815260200191508051906020019080838360005b838110156137025780820151818401526020810190506136e7565b50505050905090810190601f16801561372f5780820380516001836020036101000a031916815260200191505b50848103825285818151815260200191508051906020019080838360005b8381101561376857808201518184015260208101905061374d565b50505050905090810190601f1680156137955780820380516001836020036101000a031916815260200191505b50975050505050505050602060405180830381600087803b1580156137b957600080fd5b505af11580156137cd573d6000803e3d6000fd5b505050506040513d60208110156137e357600080fd5b810190808051906020019092919050505092508773ffffffffffffffffffffffffffffffffffffffff163373ffffffffffffffffffffffffffffffffffffffff167ff38048a8487a9352f87561aa442e92de7d09d55718b8bfc9b16720ea061c35c760405160405180910390a3829350505050949350505050565b600080896040805190810160405280600981526020017f50524f434553534f520000000000000000000000000000000000000000000000815250806040518082805190602001908083835b6020831015156138ce57805182526020820191506020810190506020830392506138a9565b6001836020036101000a038019825116818451168082178552505050505050905001915050604051809103902060001916600160009054906101000a900473ffffffffffffffffffffffffffffffffffffffff1673ffffffffffffffffffffffffffffffffffffffff166327820851336040518263ffffffff167c0100000000000000000000000000000000000000000000000000000000028152600401808273ffffffffffffffffffffffffffffffffffffffff1673ffffffffffffffffffffffffffffffffffffffff168152602001915050600060405180830381600087803b1580156139bc57600080fd5b505af11580156139d0573d6000803e3d6000fd5b505050506040513d6000823e3d601f19601f8201168201806040525060208110156139fa57600080fd5b810190808051640100000000811115613a1257600080fd5b82810190506020810184811115613a2857600080fd5b8151856001820283011164010000000082111715613a4557600080fd5b50509291905050506040518082805190602001908083835b602083101515613a825780518252602082019150602081019050602083039250613a5d565b6001836020036101000a038019825116818451168082178552505050505050905001915050604051809103902060001916141515613abf57600080fd5b806040518082805190602001908083835b602083101515613af55780518252602082019150602081019050602083039250613ad0565b6001836020036101000a038019825116818451168082178552505050505050905001915050604051809103902060001916600160009054906101000a900473ffffffffffffffffffffffffffffffffffffffff1673ffffffffffffffffffffffffffffffffffffffff16634d6b5e00846040518263ffffffff167c0100000000000000000000000000000000000000000000000000000000028152600401808273ffffffffffffffffffffffffffffffffffffffff1673ffffffffffffffffffffffffffffffffffffffff168152602001915050600060405180830381600087803b158015613be357600080fd5b505af1158015613bf7573d6000803e3d6000fd5b505050506040513d6000823e3d601f19601f820116820180604052506020811015613c2157600080fd5b810190808051640100000000811115613c3957600080fd5b82810190506020810184811115613c4f57600080fd5b8151856001820283011164010000000082111715613c6c57600080fd5b50509291905050506040518082805190602001908083835b602083101515613ca95780518252602082019150602081019050602083039250613c84565b6001836020036101000a038019825116818451168082178552505050505050905001915050604051809103902060001916141515613ce657600080fd5b600160009054906101000a900473ffffffffffffffffffffffffffffffffffffffff1673ffffffffffffffffffffffffffffffffffffffff166353a7571f8d8d8d8d8d8d8d8d6040518963ffffffff167c0100000000000000000000000000000000000000000000000000000000028152600401808973ffffffffffffffffffffffffffffffffffffffff1673ffffffffffffffffffffffffffffffffffffffff1681526020018881526020018060200187815260200180602001868152602001806020018060200185810385528b818151815260200191508051906020019080838360005b83811015613de7578082015181840152602081019050613dcc565b50505050905090810190601f168015613e145780820380516001836020036101000a031916815260200191505b50858103845289818151815260200191508051906020019080838360005b83811015613e4d578082015181840152602081019050613e32565b50505050905090810190601f168015613e7a5780820380516001836020036101000a031916815260200191505b50858103835287818151815260200191508051906020019080838360005b83811015613eb3578082015181840152602081019050613e98565b50505050905090810190601f168015613ee05780820380516001836020036101000a031916815260200191505b50858103825286818151815260200191508051906020019080838360005b83811015613f19578082015181840152602081019050613efe565b50505050905090810190601f168015613f465780820380516001836020036101000a031916815260200191505b509c50505050505050505050505050602060405180830381600087803b158015613f6f57600080fd5b505af1158015613f83573d6000803e3d6000fd5b505050506040513d6020811015613f9957600080fd5b810190808051906020019092919050505092503373ffffffffffffffffffffffffffffffffffffffff167fe10398ac963823ae3dc8fc855773d4c9c3d53c5aca656e360a2a5c2ae659f2618d604051808273ffffffffffffffffffffffffffffffffffffffff1673ffffffffffffffffffffffffffffffffffffffff16815260200191505060405180910390a282935050505098975050505050505050565b6000809054906101000a900473ffffffffffffffffffffffffffffffffffffffff1681565b6060806060600160009054906101000a900473ffffffffffffffffffffffffffffffffffffffff1673ffffffffffffffffffffffffffffffffffffffff1663ca5322e5856040518263ffffffff167c0100000000000000000000000000000000000000000000000000000000028152600401808273ffffffffffffffffffffffffffffffffffffffff1673ffffffffffffffffffffffffffffffffffffffff168152602001915050600060405180830381600087803b15801561411f57600080fd5b505af1158015614133573d6000803e3d6000fd5b505050506040513d6000823e3d601f19601f82011682018060405250606081101561415d57600080fd5b81019080805164010000000081111561417557600080fd5b8281019050602081018481111561418b57600080fd5b81518560018202830111640100000000821117156141a857600080fd5b505092919060200180516401000000008111156141c457600080fd5b828101905060208101848111156141da57600080fd5b81518560018202830111640100000000821117156141f757600080fd5b5050929190602001805164010000000081111561421357600080fd5b8281019050602081018481111561422957600080fd5b815185600182028301116401000000008211171561424657600080fd5b50509291905050508093508194508295505050508282829250925092509193909250565b600080856040805190810160405280600981526020017f4841525645535445520000000000000000000000000000000000000000000000815250806040518082805190602001908083835b6020831015156142da57805182526020820191506020810190506020830392506142b5565b6001836020036101000a038019825116818451168082178552505050505050905001915050604051809103902060001916600160009054906101000a900473ffffffffffffffffffffffffffffffffffffffff1673ffffffffffffffffffffffffffffffffffffffff166327820851336040518263ffffffff167c0100000000000000000000000000000000000000000000000000000000028152600401808273ffffffffffffffffffffffffffffffffffffffff1673ffffffffffffffffffffffffffffffffffffffff168152602001915050600060405180830381600087803b1580156143c857600080fd5b505af11580156143dc573d6000803e3d6000fd5b505050506040513d6000823e3d601f19601f82011682018060405250602081101561440657600080fd5b81019080805164010000000081111561441e57600080fd5b8281019050602081018481111561443457600080fd5b815185600182028301116401000000008211171561445157600080fd5b50509291905050506040518082805190602001908083835b60208310151561448e5780518252602082019150602081019050602083039250614469565b6001836020036101000a0380198251168184511680821785525050505050509050019150506040518091039020600019161415156144cb57600080fd5b806040518082805190602001908083835b60208310151561450157805182526020820191506020810190506020830392506144dc565b6001836020036101000a038019825116818451168082178552505050505050905001915050604051809103902060001916600160009054906101000a900473ffffffffffffffffffffffffffffffffffffffff1673ffffffffffffffffffffffffffffffffffffffff16634d6b5e00846040518263ffffffff167c0100000000000000000000000000000000000000000000000000000000028152600401808273ffffffffffffffffffffffffffffffffffffffff1673ffffffffffffffffffffffffffffffffffffffff168152602001915050600060405180830381600087803b1580156145ef57600080fd5b505af1158015614603573d6000803e3d6000fd5b505050506040513d6000823e3d601f19601f82011682018060405250602081101561462d57600080fd5b81019080805164010000000081111561464557600080fd5b8281019050602081018481111561465b57600080fd5b815185600182028301116401000000008211171561467857600080fd5b50509291905050506040518082805190602001908083835b6020831015156146b55780518252602082019150602081019050602083039250614690565b6001836020036101000a0380198251168184511680821785525050505050509050019150506040518091039020600019161415156146f257600080fd5b600160009054906101000a900473ffffffffffffffffffffffffffffffffffffffff1673ffffffffffffffffffffffffffffffffffffffff16630ab36749898989896040518563ffffffff167c0100000000000000000000000000000000000000000000000000000000028152600401808573ffffffffffffffffffffffffffffffffffffffff1673ffffffffffffffffffffffffffffffffffffffff168152602001806020018060200180602001848103845287818151815260200191508051906020019080838360005b838110156147d95780820151818401526020810190506147be565b50505050905090810190601f1680156148065780820380516001836020036101000a031916815260200191505b50848103835286818151815260200191508051906020019080838360005b8381101561483f578082015181840152602081019050614824565b50505050905090810190601f16801561486c5780820380516001836020036101000a031916815260200191505b50848103825285818151815260200191508051906020019080838360005b838110156148a557808201518184015260208101905061488a565b50505050905090810190601f1680156148d25780820380516001836020036101000a031916815260200191505b50975050505050505050602060405180830381600087803b1580156148f657600080fd5b505af115801561490a573d6000803e3d6000fd5b505050506040513d602081101561492057600080fd5b810190808051906020019092919050505092508773ffffffffffffffffffffffffffffffffffffffff163373ffffffffffffffffffffffffffffffffffffffff167fbb868668319b351e6f49e0d6ed1618eda15ffe73f6f6f371e419b8d3963a6be560405160405180910390a3829350505050949350505050565b6000809054906101000a900473ffffffffffffffffffffffffffffffffffffffff1673ffffffffffffffffffffffffffffffffffffffff163373ffffffffffffffffffffffffffffffffffffffff161415156149f657600080fd5b600073ffffffffffffffffffffffffffffffffffffffff168173ffffffffffffffffffffffffffffffffffffffff1614151515614a3257600080fd5b8073ffffffffffffffffffffffffffffffffffffffff166000809054906101000a900473ffffffffffffffffffffffffffffffffffffffff1673ffffffffffffffffffffffffffffffffffffffff167f8be0079c531659141344cd1fd0a4f28419497f9722a3daafe3b4186f6b6457e060405160405180910390a3806000806101000a81548173ffffffffffffffffffffffffffffffffffffffff021916908373ffffffffffffffffffffffffffffffffffffffff16021790555050565b6000606080600060608060606000600160009054906101000a900473ffffffffffffffffffffffffffffffffffffffff1673ffffffffffffffffffffffffffffffffffffffff1663febd04928a6040518263ffffffff167c0100000000000000000000000000000000000000000000000000000000028152600401808273ffffffffffffffffffffffffffffffffffffffff1673ffffffffffffffffffffffffffffffffffffffff168152602001915050600060405180830381600087803b158015614bbb57600080fd5b505af1158015614bcf573d6000803e3d6000fd5b505050506040513d6000823e3d601f19601f82011682018060405250610100811015614bfa57600080fd5b81019080805190602001909291908051640100000000811115614c1c57600080fd5b82810190506020810184811115614c3257600080fd5b8151856001820283011164010000000082111715614c4f57600080fd5b50509291906020018051640100000000811115614c6b57600080fd5b82810190506020810184811115614c8157600080fd5b8151856001820283011164010000000082111715614c9e57600080fd5b5050929190602001805190602001909291908051640100000000811115614cc457600080fd5b82810190506020810184811115614cda57600080fd5b8151856001820283011164010000000082111715614cf757600080fd5b50509291906020018051640100000000811115614d1357600080fd5b82810190506020810184811115614d2957600080fd5b8151856001820283011164010000000082111715614d4657600080fd5b50509291906020018051640100000000811115614d6257600080fd5b82810190506020810184811115614d7857600080fd5b8151856001820283011164010000000082111715614d9557600080fd5b505092919060200180519060200190929190505050809850819950829a50839b50849c50859d50869e50879f5050505050505050508787878787878787975097509750975097509750975097509193959750919395975600a165627a7a723058207dfaa32789360c7b71b470a9d3858da5b0317fa4b48ed8db93896b569fb233ff0029",
  "source": "pragma solidity ^0.4.23;\nimport \"./SupplyChainStorage.sol\";\nimport \"./Ownable.sol\";\n\ncontract CoffeeSupplyChain is Ownable\n{\n  \n    event PerformCultivation(address indexed user, address indexed batchNo);\n    event DoneInspection(address indexed user, address indexed batchNo);\n    event DoneHarvesting(address indexed user, address indexed batchNo);\n    event DoneExporting(address indexed user, address indexed batchNo);\n    event DoneImporting(address indexed user, address indexed batchNo);\n    event DoneProcessing(address indexed user, address indexedbatchNo);\n    \n    \n    /*Modifier*/\n    modifier isValidPerformer(address batchNo, string role) {\n    \n        require(keccak256(supplyChainStorage.getUserRole(msg.sender)) == keccak256(role));\n        require(keccak256(supplyChainStorage.getNextAction(batchNo)) == keccak256(role));\n        _;\n    }\n    \n    /* Storage Variables */    \n    SupplyChainStorage supplyChainStorage;\n    \n    constructor(address _supplyChainAddress) public {\n        supplyChainStorage = SupplyChainStorage(_supplyChainAddress);\n    }\n    \n    \n    /* Get Next Action  */    \n    function getNextAction(address _batchNo) public view returns(string action)\n    {\n       (action) = supplyChainStorage.getNextAction(_batchNo);\n       return (action);\n    }\n    \n    /* perform Basic Cultivation */\n    \n    function addBasicDetails(string _registrationNo,\n                             string _farmerName,\n                             string _farmAddress,\n                             string _exporterName,\n                             string _importerName\n                            ) public onlyOwner returns(address) {\n    \n        address batchNo = supplyChainStorage.setBasicDetails(_registrationNo,\n                                                            _farmerName,\n                                                            _farmAddress,\n                                                            _exporterName,\n                                                            _importerName);\n        \n        emit PerformCultivation(msg.sender, batchNo); \n        \n        return (batchNo);\n    }                            \n    \n    /* get Farm Inspection */\n    \n    function getFarmInspectorData(address _batchNo) public view returns (string coffeeFamily,string typeOfSeed,string fertilizerUsed) {\n        /* Call Storage Contract */\n        (coffeeFamily, typeOfSeed, fertilizerUsed) = supplyChainStorage.getFarmInspectorData(_batchNo);  \n        return (coffeeFamily, typeOfSeed, fertilizerUsed);\n    }\n    \n    /* perform Farm Inspection */\n    \n    function updateFarmInspectorData(address _batchNo,\n                                    string _coffeeFamily,\n                                    string _typeOfSeed,\n                                    string _fertilizerUsed) \n                                public isValidPerformer(_batchNo,'FARM_INSPECTION') returns(bool) {\n        /* Call Storage Contract */\n        bool status = supplyChainStorage.setFarmInspectorData(_batchNo, _coffeeFamily, _typeOfSeed, _fertilizerUsed);  \n        \n        emit DoneInspection(msg.sender, _batchNo);\n        return (status);\n    }\n\n    \n    /* get Harvest */\n    \n    function getHarvesterData(address _batchNo) public view returns (string cropVariety, string temperatureUsed, string humidity) {\n        /* Call Storage Contract */\n        (cropVariety, temperatureUsed, humidity) =  supplyChainStorage.getHarvesterData(_batchNo);  \n        return (cropVariety, temperatureUsed, humidity);\n    }\n    \n    /* perform Harvest */\n    \n    function updateHarvesterData(address _batchNo,\n                                string _cropVariety,\n                                string _tempatureUsed,\n                                string _humidity) \n                                public isValidPerformer(_batchNo,'HARVESTER') returns(bool) {\n                                    \n        /* Call Storage Contract */\n        bool status = supplyChainStorage.setHarvesterData(_batchNo, _cropVariety, _tempatureUsed, _humidity);  \n        \n        emit DoneHarvesting(msg.sender, _batchNo);\n        return (status);\n    }\n    \n    /* get Export */\n    \n    function getExporterData(address _batchNo) public view returns (uint256 quantity,\n                                                                    string destinationAddress,\n                                                                    string shipName,\n                                                                    string shipNo,\n                                                                    uint256 departureDateTime,\n                                                                    uint256 estimateDateTime,\n                                                                    uint256 plantNo,\n                                                                    uint256 exporterId) {\n        /* Call Storage Contract */\n       (quantity,\n        destinationAddress,\n        shipName,\n        shipNo,\n        departureDateTime,\n        estimateDateTime,\n        plantNo,\n        exporterId) =  supplyChainStorage.getExporterData(_batchNo);  \n        \n        return (quantity,\n                destinationAddress,\n                shipName,\n                shipNo,\n                departureDateTime,\n                estimateDateTime,\n                plantNo,\n                exporterId);\n    }\n    \n    /* perform Export */\n    \n    function updateExporterData(address _batchNo,\n                                uint256 _quantity,    \n                                string _destinationAddress,\n                                string _shipName,\n                                string _shipNo,\n                                uint256 _estimateDateTime,\n                                uint256 _plantNo,\n                                uint256 _exporterId) \n                                public isValidPerformer(_batchNo,'EXPORTER') returns(bool) {\n                                    \n        /* Call Storage Contract */\n        bool status = supplyChainStorage.setExporterData(_batchNo, _quantity, _destinationAddress, _shipName,_shipNo, _estimateDateTime,_plantNo,_exporterId);  \n        \n        emit DoneExporting(msg.sender, _batchNo);\n        return (status);\n    }\n    \n    /* get Import */\n    \n    function getImporterData(address _batchNo) public view returns (uint256 quantity,\n                                                                    string shipName,\n                                                                    string shipNo,\n                                                                    uint256 arrivalDateTime,\n                                                                    string transportInfo,\n                                                                    string warehouseName,\n                                                                    string warehouseAddress,\n                                                                    uint256 importerId) {\n        /* Call Storage Contract */\n        (quantity,\n         shipName,\n         shipNo,\n         arrivalDateTime,\n         transportInfo,\n         warehouseName,\n         warehouseAddress,\n         importerId) =  supplyChainStorage.getImporterData(_batchNo);  \n         \n         return (quantity,\n                 shipName,\n                 shipNo,\n                 arrivalDateTime,\n                 transportInfo,\n                 warehouseName,\n                 warehouseAddress,\n                 importerId);\n        \n    }\n    \n    /* perform Import */\n    \n    function updateImporterData(address _batchNo,\n                                uint256 _quantity, \n                                string _shipName,\n                                string _shipNo,\n                                string _transportInfo,\n                                string _warehouseName,\n                                string _warehouseAddress,\n                                uint256 _importerId) \n                                public isValidPerformer(_batchNo,'IMPORTER') returns(bool) {\n                                    \n        /* Call Storage Contract */\n        bool status = supplyChainStorage.setImporterData(_batchNo, _quantity, _shipName, _shipNo, _transportInfo,_warehouseName,_warehouseAddress,_importerId);  \n        \n        emit DoneImporting(msg.sender, _batchNo);\n        return (status);\n    }\n    \n    \n    /* get Processor */\n    \n    function getProccesorData(address _batchNo) public view returns (uint256 quantity,\n                                                                    string tempature,\n                                                                    uint256 rostingDuration,\n                                                                    string internalBatchNo,\n                                                                    uint256 packageDateTime,\n                                                                    string processorName,\n                                                                    string processorAddress) {\n        /* Call Storage Contract */\n        (quantity,\n         tempature,\n         rostingDuration,\n         internalBatchNo,\n         packageDateTime,\n         processorName,\n         processorAddress) =  supplyChainStorage.getProccesorData(_batchNo);  \n         \n         return (quantity,\n                 tempature,\n                 rostingDuration,\n                 internalBatchNo,\n                 packageDateTime,\n                 processorName,\n                 processorAddress);\n \n    }\n    \n    /* perform Processing */\n    \n    function updateProcessorData(address _batchNo,\n                              uint256 _quantity, \n                              string _tempature,\n                              uint256 _rostingDuration,\n                              string _internalBatchNo,\n                              uint256 _packageDateTime,\n                              string _processorName,\n                              string _processorAddress) public isValidPerformer(_batchNo,'PROCESSOR') returns(bool) {\n                                    \n        /* Call Storage Contract */\n        bool status = supplyChainStorage.setProcessorData(_batchNo, \n                                                        _quantity, \n                                                        _tempature, \n                                                        _rostingDuration, \n                                                        _internalBatchNo,\n                                                        _packageDateTime,\n                                                        _processorName,\n                                                        _processorAddress);  \n        \n        emit DoneProcessing(msg.sender, _batchNo);\n        return (status);\n    }\n}",
  "sourcePath": "/opt/lampp/htdocs/CoffeeSupplyChain-truffle/contracts/CoffeeSupplyChain.sol",
  "compiler": {
    "name": "solc",
    "version": "0.4.23+commit.124ca40d.Emscripten.clang"
  },
  "schemaVersion": "2.0.0",
  "updatedAt": "2018-06-05T06:21:59.614Z"
}