{
  "contractName": "SupplyChainUser",
  "abi": [
    {
      "constant": false,
      "inputs": [],
      "name": "renounceOwnership",
      "outputs": [],
      "payable": false,
      "stateMutability": "nonpayable",
      "type": "function"
    },
    {
      "constant": true,
      "inputs": [],
      "name": "owner",
      "outputs": [
        {
          "name": "",
          "type": "address"
        }
      ],
      "payable": false,
      "stateMutability": "view",
      "type": "function"
    },
    {
      "constant": false,
      "inputs": [
        {
          "name": "newOwner",
          "type": "address"
        }
      ],
      "name": "transferOwnership",
      "outputs": [],
      "payable": false,
      "stateMutability": "nonpayable",
      "type": "function"
    },
    {
      "inputs": [
        {
          "name": "_supplyChainAddress",
          "type": "address"
        }
      ],
      "payable": false,
      "stateMutability": "nonpayable",
      "type": "constructor"
    },
    {
      "anonymous": false,
      "inputs": [
        {
          "indexed": true,
          "name": "user",
          "type": "address"
        },
        {
          "indexed": false,
          "name": "name",
          "type": "string"
        },
        {
          "indexed": false,
          "name": "contactNo",
          "type": "string"
        },
        {
          "indexed": false,
          "name": "role",
          "type": "string"
        },
        {
          "indexed": false,
          "name": "isActive",
          "type": "bool"
        },
        {
          "indexed": false,
          "name": "profileHash",
          "type": "string"
        }
      ],
      "name": "UserUpdate",
      "type": "event"
    },
    {
      "anonymous": false,
      "inputs": [
        {
          "indexed": true,
          "name": "user",
          "type": "address"
        },
        {
          "indexed": false,
          "name": "role",
          "type": "string"
        }
      ],
      "name": "UserRoleUpdate",
      "type": "event"
    },
    {
      "anonymous": false,
      "inputs": [
        {
          "indexed": true,
          "name": "previousOwner",
          "type": "address"
        }
      ],
      "name": "OwnershipRenounced",
      "type": "event"
    },
    {
      "anonymous": false,
      "inputs": [
        {
          "indexed": true,
          "name": "previousOwner",
          "type": "address"
        },
        {
          "indexed": true,
          "name": "newOwner",
          "type": "address"
        }
      ],
      "name": "OwnershipTransferred",
      "type": "event"
    },
    {
      "constant": false,
      "inputs": [
        {
          "name": "_name",
          "type": "string"
        },
        {
          "name": "_contactNo",
          "type": "string"
        },
        {
          "name": "_role",
          "type": "string"
        },
        {
          "name": "_isActive",
          "type": "bool"
        },
        {
          "name": "_profileHash",
          "type": "string"
        }
      ],
      "name": "updateUser",
      "outputs": [
        {
          "name": "",
          "type": "bool"
        }
      ],
      "payable": false,
      "stateMutability": "nonpayable",
      "type": "function"
    },
    {
      "constant": false,
      "inputs": [
        {
          "name": "_userAddress",
          "type": "address"
        },
        {
          "name": "_name",
          "type": "string"
        },
        {
          "name": "_contactNo",
          "type": "string"
        },
        {
          "name": "_role",
          "type": "string"
        },
        {
          "name": "_isActive",
          "type": "bool"
        },
        {
          "name": "_profileHash",
          "type": "string"
        }
      ],
      "name": "updateUserForAdmin",
      "outputs": [
        {
          "name": "",
          "type": "bool"
        }
      ],
      "payable": false,
      "stateMutability": "nonpayable",
      "type": "function"
    },
    {
      "constant": true,
      "inputs": [
        {
          "name": "_userAddress",
          "type": "address"
        }
      ],
      "name": "getUser",
      "outputs": [
        {
          "name": "name",
          "type": "string"
        },
        {
          "name": "contactNo",
          "type": "string"
        },
        {
          "name": "role",
          "type": "string"
        },
        {
          "name": "isActive",
          "type": "bool"
        },
        {
          "name": "profileHash",
          "type": "string"
        }
      ],
      "payable": false,
      "stateMutability": "view",
      "type": "function"
    }
  ],
  "bytecode": "0x608060405234801561001057600080fd5b5060405160208061181383398101806040528101908080519060200190929190505050336000806101000a81548173ffffffffffffffffffffffffffffffffffffffff021916908373ffffffffffffffffffffffffffffffffffffffff16021790555080600160006101000a81548173ffffffffffffffffffffffffffffffffffffffff021916908373ffffffffffffffffffffffffffffffffffffffff1602179055505061174f806100c46000396000f300608060405260043610610078576000357c0100000000000000000000000000000000000000000000000000000000900463ffffffff1680631e7d76aa1461007d5780636f77926b146101fc578063715018a6146104075780638da5cb5b1461041e578063f2fde38b14610475578063f5c8dee9146104b8575b600080fd5b34801561008957600080fd5b506101e2600480360381019080803573ffffffffffffffffffffffffffffffffffffffff169060200190929190803590602001908201803590602001908080601f0160208091040260200160405190810160405280939291908181526020018383808284378201915050505050509192919290803590602001908201803590602001908080601f0160208091040260200160405190810160405280939291908181526020018383808284378201915050505050509192919290803590602001908201803590602001908080601f0160208091040260200160405190810160405280939291908181526020018383808284378201915050505050509192919290803515159060200190929190803590602001908201803590602001908080601f0160208091040260200160405190810160405280939291908181526020018383808284378201915050505050509192919290505050610617565b604051808215151515815260200191505060405180910390f35b34801561020857600080fd5b5061023d600480360381019080803573ffffffffffffffffffffffffffffffffffffffff169060200190929190505050610c32565b60405180806020018060200180602001861515151581526020018060200185810385528a818151815260200191508051906020019080838360005b83811015610293578082015181840152602081019050610278565b50505050905090810190601f1680156102c05780820380516001836020036101000a031916815260200191505b50858103845289818151815260200191508051906020019080838360005b838110156102f95780820151818401526020810190506102de565b50505050905090810190601f1680156103265780820380516001836020036101000a031916815260200191505b50858103835288818151815260200191508051906020019080838360005b8381101561035f578082015181840152602081019050610344565b50505050905090810190601f16801561038c5780820380516001836020036101000a031916815260200191505b50858103825286818151815260200191508051906020019080838360005b838110156103c55780820151818401526020810190506103aa565b50505050905090810190601f1680156103f25780820380516001836020036101000a031916815260200191505b50995050505050505050505060405180910390f35b34801561041357600080fd5b5061041c610ee8565b005b34801561042a57600080fd5b50610433610fea565b604051808273ffffffffffffffffffffffffffffffffffffffff1673ffffffffffffffffffffffffffffffffffffffff16815260200191505060405180910390f35b34801561048157600080fd5b506104b6600480360381019080803573ffffffffffffffffffffffffffffffffffffffff16906020019092919050505061100f565b005b3480156104c457600080fd5b506105fd600480360381019080803590602001908201803590602001908080601f0160208091040260200160405190810160405280939291908181526020018383808284378201915050505050509192919290803590602001908201803590602001908080601f0160208091040260200160405190810160405280939291908181526020018383808284378201915050505050509192919290803590602001908201803590602001908080601f0160208091040260200160405190810160405280939291908181526020018383808284378201915050505050509192919290803515159060200190929190803590602001908201803590602001908080601f0160208091040260200160405190810160405280939291908181526020018383808284378201915050505050509192919290505050611164565b604051808215151515815260200191505060405180910390f35b6000806000809054906101000a900473ffffffffffffffffffffffffffffffffffffffff1673ffffffffffffffffffffffffffffffffffffffff163373ffffffffffffffffffffffffffffffffffffffff1614151561067557600080fd5b600073ffffffffffffffffffffffffffffffffffffffff168873ffffffffffffffffffffffffffffffffffffffff16141515156106b157600080fd5b600160009054906101000a900473ffffffffffffffffffffffffffffffffffffffff1673ffffffffffffffffffffffffffffffffffffffff1663fb7a20af8989898989896040518763ffffffff167c0100000000000000000000000000000000000000000000000000000000028152600401808773ffffffffffffffffffffffffffffffffffffffff1673ffffffffffffffffffffffffffffffffffffffff168152602001806020018060200180602001861515151581526020018060200185810385528a818151815260200191508051906020019080838360005b838110156107a857808201518184015260208101905061078d565b50505050905090810190601f1680156107d55780820380516001836020036101000a031916815260200191505b50858103845289818151815260200191508051906020019080838360005b8381101561080e5780820151818401526020810190506107f3565b50505050905090810190601f16801561083b5780820380516001836020036101000a031916815260200191505b50858103835288818151815260200191508051906020019080838360005b83811015610874578082015181840152602081019050610859565b50505050905090810190601f1680156108a15780820380516001836020036101000a031916815260200191505b50858103825286818151815260200191508051906020019080838360005b838110156108da5780820151818401526020810190506108bf565b50505050905090810190601f1680156109075780820380516001836020036101000a031916815260200191505b509a5050505050505050505050602060405180830381600087803b15801561092e57600080fd5b505af1158015610942573d6000803e3d6000fd5b505050506040513d602081101561095857600080fd5b810190808051906020019092919050505090508773ffffffffffffffffffffffffffffffffffffffff167f913673700610456ef7bb668e20badb980d1e4df0ba5bfbdbb6e7bfb0ddbcc6c9888888888860405180806020018060200180602001861515151581526020018060200185810385528a818151815260200191508051906020019080838360005b838110156109fe5780820151818401526020810190506109e3565b50505050905090810190601f168015610a2b5780820380516001836020036101000a031916815260200191505b50858103845289818151815260200191508051906020019080838360005b83811015610a64578082015181840152602081019050610a49565b50505050905090810190601f168015610a915780820380516001836020036101000a031916815260200191505b50858103835288818151815260200191508051906020019080838360005b83811015610aca578082015181840152602081019050610aaf565b50505050905090810190601f168015610af75780820380516001836020036101000a031916815260200191505b50858103825286818151815260200191508051906020019080838360005b83811015610b30578082015181840152602081019050610b15565b50505050905090810190601f168015610b5d5780820380516001836020036101000a031916815260200191505b50995050505050505050505060405180910390a28773ffffffffffffffffffffffffffffffffffffffff167f3b419384c2ac88d62e2daac72f8c6e6398c474d91c63e814a307e3641762c8de866040518080602001828103825283818151815260200191508051906020019080838360005b83811015610bea578082015181840152602081019050610bcf565b50505050905090810190601f168015610c175780820380516001836020036101000a031916815260200191505b509250505060405180910390a2809150509695505050505050565b606080606060006060600073ffffffffffffffffffffffffffffffffffffffff168673ffffffffffffffffffffffffffffffffffffffff1614151515610c7757600080fd5b600160009054906101000a900473ffffffffffffffffffffffffffffffffffffffff1673ffffffffffffffffffffffffffffffffffffffff16636f77926b876040518263ffffffff167c0100000000000000000000000000000000000000000000000000000000028152600401808273ffffffffffffffffffffffffffffffffffffffff1673ffffffffffffffffffffffffffffffffffffffff168152602001915050600060405180830381600087803b158015610d3457600080fd5b505af1158015610d48573d6000803e3d6000fd5b505050506040513d6000823e3d601f19601f8201168201806040525060a0811015610d7257600080fd5b810190808051640100000000811115610d8a57600080fd5b82810190506020810184811115610da057600080fd5b8151856001820283011164010000000082111715610dbd57600080fd5b50509291906020018051640100000000811115610dd957600080fd5b82810190506020810184811115610def57600080fd5b8151856001820283011164010000000082111715610e0c57600080fd5b50509291906020018051640100000000811115610e2857600080fd5b82810190506020810184811115610e3e57600080fd5b8151856001820283011164010000000082111715610e5b57600080fd5b5050929190602001805190602001909291908051640100000000811115610e8157600080fd5b82810190506020810184811115610e9757600080fd5b8151856001820283011164010000000082111715610eb457600080fd5b5050929190505050809550819650829750839850849950505050505084848484849450945094509450945091939590929450565b6000809054906101000a900473ffffffffffffffffffffffffffffffffffffffff1673ffffffffffffffffffffffffffffffffffffffff163373ffffffffffffffffffffffffffffffffffffffff16141515610f4357600080fd5b6000809054906101000a900473ffffffffffffffffffffffffffffffffffffffff1673ffffffffffffffffffffffffffffffffffffffff167ff8df31144d9c2f0f6b59d69b8b98abd5459d07f2742c4df920b25aae33c6482060405160405180910390a260008060006101000a81548173ffffffffffffffffffffffffffffffffffffffff021916908373ffffffffffffffffffffffffffffffffffffffff160217905550565b6000809054906101000a900473ffffffffffffffffffffffffffffffffffffffff1681565b6000809054906101000a900473ffffffffffffffffffffffffffffffffffffffff1673ffffffffffffffffffffffffffffffffffffffff163373ffffffffffffffffffffffffffffffffffffffff1614151561106a57600080fd5b600073ffffffffffffffffffffffffffffffffffffffff168173ffffffffffffffffffffffffffffffffffffffff16141515156110a657600080fd5b8073ffffffffffffffffffffffffffffffffffffffff166000809054906101000a900473ffffffffffffffffffffffffffffffffffffffff1673ffffffffffffffffffffffffffffffffffffffff167f8be0079c531659141344cd1fd0a4f28419497f9722a3daafe3b4186f6b6457e060405160405180910390a3806000806101000a81548173ffffffffffffffffffffffffffffffffffffffff021916908373ffffffffffffffffffffffffffffffffffffffff16021790555050565b600080600073ffffffffffffffffffffffffffffffffffffffff163373ffffffffffffffffffffffffffffffffffffffff16141515156111a357600080fd5b600160009054906101000a900473ffffffffffffffffffffffffffffffffffffffff1673ffffffffffffffffffffffffffffffffffffffff1663fb7a20af3389898989896040518763ffffffff167c0100000000000000000000000000000000000000000000000000000000028152600401808773ffffffffffffffffffffffffffffffffffffffff1673ffffffffffffffffffffffffffffffffffffffff168152602001806020018060200180602001861515151581526020018060200185810385528a818151815260200191508051906020019080838360005b8381101561129a57808201518184015260208101905061127f565b50505050905090810190601f1680156112c75780820380516001836020036101000a031916815260200191505b50858103845289818151815260200191508051906020019080838360005b838110156113005780820151818401526020810190506112e5565b50505050905090810190601f16801561132d5780820380516001836020036101000a031916815260200191505b50858103835288818151815260200191508051906020019080838360005b8381101561136657808201518184015260208101905061134b565b50505050905090810190601f1680156113935780820380516001836020036101000a031916815260200191505b50858103825286818151815260200191508051906020019080838360005b838110156113cc5780820151818401526020810190506113b1565b50505050905090810190601f1680156113f95780820380516001836020036101000a031916815260200191505b509a5050505050505050505050602060405180830381600087803b15801561142057600080fd5b505af1158015611434573d6000803e3d6000fd5b505050506040513d602081101561144a57600080fd5b810190808051906020019092919050505090503373ffffffffffffffffffffffffffffffffffffffff167f913673700610456ef7bb668e20badb980d1e4df0ba5bfbdbb6e7bfb0ddbcc6c9888888888860405180806020018060200180602001861515151581526020018060200185810385528a818151815260200191508051906020019080838360005b838110156114f05780820151818401526020810190506114d5565b50505050905090810190601f16801561151d5780820380516001836020036101000a031916815260200191505b50858103845289818151815260200191508051906020019080838360005b8381101561155657808201518184015260208101905061153b565b50505050905090810190601f1680156115835780820380516001836020036101000a031916815260200191505b50858103835288818151815260200191508051906020019080838360005b838110156115bc5780820151818401526020810190506115a1565b50505050905090810190601f1680156115e95780820380516001836020036101000a031916815260200191505b50858103825286818151815260200191508051906020019080838360005b83811015611622578082015181840152602081019050611607565b50505050905090810190601f16801561164f5780820380516001836020036101000a031916815260200191505b50995050505050505050505060405180910390a23373ffffffffffffffffffffffffffffffffffffffff167f3b419384c2ac88d62e2daac72f8c6e6398c474d91c63e814a307e3641762c8de866040518080602001828103825283818151815260200191508051906020019080838360005b838110156116dc5780820151818401526020810190506116c1565b50505050905090810190601f1680156117095780820380516001836020036101000a031916815260200191505b509250505060405180910390a280915050959450505050505600a165627a7a7230582086d6722c8f40f40b86b1fa128ada5a0d815f68abf1f97ef05ae3dae3107436f10029",
  "source": "pragma solidity ^0.4.23;\nimport \"./SupplyChainStorage.sol\";\nimport \"./Ownable.sol\";\n\ncontract SupplyChainUser is Ownable\n{\n     /*Events*/ \n    event UserUpdate(address indexed user, string name, string contactNo, string role, bool isActive, string profileHash);\n    event UserRoleUpdate(address indexed user, string role); \n    \n     /* Storage Variables */    \n    SupplyChainStorage supplyChainStorage;\n    \n    constructor(address _supplyChainAddress) public {\n        supplyChainStorage = SupplyChainStorage(_supplyChainAddress);\n    }\n    \n    \n     /* Create/Update User */\n\n    function updateUser(string _name, string _contactNo, string _role, bool _isActive,string _profileHash) public returns(bool)\n    {\n        require(msg.sender != address(0));\n        \n        /* Call Storage Contract */\n        bool status = supplyChainStorage.setUser(msg.sender, _name, _contactNo, _role, _isActive,_profileHash);\n        \n         /*call event*/\n        emit UserUpdate(msg.sender,_name,_contactNo,_role,_isActive,_profileHash);\n        emit UserRoleUpdate(msg.sender,_role);\n        \n        return status;\n    }\n    \n    /* Create/Update User For Admin  */\n    function updateUserForAdmin(address _userAddress, string _name, string _contactNo, string _role, bool _isActive,string _profileHash) public onlyOwner returns(bool)\n    {\n        require(_userAddress != address(0));\n        \n        /* Call Storage Contract */\n        bool status = supplyChainStorage.setUser(_userAddress, _name, _contactNo, _role, _isActive, _profileHash);\n        \n         /*call event*/\n        emit UserUpdate(_userAddress,_name,_contactNo,_role,_isActive,_profileHash);\n        emit UserRoleUpdate(_userAddress,_role);\n        \n        return status;\n    }\n    \n    /* get User */\n    function getUser(address _userAddress) public view returns(string name, string contactNo, string role, bool isActive , string profileHash){\n        require(_userAddress != address(0));\n        \n        /*Getting value from struct*/\n       (name, contactNo, role, isActive, profileHash) = supplyChainStorage.getUser(_userAddress);\n       \n       return (name, contactNo, role, isActive, profileHash);\n    }\n}\n",
  "sourcePath": "/opt/lampp/htdocs/web3/demo_coffee/coffee-supplychain-ethereum/contracts/SupplyChainUser.sol",
  "compiler": {
    "name": "solc",
    "version": "0.4.24+commit.e67f0147.Emscripten.clang"
  },
  "schemaVersion": "2.0.1",
  "updatedAt": "2018-09-08T10:06:52.109Z"
}