{
  "contractName": "SupplyChainStorage",
  "abi": [
    {
      "constant": false,
      "inputs": [],
      "name": "renounceOwnership",
      "outputs": [],
      "payable": false,
      "stateMutability": "nonpayable",
      "type": "function"
    },
    {
      "constant": true,
      "inputs": [],
      "name": "owner",
      "outputs": [
        {
          "name": "",
          "type": "address"
        }
      ],
      "payable": false,
      "stateMutability": "view",
      "type": "function"
    },
    {
      "constant": false,
      "inputs": [
        {
          "name": "newOwner",
          "type": "address"
        }
      ],
      "name": "transferOwnership",
      "outputs": [],
      "payable": false,
      "stateMutability": "nonpayable",
      "type": "function"
    },
    {
      "anonymous": false,
      "inputs": [
        {
          "indexed": false,
          "name": "caller",
          "type": "address"
        }
      ],
      "name": "AuthorizedCaller",
      "type": "event"
    },
    {
      "anonymous": false,
      "inputs": [
        {
          "indexed": false,
          "name": "caller",
          "type": "address"
        }
      ],
      "name": "DeAuthorizedCaller",
      "type": "event"
    },
    {
      "anonymous": false,
      "inputs": [
        {
          "indexed": true,
          "name": "previousOwner",
          "type": "address"
        }
      ],
      "name": "OwnershipRenounced",
      "type": "event"
    },
    {
      "anonymous": false,
      "inputs": [
        {
          "indexed": true,
          "name": "previousOwner",
          "type": "address"
        },
        {
          "indexed": true,
          "name": "newOwner",
          "type": "address"
        }
      ],
      "name": "OwnershipTransferred",
      "type": "event"
    },
    {
      "constant": false,
      "inputs": [
        {
          "name": "_caller",
          "type": "address"
        }
      ],
      "name": "authorizeCaller",
      "outputs": [
        {
          "name": "",
          "type": "bool"
        }
      ],
      "payable": false,
      "stateMutability": "nonpayable",
      "type": "function"
    },
    {
      "constant": false,
      "inputs": [
        {
          "name": "_caller",
          "type": "address"
        }
      ],
      "name": "deAuthorizeCaller",
      "outputs": [
        {
          "name": "",
          "type": "bool"
        }
      ],
      "payable": false,
      "stateMutability": "nonpayable",
      "type": "function"
    },
    {
      "constant": true,
      "inputs": [
        {
          "name": "_userAddress",
          "type": "address"
        }
      ],
      "name": "getUserRole",
      "outputs": [
        {
          "name": "",
          "type": "string"
        }
      ],
      "payable": false,
      "stateMutability": "view",
      "type": "function"
    },
    {
      "constant": true,
      "inputs": [
        {
          "name": "_batchNo",
          "type": "address"
        }
      ],
      "name": "getNextAction",
      "outputs": [
        {
          "name": "",
          "type": "string"
        }
      ],
      "payable": false,
      "stateMutability": "view",
      "type": "function"
    },
    {
      "constant": false,
      "inputs": [
        {
          "name": "_userAddress",
          "type": "address"
        },
        {
          "name": "_name",
          "type": "string"
        },
        {
          "name": "_contactNo",
          "type": "string"
        },
        {
          "name": "_role",
          "type": "string"
        },
        {
          "name": "_isActive",
          "type": "bool"
        },
        {
          "name": "_profileHash",
          "type": "string"
        }
      ],
      "name": "setUser",
      "outputs": [
        {
          "name": "",
          "type": "bool"
        }
      ],
      "payable": false,
      "stateMutability": "nonpayable",
      "type": "function"
    },
    {
      "constant": true,
      "inputs": [
        {
          "name": "_userAddress",
          "type": "address"
        }
      ],
      "name": "getUser",
      "outputs": [
        {
          "name": "name",
          "type": "string"
        },
        {
          "name": "contactNo",
          "type": "string"
        },
        {
          "name": "role",
          "type": "string"
        },
        {
          "name": "isActive",
          "type": "bool"
        },
        {
          "name": "profileHash",
          "type": "string"
        }
      ],
      "payable": false,
      "stateMutability": "view",
      "type": "function"
    },
    {
      "constant": true,
      "inputs": [
        {
          "name": "_batchNo",
          "type": "address"
        }
      ],
      "name": "getBasicDetails",
      "outputs": [
        {
          "name": "registrationNo",
          "type": "string"
        },
        {
          "name": "farmerName",
          "type": "string"
        },
        {
          "name": "farmAddress",
          "type": "string"
        },
        {
          "name": "exporterName",
          "type": "string"
        },
        {
          "name": "importerName",
          "type": "string"
        }
      ],
      "payable": false,
      "stateMutability": "view",
      "type": "function"
    },
    {
      "constant": false,
      "inputs": [
        {
          "name": "_registrationNo",
          "type": "string"
        },
        {
          "name": "_farmerName",
          "type": "string"
        },
        {
          "name": "_farmAddress",
          "type": "string"
        },
        {
          "name": "_exporterName",
          "type": "string"
        },
        {
          "name": "_importerName",
          "type": "string"
        }
      ],
      "name": "setBasicDetails",
      "outputs": [
        {
          "name": "",
          "type": "address"
        }
      ],
      "payable": false,
      "stateMutability": "nonpayable",
      "type": "function"
    },
    {
      "constant": false,
      "inputs": [
        {
          "name": "batchNo",
          "type": "address"
        },
        {
          "name": "_coffeeFamily",
          "type": "string"
        },
        {
          "name": "_typeOfSeed",
          "type": "string"
        },
        {
          "name": "_fertilizerUsed",
          "type": "string"
        }
      ],
      "name": "setFarmInspectorData",
      "outputs": [
        {
          "name": "",
          "type": "bool"
        }
      ],
      "payable": false,
      "stateMutability": "nonpayable",
      "type": "function"
    },
    {
      "constant": true,
      "inputs": [
        {
          "name": "batchNo",
          "type": "address"
        }
      ],
      "name": "getFarmInspectorData",
      "outputs": [
        {
          "name": "coffeeFamily",
          "type": "string"
        },
        {
          "name": "typeOfSeed",
          "type": "string"
        },
        {
          "name": "fertilizerUsed",
          "type": "string"
        }
      ],
      "payable": false,
      "stateMutability": "view",
      "type": "function"
    },
    {
      "constant": false,
      "inputs": [
        {
          "name": "batchNo",
          "type": "address"
        },
        {
          "name": "_cropVariety",
          "type": "string"
        },
        {
          "name": "_tempatureUsed",
          "type": "string"
        },
        {
          "name": "_humidity",
          "type": "string"
        }
      ],
      "name": "setHarvesterData",
      "outputs": [
        {
          "name": "",
          "type": "bool"
        }
      ],
      "payable": false,
      "stateMutability": "nonpayable",
      "type": "function"
    },
    {
      "constant": true,
      "inputs": [
        {
          "name": "batchNo",
          "type": "address"
        }
      ],
      "name": "getHarvesterData",
      "outputs": [
        {
          "name": "cropVariety",
          "type": "string"
        },
        {
          "name": "tempatureUsed",
          "type": "string"
        },
        {
          "name": "humidity",
          "type": "string"
        }
      ],
      "payable": false,
      "stateMutability": "view",
      "type": "function"
    },
    {
      "constant": false,
      "inputs": [
        {
          "name": "batchNo",
          "type": "address"
        },
        {
          "name": "_quantity",
          "type": "uint256"
        },
        {
          "name": "_destinationAddress",
          "type": "string"
        },
        {
          "name": "_shipName",
          "type": "string"
        },
        {
          "name": "_shipNo",
          "type": "string"
        },
        {
          "name": "_estimateDateTime",
          "type": "uint256"
        },
        {
          "name": "_plantNo",
          "type": "uint256"
        },
        {
          "name": "_exporterId",
          "type": "uint256"
        }
      ],
      "name": "setExporterData",
      "outputs": [
        {
          "name": "",
          "type": "bool"
        }
      ],
      "payable": false,
      "stateMutability": "nonpayable",
      "type": "function"
    },
    {
      "constant": true,
      "inputs": [
        {
          "name": "batchNo",
          "type": "address"
        }
      ],
      "name": "getExporterData",
      "outputs": [
        {
          "name": "quantity",
          "type": "uint256"
        },
        {
          "name": "destinationAddress",
          "type": "string"
        },
        {
          "name": "shipName",
          "type": "string"
        },
        {
          "name": "shipNo",
          "type": "string"
        },
        {
          "name": "departureDateTime",
          "type": "uint256"
        },
        {
          "name": "estimateDateTime",
          "type": "uint256"
        },
        {
          "name": "plantNo",
          "type": "uint256"
        },
        {
          "name": "exporterId",
          "type": "uint256"
        }
      ],
      "payable": false,
      "stateMutability": "view",
      "type": "function"
    },
    {
      "constant": false,
      "inputs": [
        {
          "name": "batchNo",
          "type": "address"
        },
        {
          "name": "_quantity",
          "type": "uint256"
        },
        {
          "name": "_shipName",
          "type": "string"
        },
        {
          "name": "_shipNo",
          "type": "string"
        },
        {
          "name": "_transportInfo",
          "type": "string"
        },
        {
          "name": "_warehouseName",
          "type": "string"
        },
        {
          "name": "_warehouseAddress",
          "type": "string"
        },
        {
          "name": "_importerId",
          "type": "uint256"
        }
      ],
      "name": "setImporterData",
      "outputs": [
        {
          "name": "",
          "type": "bool"
        }
      ],
      "payable": false,
      "stateMutability": "nonpayable",
      "type": "function"
    },
    {
      "constant": true,
      "inputs": [
        {
          "name": "batchNo",
          "type": "address"
        }
      ],
      "name": "getImporterData",
      "outputs": [
        {
          "name": "quantity",
          "type": "uint256"
        },
        {
          "name": "shipName",
          "type": "string"
        },
        {
          "name": "shipNo",
          "type": "string"
        },
        {
          "name": "arrivalDateTime",
          "type": "uint256"
        },
        {
          "name": "transportInfo",
          "type": "string"
        },
        {
          "name": "warehouseName",
          "type": "string"
        },
        {
          "name": "warehouseAddress",
          "type": "string"
        },
        {
          "name": "importerId",
          "type": "uint256"
        }
      ],
      "payable": false,
      "stateMutability": "view",
      "type": "function"
    },
    {
      "constant": false,
      "inputs": [
        {
          "name": "batchNo",
          "type": "address"
        },
        {
          "name": "_quantity",
          "type": "uint256"
        },
        {
          "name": "_tempature",
          "type": "string"
        },
        {
          "name": "_rostingDuration",
          "type": "uint256"
        },
        {
          "name": "_internalBatchNo",
          "type": "string"
        },
        {
          "name": "_packageDateTime",
          "type": "uint256"
        },
        {
          "name": "_processorName",
          "type": "string"
        },
        {
          "name": "_processorAddress",
          "type": "string"
        }
      ],
      "name": "setProcessorData",
      "outputs": [
        {
          "name": "",
          "type": "bool"
        }
      ],
      "payable": false,
      "stateMutability": "nonpayable",
      "type": "function"
    },
    {
      "constant": true,
      "inputs": [
        {
          "name": "batchNo",
          "type": "address"
        }
      ],
      "name": "getProccesorData",
      "outputs": [
        {
          "name": "quantity",
          "type": "uint256"
        },
        {
          "name": "tempature",
          "type": "string"
        },
        {
          "name": "rostingDuration",
          "type": "uint256"
        },
        {
          "name": "internalBatchNo",
          "type": "string"
        },
        {
          "name": "packageDateTime",
          "type": "uint256"
        },
        {
          "name": "processorName",
          "type": "string"
        },
        {
          "name": "processorAddress",
          "type": "string"
        }
      ],
      "payable": false,
      "stateMutability": "view",
      "type": "function"
    }
  ],
  "bytecode": "0x6080604052336000806101000a81548173ffffffffffffffffffffffffffffffffffffffff021916908373ffffffffffffffffffffffffffffffffffffffff160217905550614f0b806100536000396000f30060806040526004361061011d576000357c0100000000000000000000000000000000000000000000000000000000900463ffffffff16806306ecd6d4146101225780630ab36749146102d95780631bcd250a146104065780631dbcddf414610461578063278208511461058e5780632c388d5d1461064a578063317bc7ab146106a55780634d6b5e00146108ba57806353a7571f146109765780636115eec214610b075780636f77926b14610cd4578063715018a614610edf5780637f89e94b14610ef65780638da5cb5b1461108a578063c36de966146110e1578063ca5322e514611236578063cf374674146113ca578063f2997d761461158b578063f2fde38b146117f7578063fb7a20af1461183a578063febd0492146119b9575b600080fd5b34801561012e57600080fd5b50610163600480360381019080803573ffffffffffffffffffffffffffffffffffffffff169060200190929190505050611c3a565b6040518089815260200180602001806020018060200188815260200187815260200186815260200185815260200184810384528b818151815260200191508051906020019080838360005b838110156101c95780820151818401526020810190506101ae565b50505050905090810190601f1680156101f65780820380516001836020036101000a031916815260200191505b5084810383528a818151815260200191508051906020019080838360005b8381101561022f578082015181840152602081019050610214565b50505050905090810190601f16801561025c5780820380516001836020036101000a031916815260200191505b50848103825289818151815260200191508051906020019080838360005b8381101561029557808201518184015260208101905061027a565b50505050905090810190601f1680156102c25780820380516001836020036101000a031916815260200191505b509b50505050505050505050505060405180910390f35b3480156102e557600080fd5b506103ec600480360381019080803573ffffffffffffffffffffffffffffffffffffffff169060200190929190803590602001908201803590602001908080601f0160208091040260200160405190810160405280939291908181526020018383808284378201915050505050509192919290803590602001908201803590602001908080601f0160208091040260200160405190810160405280939291908181526020018383808284378201915050505050509192919290803590602001908201803590602001908080601f0160208091040260200160405190810160405280939291908181526020018383808284378201915050505050509192919290505050611f61565b604051808215151515815260200191505060405180910390f35b34801561041257600080fd5b50610447600480360381019080803573ffffffffffffffffffffffffffffffffffffffff169060200190929190505050612161565b604051808215151515815260200191505060405180910390f35b34801561046d57600080fd5b50610574600480360381019080803573ffffffffffffffffffffffffffffffffffffffff169060200190929190803590602001908201803590602001908080601f0160208091040260200160405190810160405280939291908181526020018383808284378201915050505050509192919290803590602001908201803590602001908080601f0160208091040260200160405190810160405280939291908181526020018383808284378201915050505050509192919290803590602001908201803590602001908080601f0160208091040260200160405190810160405280939291908181526020018383808284378201915050505050509192919290505050612282565b604051808215151515815260200191505060405180910390f35b34801561059a57600080fd5b506105cf600480360381019080803573ffffffffffffffffffffffffffffffffffffffff169060200190929190505050612482565b6040518080602001828103825283818151815260200191508051906020019080838360005b8381101561060f5780820151818401526020810190506105f4565b50505050905090810190601f16801561063c5780820380516001836020036101000a031916815260200191505b509250505060405180910390f35b34801561065657600080fd5b5061068b600480360381019080803573ffffffffffffffffffffffffffffffffffffffff1690602001909291905050506125c2565b604051808215151515815260200191505060405180910390f35b3480156106b157600080fd5b506106e6600480360381019080803573ffffffffffffffffffffffffffffffffffffffff1690602001909291905050506126e3565b604051808881526020018060200187815260200180602001868152602001806020018060200185810385528b818151815260200191508051906020019080838360005b83811015610744578082015181840152602081019050610729565b50505050905090810190601f1680156107715780820380516001836020036101000a031916815260200191505b50858103845289818151815260200191508051906020019080838360005b838110156107aa57808201518184015260208101905061078f565b50505050905090810190601f1680156107d75780820380516001836020036101000a031916815260200191505b50858103835287818151815260200191508051906020019080838360005b838110156108105780820151818401526020810190506107f5565b50505050905090810190601f16801561083d5780820380516001836020036101000a031916815260200191505b50858103825286818151815260200191508051906020019080838360005b8381101561087657808201518184015260208101905061085b565b50505050905090810190601f1680156108a35780820380516001836020036101000a031916815260200191505b509b50505050505050505050505060405180910390f35b3480156108c657600080fd5b506108fb600480360381019080803573ffffffffffffffffffffffffffffffffffffffff169060200190929190505050612a93565b6040518080602001828103825283818151815260200191508051906020019080838360005b8381101561093b578082015181840152602081019050610920565b50505050905090810190601f1680156109685780820380516001836020036101000a031916815260200191505b509250505060405180910390f35b34801561098257600080fd5b50610aed600480360381019080803573ffffffffffffffffffffffffffffffffffffffff16906020019092919080359060200190929190803590602001908201803590602001908080601f016020809104026020016040519081016040528093929190818152602001838380828437820191505050505050919291929080359060200190929190803590602001908201803590602001908080601f016020809104026020016040519081016040528093929190818152602001838380828437820191505050505050919291929080359060200190929190803590602001908201803590602001908080601f0160208091040260200160405190810160405280939291908181526020018383808284378201915050505050509192919290803590602001908201803590602001908080601f0160208091040260200160405190810160405280939291908181526020018383808284378201915050505050509192919290505050612bd3565b604051808215151515815260200191505060405180910390f35b348015610b1357600080fd5b50610cba600480360381019080803573ffffffffffffffffffffffffffffffffffffffff16906020019092919080359060200190929190803590602001908201803590602001908080601f0160208091040260200160405190810160405280939291908181526020018383808284378201915050505050509192919290803590602001908201803590602001908080601f0160208091040260200160405190810160405280939291908181526020018383808284378201915050505050509192919290803590602001908201803590602001908080601f0160208091040260200160405190810160405280939291908181526020018383808284378201915050505050509192919290803590602001908201803590602001908080601f0160208091040260200160405190810160405280939291908181526020018383808284378201915050505050509192919290803590602001908201803590602001908080601f016020809104026020016040519081016040528093929190818152602001838380828437820191505050505050919291929080359060200190929190505050612dcc565b604051808215151515815260200191505060405180910390f35b348015610ce057600080fd5b50610d15600480360381019080803573ffffffffffffffffffffffffffffffffffffffff169060200190929190505050613090565b60405180806020018060200180602001861515151581526020018060200185810385528a818151815260200191508051906020019080838360005b83811015610d6b578082015181840152602081019050610d50565b50505050905090810190601f168015610d985780820380516001836020036101000a031916815260200191505b50858103845289818151815260200191508051906020019080838360005b83811015610dd1578082015181840152602081019050610db6565b50505050905090810190601f168015610dfe5780820380516001836020036101000a031916815260200191505b50858103835288818151815260200191508051906020019080838360005b83811015610e37578082015181840152602081019050610e1c565b50505050905090810190601f168015610e645780820380516001836020036101000a031916815260200191505b50858103825286818151815260200191508051906020019080838360005b83811015610e9d578082015181840152602081019050610e82565b50505050905090810190601f168015610eca5780820380516001836020036101000a031916815260200191505b50995050505050505050505060405180910390f35b348015610eeb57600080fd5b50610ef461345a565b005b348015610f0257600080fd5b50610f37600480360381019080803573ffffffffffffffffffffffffffffffffffffffff16906020019092919050505061355c565b60405180806020018060200180602001848103845287818151815260200191508051906020019080838360005b83811015610f7f578082015181840152602081019050610f64565b50505050905090810190601f168015610fac5780820380516001836020036101000a031916815260200191505b50848103835286818151815260200191508051906020019080838360005b83811015610fe5578082015181840152602081019050610fca565b50505050905090810190601f1680156110125780820380516001836020036101000a031916815260200191505b50848103825285818151815260200191508051906020019080838360005b8381101561104b578082015181840152602081019050611030565b50505050905090810190601f1680156110785780820380516001836020036101000a031916815260200191505b50965050505050505060405180910390f35b34801561109657600080fd5b5061109f613821565b604051808273ffffffffffffffffffffffffffffffffffffffff1673ffffffffffffffffffffffffffffffffffffffff16815260200191505060405180910390f35b3480156110ed57600080fd5b5061121c600480360381019080803573ffffffffffffffffffffffffffffffffffffffff16906020019092919080359060200190929190803590602001908201803590602001908080601f0160208091040260200160405190810160405280939291908181526020018383808284378201915050505050509192919290803590602001908201803590602001908080601f0160208091040260200160405190810160405280939291908181526020018383808284378201915050505050509192919290803590602001908201803590602001908080601f0160208091040260200160405190810160405280939291908181526020018383808284378201915050505050509192919290803590602001909291908035906020019092919080359060200190929190505050613846565b604051808215151515815260200191505060405180910390f35b34801561124257600080fd5b50611277600480360381019080803573ffffffffffffffffffffffffffffffffffffffff169060200190929190505050613aae565b60405180806020018060200180602001848103845287818151815260200191508051906020019080838360005b838110156112bf5780820151818401526020810190506112a4565b50505050905090810190601f1680156112ec5780820380516001836020036101000a031916815260200191505b50848103835286818151815260200191508051906020019080838360005b8381101561132557808201518184015260208101905061130a565b50505050905090810190601f1680156113525780820380516001836020036101000a031916815260200191505b50848103825285818151815260200191508051906020019080838360005b8381101561138b578082015181840152602081019050611370565b50505050905090810190601f1680156113b85780820380516001836020036101000a031916815260200191505b50965050505050505060405180910390f35b3480156113d657600080fd5b50611549600480360381019080803590602001908201803590602001908080601f0160208091040260200160405190810160405280939291908181526020018383808284378201915050505050509192919290803590602001908201803590602001908080601f0160208091040260200160405190810160405280939291908181526020018383808284378201915050505050509192919290803590602001908201803590602001908080601f0160208091040260200160405190810160405280939291908181526020018383808284378201915050505050509192919290803590602001908201803590602001908080601f0160208091040260200160405190810160405280939291908181526020018383808284378201915050505050509192919290803590602001908201803590602001908080601f0160208091040260200160405190810160405280939291908181526020018383808284378201915050505050509192919290505050613d73565b604051808273ffffffffffffffffffffffffffffffffffffffff1673ffffffffffffffffffffffffffffffffffffffff16815260200191505060405180910390f35b34801561159757600080fd5b506115cc600480360381019080803573ffffffffffffffffffffffffffffffffffffffff16906020019092919050505061405e565b60405180806020018060200180602001806020018060200186810386528b818151815260200191508051906020019080838360005b8381101561161c578082015181840152602081019050611601565b50505050905090810190601f1680156116495780820380516001836020036101000a031916815260200191505b5086810385528a818151815260200191508051906020019080838360005b83811015611682578082015181840152602081019050611667565b50505050905090810190601f1680156116af5780820380516001836020036101000a031916815260200191505b50868103845289818151815260200191508051906020019080838360005b838110156116e85780820151818401526020810190506116cd565b50505050905090810190601f1680156117155780820380516001836020036101000a031916815260200191505b50868103835288818151815260200191508051906020019080838360005b8381101561174e578082015181840152602081019050611733565b50505050905090810190601f16801561177b5780820380516001836020036101000a031916815260200191505b50868103825287818151815260200191508051906020019080838360005b838110156117b4578082015181840152602081019050611799565b50505050905090810190601f1680156117e15780820380516001836020036101000a031916815260200191505b509a505050505050505050505060405180910390f35b34801561180357600080fd5b50611838600480360381019080803573ffffffffffffffffffffffffffffffffffffffff169060200190929190505050614480565b005b34801561184657600080fd5b5061199f600480360381019080803573ffffffffffffffffffffffffffffffffffffffff169060200190929190803590602001908201803590602001908080601f0160208091040260200160405190810160405280939291908181526020018383808284378201915050505050509192919290803590602001908201803590602001908080601f0160208091040260200160405190810160405280939291908181526020018383808284378201915050505050509192919290803590602001908201803590602001908080601f0160208091040260200160405190810160405280939291908181526020018383808284378201915050505050509192919290803515159060200190929190803590602001908201803590602001908080601f01602080910402602001604051908101604052809392919081815260200183838082843782019150505050505091929192905050506145d5565b604051808215151515815260200191505060405180910390f35b3480156119c557600080fd5b506119fa600480360381019080803573ffffffffffffffffffffffffffffffffffffffff1690602001909291905050506147ec565b60405180898152602001806020018060200188815260200180602001806020018060200187815260200186810386528d818151815260200191508051906020019080838360005b83811015611a5c578082015181840152602081019050611a41565b50505050905090810190601f168015611a895780820380516001836020036101000a031916815260200191505b5086810385528c818151815260200191508051906020019080838360005b83811015611ac2578082015181840152602081019050611aa7565b50505050905090810190601f168015611aef5780820380516001836020036101000a031916815260200191505b5086810384528a818151815260200191508051906020019080838360005b83811015611b28578082015181840152602081019050611b0d565b50505050905090810190601f168015611b555780820380516001836020036101000a031916815260200191505b50868103835289818151815260200191508051906020019080838360005b83811015611b8e578082015181840152602081019050611b73565b50505050905090810190601f168015611bbb5780820380516001836020036101000a031916815260200191505b50868103825288818151815260200191508051906020019080838360005b83811015611bf4578082015181840152602081019050611bd9565b50505050905090810190601f168015611c215780820380516001836020036101000a031916815260200191505b509d505050505050505050505050505060405180910390f35b60006060806060600080600080611c4f614c4a565b60011515600360003373ffffffffffffffffffffffffffffffffffffffff1673ffffffffffffffffffffffffffffffffffffffff16815260200190815260200160002060009054906101000a900460ff161515141515611cae57600080fd5b600760008b73ffffffffffffffffffffffffffffffffffffffff1673ffffffffffffffffffffffffffffffffffffffff1681526020019081526020016000206101006040519081016040529081600082018054600181600116156101000203166002900480601f016020809104026020016040519081016040528092919081815260200182805460018160011615610100020316600290048015611d935780601f10611d6857610100808354040283529160200191611d93565b820191906000526020600020905b815481529060010190602001808311611d7657829003601f168201915b50505050508152602001600182018054600181600116156101000203166002900480601f016020809104026020016040519081016040528092919081815260200182805460018160011615610100020316600290048015611e355780601f10611e0a57610100808354040283529160200191611e35565b820191906000526020600020905b815481529060010190602001808311611e1857829003601f168201915b50505050508152602001600282018054600181600116156101000203166002900480601f016020809104026020016040519081016040528092919081815260200182805460018160011615610100020316600290048015611ed75780601f10611eac57610100808354040283529160200191611ed7565b820191906000526020600020905b815481529060010190602001808311611eba57829003601f168201915b50505050508152602001600382015481526020016004820154815260200160058201548152602001600682015481526020016007820154815250509050806060015181600001518260200151836040015184608001518560a001518660c001518760e001518696508595508494509850985098509850985098509850985050919395975091939597565b600060011515600360003373ffffffffffffffffffffffffffffffffffffffff1673ffffffffffffffffffffffffffffffffffffffff16815260200190815260200160002060009054906101000a900460ff161515141515611fc257600080fd5b8360176000019080519060200190611fdb929190614c90565b508260176001019080519060200190611ff5929190614c90565b50816017600201908051906020019061200f929190614c90565b506017600660008773ffffffffffffffffffffffffffffffffffffffff1673ffffffffffffffffffffffffffffffffffffffff16815260200190815260200160002060008201816000019080546001816001161561010002031660029004612078929190614d10565b50600182018160010190805460018160011615610100020316600290046120a0929190614d10565b50600282018160020190805460018160011615610100020316600290046120c8929190614d10565b509050506040805190810160405280600881526020017f4558504f52544552000000000000000000000000000000000000000000000000815250600a60008773ffffffffffffffffffffffffffffffffffffffff1673ffffffffffffffffffffffffffffffffffffffff1681526020019081526020016000209080519060200190612154929190614c90565b5060019050949350505050565b60008060009054906101000a900473ffffffffffffffffffffffffffffffffffffffff1673ffffffffffffffffffffffffffffffffffffffff163373ffffffffffffffffffffffffffffffffffffffff161415156121be57600080fd5b6000600360008473ffffffffffffffffffffffffffffffffffffffff1673ffffffffffffffffffffffffffffffffffffffff16815260200190815260200160002060006101000a81548160ff0219169083151502179055507f9e8ca6ff03906e81e8a6a03d4f96b7edb0b97f0ed9d07ef1b699fff63438549682604051808273ffffffffffffffffffffffffffffffffffffffff1673ffffffffffffffffffffffffffffffffffffffff16815260200191505060405180910390a160019050919050565b600060011515600360003373ffffffffffffffffffffffffffffffffffffffff1673ffffffffffffffffffffffffffffffffffffffff16815260200190815260200160002060009054906101000a900460ff1615151415156122e357600080fd5b83601460000190805190602001906122fc929190614c90565b508260146001019080519060200190612316929190614c90565b508160146002019080519060200190612330929190614c90565b506014600560008773ffffffffffffffffffffffffffffffffffffffff1673ffffffffffffffffffffffffffffffffffffffff16815260200190815260200160002060008201816000019080546001816001161561010002031660029004612399929190614d10565b50600182018160010190805460018160011615610100020316600290046123c1929190614d10565b50600282018160020190805460018160011615610100020316600290046123e9929190614d10565b509050506040805190810160405280600981526020017f4841525645535445520000000000000000000000000000000000000000000000815250600a60008773ffffffffffffffffffffffffffffffffffffffff1673ffffffffffffffffffffffffffffffffffffffff1681526020019081526020016000209080519060200190612475929190614c90565b5060019050949350505050565b606060011515600360003373ffffffffffffffffffffffffffffffffffffffff1673ffffffffffffffffffffffffffffffffffffffff16815260200190815260200160002060009054906101000a900460ff1615151415156124e357600080fd5b600260008373ffffffffffffffffffffffffffffffffffffffff1673ffffffffffffffffffffffffffffffffffffffff1681526020019081526020016000208054600181600116156101000203166002900480601f0160208091040260200160405190810160405280929190818152602001828054600181600116156101000203166002900480156125b65780601f1061258b576101008083540402835291602001916125b6565b820191906000526020600020905b81548152906001019060200180831161259957829003601f168201915b50505050509050919050565b60008060009054906101000a900473ffffffffffffffffffffffffffffffffffffffff1673ffffffffffffffffffffffffffffffffffffffff163373ffffffffffffffffffffffffffffffffffffffff1614151561261f57600080fd5b6001600360008473ffffffffffffffffffffffffffffffffffffffff1673ffffffffffffffffffffffffffffffffffffffff16815260200190815260200160002060006101000a81548160ff0219169083151502179055507f8afeca650897be3183b7c0d24eba96a1b990f75c4bd74a0cfb2c0a71aec48e6182604051808273ffffffffffffffffffffffffffffffffffffffff1673ffffffffffffffffffffffffffffffffffffffff16815260200191505060405180910390a160019050919050565b600060606000606060006060806126f8614d97565b60011515600360003373ffffffffffffffffffffffffffffffffffffffff1673ffffffffffffffffffffffffffffffffffffffff16815260200190815260200160002060009054906101000a900460ff16151514151561275757600080fd5b600960008a73ffffffffffffffffffffffffffffffffffffffff1673ffffffffffffffffffffffffffffffffffffffff16815260200190815260200160002060e06040519081016040529081600082015481526020016001820154815260200160028201548152602001600382018054600181600116156101000203166002900480601f0160208091040260200160405190810160405280929190818152602001828054600181600116156101000203166002900480156128595780601f1061282e57610100808354040283529160200191612859565b820191906000526020600020905b81548152906001019060200180831161283c57829003601f168201915b50505050508152602001600482018054600181600116156101000203166002900480601f0160208091040260200160405190810160405280929190818152602001828054600181600116156101000203166002900480156128fb5780601f106128d0576101008083540402835291602001916128fb565b820191906000526020600020905b8154815290600101906020018083116128de57829003601f168201915b50505050508152602001600582018054600181600116156101000203166002900480601f01602080910402602001604051908101604052809291908181526020018280546001816001161561010002031660029004801561299d5780601f106129725761010080835404028352916020019161299d565b820191906000526020600020905b81548152906001019060200180831161298057829003601f168201915b50505050508152602001600682018054600181600116156101000203166002900480601f016020809104026020016040519081016040528092919081815260200182805460018160011615610100020316600290048015612a3f5780601f10612a1457610100808354040283529160200191612a3f565b820191906000526020600020905b815481529060010190602001808311612a2257829003601f168201915b5050505050815250509050806000015181606001518260200151836080015184604001518560a001518660c00151859550839350819150809050975097509750975097509750975050919395979092949650565b606060011515600360003373ffffffffffffffffffffffffffffffffffffffff1673ffffffffffffffffffffffffffffffffffffffff16815260200190815260200160002060009054906101000a900460ff161515141515612af457600080fd5b600a60008373ffffffffffffffffffffffffffffffffffffffff1673ffffffffffffffffffffffffffffffffffffffff1681526020019081526020016000208054600181600116156101000203166002900480601f016020809104026020016040519081016040528092919081815260200182805460018160011615610100020316600290048015612bc75780601f10612b9c57610100808354040283529160200191612bc7565b820191906000526020600020905b815481529060010190602001808311612baa57829003601f168201915b50505050509050919050565b600060011515600360003373ffffffffffffffffffffffffffffffffffffffff1673ffffffffffffffffffffffffffffffffffffffff16815260200190815260200160002060009054906101000a900460ff161515141515612c3457600080fd5b87602a6000018190555086602a6003019080519060200190612c57929190614c90565b5085602a6001018190555084602a6004019080519060200190612c7b929190614c90565b5083602a6002018190555082602a6005019080519060200190612c9f929190614c90565b5081602a6006019080519060200190612cb9929190614c90565b50602a600960008b73ffffffffffffffffffffffffffffffffffffffff1673ffffffffffffffffffffffffffffffffffffffff16815260200190815260200160002060008201548160000155600182015481600101556002820154816002015560038201816003019080546001816001161561010002031660029004612d40929190614d10565b5060048201816004019080546001816001161561010002031660029004612d68929190614d10565b5060058201816005019080546001816001161561010002031660029004612d90929190614d10565b5060068201816006019080546001816001161561010002031660029004612db8929190614d10565b509050506001905098975050505050505050565b600060011515600360003373ffffffffffffffffffffffffffffffffffffffff1673ffffffffffffffffffffffffffffffffffffffff16815260200190815260200160002060009054906101000a900460ff161515141515612e2d57600080fd5b876022600001819055508660226003019080519060200190612e50929190614c90565b508560226004019080519060200190612e6a929190614c90565b50426022600101819055508460226005019080519060200190612e8e929190614c90565b508360226006019080519060200190612ea8929190614c90565b508260226007019080519060200190612ec2929190614c90565b50816022600201819055506022600860008b73ffffffffffffffffffffffffffffffffffffffff1673ffffffffffffffffffffffffffffffffffffffff16815260200190815260200160002060008201548160000155600182015481600101556002820154816002015560038201816003019080546001816001161561010002031660029004612f53929190614d10565b5060048201816004019080546001816001161561010002031660029004612f7b929190614d10565b5060058201816005019080546001816001161561010002031660029004612fa3929190614d10565b5060068201816006019080546001816001161561010002031660029004612fcb929190614d10565b5060078201816007019080546001816001161561010002031660029004612ff3929190614d10565b509050506040805190810160405280600981526020017f50524f434553534f520000000000000000000000000000000000000000000000815250600a60008b73ffffffffffffffffffffffffffffffffffffffff1673ffffffffffffffffffffffffffffffffffffffff168152602001908152602001600020908051906020019061307f929190614c90565b506001905098975050505050505050565b6060806060600060606130a1614dd5565b60011515600360003373ffffffffffffffffffffffffffffffffffffffff1673ffffffffffffffffffffffffffffffffffffffff16815260200190815260200160002060009054906101000a900460ff16151514151561310057600080fd5b600160008873ffffffffffffffffffffffffffffffffffffffff1673ffffffffffffffffffffffffffffffffffffffff16815260200190815260200160002060806040519081016040529081600082018054600181600116156101000203166002900480601f0160208091040260200160405190810160405280929190818152602001828054600181600116156101000203166002900480156131e45780601f106131b9576101008083540402835291602001916131e4565b820191906000526020600020905b8154815290600101906020018083116131c757829003601f168201915b50505050508152602001600182018054600181600116156101000203166002900480601f0160208091040260200160405190810160405280929190818152602001828054600181600116156101000203166002900480156132865780601f1061325b57610100808354040283529160200191613286565b820191906000526020600020905b81548152906001019060200180831161326957829003601f168201915b505050505081526020016002820160009054906101000a900460ff16151515158152602001600382018054600181600116156101000203166002900480601f0160208091040260200160405190810160405280929190818152602001828054600181600116156101000203166002900480156133435780601f1061331857610100808354040283529160200191613343565b820191906000526020600020905b81548152906001019060200180831161332657829003601f168201915b505050505081525050905080600001518160200151600260008a73ffffffffffffffffffffffffffffffffffffffff1673ffffffffffffffffffffffffffffffffffffffff16815260200190815260200160002083604001518460600151849450839350828054600181600116156101000203166002900480601f01602080910402602001604051908101604052809291908181526020018280546001816001161561010002031660029004801561343c5780601f106134115761010080835404028352916020019161343c565b820191906000526020600020905b81548152906001019060200180831161341f57829003601f168201915b50505050509250809050955095509550955095505091939590929450565b6000809054906101000a900473ffffffffffffffffffffffffffffffffffffffff1673ffffffffffffffffffffffffffffffffffffffff163373ffffffffffffffffffffffffffffffffffffffff161415156134b557600080fd5b6000809054906101000a900473ffffffffffffffffffffffffffffffffffffffff1673ffffffffffffffffffffffffffffffffffffffff167ff8df31144d9c2f0f6b59d69b8b98abd5459d07f2742c4df920b25aae33c6482060405160405180910390a260008060006101000a81548173ffffffffffffffffffffffffffffffffffffffff021916908373ffffffffffffffffffffffffffffffffffffffff160217905550565b6060806060613569614e00565b60011515600360003373ffffffffffffffffffffffffffffffffffffffff1673ffffffffffffffffffffffffffffffffffffffff16815260200190815260200160002060009054906101000a900460ff1615151415156135c857600080fd5b600560008673ffffffffffffffffffffffffffffffffffffffff1673ffffffffffffffffffffffffffffffffffffffff16815260200190815260200160002060606040519081016040529081600082018054600181600116156101000203166002900480601f0160208091040260200160405190810160405280929190818152602001828054600181600116156101000203166002900480156136ac5780601f10613681576101008083540402835291602001916136ac565b820191906000526020600020905b81548152906001019060200180831161368f57829003601f168201915b50505050508152602001600182018054600181600116156101000203166002900480601f01602080910402602001604051908101604052809291908181526020018280546001816001161561010002031660029004801561374e5780601f106137235761010080835404028352916020019161374e565b820191906000526020600020905b81548152906001019060200180831161373157829003601f168201915b50505050508152602001600282018054600181600116156101000203166002900480601f0160208091040260200160405190810160405280929190818152602001828054600181600116156101000203166002900480156137f05780601f106137c5576101008083540402835291602001916137f0565b820191906000526020600020905b8154815290600101906020018083116137d357829003601f168201915b5050505050815250509050806000015181602001518260400151829250819150809050935093509350509193909250565b6000809054906101000a900473ffffffffffffffffffffffffffffffffffffffff1681565b600060011515600360003373ffffffffffffffffffffffffffffffffffffffff1673ffffffffffffffffffffffffffffffffffffffff16815260200190815260200160002060009054906101000a900460ff1615151415156138a757600080fd5b87601a6003018190555086601a60000190805190602001906138ca929190614c90565b5085601a60010190805190602001906138e4929190614c90565b5084601a60020190805190602001906138fe929190614c90565b5042601a6004018190555083601a6005018190555082601a6006018190555081601a60070181905550601a600760008b73ffffffffffffffffffffffffffffffffffffffff1673ffffffffffffffffffffffffffffffffffffffff1681526020019081526020016000206000820181600001908054600181600116156101000203166002900461398f929190614d10565b50600182018160010190805460018160011615610100020316600290046139b7929190614d10565b50600282018160020190805460018160011615610100020316600290046139df929190614d10565b5060038201548160030155600482015481600401556005820154816005015560068201548160060155600782015481600701559050506040805190810160405280600881526020017f494d504f52544552000000000000000000000000000000000000000000000000815250600a60008b73ffffffffffffffffffffffffffffffffffffffff1673ffffffffffffffffffffffffffffffffffffffff1681526020019081526020016000209080519060200190613a9d929190614c90565b506001905098975050505050505050565b6060806060613abb614e22565b60011515600360003373ffffffffffffffffffffffffffffffffffffffff1673ffffffffffffffffffffffffffffffffffffffff16815260200190815260200160002060009054906101000a900460ff161515141515613b1a57600080fd5b600660008673ffffffffffffffffffffffffffffffffffffffff1673ffffffffffffffffffffffffffffffffffffffff16815260200190815260200160002060606040519081016040529081600082018054600181600116156101000203166002900480601f016020809104026020016040519081016040528092919081815260200182805460018160011615610100020316600290048015613bfe5780601f10613bd357610100808354040283529160200191613bfe565b820191906000526020600020905b815481529060010190602001808311613be157829003601f168201915b50505050508152602001600182018054600181600116156101000203166002900480601f016020809104026020016040519081016040528092919081815260200182805460018160011615610100020316600290048015613ca05780601f10613c7557610100808354040283529160200191613ca0565b820191906000526020600020905b815481529060010190602001808311613c8357829003601f168201915b50505050508152602001600282018054600181600116156101000203166002900480601f016020809104026020016040519081016040528092919081815260200182805460018160011615610100020316600290048015613d425780601f10613d1757610100808354040283529160200191613d42565b820191906000526020600020905b815481529060010190602001808311613d2557829003601f168201915b5050505050815250509050806000015181602001518260400151829250819150809050935093509350509193909250565b600080600060011515600360003373ffffffffffffffffffffffffffffffffffffffff1673ffffffffffffffffffffffffffffffffffffffff16815260200190815260200160002060009054906101000a900460ff161515141515613dd757600080fd5b3342604051808373ffffffffffffffffffffffffffffffffffffffff1673ffffffffffffffffffffffffffffffffffffffff166c0100000000000000000000000002815260140182815260200192505050604051809103902060019004915081905087600f6000019080519060200190613e52929190614c90565b5086600f6001019080519060200190613e6c929190614c90565b5085600f6002019080519060200190613e86929190614c90565b5084600f6003019080519060200190613ea0929190614c90565b5083600f6004019080519060200190613eba929190614c90565b50600f600460008373ffffffffffffffffffffffffffffffffffffffff1673ffffffffffffffffffffffffffffffffffffffff16815260200190815260200160002060008201816000019080546001816001161561010002031660029004613f23929190614d10565b5060018201816001019080546001816001161561010002031660029004613f4b929190614d10565b5060028201816002019080546001816001161561010002031660029004613f73929190614d10565b5060038201816003019080546001816001161561010002031660029004613f9b929190614d10565b5060048201816004019080546001816001161561010002031660029004613fc3929190614d10565b509050506040805190810160405280600f81526020017f4641524d5f494e5350454354494f4e0000000000000000000000000000000000815250600a60008373ffffffffffffffffffffffffffffffffffffffff1673ffffffffffffffffffffffffffffffffffffffff168152602001908152602001600020908051906020019061404f929190614c90565b50809250505095945050505050565b606080606080606061406e614e44565b60011515600360003373ffffffffffffffffffffffffffffffffffffffff1673ffffffffffffffffffffffffffffffffffffffff16815260200190815260200160002060009054906101000a900460ff1615151415156140cd57600080fd5b600460008873ffffffffffffffffffffffffffffffffffffffff1673ffffffffffffffffffffffffffffffffffffffff16815260200190815260200160002060a06040519081016040529081600082018054600181600116156101000203166002900480601f0160208091040260200160405190810160405280929190818152602001828054600181600116156101000203166002900480156141b15780601f10614186576101008083540402835291602001916141b1565b820191906000526020600020905b81548152906001019060200180831161419457829003601f168201915b50505050508152602001600182018054600181600116156101000203166002900480601f0160208091040260200160405190810160405280929190818152602001828054600181600116156101000203166002900480156142535780601f1061422857610100808354040283529160200191614253565b820191906000526020600020905b81548152906001019060200180831161423657829003601f168201915b50505050508152602001600282018054600181600116156101000203166002900480601f0160208091040260200160405190810160405280929190818152602001828054600181600116156101000203166002900480156142f55780601f106142ca576101008083540402835291602001916142f5565b820191906000526020600020905b8154815290600101906020018083116142d857829003601f168201915b50505050508152602001600382018054600181600116156101000203166002900480601f0160208091040260200160405190810160405280929190818152602001828054600181600116156101000203166002900480156143975780601f1061436c57610100808354040283529160200191614397565b820191906000526020600020905b81548152906001019060200180831161437a57829003601f168201915b50505050508152602001600482018054600181600116156101000203166002900480601f0160208091040260200160405190810160405280929190818152602001828054600181600116156101000203166002900480156144395780601f1061440e57610100808354040283529160200191614439565b820191906000526020600020905b81548152906001019060200180831161441c57829003601f168201915b505050505081525050905080600001518160200151826040015183606001518460800151849450839350829250819150809050955095509550955095505091939590929450565b6000809054906101000a900473ffffffffffffffffffffffffffffffffffffffff1673ffffffffffffffffffffffffffffffffffffffff163373ffffffffffffffffffffffffffffffffffffffff161415156144db57600080fd5b600073ffffffffffffffffffffffffffffffffffffffff168173ffffffffffffffffffffffffffffffffffffffff161415151561451757600080fd5b8073ffffffffffffffffffffffffffffffffffffffff166000809054906101000a900473ffffffffffffffffffffffffffffffffffffffff1673ffffffffffffffffffffffffffffffffffffffff167f8be0079c531659141344cd1fd0a4f28419497f9722a3daafe3b4186f6b6457e060405160405180910390a3806000806101000a81548173ffffffffffffffffffffffffffffffffffffffff021916908373ffffffffffffffffffffffffffffffffffffffff16021790555050565b600060011515600360003373ffffffffffffffffffffffffffffffffffffffff1673ffffffffffffffffffffffffffffffffffffffff16815260200190815260200160002060009054906101000a900460ff16151514151561463657600080fd5b85600b600001908051906020019061464f929190614c90565b5084600b6001019080519060200190614669929190614c90565b5082600b60020160006101000a81548160ff02191690831515021790555081600b60030190805190602001906146a0929190614c90565b50600b600160008973ffffffffffffffffffffffffffffffffffffffff1673ffffffffffffffffffffffffffffffffffffffff16815260200190815260200160002060008201816000019080546001816001161561010002031660029004614709929190614d10565b5060018201816001019080546001816001161561010002031660029004614731929190614d10565b506002820160009054906101000a900460ff168160020160006101000a81548160ff02191690831515021790555060038201816003019080546001816001161561010002031660029004614786929190614d10565b5090505083600260008973ffffffffffffffffffffffffffffffffffffffff1673ffffffffffffffffffffffffffffffffffffffff16815260200190815260200160002090805190602001906147dd929190614c90565b50600190509695505050505050565b6000606080600060608060606000614802614e74565b60011515600360003373ffffffffffffffffffffffffffffffffffffffff1673ffffffffffffffffffffffffffffffffffffffff16815260200190815260200160002060009054906101000a900460ff16151514151561486157600080fd5b600860008b73ffffffffffffffffffffffffffffffffffffffff1673ffffffffffffffffffffffffffffffffffffffff1681526020019081526020016000206101006040519081016040529081600082015481526020016001820154815260200160028201548152602001600382018054600181600116156101000203166002900480601f0160208091040260200160405190810160405280929190818152602001828054600181600116156101000203166002900480156149645780601f1061493957610100808354040283529160200191614964565b820191906000526020600020905b81548152906001019060200180831161494757829003601f168201915b50505050508152602001600482018054600181600116156101000203166002900480601f016020809104026020016040519081016040528092919081815260200182805460018160011615610100020316600290048015614a065780601f106149db57610100808354040283529160200191614a06565b820191906000526020600020905b8154815290600101906020018083116149e957829003601f168201915b50505050508152602001600582018054600181600116156101000203166002900480601f016020809104026020016040519081016040528092919081815260200182805460018160011615610100020316600290048015614aa85780601f10614a7d57610100808354040283529160200191614aa8565b820191906000526020600020905b815481529060010190602001808311614a8b57829003601f168201915b50505050508152602001600682018054600181600116156101000203166002900480601f016020809104026020016040519081016040528092919081815260200182805460018160011615610100020316600290048015614b4a5780601f10614b1f57610100808354040283529160200191614b4a565b820191906000526020600020905b815481529060010190602001808311614b2d57829003601f168201915b50505050508152602001600782018054600181600116156101000203166002900480601f016020809104026020016040519081016040528092919081815260200182805460018160011615610100020316600290048015614bec5780601f10614bc157610100808354040283529160200191614bec565b820191906000526020600020905b815481529060010190602001808311614bcf57829003601f168201915b505050505081525050905080600001518160600151826080015183602001518460a001518560c001518660e0015187604001518696508595508393508292508191509850985098509850985098509850985050919395975091939597565b6101006040519081016040528060608152602001606081526020016060815260200160008152602001600081526020016000815260200160008152602001600081525090565b828054600181600116156101000203166002900490600052602060002090601f016020900481019282601f10614cd157805160ff1916838001178555614cff565b82800160010185558215614cff579182015b82811115614cfe578251825591602001919060010190614ce3565b5b509050614d0c9190614eba565b5090565b828054600181600116156101000203166002900490600052602060002090601f016020900481019282601f10614d495780548555614d86565b82800160010185558215614d8657600052602060002091601f016020900482015b82811115614d85578254825591600101919060010190614d6a565b5b509050614d939190614eba565b5090565b60e060405190810160405280600081526020016000815260200160008152602001606081526020016060815260200160608152602001606081525090565b6080604051908101604052806060815260200160608152602001600015158152602001606081525090565b6060604051908101604052806060815260200160608152602001606081525090565b6060604051908101604052806060815260200160608152602001606081525090565b60a06040519081016040528060608152602001606081526020016060815260200160608152602001606081525090565b6101006040519081016040528060008152602001600081526020016000815260200160608152602001606081526020016060815260200160608152602001606081525090565b614edc91905b80821115614ed8576000816000905550600101614ec0565b5090565b905600a165627a7a72305820764fb653d0ca6da85c3419b059014575059a52e4af83fa294b89bc47c5860d2b0029",
  "source": "pragma solidity ^0.4.23;\n\nimport \"./SupplyChainStorageOwnable.sol\";\n\ncontract SupplyChainStorage is SupplyChainStorageOwnable {\n    \n    /* Events */\n    event AuthorizedCaller(address caller);\n    event DeAuthorizedCaller(address caller);\n    \n    /* Modifiers */\n    \n    modifier onlyAuthCaller(){\n        require(authorizedCaller[msg.sender] == true);\n        _;\n    }\n    \n    \n    /* User Related */\n    struct user {\n        string name;\n        string contactNo;\n        bool isActive;\n        string profileHash;\n    } \n    \n    mapping(address => user) userDetails;\n    mapping(address => string) userRole;\n    \n    /* Caller Mapping */\n    mapping(address => bool) authorizedCaller;\n    \n    /*User Roles\n        SUPER_ADMIN,\n        FARM_INSPECTION,\n        HARVESTER,\n        EXPORTER,\n        IMPORTER,\n        PROCESSOR\n    */\n    \n    /* Process Related */\n     struct basicDetails {\n        string registrationNo;\n        string farmerName;\n        string farmAddress;\n        string exporterName;\n        string importerName;\n        \n    }\n    \n    struct farmInspector {\n        string coffeeFamily;\n        string typeOfSeed;\n        string fertilizerUsed;\n    }\n    \n    struct harvester {\n        string cropVariety;\n        string tempatureUsed;\n        string humidity;\n    }    \n    \n    struct exporter {\n        string destinationAddress;\n        string shipName;\n        string shipNo;\n        uint256 quantity;\n        uint256 departureDateTime;\n        uint256 estimateDateTime;\n        uint256 plantNo;\n        uint256 exporterId;\n    }\n    \n    struct importer {\n        uint256 quantity;\n        uint256 arrivalDateTime;\n        uint256 importerId;\n        string shipName;\n        string shipNo;\n        string transportInfo;\n        string warehouseName;\n        string warehouseAddress;\n    }\n    \n    struct processor {\n        uint256 quantity;\n        uint256 rostingDuration;\n        uint256 packageDateTime;\n        string tempature;\n        string internalBatchNo;\n        string processorName;\n        string processorAddress;\n    }\n    \n    mapping (address => basicDetails) batchBasicDetails;\n    mapping (address => farmInspector) batchFarmInspector;\n    mapping (address => harvester) batchHarvester;\n    mapping (address => exporter) batchExporter;\n    mapping (address => importer) batchImporter;\n    mapping (address => processor) batchProcessor;\n    mapping (address => string) nextAction;\n    \n    /*Initialize struct pointer*/\n    user userDetail;\n    basicDetails basicDetailsData;\n    farmInspector farmInspectorData;\n    harvester harvesterData;\n    exporter exporterData;\n    importer importerData;\n    processor processorData; \n    \n    /* authorize caller */\n    function authorizeCaller(address _caller) public onlyOwner returns(bool) \n    {\n        authorizedCaller[_caller] = true;\n        emit AuthorizedCaller(_caller);\n        return true;\n    }\n    \n    /* deauthorize caller */\n    function deAuthorizeCaller(address _caller) public onlyOwner returns(bool) \n    {\n        authorizedCaller[_caller] = false;\n        emit DeAuthorizedCaller(_caller);\n        return true;\n    }\n    \n    \n    \n    /* Get User Role */\n    function getUserRole(address _userAddress) public onlyAuthCaller view returns(string)\n    {\n        return userRole[_userAddress];\n    }\n    \n    /* Get Next Action  */    \n    function getNextAction(address _batchNo) public onlyAuthCaller view returns(string)\n    {\n        return nextAction[_batchNo];\n    }\n        \n    /*set user details*/\n    function setUser(address _userAddress,\n                     string _name, \n                     string _contactNo, \n                     string _role, \n                     bool _isActive,\n                     string _profileHash) public onlyAuthCaller returns(bool){\n        \n        /*store data into struct*/\n        userDetail.name = _name;\n        userDetail.contactNo = _contactNo;\n        userDetail.isActive = _isActive;\n        userDetail.profileHash = _profileHash;\n        \n        /*store data into mapping*/\n        userDetails[_userAddress] = userDetail;\n        userRole[_userAddress] = _role;\n        \n        return true;\n    }  \n    \n    /*get user details*/\n    function getUser(address _userAddress) public onlyAuthCaller view returns(string name, \n                                                                    string contactNo, \n                                                                    string role,\n                                                                    bool isActive, \n                                                                    string profileHash\n                                                                ){\n\n        /*Getting value from struct*/\n        user memory tmpData = userDetails[_userAddress];\n        \n        return (tmpData.name, tmpData.contactNo, userRole[_userAddress], tmpData.isActive, tmpData.profileHash);\n    }\n    \n    /*get batch basicDetails*/\n    function getBasicDetails(address _batchNo) public onlyAuthCaller view returns(string registrationNo,\n                             string farmerName,\n                             string farmAddress,\n                             string exporterName,\n                             string importerName) {\n        \n        basicDetails memory tmpData = batchBasicDetails[_batchNo];\n        \n        return (tmpData.registrationNo,tmpData.farmerName,tmpData.farmAddress,tmpData.exporterName,tmpData.importerName);\n    }\n    \n    /*set batch basicDetails*/\n    function setBasicDetails(string _registrationNo,\n                             string _farmerName,\n                             string _farmAddress,\n                             string _exporterName,\n                             string _importerName\n                             \n                            ) public onlyAuthCaller returns(address) {\n        \n        uint tmpData = uint(keccak256(msg.sender, now));\n        address batchNo = address(tmpData);\n        \n        basicDetailsData.registrationNo = _registrationNo;\n        basicDetailsData.farmerName = _farmerName;\n        basicDetailsData.farmAddress = _farmAddress;\n        basicDetailsData.exporterName = _exporterName;\n        basicDetailsData.importerName = _importerName;\n        \n        batchBasicDetails[batchNo] = basicDetailsData;\n        \n        nextAction[batchNo] = 'FARM_INSPECTION';   \n        \n        \n        return batchNo;\n    }\n    \n    /*set farm Inspector data*/\n    function setFarmInspectorData(address batchNo,\n                                    string _coffeeFamily,\n                                    string _typeOfSeed,\n                                    string _fertilizerUsed) public onlyAuthCaller returns(bool){\n        farmInspectorData.coffeeFamily = _coffeeFamily;\n        farmInspectorData.typeOfSeed = _typeOfSeed;\n        farmInspectorData.fertilizerUsed = _fertilizerUsed;\n        \n        batchFarmInspector[batchNo] = farmInspectorData;\n        \n        nextAction[batchNo] = 'HARVESTER'; \n        \n        return true;\n    }\n    \n    \n    /*get farm inspactor data*/\n    function getFarmInspectorData(address batchNo) public onlyAuthCaller view returns (string coffeeFamily,string typeOfSeed,string fertilizerUsed){\n        \n        farmInspector memory tmpData = batchFarmInspector[batchNo];\n        return (tmpData.coffeeFamily, tmpData.typeOfSeed, tmpData.fertilizerUsed);\n    }\n    \n\n    /*set Harvester data*/\n    function setHarvesterData(address batchNo,\n                              string _cropVariety,\n                              string _tempatureUsed,\n                              string _humidity) public onlyAuthCaller returns(bool){\n        harvesterData.cropVariety = _cropVariety;\n        harvesterData.tempatureUsed = _tempatureUsed;\n        harvesterData.humidity = _humidity;\n        \n        batchHarvester[batchNo] = harvesterData;\n        \n        nextAction[batchNo] = 'EXPORTER'; \n        \n        return true;\n    }\n    \n    /*get farm Harvester data*/\n    function getHarvesterData(address batchNo) public onlyAuthCaller view returns(string cropVariety,\n                                                                                           string tempatureUsed,\n                                                                                           string humidity){\n        \n        harvester memory tmpData = batchHarvester[batchNo];\n        return (tmpData.cropVariety, tmpData.tempatureUsed, tmpData.humidity);\n    }\n    \n    /*set Exporter data*/\n    function setExporterData(address batchNo,\n                              uint256 _quantity,    \n                              string _destinationAddress,\n                              string _shipName,\n                              string _shipNo,\n                              uint256 _estimateDateTime,\n                              uint256 _plantNo,\n                              uint256 _exporterId) public onlyAuthCaller returns(bool){\n        \n        exporterData.quantity = _quantity;\n        exporterData.destinationAddress = _destinationAddress;\n        exporterData.shipName = _shipName;\n        exporterData.shipNo = _shipNo;\n        exporterData.departureDateTime = now;\n        exporterData.estimateDateTime = _estimateDateTime;\n        exporterData.plantNo = _plantNo;\n        exporterData.exporterId = _exporterId;\n        \n        batchExporter[batchNo] = exporterData;\n        \n        nextAction[batchNo] = 'IMPORTER'; \n        \n        return true;\n    }\n    \n    /*get Exporter data*/\n    function getExporterData(address batchNo) public onlyAuthCaller view returns(uint256 quantity,\n                                                                string destinationAddress,\n                                                                string shipName,\n                                                                string shipNo,\n                                                                uint256 departureDateTime,\n                                                                uint256 estimateDateTime,\n                                                                uint256 plantNo,\n                                                                uint256 exporterId){\n        \n        \n        exporter memory tmpData = batchExporter[batchNo];\n        \n        \n        return (tmpData.quantity, \n                tmpData.destinationAddress, \n                tmpData.shipName, \n                tmpData.shipNo, \n                tmpData.departureDateTime, \n                tmpData.estimateDateTime, \n                tmpData.plantNo,\n                tmpData.exporterId);\n                \n        \n    }\n\n    \n    /*set Importer data*/\n    function setImporterData(address batchNo,\n                              uint256 _quantity, \n                              string _shipName,\n                              string _shipNo,\n                              string _transportInfo,\n                              string _warehouseName,\n                              string _warehouseAddress,\n                              uint256 _importerId) public onlyAuthCaller returns(bool){\n        \n        importerData.quantity = _quantity;\n        importerData.shipName = _shipName;\n        importerData.shipNo = _shipNo;\n        importerData.arrivalDateTime = now;\n        importerData.transportInfo = _transportInfo;\n        importerData.warehouseName = _warehouseName;\n        importerData.warehouseAddress = _warehouseAddress;\n        importerData.importerId = _importerId;\n        \n        batchImporter[batchNo] = importerData;\n        \n        nextAction[batchNo] = 'PROCESSOR'; \n        \n        return true;\n    }\n    \n    /*get Importer data*/\n    function getImporterData(address batchNo) public onlyAuthCaller view returns(uint256 quantity,\n                                                                                        string shipName,\n                                                                                        string shipNo,\n                                                                                        uint256 arrivalDateTime,\n                                                                                        string transportInfo,\n                                                                                        string warehouseName,\n                                                                                        string warehouseAddress,\n                                                                                        uint256 importerId){\n        \n        importer memory tmpData = batchImporter[batchNo];\n        \n        \n        return (tmpData.quantity, \n                tmpData.shipName, \n                tmpData.shipNo, \n                tmpData.arrivalDateTime, \n                tmpData.transportInfo,\n                tmpData.warehouseName,\n                tmpData.warehouseAddress,\n                tmpData.importerId);\n                \n        \n    }\n\n    /*set Proccessor data*/\n    function setProcessorData(address batchNo,\n                              uint256 _quantity, \n                              string _tempature,\n                              uint256 _rostingDuration,\n                              string _internalBatchNo,\n                              uint256 _packageDateTime,\n                              string _processorName,\n                              string _processorAddress) public onlyAuthCaller returns(bool){\n        \n        \n        processorData.quantity = _quantity;\n        processorData.tempature = _tempature;\n        processorData.rostingDuration = _rostingDuration;\n        processorData.internalBatchNo = _internalBatchNo;\n        processorData.packageDateTime = _packageDateTime;\n        processorData.processorName = _processorName;\n        processorData.processorAddress = _processorAddress;\n        \n        batchProcessor[batchNo] = processorData;\n        \n        return true;\n    }\n    \n    \n    /*get Proccessor data*/\n    function getProccesorData( address batchNo) public onlyAuthCaller view returns(\n                                                                                        uint256 quantity,\n                                                                                        string tempature,\n                                                                                        uint256 rostingDuration,\n                                                                                        string internalBatchNo,\n                                                                                        uint256 packageDateTime,\n                                                                                        string processorName,\n                                                                                        string processorAddress){\n\n        processor memory tmpData = batchProcessor[batchNo];\n        \n        \n        return (\n                tmpData.quantity, \n                tmpData.tempature, \n                tmpData.rostingDuration, \n                tmpData.internalBatchNo,\n                tmpData.packageDateTime,\n                tmpData.processorName,\n                tmpData.processorAddress);\n                \n        \n    }\n  \n}    ",
  "sourcePath": "/opt/lampp/htdocs/CoffeeSupplyChain-truffle/contracts/SupplyChainStorage.sol",
  "compiler": {
    "name": "solc",
    "version": "0.4.23+commit.124ca40d.Emscripten.clang"
  },
  "schemaVersion": "2.0.0",
  "updatedAt": "2018-05-29T12:34:01.146Z"
}