{
  "contractName": "SupplyChainStorage",
  "abi": [
    {
      "constant": true,
      "inputs": [],
      "name": "lastAccess",
      "outputs": [
        {
          "name": "",
          "type": "address"
        }
      ],
      "payable": false,
      "stateMutability": "view",
      "type": "function"
    },
    {
      "constant": false,
      "inputs": [],
      "name": "renounceOwnership",
      "outputs": [],
      "payable": false,
      "stateMutability": "nonpayable",
      "type": "function"
    },
    {
      "constant": true,
      "inputs": [],
      "name": "owner",
      "outputs": [
        {
          "name": "",
          "type": "address"
        }
      ],
      "payable": false,
      "stateMutability": "view",
      "type": "function"
    },
    {
      "constant": false,
      "inputs": [
        {
          "name": "newOwner",
          "type": "address"
        }
      ],
      "name": "transferOwnership",
      "outputs": [],
      "payable": false,
      "stateMutability": "nonpayable",
      "type": "function"
    },
    {
      "inputs": [],
      "payable": false,
      "stateMutability": "nonpayable",
      "type": "constructor"
    },
    {
      "anonymous": false,
      "inputs": [
        {
          "indexed": false,
          "name": "caller",
          "type": "address"
        }
      ],
      "name": "AuthorizedCaller",
      "type": "event"
    },
    {
      "anonymous": false,
      "inputs": [
        {
          "indexed": false,
          "name": "caller",
          "type": "address"
        }
      ],
      "name": "DeAuthorizedCaller",
      "type": "event"
    },
    {
      "anonymous": false,
      "inputs": [
        {
          "indexed": true,
          "name": "previousOwner",
          "type": "address"
        }
      ],
      "name": "OwnershipRenounced",
      "type": "event"
    },
    {
      "anonymous": false,
      "inputs": [
        {
          "indexed": true,
          "name": "previousOwner",
          "type": "address"
        },
        {
          "indexed": true,
          "name": "newOwner",
          "type": "address"
        }
      ],
      "name": "OwnershipTransferred",
      "type": "event"
    },
    {
      "constant": false,
      "inputs": [
        {
          "name": "_caller",
          "type": "address"
        }
      ],
      "name": "authorizeCaller",
      "outputs": [
        {
          "name": "",
          "type": "bool"
        }
      ],
      "payable": false,
      "stateMutability": "nonpayable",
      "type": "function"
    },
    {
      "constant": false,
      "inputs": [
        {
          "name": "_caller",
          "type": "address"
        }
      ],
      "name": "deAuthorizeCaller",
      "outputs": [
        {
          "name": "",
          "type": "bool"
        }
      ],
      "payable": false,
      "stateMutability": "nonpayable",
      "type": "function"
    },
    {
      "constant": true,
      "inputs": [
        {
          "name": "_userAddress",
          "type": "address"
        }
      ],
      "name": "getUserRole",
      "outputs": [
        {
          "name": "",
          "type": "string"
        }
      ],
      "payable": false,
      "stateMutability": "view",
      "type": "function"
    },
    {
      "constant": true,
      "inputs": [
        {
          "name": "_batchNo",
          "type": "address"
        }
      ],
      "name": "getNextAction",
      "outputs": [
        {
          "name": "",
          "type": "string"
        }
      ],
      "payable": false,
      "stateMutability": "view",
      "type": "function"
    },
    {
      "constant": false,
      "inputs": [
        {
          "name": "_userAddress",
          "type": "address"
        },
        {
          "name": "_name",
          "type": "string"
        },
        {
          "name": "_contactNo",
          "type": "string"
        },
        {
          "name": "_role",
          "type": "string"
        },
        {
          "name": "_isActive",
          "type": "bool"
        },
        {
          "name": "_profileHash",
          "type": "string"
        }
      ],
      "name": "setUser",
      "outputs": [
        {
          "name": "",
          "type": "bool"
        }
      ],
      "payable": false,
      "stateMutability": "nonpayable",
      "type": "function"
    },
    {
      "constant": true,
      "inputs": [
        {
          "name": "_userAddress",
          "type": "address"
        }
      ],
      "name": "getUser",
      "outputs": [
        {
          "name": "name",
          "type": "string"
        },
        {
          "name": "contactNo",
          "type": "string"
        },
        {
          "name": "role",
          "type": "string"
        },
        {
          "name": "isActive",
          "type": "bool"
        },
        {
          "name": "profileHash",
          "type": "string"
        }
      ],
      "payable": false,
      "stateMutability": "view",
      "type": "function"
    },
    {
      "constant": true,
      "inputs": [
        {
          "name": "_batchNo",
          "type": "address"
        }
      ],
      "name": "getBasicDetails",
      "outputs": [
        {
          "name": "registrationNo",
          "type": "string"
        },
        {
          "name": "farmerName",
          "type": "string"
        },
        {
          "name": "farmAddress",
          "type": "string"
        },
        {
          "name": "exporterName",
          "type": "string"
        },
        {
          "name": "importerName",
          "type": "string"
        }
      ],
      "payable": false,
      "stateMutability": "view",
      "type": "function"
    },
    {
      "constant": false,
      "inputs": [
        {
          "name": "_registrationNo",
          "type": "string"
        },
        {
          "name": "_farmerName",
          "type": "string"
        },
        {
          "name": "_farmAddress",
          "type": "string"
        },
        {
          "name": "_exporterName",
          "type": "string"
        },
        {
          "name": "_importerName",
          "type": "string"
        }
      ],
      "name": "setBasicDetails",
      "outputs": [
        {
          "name": "",
          "type": "address"
        }
      ],
      "payable": false,
      "stateMutability": "nonpayable",
      "type": "function"
    },
    {
      "constant": false,
      "inputs": [
        {
          "name": "batchNo",
          "type": "address"
        },
        {
          "name": "_coffeeFamily",
          "type": "string"
        },
        {
          "name": "_typeOfSeed",
          "type": "string"
        },
        {
          "name": "_fertilizerUsed",
          "type": "string"
        }
      ],
      "name": "setFarmInspectorData",
      "outputs": [
        {
          "name": "",
          "type": "bool"
        }
      ],
      "payable": false,
      "stateMutability": "nonpayable",
      "type": "function"
    },
    {
      "constant": true,
      "inputs": [
        {
          "name": "batchNo",
          "type": "address"
        }
      ],
      "name": "getFarmInspectorData",
      "outputs": [
        {
          "name": "coffeeFamily",
          "type": "string"
        },
        {
          "name": "typeOfSeed",
          "type": "string"
        },
        {
          "name": "fertilizerUsed",
          "type": "string"
        }
      ],
      "payable": false,
      "stateMutability": "view",
      "type": "function"
    },
    {
      "constant": false,
      "inputs": [
        {
          "name": "batchNo",
          "type": "address"
        },
        {
          "name": "_cropVariety",
          "type": "string"
        },
        {
          "name": "_tempatureUsed",
          "type": "string"
        },
        {
          "name": "_humidity",
          "type": "string"
        }
      ],
      "name": "setHarvesterData",
      "outputs": [
        {
          "name": "",
          "type": "bool"
        }
      ],
      "payable": false,
      "stateMutability": "nonpayable",
      "type": "function"
    },
    {
      "constant": true,
      "inputs": [
        {
          "name": "batchNo",
          "type": "address"
        }
      ],
      "name": "getHarvesterData",
      "outputs": [
        {
          "name": "cropVariety",
          "type": "string"
        },
        {
          "name": "temperatureUsed",
          "type": "string"
        },
        {
          "name": "humidity",
          "type": "string"
        }
      ],
      "payable": false,
      "stateMutability": "view",
      "type": "function"
    },
    {
      "constant": false,
      "inputs": [
        {
          "name": "batchNo",
          "type": "address"
        },
        {
          "name": "_quantity",
          "type": "uint256"
        },
        {
          "name": "_destinationAddress",
          "type": "string"
        },
        {
          "name": "_shipName",
          "type": "string"
        },
        {
          "name": "_shipNo",
          "type": "string"
        },
        {
          "name": "_estimateDateTime",
          "type": "uint256"
        },
        {
          "name": "_plantNo",
          "type": "uint256"
        },
        {
          "name": "_exporterId",
          "type": "uint256"
        }
      ],
      "name": "setExporterData",
      "outputs": [
        {
          "name": "",
          "type": "bool"
        }
      ],
      "payable": false,
      "stateMutability": "nonpayable",
      "type": "function"
    },
    {
      "constant": true,
      "inputs": [
        {
          "name": "batchNo",
          "type": "address"
        }
      ],
      "name": "getExporterData",
      "outputs": [
        {
          "name": "quantity",
          "type": "uint256"
        },
        {
          "name": "destinationAddress",
          "type": "string"
        },
        {
          "name": "shipName",
          "type": "string"
        },
        {
          "name": "shipNo",
          "type": "string"
        },
        {
          "name": "departureDateTime",
          "type": "uint256"
        },
        {
          "name": "estimateDateTime",
          "type": "uint256"
        },
        {
          "name": "plantNo",
          "type": "uint256"
        },
        {
          "name": "exporterId",
          "type": "uint256"
        }
      ],
      "payable": false,
      "stateMutability": "view",
      "type": "function"
    },
    {
      "constant": false,
      "inputs": [
        {
          "name": "batchNo",
          "type": "address"
        },
        {
          "name": "_quantity",
          "type": "uint256"
        },
        {
          "name": "_shipName",
          "type": "string"
        },
        {
          "name": "_shipNo",
          "type": "string"
        },
        {
          "name": "_transportInfo",
          "type": "string"
        },
        {
          "name": "_warehouseName",
          "type": "string"
        },
        {
          "name": "_warehouseAddress",
          "type": "string"
        },
        {
          "name": "_importerId",
          "type": "uint256"
        }
      ],
      "name": "setImporterData",
      "outputs": [
        {
          "name": "",
          "type": "bool"
        }
      ],
      "payable": false,
      "stateMutability": "nonpayable",
      "type": "function"
    },
    {
      "constant": true,
      "inputs": [
        {
          "name": "batchNo",
          "type": "address"
        }
      ],
      "name": "getImporterData",
      "outputs": [
        {
          "name": "quantity",
          "type": "uint256"
        },
        {
          "name": "shipName",
          "type": "string"
        },
        {
          "name": "shipNo",
          "type": "string"
        },
        {
          "name": "arrivalDateTime",
          "type": "uint256"
        },
        {
          "name": "transportInfo",
          "type": "string"
        },
        {
          "name": "warehouseName",
          "type": "string"
        },
        {
          "name": "warehouseAddress",
          "type": "string"
        },
        {
          "name": "importerId",
          "type": "uint256"
        }
      ],
      "payable": false,
      "stateMutability": "view",
      "type": "function"
    },
    {
      "constant": false,
      "inputs": [
        {
          "name": "batchNo",
          "type": "address"
        },
        {
          "name": "_quantity",
          "type": "uint256"
        },
        {
          "name": "_tempature",
          "type": "string"
        },
        {
          "name": "_rostingDuration",
          "type": "uint256"
        },
        {
          "name": "_internalBatchNo",
          "type": "string"
        },
        {
          "name": "_packageDateTime",
          "type": "uint256"
        },
        {
          "name": "_processorName",
          "type": "string"
        },
        {
          "name": "_processorAddress",
          "type": "string"
        }
      ],
      "name": "setProcessorData",
      "outputs": [
        {
          "name": "",
          "type": "bool"
        }
      ],
      "payable": false,
      "stateMutability": "nonpayable",
      "type": "function"
    },
    {
      "constant": true,
      "inputs": [
        {
          "name": "batchNo",
          "type": "address"
        }
      ],
      "name": "getProccesorData",
      "outputs": [
        {
          "name": "quantity",
          "type": "uint256"
        },
        {
          "name": "tempature",
          "type": "string"
        },
        {
          "name": "rostingDuration",
          "type": "uint256"
        },
        {
          "name": "internalBatchNo",
          "type": "string"
        },
        {
          "name": "packageDateTime",
          "type": "uint256"
        },
        {
          "name": "processorName",
          "type": "string"
        },
        {
          "name": "processorAddress",
          "type": "string"
        }
      ],
      "payable": false,
      "stateMutability": "view",
      "type": "function"
    }
  ],
  "bytecode": "0x608060405234801561001057600080fd5b50336000806101000a81548173ffffffffffffffffffffffffffffffffffffffff021916908373ffffffffffffffffffffffffffffffffffffffff1602179055506001600460003373ffffffffffffffffffffffffffffffffffffffff1673ffffffffffffffffffffffffffffffffffffffff16815260200190815260200160002060006101000a81548160ff021916908360ff1602179055507f8afeca650897be3183b7c0d24eba96a1b990f75c4bd74a0cfb2c0a71aec48e6133604051808273ffffffffffffffffffffffffffffffffffffffff1673ffffffffffffffffffffffffffffffffffffffff16815260200191505060405180910390a16153528061011c6000396000f300608060405260043610610128576000357c0100000000000000000000000000000000000000000000000000000000900463ffffffff16806306ecd6d41461012d5780630ab36749146102e45780631bcd250a146104115780631dbcddf41461046c57806327820851146105995780632c388d5d14610655578063317bc7ab146106b05780633480898b146108c55780634d6b5e001461091c57806353a7571f146109d85780636115eec214610b695780636f77926b14610d36578063715018a614610f415780637f89e94b14610f585780638da5cb5b146110ec578063c36de96614611143578063ca5322e514611298578063cf3746741461142c578063f2997d76146115ed578063f2fde38b14611859578063fb7a20af1461189c578063febd049214611a1b575b600080fd5b34801561013957600080fd5b5061016e600480360381019080803573ffffffffffffffffffffffffffffffffffffffff169060200190929190505050611c9c565b6040518089815260200180602001806020018060200188815260200187815260200186815260200185815260200184810384528b818151815260200191508051906020019080838360005b838110156101d45780820151818401526020810190506101b9565b50505050905090810190601f1680156102015780820380516001836020036101000a031916815260200191505b5084810383528a818151815260200191508051906020019080838360005b8381101561023a57808201518184015260208101905061021f565b50505050905090810190601f1680156102675780820380516001836020036101000a031916815260200191505b50848103825289818151815260200191508051906020019080838360005b838110156102a0578082015181840152602081019050610285565b50505050905090810190601f1680156102cd5780820380516001836020036101000a031916815260200191505b509b50505050505050505050505060405180910390f35b3480156102f057600080fd5b506103f7600480360381019080803573ffffffffffffffffffffffffffffffffffffffff169060200190929190803590602001908201803590602001908080601f0160208091040260200160405190810160405280939291908181526020018383808284378201915050505050509192919290803590602001908201803590602001908080601f0160208091040260200160405190810160405280939291908181526020018383808284378201915050505050509192919290803590602001908201803590602001908080601f0160208091040260200160405190810160405280939291908181526020018383808284378201915050505050509192919290505050612003565b604051808215151515815260200191505060405180910390f35b34801561041d57600080fd5b50610452600480360381019080803573ffffffffffffffffffffffffffffffffffffffff169060200190929190505050612243565b604051808215151515815260200191505060405180910390f35b34801561047857600080fd5b5061057f600480360381019080803573ffffffffffffffffffffffffffffffffffffffff169060200190929190803590602001908201803590602001908080601f0160208091040260200160405190810160405280939291908181526020018383808284378201915050505050509192919290803590602001908201803590602001908080601f0160208091040260200160405190810160405280939291908181526020018383808284378201915050505050509192919290803590602001908201803590602001908080601f0160208091040260200160405190810160405280939291908181526020018383808284378201915050505050509192919290505050612365565b604051808215151515815260200191505060405180910390f35b3480156105a557600080fd5b506105da600480360381019080803573ffffffffffffffffffffffffffffffffffffffff1690602001909291905050506125a5565b6040518080602001828103825283818151815260200191508051906020019080838360005b8381101561061a5780820151818401526020810190506105ff565b50505050905090810190601f1680156106475780820380516001836020036101000a031916815260200191505b509250505060405180910390f35b34801561066157600080fd5b50610696600480360381019080803573ffffffffffffffffffffffffffffffffffffffff169060200190929190505050612725565b604051808215151515815260200191505060405180910390f35b3480156106bc57600080fd5b506106f1600480360381019080803573ffffffffffffffffffffffffffffffffffffffff169060200190929190505050612847565b604051808881526020018060200187815260200180602001868152602001806020018060200185810385528b818151815260200191508051906020019080838360005b8381101561074f578082015181840152602081019050610734565b50505050905090810190601f16801561077c5780820380516001836020036101000a031916815260200191505b50858103845289818151815260200191508051906020019080838360005b838110156107b557808201518184015260208101905061079a565b50505050905090810190601f1680156107e25780820380516001836020036101000a031916815260200191505b50858103835287818151815260200191508051906020019080838360005b8381101561081b578082015181840152602081019050610800565b50505050905090810190601f1680156108485780820380516001836020036101000a031916815260200191505b50858103825286818151815260200191508051906020019080838360005b83811015610881578082015181840152602081019050610866565b50505050905090810190601f1680156108ae5780820380516001836020036101000a031916815260200191505b509b50505050505050505050505060405180910390f35b3480156108d157600080fd5b506108da612c37565b604051808273ffffffffffffffffffffffffffffffffffffffff1673ffffffffffffffffffffffffffffffffffffffff16815260200191505060405180910390f35b34801561092857600080fd5b5061095d600480360381019080803573ffffffffffffffffffffffffffffffffffffffff169060200190929190505050612c5d565b6040518080602001828103825283818151815260200191508051906020019080838360005b8381101561099d578082015181840152602081019050610982565b50505050905090810190601f1680156109ca5780820380516001836020036101000a031916815260200191505b509250505060405180910390f35b3480156109e457600080fd5b50610b4f600480360381019080803573ffffffffffffffffffffffffffffffffffffffff16906020019092919080359060200190929190803590602001908201803590602001908080601f016020809104026020016040519081016040528093929190818152602001838380828437820191505050505050919291929080359060200190929190803590602001908201803590602001908080601f016020809104026020016040519081016040528093929190818152602001838380828437820191505050505050919291929080359060200190929190803590602001908201803590602001908080601f0160208091040260200160405190810160405280939291908181526020018383808284378201915050505050509192919290803590602001908201803590602001908080601f0160208091040260200160405190810160405280939291908181526020018383808284378201915050505050509192919290505050612ddd565b604051808215151515815260200191505060405180910390f35b348015610b7557600080fd5b50610d1c600480360381019080803573ffffffffffffffffffffffffffffffffffffffff16906020019092919080359060200190929190803590602001908201803590602001908080601f0160208091040260200160405190810160405280939291908181526020018383808284378201915050505050509192919290803590602001908201803590602001908080601f0160208091040260200160405190810160405280939291908181526020018383808284378201915050505050509192919290803590602001908201803590602001908080601f0160208091040260200160405190810160405280939291908181526020018383808284378201915050505050509192919290803590602001908201803590602001908080601f0160208091040260200160405190810160405280939291908181526020018383808284378201915050505050509192919290803590602001908201803590602001908080601f016020809104026020016040519081016040528093929190818152602001838380828437820191505050505050919291929080359060200190929190505050613016565b604051808215151515815260200191505060405180910390f35b348015610d4257600080fd5b50610d77600480360381019080803573ffffffffffffffffffffffffffffffffffffffff16906020019092919050505061331a565b60405180806020018060200180602001861515151581526020018060200185810385528a818151815260200191508051906020019080838360005b83811015610dcd578082015181840152602081019050610db2565b50505050905090810190601f168015610dfa5780820380516001836020036101000a031916815260200191505b50858103845289818151815260200191508051906020019080838360005b83811015610e33578082015181840152602081019050610e18565b50505050905090810190601f168015610e605780820380516001836020036101000a031916815260200191505b50858103835288818151815260200191508051906020019080838360005b83811015610e99578082015181840152602081019050610e7e565b50505050905090810190601f168015610ec65780820380516001836020036101000a031916815260200191505b50858103825286818151815260200191508051906020019080838360005b83811015610eff578082015181840152602081019050610ee4565b50505050905090810190601f168015610f2c5780820380516001836020036101000a031916815260200191505b50995050505050505050505060405180910390f35b348015610f4d57600080fd5b50610f56613724565b005b348015610f6457600080fd5b50610f99600480360381019080803573ffffffffffffffffffffffffffffffffffffffff169060200190929190505050613826565b60405180806020018060200180602001848103845287818151815260200191508051906020019080838360005b83811015610fe1578082015181840152602081019050610fc6565b50505050905090810190601f16801561100e5780820380516001836020036101000a031916815260200191505b50848103835286818151815260200191508051906020019080838360005b8381101561104757808201518184015260208101905061102c565b50505050905090810190601f1680156110745780820380516001836020036101000a031916815260200191505b50848103825285818151815260200191508051906020019080838360005b838110156110ad578082015181840152602081019050611092565b50505050905090810190601f1680156110da5780820380516001836020036101000a031916815260200191505b50965050505050505060405180910390f35b3480156110f857600080fd5b50611101613b2b565b604051808273ffffffffffffffffffffffffffffffffffffffff1673ffffffffffffffffffffffffffffffffffffffff16815260200191505060405180910390f35b34801561114f57600080fd5b5061127e600480360381019080803573ffffffffffffffffffffffffffffffffffffffff16906020019092919080359060200190929190803590602001908201803590602001908080601f0160208091040260200160405190810160405280939291908181526020018383808284378201915050505050509192919290803590602001908201803590602001908080601f0160208091040260200160405190810160405280939291908181526020018383808284378201915050505050509192919290803590602001908201803590602001908080601f0160208091040260200160405190810160405280939291908181526020018383808284378201915050505050509192919290803590602001909291908035906020019092919080359060200190929190505050613b50565b604051808215151515815260200191505060405180910390f35b3480156112a457600080fd5b506112d9600480360381019080803573ffffffffffffffffffffffffffffffffffffffff169060200190929190505050613df8565b60405180806020018060200180602001848103845287818151815260200191508051906020019080838360005b83811015611321578082015181840152602081019050611306565b50505050905090810190601f16801561134e5780820380516001836020036101000a031916815260200191505b50848103835286818151815260200191508051906020019080838360005b8381101561138757808201518184015260208101905061136c565b50505050905090810190601f1680156113b45780820380516001836020036101000a031916815260200191505b50848103825285818151815260200191508051906020019080838360005b838110156113ed5780820151818401526020810190506113d2565b50505050905090810190601f16801561141a5780820380516001836020036101000a031916815260200191505b50965050505050505060405180910390f35b34801561143857600080fd5b506115ab600480360381019080803590602001908201803590602001908080601f0160208091040260200160405190810160405280939291908181526020018383808284378201915050505050509192919290803590602001908201803590602001908080601f0160208091040260200160405190810160405280939291908181526020018383808284378201915050505050509192919290803590602001908201803590602001908080601f0160208091040260200160405190810160405280939291908181526020018383808284378201915050505050509192919290803590602001908201803590602001908080601f0160208091040260200160405190810160405280939291908181526020018383808284378201915050505050509192919290803590602001908201803590602001908080601f01602080910402602001604051908101604052809392919081815260200183838082843782019150505050505091929192905050506140fd565b604051808273ffffffffffffffffffffffffffffffffffffffff1673ffffffffffffffffffffffffffffffffffffffff16815260200191505060405180910390f35b3480156115f957600080fd5b5061162e600480360381019080803573ffffffffffffffffffffffffffffffffffffffff1690602001909291905050506143e5565b60405180806020018060200180602001806020018060200186810386528b818151815260200191508051906020019080838360005b8381101561167e578082015181840152602081019050611663565b50505050905090810190601f1680156116ab5780820380516001836020036101000a031916815260200191505b5086810385528a818151815260200191508051906020019080838360005b838110156116e45780820151818401526020810190506116c9565b50505050905090810190601f1680156117115780820380516001836020036101000a031916815260200191505b50868103845289818151815260200191508051906020019080838360005b8381101561174a57808201518184015260208101905061172f565b50505050905090810190601f1680156117775780820380516001836020036101000a031916815260200191505b50868103835288818151815260200191508051906020019080838360005b838110156117b0578082015181840152602081019050611795565b50505050905090810190601f1680156117dd5780820380516001836020036101000a031916815260200191505b50868103825287818151815260200191508051906020019080838360005b838110156118165780820151818401526020810190506117fb565b50505050905090810190601f1680156118435780820380516001836020036101000a031916815260200191505b509a505050505050505050505060405180910390f35b34801561186557600080fd5b5061189a600480360381019080803573ffffffffffffffffffffffffffffffffffffffff169060200190929190505050614847565b005b3480156118a857600080fd5b50611a01600480360381019080803573ffffffffffffffffffffffffffffffffffffffff169060200190929190803590602001908201803590602001908080601f0160208091040260200160405190810160405280939291908181526020018383808284378201915050505050509192919290803590602001908201803590602001908080601f0160208091040260200160405190810160405280939291908181526020018383808284378201915050505050509192919290803590602001908201803590602001908080601f0160208091040260200160405190810160405280939291908181526020018383808284378201915050505050509192919290803515159060200190929190803590602001908201803590602001908080601f016020809104026020016040519081016040528093929190818152602001838380828437820191505050505050919291929050505061499c565b604051808215151515815260200191505060405180910390f35b348015611a2757600080fd5b50611a5c600480360381019080803573ffffffffffffffffffffffffffffffffffffffff169060200190929190505050614bf3565b60405180898152602001806020018060200188815260200180602001806020018060200187815260200186810386528d818151815260200191508051906020019080838360005b83811015611abe578082015181840152602081019050611aa3565b50505050905090810190601f168015611aeb5780820380516001836020036101000a031916815260200191505b5086810385528c818151815260200191508051906020019080838360005b83811015611b24578082015181840152602081019050611b09565b50505050905090810190601f168015611b515780820380516001836020036101000a031916815260200191505b5086810384528a818151815260200191508051906020019080838360005b83811015611b8a578082015181840152602081019050611b6f565b50505050905090810190601f168015611bb75780820380516001836020036101000a031916815260200191505b50868103835289818151815260200191508051906020019080838360005b83811015611bf0578082015181840152602081019050611bd5565b50505050905090810190601f168015611c1d5780820380516001836020036101000a031916815260200191505b50868103825288818151815260200191508051906020019080838360005b83811015611c56578082015181840152602081019050611c3b565b50505050905090810190601f168015611c835780820380516001836020036101000a031916815260200191505b509d505050505050505050505050505060405180910390f35b60006060806060600080600080611cb1615091565b33600160006101000a81548173ffffffffffffffffffffffffffffffffffffffff021916908373ffffffffffffffffffffffffffffffffffffffff1602179055506001600460003373ffffffffffffffffffffffffffffffffffffffff1673ffffffffffffffffffffffffffffffffffffffff16815260200190815260200160002060009054906101000a900460ff1660ff16141515611d5057600080fd5b600860008b73ffffffffffffffffffffffffffffffffffffffff1673ffffffffffffffffffffffffffffffffffffffff1681526020019081526020016000206101006040519081016040529081600082018054600181600116156101000203166002900480601f016020809104026020016040519081016040528092919081815260200182805460018160011615610100020316600290048015611e355780601f10611e0a57610100808354040283529160200191611e35565b820191906000526020600020905b815481529060010190602001808311611e1857829003601f168201915b50505050508152602001600182018054600181600116156101000203166002900480601f016020809104026020016040519081016040528092919081815260200182805460018160011615610100020316600290048015611ed75780601f10611eac57610100808354040283529160200191611ed7565b820191906000526020600020905b815481529060010190602001808311611eba57829003601f168201915b50505050508152602001600282018054600181600116156101000203166002900480601f016020809104026020016040519081016040528092919081815260200182805460018160011615610100020316600290048015611f795780601f10611f4e57610100808354040283529160200191611f79565b820191906000526020600020905b815481529060010190602001808311611f5c57829003601f168201915b50505050508152602001600382015481526020016004820154815260200160058201548152602001600682015481526020016007820154815250509050806060015181600001518260200151836040015184608001518560a001518660c001518760e001518696508595508494509850985098509850985098509850985050919395975091939597565b600033600160006101000a81548173ffffffffffffffffffffffffffffffffffffffff021916908373ffffffffffffffffffffffffffffffffffffffff1602179055506001600460003373ffffffffffffffffffffffffffffffffffffffff1673ffffffffffffffffffffffffffffffffffffffff16815260200190815260200160002060009054906101000a900460ff1660ff161415156120a457600080fd5b83601860000190805190602001906120bd9291906150d7565b5082601860010190805190602001906120d79291906150d7565b5081601860020190805190602001906120f19291906150d7565b506018600760008773ffffffffffffffffffffffffffffffffffffffff1673ffffffffffffffffffffffffffffffffffffffff1681526020019081526020016000206000820181600001908054600181600116156101000203166002900461215a929190615157565b5060018201816001019080546001816001161561010002031660029004612182929190615157565b50600282018160020190805460018160011615610100020316600290046121aa929190615157565b509050506040805190810160405280600881526020017f4558504f52544552000000000000000000000000000000000000000000000000815250600b60008773ffffffffffffffffffffffffffffffffffffffff1673ffffffffffffffffffffffffffffffffffffffff16815260200190815260200160002090805190602001906122369291906150d7565b5060019050949350505050565b60008060009054906101000a900473ffffffffffffffffffffffffffffffffffffffff1673ffffffffffffffffffffffffffffffffffffffff163373ffffffffffffffffffffffffffffffffffffffff161415156122a057600080fd5b6000600460008473ffffffffffffffffffffffffffffffffffffffff1673ffffffffffffffffffffffffffffffffffffffff16815260200190815260200160002060006101000a81548160ff021916908360ff1602179055507f9e8ca6ff03906e81e8a6a03d4f96b7edb0b97f0ed9d07ef1b699fff63438549682604051808273ffffffffffffffffffffffffffffffffffffffff1673ffffffffffffffffffffffffffffffffffffffff16815260200191505060405180910390a160019050919050565b600033600160006101000a81548173ffffffffffffffffffffffffffffffffffffffff021916908373ffffffffffffffffffffffffffffffffffffffff1602179055506001600460003373ffffffffffffffffffffffffffffffffffffffff1673ffffffffffffffffffffffffffffffffffffffff16815260200190815260200160002060009054906101000a900460ff1660ff1614151561240657600080fd5b836015600001908051906020019061241f9291906150d7565b5082601560010190805190602001906124399291906150d7565b5081601560020190805190602001906124539291906150d7565b506015600660008773ffffffffffffffffffffffffffffffffffffffff1673ffffffffffffffffffffffffffffffffffffffff168152602001908152602001600020600082018160000190805460018160011615610100020316600290046124bc929190615157565b50600182018160010190805460018160011615610100020316600290046124e4929190615157565b506002820181600201908054600181600116156101000203166002900461250c929190615157565b509050506040805190810160405280600981526020017f4841525645535445520000000000000000000000000000000000000000000000815250600b60008773ffffffffffffffffffffffffffffffffffffffff1673ffffffffffffffffffffffffffffffffffffffff16815260200190815260200160002090805190602001906125989291906150d7565b5060019050949350505050565b606033600160006101000a81548173ffffffffffffffffffffffffffffffffffffffff021916908373ffffffffffffffffffffffffffffffffffffffff1602179055506001600460003373ffffffffffffffffffffffffffffffffffffffff1673ffffffffffffffffffffffffffffffffffffffff16815260200190815260200160002060009054906101000a900460ff1660ff1614151561264657600080fd5b600360008373ffffffffffffffffffffffffffffffffffffffff1673ffffffffffffffffffffffffffffffffffffffff1681526020019081526020016000208054600181600116156101000203166002900480601f0160208091040260200160405190810160405280929190818152602001828054600181600116156101000203166002900480156127195780601f106126ee57610100808354040283529160200191612719565b820191906000526020600020905b8154815290600101906020018083116126fc57829003601f168201915b50505050509050919050565b60008060009054906101000a900473ffffffffffffffffffffffffffffffffffffffff1673ffffffffffffffffffffffffffffffffffffffff163373ffffffffffffffffffffffffffffffffffffffff1614151561278257600080fd5b6001600460008473ffffffffffffffffffffffffffffffffffffffff1673ffffffffffffffffffffffffffffffffffffffff16815260200190815260200160002060006101000a81548160ff021916908360ff1602179055507f8afeca650897be3183b7c0d24eba96a1b990f75c4bd74a0cfb2c0a71aec48e6182604051808273ffffffffffffffffffffffffffffffffffffffff1673ffffffffffffffffffffffffffffffffffffffff16815260200191505060405180910390a160019050919050565b6000606060006060600060608061285c6151de565b33600160006101000a81548173ffffffffffffffffffffffffffffffffffffffff021916908373ffffffffffffffffffffffffffffffffffffffff1602179055506001600460003373ffffffffffffffffffffffffffffffffffffffff1673ffffffffffffffffffffffffffffffffffffffff16815260200190815260200160002060009054906101000a900460ff1660ff161415156128fb57600080fd5b600a60008a73ffffffffffffffffffffffffffffffffffffffff1673ffffffffffffffffffffffffffffffffffffffff16815260200190815260200160002060e06040519081016040529081600082015481526020016001820154815260200160028201548152602001600382018054600181600116156101000203166002900480601f0160208091040260200160405190810160405280929190818152602001828054600181600116156101000203166002900480156129fd5780601f106129d2576101008083540402835291602001916129fd565b820191906000526020600020905b8154815290600101906020018083116129e057829003601f168201915b50505050508152602001600482018054600181600116156101000203166002900480601f016020809104026020016040519081016040528092919081815260200182805460018160011615610100020316600290048015612a9f5780601f10612a7457610100808354040283529160200191612a9f565b820191906000526020600020905b815481529060010190602001808311612a8257829003601f168201915b50505050508152602001600582018054600181600116156101000203166002900480601f016020809104026020016040519081016040528092919081815260200182805460018160011615610100020316600290048015612b415780601f10612b1657610100808354040283529160200191612b41565b820191906000526020600020905b815481529060010190602001808311612b2457829003601f168201915b50505050508152602001600682018054600181600116156101000203166002900480601f016020809104026020016040519081016040528092919081815260200182805460018160011615610100020316600290048015612be35780601f10612bb857610100808354040283529160200191612be3565b820191906000526020600020905b815481529060010190602001808311612bc657829003601f168201915b5050505050815250509050806000015181606001518260200151836080015184604001518560a001518660c00151859550839350819150809050975097509750975097509750975050919395979092949650565b600160009054906101000a900473ffffffffffffffffffffffffffffffffffffffff1681565b606033600160006101000a81548173ffffffffffffffffffffffffffffffffffffffff021916908373ffffffffffffffffffffffffffffffffffffffff1602179055506001600460003373ffffffffffffffffffffffffffffffffffffffff1673ffffffffffffffffffffffffffffffffffffffff16815260200190815260200160002060009054906101000a900460ff1660ff16141515612cfe57600080fd5b600b60008373ffffffffffffffffffffffffffffffffffffffff1673ffffffffffffffffffffffffffffffffffffffff1681526020019081526020016000208054600181600116156101000203166002900480601f016020809104026020016040519081016040528092919081815260200182805460018160011615610100020316600290048015612dd15780601f10612da657610100808354040283529160200191612dd1565b820191906000526020600020905b815481529060010190602001808311612db457829003601f168201915b50505050509050919050565b600033600160006101000a81548173ffffffffffffffffffffffffffffffffffffffff021916908373ffffffffffffffffffffffffffffffffffffffff1602179055506001600460003373ffffffffffffffffffffffffffffffffffffffff1673ffffffffffffffffffffffffffffffffffffffff16815260200190815260200160002060009054906101000a900460ff1660ff16141515612e7e57600080fd5b87602b6000018190555086602b6003019080519060200190612ea19291906150d7565b5085602b6001018190555084602b6004019080519060200190612ec59291906150d7565b5083602b6002018190555082602b6005019080519060200190612ee99291906150d7565b5081602b6006019080519060200190612f039291906150d7565b50602b600a60008b73ffffffffffffffffffffffffffffffffffffffff1673ffffffffffffffffffffffffffffffffffffffff16815260200190815260200160002060008201548160000155600182015481600101556002820154816002015560038201816003019080546001816001161561010002031660029004612f8a929190615157565b5060048201816004019080546001816001161561010002031660029004612fb2929190615157565b5060058201816005019080546001816001161561010002031660029004612fda929190615157565b5060068201816006019080546001816001161561010002031660029004613002929190615157565b509050506001905098975050505050505050565b600033600160006101000a81548173ffffffffffffffffffffffffffffffffffffffff021916908373ffffffffffffffffffffffffffffffffffffffff1602179055506001600460003373ffffffffffffffffffffffffffffffffffffffff1673ffffffffffffffffffffffffffffffffffffffff16815260200190815260200160002060009054906101000a900460ff1660ff161415156130b757600080fd5b8760236000018190555086602360030190805190602001906130da9291906150d7565b5085602360040190805190602001906130f49291906150d7565b504260236001018190555084602360050190805190602001906131189291906150d7565b5083602360060190805190602001906131329291906150d7565b50826023600701908051906020019061314c9291906150d7565b50816023600201819055506023600960008b73ffffffffffffffffffffffffffffffffffffffff1673ffffffffffffffffffffffffffffffffffffffff168152602001908152602001600020600082015481600001556001820154816001015560028201548160020155600382018160030190805460018160011615610100020316600290046131dd929190615157565b5060048201816004019080546001816001161561010002031660029004613205929190615157565b506005820181600501908054600181600116156101000203166002900461322d929190615157565b5060068201816006019080546001816001161561010002031660029004613255929190615157565b506007820181600701908054600181600116156101000203166002900461327d929190615157565b509050506040805190810160405280600981526020017f50524f434553534f520000000000000000000000000000000000000000000000815250600b60008b73ffffffffffffffffffffffffffffffffffffffff1673ffffffffffffffffffffffffffffffffffffffff16815260200190815260200160002090805190602001906133099291906150d7565b506001905098975050505050505050565b60608060606000606061332b61521c565b33600160006101000a81548173ffffffffffffffffffffffffffffffffffffffff021916908373ffffffffffffffffffffffffffffffffffffffff1602179055506001600460003373ffffffffffffffffffffffffffffffffffffffff1673ffffffffffffffffffffffffffffffffffffffff16815260200190815260200160002060009054906101000a900460ff1660ff161415156133ca57600080fd5b600260008873ffffffffffffffffffffffffffffffffffffffff1673ffffffffffffffffffffffffffffffffffffffff16815260200190815260200160002060806040519081016040529081600082018054600181600116156101000203166002900480601f0160208091040260200160405190810160405280929190818152602001828054600181600116156101000203166002900480156134ae5780601f10613483576101008083540402835291602001916134ae565b820191906000526020600020905b81548152906001019060200180831161349157829003601f168201915b50505050508152602001600182018054600181600116156101000203166002900480601f0160208091040260200160405190810160405280929190818152602001828054600181600116156101000203166002900480156135505780601f1061352557610100808354040283529160200191613550565b820191906000526020600020905b81548152906001019060200180831161353357829003601f168201915b505050505081526020016002820160009054906101000a900460ff16151515158152602001600382018054600181600116156101000203166002900480601f01602080910402602001604051908101604052809291908181526020018280546001816001161561010002031660029004801561360d5780601f106135e25761010080835404028352916020019161360d565b820191906000526020600020905b8154815290600101906020018083116135f057829003601f168201915b505050505081525050905080600001518160200151600360008a73ffffffffffffffffffffffffffffffffffffffff1673ffffffffffffffffffffffffffffffffffffffff16815260200190815260200160002083604001518460600151849450839350828054600181600116156101000203166002900480601f0160208091040260200160405190810160405280929190818152602001828054600181600116156101000203166002900480156137065780601f106136db57610100808354040283529160200191613706565b820191906000526020600020905b8154815290600101906020018083116136e957829003601f168201915b50505050509250809050955095509550955095505091939590929450565b6000809054906101000a900473ffffffffffffffffffffffffffffffffffffffff1673ffffffffffffffffffffffffffffffffffffffff163373ffffffffffffffffffffffffffffffffffffffff1614151561377f57600080fd5b6000809054906101000a900473ffffffffffffffffffffffffffffffffffffffff1673ffffffffffffffffffffffffffffffffffffffff167ff8df31144d9c2f0f6b59d69b8b98abd5459d07f2742c4df920b25aae33c6482060405160405180910390a260008060006101000a81548173ffffffffffffffffffffffffffffffffffffffff021916908373ffffffffffffffffffffffffffffffffffffffff160217905550565b6060806060613833615247565b33600160006101000a81548173ffffffffffffffffffffffffffffffffffffffff021916908373ffffffffffffffffffffffffffffffffffffffff1602179055506001600460003373ffffffffffffffffffffffffffffffffffffffff1673ffffffffffffffffffffffffffffffffffffffff16815260200190815260200160002060009054906101000a900460ff1660ff161415156138d257600080fd5b600660008673ffffffffffffffffffffffffffffffffffffffff1673ffffffffffffffffffffffffffffffffffffffff16815260200190815260200160002060606040519081016040529081600082018054600181600116156101000203166002900480601f0160208091040260200160405190810160405280929190818152602001828054600181600116156101000203166002900480156139b65780601f1061398b576101008083540402835291602001916139b6565b820191906000526020600020905b81548152906001019060200180831161399957829003601f168201915b50505050508152602001600182018054600181600116156101000203166002900480601f016020809104026020016040519081016040528092919081815260200182805460018160011615610100020316600290048015613a585780601f10613a2d57610100808354040283529160200191613a58565b820191906000526020600020905b815481529060010190602001808311613a3b57829003601f168201915b50505050508152602001600282018054600181600116156101000203166002900480601f016020809104026020016040519081016040528092919081815260200182805460018160011615610100020316600290048015613afa5780601f10613acf57610100808354040283529160200191613afa565b820191906000526020600020905b815481529060010190602001808311613add57829003601f168201915b5050505050815250509050806000015181602001518260400151829250819150809050935093509350509193909250565b6000809054906101000a900473ffffffffffffffffffffffffffffffffffffffff1681565b600033600160006101000a81548173ffffffffffffffffffffffffffffffffffffffff021916908373ffffffffffffffffffffffffffffffffffffffff1602179055506001600460003373ffffffffffffffffffffffffffffffffffffffff1673ffffffffffffffffffffffffffffffffffffffff16815260200190815260200160002060009054906101000a900460ff1660ff16141515613bf157600080fd5b87601b6003018190555086601b6000019080519060200190613c149291906150d7565b5085601b6001019080519060200190613c2e9291906150d7565b5084601b6002019080519060200190613c489291906150d7565b5042601b6004018190555083601b6005018190555082601b6006018190555081601b60070181905550601b600860008b73ffffffffffffffffffffffffffffffffffffffff1673ffffffffffffffffffffffffffffffffffffffff16815260200190815260200160002060008201816000019080546001816001161561010002031660029004613cd9929190615157565b5060018201816001019080546001816001161561010002031660029004613d01929190615157565b5060028201816002019080546001816001161561010002031660029004613d29929190615157565b5060038201548160030155600482015481600401556005820154816005015560068201548160060155600782015481600701559050506040805190810160405280600881526020017f494d504f52544552000000000000000000000000000000000000000000000000815250600b60008b73ffffffffffffffffffffffffffffffffffffffff1673ffffffffffffffffffffffffffffffffffffffff1681526020019081526020016000209080519060200190613de79291906150d7565b506001905098975050505050505050565b6060806060613e05615269565b33600160006101000a81548173ffffffffffffffffffffffffffffffffffffffff021916908373ffffffffffffffffffffffffffffffffffffffff1602179055506001600460003373ffffffffffffffffffffffffffffffffffffffff1673ffffffffffffffffffffffffffffffffffffffff16815260200190815260200160002060009054906101000a900460ff1660ff16141515613ea457600080fd5b600760008673ffffffffffffffffffffffffffffffffffffffff1673ffffffffffffffffffffffffffffffffffffffff16815260200190815260200160002060606040519081016040529081600082018054600181600116156101000203166002900480601f016020809104026020016040519081016040528092919081815260200182805460018160011615610100020316600290048015613f885780601f10613f5d57610100808354040283529160200191613f88565b820191906000526020600020905b815481529060010190602001808311613f6b57829003601f168201915b50505050508152602001600182018054600181600116156101000203166002900480601f01602080910402602001604051908101604052809291908181526020018280546001816001161561010002031660029004801561402a5780601f10613fff5761010080835404028352916020019161402a565b820191906000526020600020905b81548152906001019060200180831161400d57829003601f168201915b50505050508152602001600282018054600181600116156101000203166002900480601f0160208091040260200160405190810160405280929190818152602001828054600181600116156101000203166002900480156140cc5780601f106140a1576101008083540402835291602001916140cc565b820191906000526020600020905b8154815290600101906020018083116140af57829003601f168201915b5050505050815250509050806000015181602001518260400151829250819150809050935093509350509193909250565b600080600033600160006101000a81548173ffffffffffffffffffffffffffffffffffffffff021916908373ffffffffffffffffffffffffffffffffffffffff1602179055506001600460003373ffffffffffffffffffffffffffffffffffffffff1673ffffffffffffffffffffffffffffffffffffffff16815260200190815260200160002060009054906101000a900460ff1660ff161415156141a157600080fd5b4260405180828152602001915050604051809103902060019004915081905087601060000190805190602001906141d99291906150d7565b5086601060010190805190602001906141f39291906150d7565b50856010600201908051906020019061420d9291906150d7565b5084601060030190805190602001906142279291906150d7565b5083601060040190805190602001906142419291906150d7565b506010600560008373ffffffffffffffffffffffffffffffffffffffff1673ffffffffffffffffffffffffffffffffffffffff168152602001908152602001600020600082018160000190805460018160011615610100020316600290046142aa929190615157565b50600182018160010190805460018160011615610100020316600290046142d2929190615157565b50600282018160020190805460018160011615610100020316600290046142fa929190615157565b5060038201816003019080546001816001161561010002031660029004614322929190615157565b506004820181600401908054600181600116156101000203166002900461434a929190615157565b509050506040805190810160405280600f81526020017f4641524d5f494e5350454354494f4e0000000000000000000000000000000000815250600b60008373ffffffffffffffffffffffffffffffffffffffff1673ffffffffffffffffffffffffffffffffffffffff16815260200190815260200160002090805190602001906143d69291906150d7565b50809250505095945050505050565b60608060608060606143f561528b565b33600160006101000a81548173ffffffffffffffffffffffffffffffffffffffff021916908373ffffffffffffffffffffffffffffffffffffffff1602179055506001600460003373ffffffffffffffffffffffffffffffffffffffff1673ffffffffffffffffffffffffffffffffffffffff16815260200190815260200160002060009054906101000a900460ff1660ff1614151561449457600080fd5b600560008873ffffffffffffffffffffffffffffffffffffffff1673ffffffffffffffffffffffffffffffffffffffff16815260200190815260200160002060a06040519081016040529081600082018054600181600116156101000203166002900480601f0160208091040260200160405190810160405280929190818152602001828054600181600116156101000203166002900480156145785780601f1061454d57610100808354040283529160200191614578565b820191906000526020600020905b81548152906001019060200180831161455b57829003601f168201915b50505050508152602001600182018054600181600116156101000203166002900480601f01602080910402602001604051908101604052809291908181526020018280546001816001161561010002031660029004801561461a5780601f106145ef5761010080835404028352916020019161461a565b820191906000526020600020905b8154815290600101906020018083116145fd57829003601f168201915b50505050508152602001600282018054600181600116156101000203166002900480601f0160208091040260200160405190810160405280929190818152602001828054600181600116156101000203166002900480156146bc5780601f10614691576101008083540402835291602001916146bc565b820191906000526020600020905b81548152906001019060200180831161469f57829003601f168201915b50505050508152602001600382018054600181600116156101000203166002900480601f01602080910402602001604051908101604052809291908181526020018280546001816001161561010002031660029004801561475e5780601f106147335761010080835404028352916020019161475e565b820191906000526020600020905b81548152906001019060200180831161474157829003601f168201915b50505050508152602001600482018054600181600116156101000203166002900480601f0160208091040260200160405190810160405280929190818152602001828054600181600116156101000203166002900480156148005780601f106147d557610100808354040283529160200191614800565b820191906000526020600020905b8154815290600101906020018083116147e357829003601f168201915b505050505081525050905080600001518160200151826040015183606001518460800151849450839350829250819150809050955095509550955095505091939590929450565b6000809054906101000a900473ffffffffffffffffffffffffffffffffffffffff1673ffffffffffffffffffffffffffffffffffffffff163373ffffffffffffffffffffffffffffffffffffffff161415156148a257600080fd5b600073ffffffffffffffffffffffffffffffffffffffff168173ffffffffffffffffffffffffffffffffffffffff16141515156148de57600080fd5b8073ffffffffffffffffffffffffffffffffffffffff166000809054906101000a900473ffffffffffffffffffffffffffffffffffffffff1673ffffffffffffffffffffffffffffffffffffffff167f8be0079c531659141344cd1fd0a4f28419497f9722a3daafe3b4186f6b6457e060405160405180910390a3806000806101000a81548173ffffffffffffffffffffffffffffffffffffffff021916908373ffffffffffffffffffffffffffffffffffffffff16021790555050565b600033600160006101000a81548173ffffffffffffffffffffffffffffffffffffffff021916908373ffffffffffffffffffffffffffffffffffffffff1602179055506001600460003373ffffffffffffffffffffffffffffffffffffffff1673ffffffffffffffffffffffffffffffffffffffff16815260200190815260200160002060009054906101000a900460ff1660ff16141515614a3d57600080fd5b85600c6000019080519060200190614a569291906150d7565b5084600c6001019080519060200190614a709291906150d7565b5082600c60020160006101000a81548160ff02191690831515021790555081600c6003019080519060200190614aa79291906150d7565b50600c600260008973ffffffffffffffffffffffffffffffffffffffff1673ffffffffffffffffffffffffffffffffffffffff16815260200190815260200160002060008201816000019080546001816001161561010002031660029004614b10929190615157565b5060018201816001019080546001816001161561010002031660029004614b38929190615157565b506002820160009054906101000a900460ff168160020160006101000a81548160ff02191690831515021790555060038201816003019080546001816001161561010002031660029004614b8d929190615157565b5090505083600360008973ffffffffffffffffffffffffffffffffffffffff1673ffffffffffffffffffffffffffffffffffffffff1681526020019081526020016000209080519060200190614be49291906150d7565b50600190509695505050505050565b6000606080600060608060606000614c096152bb565b33600160006101000a81548173ffffffffffffffffffffffffffffffffffffffff021916908373ffffffffffffffffffffffffffffffffffffffff1602179055506001600460003373ffffffffffffffffffffffffffffffffffffffff1673ffffffffffffffffffffffffffffffffffffffff16815260200190815260200160002060009054906101000a900460ff1660ff16141515614ca857600080fd5b600960008b73ffffffffffffffffffffffffffffffffffffffff1673ffffffffffffffffffffffffffffffffffffffff1681526020019081526020016000206101006040519081016040529081600082015481526020016001820154815260200160028201548152602001600382018054600181600116156101000203166002900480601f016020809104026020016040519081016040528092919081815260200182805460018160011615610100020316600290048015614dab5780601f10614d8057610100808354040283529160200191614dab565b820191906000526020600020905b815481529060010190602001808311614d8e57829003601f168201915b50505050508152602001600482018054600181600116156101000203166002900480601f016020809104026020016040519081016040528092919081815260200182805460018160011615610100020316600290048015614e4d5780601f10614e2257610100808354040283529160200191614e4d565b820191906000526020600020905b815481529060010190602001808311614e3057829003601f168201915b50505050508152602001600582018054600181600116156101000203166002900480601f016020809104026020016040519081016040528092919081815260200182805460018160011615610100020316600290048015614eef5780601f10614ec457610100808354040283529160200191614eef565b820191906000526020600020905b815481529060010190602001808311614ed257829003601f168201915b50505050508152602001600682018054600181600116156101000203166002900480601f016020809104026020016040519081016040528092919081815260200182805460018160011615610100020316600290048015614f915780601f10614f6657610100808354040283529160200191614f91565b820191906000526020600020905b815481529060010190602001808311614f7457829003601f168201915b50505050508152602001600782018054600181600116156101000203166002900480601f0160208091040260200160405190810160405280929190818152602001828054600181600116156101000203166002900480156150335780601f1061500857610100808354040283529160200191615033565b820191906000526020600020905b81548152906001019060200180831161501657829003601f168201915b505050505081525050905080600001518160600151826080015183602001518460a001518560c001518660e0015187604001518696508595508393508292508191509850985098509850985098509850985050919395975091939597565b6101006040519081016040528060608152602001606081526020016060815260200160008152602001600081526020016000815260200160008152602001600081525090565b828054600181600116156101000203166002900490600052602060002090601f016020900481019282601f1061511857805160ff1916838001178555615146565b82800160010185558215615146579182015b8281111561514557825182559160200191906001019061512a565b5b5090506151539190615301565b5090565b828054600181600116156101000203166002900490600052602060002090601f016020900481019282601f1061519057805485556151cd565b828001600101855582156151cd57600052602060002091601f016020900482015b828111156151cc5782548255916001019190600101906151b1565b5b5090506151da9190615301565b5090565b60e060405190810160405280600081526020016000815260200160008152602001606081526020016060815260200160608152602001606081525090565b6080604051908101604052806060815260200160608152602001600015158152602001606081525090565b6060604051908101604052806060815260200160608152602001606081525090565b6060604051908101604052806060815260200160608152602001606081525090565b60a06040519081016040528060608152602001606081526020016060815260200160608152602001606081525090565b6101006040519081016040528060008152602001600081526020016000815260200160608152602001606081526020016060815260200160608152602001606081525090565b61532391905b8082111561531f576000816000905550600101615307565b5090565b905600a165627a7a72305820436616db30aacc18351e6a66177ae7799d4af4400b4e499c492c1a98700cbaab0029",
  "source": "pragma solidity ^0.4.23;\n\nimport \"./SupplyChainStorageOwnable.sol\";\n\ncontract SupplyChainStorage is SupplyChainStorageOwnable {\n    \n    address public lastAccess;\n    constructor() public {\n        authorizedCaller[msg.sender] = 1;\n        emit AuthorizedCaller(msg.sender);\n    }\n    \n    /* Events */\n    event AuthorizedCaller(address caller);\n    event DeAuthorizedCaller(address caller);\n    \n    /* Modifiers */\n    \n    modifier onlyAuthCaller(){\n        lastAccess = msg.sender;\n        require(authorizedCaller[msg.sender] == 1);\n        _;\n    }\n    \n    /* User Related */\n    struct user {\n        string name;\n        string contactNo;\n        bool isActive;\n        string profileHash;\n    } \n    \n    mapping(address => user) userDetails;\n    mapping(address => string) userRole;\n    \n    /* Caller Mapping */\n    mapping(address => uint8) authorizedCaller;\n    \n    /* authorize caller */\n    function authorizeCaller(address _caller) public onlyOwner returns(bool) \n    {\n        authorizedCaller[_caller] = 1;\n        emit AuthorizedCaller(_caller);\n        return true;\n    }\n    \n    /* deauthorize caller */\n    function deAuthorizeCaller(address _caller) public onlyOwner returns(bool) \n    {\n        authorizedCaller[_caller] = 0;\n        emit DeAuthorizedCaller(_caller);\n        return true;\n    }\n    \n    /*User Roles\n        SUPER_ADMIN,\n        FARM_INSPECTION,\n        HARVESTER,\n        EXPORTER,\n        IMPORTER,\n        PROCESSOR\n    */\n    \n    /* Process Related */\n     struct basicDetails {\n        string registrationNo;\n        string farmerName;\n        string farmAddress;\n        string exporterName;\n        string importerName;\n        \n    }\n    \n    struct farmInspector {\n        string coffeeFamily;\n        string typeOfSeed;\n        string fertilizerUsed;\n    }\n    \n    struct harvester {\n        string cropVariety;\n        string temperatureUsed;\n        string humidity;\n    }    \n    \n    struct exporter {\n        string destinationAddress;\n        string shipName;\n        string shipNo;\n        uint256 quantity;\n        uint256 departureDateTime;\n        uint256 estimateDateTime;\n        uint256 plantNo;\n        uint256 exporterId;\n    }\n    \n    struct importer {\n        uint256 quantity;\n        uint256 arrivalDateTime;\n        uint256 importerId;\n        string shipName;\n        string shipNo;\n        string transportInfo;\n        string warehouseName;\n        string warehouseAddress;\n    }\n    \n    struct processor {\n        uint256 quantity;\n        uint256 rostingDuration;\n        uint256 packageDateTime;\n        string tempature;\n        string internalBatchNo;\n        string processorName;\n        string processorAddress;\n    }\n    \n    mapping (address => basicDetails) batchBasicDetails;\n    mapping (address => farmInspector) batchFarmInspector;\n    mapping (address => harvester) batchHarvester;\n    mapping (address => exporter) batchExporter;\n    mapping (address => importer) batchImporter;\n    mapping (address => processor) batchProcessor;\n    mapping (address => string) nextAction;\n    \n    /*Initialize struct pointer*/\n    user userDetail;\n    basicDetails basicDetailsData;\n    farmInspector farmInspectorData;\n    harvester harvesterData;\n    exporter exporterData;\n    importer importerData;\n    processor processorData; \n    \n    \n    \n    /* Get User Role */\n    function getUserRole(address _userAddress) public onlyAuthCaller view returns(string)\n    {\n        return userRole[_userAddress];\n    }\n    \n    /* Get Next Action  */    \n    function getNextAction(address _batchNo) public onlyAuthCaller view returns(string)\n    {\n        return nextAction[_batchNo];\n    }\n        \n    /*set user details*/\n    function setUser(address _userAddress,\n                     string _name, \n                     string _contactNo, \n                     string _role, \n                     bool _isActive,\n                     string _profileHash) public onlyAuthCaller returns(bool){\n        \n        /*store data into struct*/\n        userDetail.name = _name;\n        userDetail.contactNo = _contactNo;\n        userDetail.isActive = _isActive;\n        userDetail.profileHash = _profileHash;\n        \n        /*store data into mapping*/\n        userDetails[_userAddress] = userDetail;\n        userRole[_userAddress] = _role;\n        \n        return true;\n    }  \n    \n    /*get user details*/\n    function getUser(address _userAddress) public onlyAuthCaller view returns(string name, \n                                                                    string contactNo, \n                                                                    string role,\n                                                                    bool isActive, \n                                                                    string profileHash\n                                                                ){\n\n        /*Getting value from struct*/\n        user memory tmpData = userDetails[_userAddress];\n        \n        return (tmpData.name, tmpData.contactNo, userRole[_userAddress], tmpData.isActive, tmpData.profileHash);\n    }\n    \n    /*get batch basicDetails*/\n    function getBasicDetails(address _batchNo) public onlyAuthCaller view returns(string registrationNo,\n                             string farmerName,\n                             string farmAddress,\n                             string exporterName,\n                             string importerName) {\n        \n        basicDetails memory tmpData = batchBasicDetails[_batchNo];\n        \n        return (tmpData.registrationNo,tmpData.farmerName,tmpData.farmAddress,tmpData.exporterName,tmpData.importerName);\n    }\n    \n    /*set batch basicDetails*/\n    function setBasicDetails(string _registrationNo,\n                             string _farmerName,\n                             string _farmAddress,\n                             string _exporterName,\n                             string _importerName\n                             \n                            ) public onlyAuthCaller returns(address) {\n        \n        uint tmpData = uint(keccak256(now));\n        address batchNo = address(tmpData);\n        \n        basicDetailsData.registrationNo = _registrationNo;\n        basicDetailsData.farmerName = _farmerName;\n        basicDetailsData.farmAddress = _farmAddress;\n        basicDetailsData.exporterName = _exporterName;\n        basicDetailsData.importerName = _importerName;\n        \n        batchBasicDetails[batchNo] = basicDetailsData;\n        \n        nextAction[batchNo] = 'FARM_INSPECTION';   \n        \n        \n        return batchNo;\n    }\n    \n    /*set farm Inspector data*/\n    function setFarmInspectorData(address batchNo,\n                                    string _coffeeFamily,\n                                    string _typeOfSeed,\n                                    string _fertilizerUsed) public onlyAuthCaller returns(bool){\n        farmInspectorData.coffeeFamily = _coffeeFamily;\n        farmInspectorData.typeOfSeed = _typeOfSeed;\n        farmInspectorData.fertilizerUsed = _fertilizerUsed;\n        \n        batchFarmInspector[batchNo] = farmInspectorData;\n        \n        nextAction[batchNo] = 'HARVESTER'; \n        \n        return true;\n    }\n    \n    \n    /*get farm inspactor data*/\n    function getFarmInspectorData(address batchNo) public onlyAuthCaller view returns (string coffeeFamily,string typeOfSeed,string fertilizerUsed){\n        \n        farmInspector memory tmpData = batchFarmInspector[batchNo];\n        return (tmpData.coffeeFamily, tmpData.typeOfSeed, tmpData.fertilizerUsed);\n    }\n    \n\n    /*set Harvester data*/\n    function setHarvesterData(address batchNo,\n                              string _cropVariety,\n                              string _tempatureUsed,\n                              string _humidity) public onlyAuthCaller returns(bool){\n        harvesterData.cropVariety = _cropVariety;\n        harvesterData.temperatureUsed = _tempatureUsed;\n        harvesterData.humidity = _humidity;\n        \n        batchHarvester[batchNo] = harvesterData;\n        \n        nextAction[batchNo] = 'EXPORTER'; \n        \n        return true;\n    }\n    \n    /*get farm Harvester data*/\n    function getHarvesterData(address batchNo) public onlyAuthCaller view returns(string cropVariety,\n                                                                                           string temperatureUsed,\n                                                                                           string humidity){\n        \n        harvester memory tmpData = batchHarvester[batchNo];\n        return (tmpData.cropVariety, tmpData.temperatureUsed, tmpData.humidity);\n    }\n    \n    /*set Exporter data*/\n    function setExporterData(address batchNo,\n                              uint256 _quantity,    \n                              string _destinationAddress,\n                              string _shipName,\n                              string _shipNo,\n                              uint256 _estimateDateTime,\n                              uint256 _plantNo,\n                              uint256 _exporterId) public onlyAuthCaller returns(bool){\n        \n        exporterData.quantity = _quantity;\n        exporterData.destinationAddress = _destinationAddress;\n        exporterData.shipName = _shipName;\n        exporterData.shipNo = _shipNo;\n        exporterData.departureDateTime = now;\n        exporterData.estimateDateTime = _estimateDateTime;\n        exporterData.plantNo = _plantNo;\n        exporterData.exporterId = _exporterId;\n        \n        batchExporter[batchNo] = exporterData;\n        \n        nextAction[batchNo] = 'IMPORTER'; \n        \n        return true;\n    }\n    \n    /*get Exporter data*/\n    function getExporterData(address batchNo) public onlyAuthCaller view returns(uint256 quantity,\n                                                                string destinationAddress,\n                                                                string shipName,\n                                                                string shipNo,\n                                                                uint256 departureDateTime,\n                                                                uint256 estimateDateTime,\n                                                                uint256 plantNo,\n                                                                uint256 exporterId){\n        \n        \n        exporter memory tmpData = batchExporter[batchNo];\n        \n        \n        return (tmpData.quantity, \n                tmpData.destinationAddress, \n                tmpData.shipName, \n                tmpData.shipNo, \n                tmpData.departureDateTime, \n                tmpData.estimateDateTime, \n                tmpData.plantNo,\n                tmpData.exporterId);\n                \n        \n    }\n\n    \n    /*set Importer data*/\n    function setImporterData(address batchNo,\n                              uint256 _quantity, \n                              string _shipName,\n                              string _shipNo,\n                              string _transportInfo,\n                              string _warehouseName,\n                              string _warehouseAddress,\n                              uint256 _importerId) public onlyAuthCaller returns(bool){\n        \n        importerData.quantity = _quantity;\n        importerData.shipName = _shipName;\n        importerData.shipNo = _shipNo;\n        importerData.arrivalDateTime = now;\n        importerData.transportInfo = _transportInfo;\n        importerData.warehouseName = _warehouseName;\n        importerData.warehouseAddress = _warehouseAddress;\n        importerData.importerId = _importerId;\n        \n        batchImporter[batchNo] = importerData;\n        \n        nextAction[batchNo] = 'PROCESSOR'; \n        \n        return true;\n    }\n    \n    /*get Importer data*/\n    function getImporterData(address batchNo) public onlyAuthCaller view returns(uint256 quantity,\n                                                                                        string shipName,\n                                                                                        string shipNo,\n                                                                                        uint256 arrivalDateTime,\n                                                                                        string transportInfo,\n                                                                                        string warehouseName,\n                                                                                        string warehouseAddress,\n                                                                                        uint256 importerId){\n        \n        importer memory tmpData = batchImporter[batchNo];\n        \n        \n        return (tmpData.quantity, \n                tmpData.shipName, \n                tmpData.shipNo, \n                tmpData.arrivalDateTime, \n                tmpData.transportInfo,\n                tmpData.warehouseName,\n                tmpData.warehouseAddress,\n                tmpData.importerId);\n                \n        \n    }\n\n    /*set Proccessor data*/\n    function setProcessorData(address batchNo,\n                              uint256 _quantity, \n                              string _tempature,\n                              uint256 _rostingDuration,\n                              string _internalBatchNo,\n                              uint256 _packageDateTime,\n                              string _processorName,\n                              string _processorAddress) public onlyAuthCaller returns(bool){\n        \n        \n        processorData.quantity = _quantity;\n        processorData.tempature = _tempature;\n        processorData.rostingDuration = _rostingDuration;\n        processorData.internalBatchNo = _internalBatchNo;\n        processorData.packageDateTime = _packageDateTime;\n        processorData.processorName = _processorName;\n        processorData.processorAddress = _processorAddress;\n        \n        batchProcessor[batchNo] = processorData;\n        \n        return true;\n    }\n    \n    \n    /*get Proccessor data*/\n    function getProccesorData( address batchNo) public onlyAuthCaller view returns(\n                                                                                        uint256 quantity,\n                                                                                        string tempature,\n                                                                                        uint256 rostingDuration,\n                                                                                        string internalBatchNo,\n                                                                                        uint256 packageDateTime,\n                                                                                        string processorName,\n                                                                                        string processorAddress){\n\n        processor memory tmpData = batchProcessor[batchNo];\n        \n        \n        return (\n                tmpData.quantity, \n                tmpData.tempature, \n                tmpData.rostingDuration, \n                tmpData.internalBatchNo,\n                tmpData.packageDateTime,\n                tmpData.processorName,\n                tmpData.processorAddress);\n                \n        \n    }\n  \n}    ",
  "sourcePath": "/opt/lampp/htdocs/CoffeeSupplyChain-truffle/contracts/SupplyChainStorage.sol",
  "compiler": {
    "name": "solc",
    "version": "0.4.23+commit.124ca40d.Emscripten.clang"
  },
  "schemaVersion": "2.0.0",
  "updatedAt": "2018-06-05T06:21:59.622Z"
}