{
  "contractName": "SupplyChainStorage",
  "abi": [
    {
      "constant": true,
      "inputs": [],
      "name": "lastAccess",
      "outputs": [
        {
          "name": "",
          "type": "address"
        }
      ],
      "payable": false,
      "stateMutability": "view",
      "type": "function"
    },
    {
      "constant": false,
      "inputs": [],
      "name": "renounceOwnership",
      "outputs": [],
      "payable": false,
      "stateMutability": "nonpayable",
      "type": "function"
    },
    {
      "constant": true,
      "inputs": [],
      "name": "owner",
      "outputs": [
        {
          "name": "",
          "type": "address"
        }
      ],
      "payable": false,
      "stateMutability": "view",
      "type": "function"
    },
    {
      "constant": false,
      "inputs": [
        {
          "name": "newOwner",
          "type": "address"
        }
      ],
      "name": "transferOwnership",
      "outputs": [],
      "payable": false,
      "stateMutability": "nonpayable",
      "type": "function"
    },
    {
      "inputs": [],
      "payable": false,
      "stateMutability": "nonpayable",
      "type": "constructor"
    },
    {
      "anonymous": false,
      "inputs": [
        {
          "indexed": false,
          "name": "caller",
          "type": "address"
        }
      ],
      "name": "AuthorizedCaller",
      "type": "event"
    },
    {
      "anonymous": false,
      "inputs": [
        {
          "indexed": false,
          "name": "caller",
          "type": "address"
        }
      ],
      "name": "DeAuthorizedCaller",
      "type": "event"
    },
    {
      "anonymous": false,
      "inputs": [
        {
          "indexed": true,
          "name": "previousOwner",
          "type": "address"
        }
      ],
      "name": "OwnershipRenounced",
      "type": "event"
    },
    {
      "anonymous": false,
      "inputs": [
        {
          "indexed": true,
          "name": "previousOwner",
          "type": "address"
        },
        {
          "indexed": true,
          "name": "newOwner",
          "type": "address"
        }
      ],
      "name": "OwnershipTransferred",
      "type": "event"
    },
    {
      "constant": false,
      "inputs": [
        {
          "name": "_caller",
          "type": "address"
        }
      ],
      "name": "authorizeCaller",
      "outputs": [
        {
          "name": "",
          "type": "bool"
        }
      ],
      "payable": false,
      "stateMutability": "nonpayable",
      "type": "function"
    },
    {
      "constant": false,
      "inputs": [
        {
          "name": "_caller",
          "type": "address"
        }
      ],
      "name": "deAuthorizeCaller",
      "outputs": [
        {
          "name": "",
          "type": "bool"
        }
      ],
      "payable": false,
      "stateMutability": "nonpayable",
      "type": "function"
    },
    {
      "constant": true,
      "inputs": [
        {
          "name": "_userAddress",
          "type": "address"
        }
      ],
      "name": "getUserRole",
      "outputs": [
        {
          "name": "",
          "type": "string"
        }
      ],
      "payable": false,
      "stateMutability": "view",
      "type": "function"
    },
    {
      "constant": true,
      "inputs": [
        {
          "name": "_batchNo",
          "type": "address"
        }
      ],
      "name": "getNextAction",
      "outputs": [
        {
          "name": "",
          "type": "string"
        }
      ],
      "payable": false,
      "stateMutability": "view",
      "type": "function"
    },
    {
      "constant": false,
      "inputs": [
        {
          "name": "_userAddress",
          "type": "address"
        },
        {
          "name": "_name",
          "type": "string"
        },
        {
          "name": "_contactNo",
          "type": "string"
        },
        {
          "name": "_role",
          "type": "string"
        },
        {
          "name": "_isActive",
          "type": "bool"
        },
        {
          "name": "_profileHash",
          "type": "string"
        }
      ],
      "name": "setUser",
      "outputs": [
        {
          "name": "",
          "type": "bool"
        }
      ],
      "payable": false,
      "stateMutability": "nonpayable",
      "type": "function"
    },
    {
      "constant": true,
      "inputs": [
        {
          "name": "_userAddress",
          "type": "address"
        }
      ],
      "name": "getUser",
      "outputs": [
        {
          "name": "name",
          "type": "string"
        },
        {
          "name": "contactNo",
          "type": "string"
        },
        {
          "name": "role",
          "type": "string"
        },
        {
          "name": "isActive",
          "type": "bool"
        },
        {
          "name": "profileHash",
          "type": "string"
        }
      ],
      "payable": false,
      "stateMutability": "view",
      "type": "function"
    },
    {
      "constant": true,
      "inputs": [
        {
          "name": "_batchNo",
          "type": "address"
        }
      ],
      "name": "getBasicDetails",
      "outputs": [
        {
          "name": "registrationNo",
          "type": "string"
        },
        {
          "name": "farmerName",
          "type": "string"
        },
        {
          "name": "farmAddress",
          "type": "string"
        },
        {
          "name": "exporterName",
          "type": "string"
        },
        {
          "name": "importerName",
          "type": "string"
        }
      ],
      "payable": false,
      "stateMutability": "view",
      "type": "function"
    },
    {
      "constant": false,
      "inputs": [
        {
          "name": "_registrationNo",
          "type": "string"
        },
        {
          "name": "_farmerName",
          "type": "string"
        },
        {
          "name": "_farmAddress",
          "type": "string"
        },
        {
          "name": "_exporterName",
          "type": "string"
        },
        {
          "name": "_importerName",
          "type": "string"
        }
      ],
      "name": "setBasicDetails",
      "outputs": [
        {
          "name": "",
          "type": "address"
        }
      ],
      "payable": false,
      "stateMutability": "nonpayable",
      "type": "function"
    },
    {
      "constant": false,
      "inputs": [
        {
          "name": "batchNo",
          "type": "address"
        },
        {
          "name": "_coffeeFamily",
          "type": "string"
        },
        {
          "name": "_typeOfSeed",
          "type": "string"
        },
        {
          "name": "_fertilizerUsed",
          "type": "string"
        }
      ],
      "name": "setFarmInspectorData",
      "outputs": [
        {
          "name": "",
          "type": "bool"
        }
      ],
      "payable": false,
      "stateMutability": "nonpayable",
      "type": "function"
    },
    {
      "constant": true,
      "inputs": [
        {
          "name": "batchNo",
          "type": "address"
        }
      ],
      "name": "getFarmInspectorData",
      "outputs": [
        {
          "name": "coffeeFamily",
          "type": "string"
        },
        {
          "name": "typeOfSeed",
          "type": "string"
        },
        {
          "name": "fertilizerUsed",
          "type": "string"
        }
      ],
      "payable": false,
      "stateMutability": "view",
      "type": "function"
    },
    {
      "constant": false,
      "inputs": [
        {
          "name": "batchNo",
          "type": "address"
        },
        {
          "name": "_cropVariety",
          "type": "string"
        },
        {
          "name": "_temperatureUsed",
          "type": "string"
        },
        {
          "name": "_humidity",
          "type": "string"
        }
      ],
      "name": "setHarvesterData",
      "outputs": [
        {
          "name": "",
          "type": "bool"
        }
      ],
      "payable": false,
      "stateMutability": "nonpayable",
      "type": "function"
    },
    {
      "constant": true,
      "inputs": [
        {
          "name": "batchNo",
          "type": "address"
        }
      ],
      "name": "getHarvesterData",
      "outputs": [
        {
          "name": "cropVariety",
          "type": "string"
        },
        {
          "name": "temperatureUsed",
          "type": "string"
        },
        {
          "name": "humidity",
          "type": "string"
        }
      ],
      "payable": false,
      "stateMutability": "view",
      "type": "function"
    },
    {
      "constant": false,
      "inputs": [
        {
          "name": "batchNo",
          "type": "address"
        },
        {
          "name": "_quantity",
          "type": "uint256"
        },
        {
          "name": "_destinationAddress",
          "type": "string"
        },
        {
          "name": "_shipName",
          "type": "string"
        },
        {
          "name": "_shipNo",
          "type": "string"
        },
        {
          "name": "_estimateDateTime",
          "type": "uint256"
        },
        {
          "name": "_exporterId",
          "type": "uint256"
        }
      ],
      "name": "setExporterData",
      "outputs": [
        {
          "name": "",
          "type": "bool"
        }
      ],
      "payable": false,
      "stateMutability": "nonpayable",
      "type": "function"
    },
    {
      "constant": true,
      "inputs": [
        {
          "name": "batchNo",
          "type": "address"
        }
      ],
      "name": "getExporterData",
      "outputs": [
        {
          "name": "quantity",
          "type": "uint256"
        },
        {
          "name": "destinationAddress",
          "type": "string"
        },
        {
          "name": "shipName",
          "type": "string"
        },
        {
          "name": "shipNo",
          "type": "string"
        },
        {
          "name": "departureDateTime",
          "type": "uint256"
        },
        {
          "name": "estimateDateTime",
          "type": "uint256"
        },
        {
          "name": "exporterId",
          "type": "uint256"
        }
      ],
      "payable": false,
      "stateMutability": "view",
      "type": "function"
    },
    {
      "constant": false,
      "inputs": [
        {
          "name": "batchNo",
          "type": "address"
        },
        {
          "name": "_quantity",
          "type": "uint256"
        },
        {
          "name": "_shipName",
          "type": "string"
        },
        {
          "name": "_shipNo",
          "type": "string"
        },
        {
          "name": "_transportInfo",
          "type": "string"
        },
        {
          "name": "_warehouseName",
          "type": "string"
        },
        {
          "name": "_warehouseAddress",
          "type": "string"
        },
        {
          "name": "_importerId",
          "type": "uint256"
        }
      ],
      "name": "setImporterData",
      "outputs": [
        {
          "name": "",
          "type": "bool"
        }
      ],
      "payable": false,
      "stateMutability": "nonpayable",
      "type": "function"
    },
    {
      "constant": true,
      "inputs": [
        {
          "name": "batchNo",
          "type": "address"
        }
      ],
      "name": "getImporterData",
      "outputs": [
        {
          "name": "quantity",
          "type": "uint256"
        },
        {
          "name": "shipName",
          "type": "string"
        },
        {
          "name": "shipNo",
          "type": "string"
        },
        {
          "name": "arrivalDateTime",
          "type": "uint256"
        },
        {
          "name": "transportInfo",
          "type": "string"
        },
        {
          "name": "warehouseName",
          "type": "string"
        },
        {
          "name": "warehouseAddress",
          "type": "string"
        },
        {
          "name": "importerId",
          "type": "uint256"
        }
      ],
      "payable": false,
      "stateMutability": "view",
      "type": "function"
    },
    {
      "constant": false,
      "inputs": [
        {
          "name": "batchNo",
          "type": "address"
        },
        {
          "name": "_quantity",
          "type": "uint256"
        },
        {
          "name": "_temperature",
          "type": "string"
        },
        {
          "name": "_rostingDuration",
          "type": "uint256"
        },
        {
          "name": "_internalBatchNo",
          "type": "string"
        },
        {
          "name": "_packageDateTime",
          "type": "uint256"
        },
        {
          "name": "_processorName",
          "type": "string"
        },
        {
          "name": "_processorAddress",
          "type": "string"
        }
      ],
      "name": "setProcessorData",
      "outputs": [
        {
          "name": "",
          "type": "bool"
        }
      ],
      "payable": false,
      "stateMutability": "nonpayable",
      "type": "function"
    },
    {
      "constant": true,
      "inputs": [
        {
          "name": "batchNo",
          "type": "address"
        }
      ],
      "name": "getProcessorData",
      "outputs": [
        {
          "name": "quantity",
          "type": "uint256"
        },
        {
          "name": "temperature",
          "type": "string"
        },
        {
          "name": "rostingDuration",
          "type": "uint256"
        },
        {
          "name": "internalBatchNo",
          "type": "string"
        },
        {
          "name": "packageDateTime",
          "type": "uint256"
        },
        {
          "name": "processorName",
          "type": "string"
        },
        {
          "name": "processorAddress",
          "type": "string"
        }
      ],
      "payable": false,
      "stateMutability": "view",
      "type": "function"
    }
  ],
  "bytecode": "0x608060405234801561001057600080fd5b50336000806101000a81548173ffffffffffffffffffffffffffffffffffffffff021916908373ffffffffffffffffffffffffffffffffffffffff1602179055506001600460003373ffffffffffffffffffffffffffffffffffffffff1673ffffffffffffffffffffffffffffffffffffffff16815260200190815260200160002060006101000a81548160ff021916908360ff1602179055507f8afeca650897be3183b7c0d24eba96a1b990f75c4bd74a0cfb2c0a71aec48e6133604051808273ffffffffffffffffffffffffffffffffffffffff1673ffffffffffffffffffffffffffffffffffffffff16815260200191505060405180910390a16153fa8061011c6000396000f300608060405260043610610128576000357c0100000000000000000000000000000000000000000000000000000000900463ffffffff16806306ecd6d41461012d5780630ab36749146102dd5780631bcd250a1461040a5780631dbcddf41461046557806327820851146105925780632c388d5d1461064e5780633480898b146106a95780634d6b5e001461070057806353a7571f146107bc5780636115eec21461094d5780636f77926b14610b1a578063715018a614610d255780637f89e94b14610d3c5780638da5cb5b14610ed0578063b51a321614610f27578063b6959d7314611072578063ca5322e514611287578063cf3746741461141b578063f2997d76146115dc578063f2fde38b14611848578063fb7a20af1461188b578063febd049214611a0a575b600080fd5b34801561013957600080fd5b5061016e600480360381019080803573ffffffffffffffffffffffffffffffffffffffff169060200190929190505050611c8b565b6040518088815260200180602001806020018060200187815260200186815260200185815260200184810384528a818151815260200191508051906020019080838360005b838110156101ce5780820151818401526020810190506101b3565b50505050905090810190601f1680156101fb5780820380516001836020036101000a031916815260200191505b50848103835289818151815260200191508051906020019080838360005b83811015610234578082015181840152602081019050610219565b50505050905090810190601f1680156102615780820380516001836020036101000a031916815260200191505b50848103825288818151815260200191508051906020019080838360005b8381101561029a57808201518184015260208101905061027f565b50505050905090810190601f1680156102c75780820380516001836020036101000a031916815260200191505b509a505050505050505050505060405180910390f35b3480156102e957600080fd5b506103f0600480360381019080803573ffffffffffffffffffffffffffffffffffffffff169060200190929190803590602001908201803590602001908080601f0160208091040260200160405190810160405280939291908181526020018383808284378201915050505050509192919290803590602001908201803590602001908080601f0160208091040260200160405190810160405280939291908181526020018383808284378201915050505050509192919290803590602001908201803590602001908080601f0160208091040260200160405190810160405280939291908181526020018383808284378201915050505050509192919290505050611fea565b604051808215151515815260200191505060405180910390f35b34801561041657600080fd5b5061044b600480360381019080803573ffffffffffffffffffffffffffffffffffffffff16906020019092919050505061222a565b604051808215151515815260200191505060405180910390f35b34801561047157600080fd5b50610578600480360381019080803573ffffffffffffffffffffffffffffffffffffffff169060200190929190803590602001908201803590602001908080601f0160208091040260200160405190810160405280939291908181526020018383808284378201915050505050509192919290803590602001908201803590602001908080601f0160208091040260200160405190810160405280939291908181526020018383808284378201915050505050509192919290803590602001908201803590602001908080601f016020809104026020016040519081016040528093929190818152602001838380828437820191505050505050919291929050505061234c565b604051808215151515815260200191505060405180910390f35b34801561059e57600080fd5b506105d3600480360381019080803573ffffffffffffffffffffffffffffffffffffffff16906020019092919050505061258c565b6040518080602001828103825283818151815260200191508051906020019080838360005b838110156106135780820151818401526020810190506105f8565b50505050905090810190601f1680156106405780820380516001836020036101000a031916815260200191505b509250505060405180910390f35b34801561065a57600080fd5b5061068f600480360381019080803573ffffffffffffffffffffffffffffffffffffffff16906020019092919050505061270c565b604051808215151515815260200191505060405180910390f35b3480156106b557600080fd5b506106be61282e565b604051808273ffffffffffffffffffffffffffffffffffffffff1673ffffffffffffffffffffffffffffffffffffffff16815260200191505060405180910390f35b34801561070c57600080fd5b50610741600480360381019080803573ffffffffffffffffffffffffffffffffffffffff169060200190929190505050612854565b6040518080602001828103825283818151815260200191508051906020019080838360005b83811015610781578082015181840152602081019050610766565b50505050905090810190601f1680156107ae5780820380516001836020036101000a031916815260200191505b509250505060405180910390f35b3480156107c857600080fd5b50610933600480360381019080803573ffffffffffffffffffffffffffffffffffffffff16906020019092919080359060200190929190803590602001908201803590602001908080601f016020809104026020016040519081016040528093929190818152602001838380828437820191505050505050919291929080359060200190929190803590602001908201803590602001908080601f016020809104026020016040519081016040528093929190818152602001838380828437820191505050505050919291929080359060200190929190803590602001908201803590602001908080601f0160208091040260200160405190810160405280939291908181526020018383808284378201915050505050509192919290803590602001908201803590602001908080601f01602080910402602001604051908101604052809392919081815260200183838082843782019150505050505091929192905050506129d4565b604051808215151515815260200191505060405180910390f35b34801561095957600080fd5b50610b00600480360381019080803573ffffffffffffffffffffffffffffffffffffffff16906020019092919080359060200190929190803590602001908201803590602001908080601f0160208091040260200160405190810160405280939291908181526020018383808284378201915050505050509192919290803590602001908201803590602001908080601f0160208091040260200160405190810160405280939291908181526020018383808284378201915050505050509192919290803590602001908201803590602001908080601f0160208091040260200160405190810160405280939291908181526020018383808284378201915050505050509192919290803590602001908201803590602001908080601f0160208091040260200160405190810160405280939291908181526020018383808284378201915050505050509192919290803590602001908201803590602001908080601f016020809104026020016040519081016040528093929190818152602001838380828437820191505050505050919291929080359060200190929190505050612c96565b604051808215151515815260200191505060405180910390f35b348015610b2657600080fd5b50610b5b600480360381019080803573ffffffffffffffffffffffffffffffffffffffff169060200190929190505050612f9a565b60405180806020018060200180602001861515151581526020018060200185810385528a818151815260200191508051906020019080838360005b83811015610bb1578082015181840152602081019050610b96565b50505050905090810190601f168015610bde5780820380516001836020036101000a031916815260200191505b50858103845289818151815260200191508051906020019080838360005b83811015610c17578082015181840152602081019050610bfc565b50505050905090810190601f168015610c445780820380516001836020036101000a031916815260200191505b50858103835288818151815260200191508051906020019080838360005b83811015610c7d578082015181840152602081019050610c62565b50505050905090810190601f168015610caa5780820380516001836020036101000a031916815260200191505b50858103825286818151815260200191508051906020019080838360005b83811015610ce3578082015181840152602081019050610cc8565b50505050905090810190601f168015610d105780820380516001836020036101000a031916815260200191505b50995050505050505050505060405180910390f35b348015610d3157600080fd5b50610d3a6133a4565b005b348015610d4857600080fd5b50610d7d600480360381019080803573ffffffffffffffffffffffffffffffffffffffff1690602001909291905050506134a6565b60405180806020018060200180602001848103845287818151815260200191508051906020019080838360005b83811015610dc5578082015181840152602081019050610daa565b50505050905090810190601f168015610df25780820380516001836020036101000a031916815260200191505b50848103835286818151815260200191508051906020019080838360005b83811015610e2b578082015181840152602081019050610e10565b50505050905090810190601f168015610e585780820380516001836020036101000a031916815260200191505b50848103825285818151815260200191508051906020019080838360005b83811015610e91578082015181840152602081019050610e76565b50505050905090810190601f168015610ebe5780820380516001836020036101000a031916815260200191505b50965050505050505060405180910390f35b348015610edc57600080fd5b50610ee56137ab565b604051808273ffffffffffffffffffffffffffffffffffffffff1673ffffffffffffffffffffffffffffffffffffffff16815260200191505060405180910390f35b348015610f3357600080fd5b50611058600480360381019080803573ffffffffffffffffffffffffffffffffffffffff16906020019092919080359060200190929190803590602001908201803590602001908080601f0160208091040260200160405190810160405280939291908181526020018383808284378201915050505050509192919290803590602001908201803590602001908080601f0160208091040260200160405190810160405280939291908181526020018383808284378201915050505050509192919290803590602001908201803590602001908080601f016020809104026020016040519081016040528093929190818152602001838380828437820191505050505050919291929080359060200190929190803590602001909291905050506137d0565b604051808215151515815260200191505060405180910390f35b34801561107e57600080fd5b506110b3600480360381019080803573ffffffffffffffffffffffffffffffffffffffff169060200190929190505050613a6d565b604051808881526020018060200187815260200180602001868152602001806020018060200185810385528b818151815260200191508051906020019080838360005b838110156111115780820151818401526020810190506110f6565b50505050905090810190601f16801561113e5780820380516001836020036101000a031916815260200191505b50858103845289818151815260200191508051906020019080838360005b8381101561117757808201518184015260208101905061115c565b50505050905090810190601f1680156111a45780820380516001836020036101000a031916815260200191505b50858103835287818151815260200191508051906020019080838360005b838110156111dd5780820151818401526020810190506111c2565b50505050905090810190601f16801561120a5780820380516001836020036101000a031916815260200191505b50858103825286818151815260200191508051906020019080838360005b83811015611243578082015181840152602081019050611228565b50505050905090810190601f1680156112705780820380516001836020036101000a031916815260200191505b509b50505050505050505050505060405180910390f35b34801561129357600080fd5b506112c8600480360381019080803573ffffffffffffffffffffffffffffffffffffffff169060200190929190505050613e5d565b60405180806020018060200180602001848103845287818151815260200191508051906020019080838360005b838110156113105780820151818401526020810190506112f5565b50505050905090810190601f16801561133d5780820380516001836020036101000a031916815260200191505b50848103835286818151815260200191508051906020019080838360005b8381101561137657808201518184015260208101905061135b565b50505050905090810190601f1680156113a35780820380516001836020036101000a031916815260200191505b50848103825285818151815260200191508051906020019080838360005b838110156113dc5780820151818401526020810190506113c1565b50505050905090810190601f1680156114095780820380516001836020036101000a031916815260200191505b50965050505050505060405180910390f35b34801561142757600080fd5b5061159a600480360381019080803590602001908201803590602001908080601f0160208091040260200160405190810160405280939291908181526020018383808284378201915050505050509192919290803590602001908201803590602001908080601f0160208091040260200160405190810160405280939291908181526020018383808284378201915050505050509192919290803590602001908201803590602001908080601f0160208091040260200160405190810160405280939291908181526020018383808284378201915050505050509192919290803590602001908201803590602001908080601f0160208091040260200160405190810160405280939291908181526020018383808284378201915050505050509192919290803590602001908201803590602001908080601f0160208091040260200160405190810160405280939291908181526020018383808284378201915050505050509192919290505050614162565b604051808273ffffffffffffffffffffffffffffffffffffffff1673ffffffffffffffffffffffffffffffffffffffff16815260200191505060405180910390f35b3480156115e857600080fd5b5061161d600480360381019080803573ffffffffffffffffffffffffffffffffffffffff16906020019092919050505061448d565b60405180806020018060200180602001806020018060200186810386528b818151815260200191508051906020019080838360005b8381101561166d578082015181840152602081019050611652565b50505050905090810190601f16801561169a5780820380516001836020036101000a031916815260200191505b5086810385528a818151815260200191508051906020019080838360005b838110156116d35780820151818401526020810190506116b8565b50505050905090810190601f1680156117005780820380516001836020036101000a031916815260200191505b50868103845289818151815260200191508051906020019080838360005b8381101561173957808201518184015260208101905061171e565b50505050905090810190601f1680156117665780820380516001836020036101000a031916815260200191505b50868103835288818151815260200191508051906020019080838360005b8381101561179f578082015181840152602081019050611784565b50505050905090810190601f1680156117cc5780820380516001836020036101000a031916815260200191505b50868103825287818151815260200191508051906020019080838360005b838110156118055780820151818401526020810190506117ea565b50505050905090810190601f1680156118325780820380516001836020036101000a031916815260200191505b509a505050505050505050505060405180910390f35b34801561185457600080fd5b50611889600480360381019080803573ffffffffffffffffffffffffffffffffffffffff1690602001909291905050506148ef565b005b34801561189757600080fd5b506119f0600480360381019080803573ffffffffffffffffffffffffffffffffffffffff169060200190929190803590602001908201803590602001908080601f0160208091040260200160405190810160405280939291908181526020018383808284378201915050505050509192919290803590602001908201803590602001908080601f0160208091040260200160405190810160405280939291908181526020018383808284378201915050505050509192919290803590602001908201803590602001908080601f0160208091040260200160405190810160405280939291908181526020018383808284378201915050505050509192919290803515159060200190929190803590602001908201803590602001908080601f0160208091040260200160405190810160405280939291908181526020018383808284378201915050505050509192919290505050614a44565b604051808215151515815260200191505060405180910390f35b348015611a1657600080fd5b50611a4b600480360381019080803573ffffffffffffffffffffffffffffffffffffffff169060200190929190505050614c9b565b60405180898152602001806020018060200188815260200180602001806020018060200187815260200186810386528d818151815260200191508051906020019080838360005b83811015611aad578082015181840152602081019050611a92565b50505050905090810190601f168015611ada5780820380516001836020036101000a031916815260200191505b5086810385528c818151815260200191508051906020019080838360005b83811015611b13578082015181840152602081019050611af8565b50505050905090810190601f168015611b405780820380516001836020036101000a031916815260200191505b5086810384528a818151815260200191508051906020019080838360005b83811015611b79578082015181840152602081019050611b5e565b50505050905090810190601f168015611ba65780820380516001836020036101000a031916815260200191505b50868103835289818151815260200191508051906020019080838360005b83811015611bdf578082015181840152602081019050611bc4565b50505050905090810190601f168015611c0c5780820380516001836020036101000a031916815260200191505b50868103825288818151815260200191508051906020019080838360005b83811015611c45578082015181840152602081019050611c2a565b50505050905090810190601f168015611c725780820380516001836020036101000a031916815260200191505b509d505050505050505050505050505060405180910390f35b600060608060606000806000611c9f615139565b33600160006101000a81548173ffffffffffffffffffffffffffffffffffffffff021916908373ffffffffffffffffffffffffffffffffffffffff1602179055506001600460003373ffffffffffffffffffffffffffffffffffffffff1673ffffffffffffffffffffffffffffffffffffffff16815260200190815260200160002060009054906101000a900460ff1660ff16141515611d3e57600080fd5b600860008a73ffffffffffffffffffffffffffffffffffffffff1673ffffffffffffffffffffffffffffffffffffffff1681526020019081526020016000206101006040519081016040529081600082018054600181600116156101000203166002900480601f016020809104026020016040519081016040528092919081815260200182805460018160011615610100020316600290048015611e235780601f10611df857610100808354040283529160200191611e23565b820191906000526020600020905b815481529060010190602001808311611e0657829003601f168201915b50505050508152602001600182018054600181600116156101000203166002900480601f016020809104026020016040519081016040528092919081815260200182805460018160011615610100020316600290048015611ec55780601f10611e9a57610100808354040283529160200191611ec5565b820191906000526020600020905b815481529060010190602001808311611ea857829003601f168201915b50505050508152602001600282018054600181600116156101000203166002900480601f016020809104026020016040519081016040528092919081815260200182805460018160011615610100020316600290048015611f675780601f10611f3c57610100808354040283529160200191611f67565b820191906000526020600020905b815481529060010190602001808311611f4a57829003601f168201915b50505050508152602001600382015481526020016004820154815260200160058201548152602001600682015481526020016007820154815250509050806060015181600001518260200151836040015184608001518560a001518660e00151859550849450839350975097509750975097509750975050919395979092949650565b600033600160006101000a81548173ffffffffffffffffffffffffffffffffffffffff021916908373ffffffffffffffffffffffffffffffffffffffff1602179055506001600460003373ffffffffffffffffffffffffffffffffffffffff1673ffffffffffffffffffffffffffffffffffffffff16815260200190815260200160002060009054906101000a900460ff1660ff1614151561208b57600080fd5b83601860000190805190602001906120a492919061517f565b5082601860010190805190602001906120be92919061517f565b5081601860020190805190602001906120d892919061517f565b506018600760008773ffffffffffffffffffffffffffffffffffffffff1673ffffffffffffffffffffffffffffffffffffffff168152602001908152602001600020600082018160000190805460018160011615610100020316600290046121419291906151ff565b50600182018160010190805460018160011615610100020316600290046121699291906151ff565b50600282018160020190805460018160011615610100020316600290046121919291906151ff565b509050506040805190810160405280600881526020017f4558504f52544552000000000000000000000000000000000000000000000000815250600b60008773ffffffffffffffffffffffffffffffffffffffff1673ffffffffffffffffffffffffffffffffffffffff168152602001908152602001600020908051906020019061221d92919061517f565b5060019050949350505050565b60008060009054906101000a900473ffffffffffffffffffffffffffffffffffffffff1673ffffffffffffffffffffffffffffffffffffffff163373ffffffffffffffffffffffffffffffffffffffff1614151561228757600080fd5b6000600460008473ffffffffffffffffffffffffffffffffffffffff1673ffffffffffffffffffffffffffffffffffffffff16815260200190815260200160002060006101000a81548160ff021916908360ff1602179055507f9e8ca6ff03906e81e8a6a03d4f96b7edb0b97f0ed9d07ef1b699fff63438549682604051808273ffffffffffffffffffffffffffffffffffffffff1673ffffffffffffffffffffffffffffffffffffffff16815260200191505060405180910390a160019050919050565b600033600160006101000a81548173ffffffffffffffffffffffffffffffffffffffff021916908373ffffffffffffffffffffffffffffffffffffffff1602179055506001600460003373ffffffffffffffffffffffffffffffffffffffff1673ffffffffffffffffffffffffffffffffffffffff16815260200190815260200160002060009054906101000a900460ff1660ff161415156123ed57600080fd5b836015600001908051906020019061240692919061517f565b50826015600101908051906020019061242092919061517f565b50816015600201908051906020019061243a92919061517f565b506015600660008773ffffffffffffffffffffffffffffffffffffffff1673ffffffffffffffffffffffffffffffffffffffff168152602001908152602001600020600082018160000190805460018160011615610100020316600290046124a39291906151ff565b50600182018160010190805460018160011615610100020316600290046124cb9291906151ff565b50600282018160020190805460018160011615610100020316600290046124f39291906151ff565b509050506040805190810160405280600981526020017f4841525645535445520000000000000000000000000000000000000000000000815250600b60008773ffffffffffffffffffffffffffffffffffffffff1673ffffffffffffffffffffffffffffffffffffffff168152602001908152602001600020908051906020019061257f92919061517f565b5060019050949350505050565b606033600160006101000a81548173ffffffffffffffffffffffffffffffffffffffff021916908373ffffffffffffffffffffffffffffffffffffffff1602179055506001600460003373ffffffffffffffffffffffffffffffffffffffff1673ffffffffffffffffffffffffffffffffffffffff16815260200190815260200160002060009054906101000a900460ff1660ff1614151561262d57600080fd5b600360008373ffffffffffffffffffffffffffffffffffffffff1673ffffffffffffffffffffffffffffffffffffffff1681526020019081526020016000208054600181600116156101000203166002900480601f0160208091040260200160405190810160405280929190818152602001828054600181600116156101000203166002900480156127005780601f106126d557610100808354040283529160200191612700565b820191906000526020600020905b8154815290600101906020018083116126e357829003601f168201915b50505050509050919050565b60008060009054906101000a900473ffffffffffffffffffffffffffffffffffffffff1673ffffffffffffffffffffffffffffffffffffffff163373ffffffffffffffffffffffffffffffffffffffff1614151561276957600080fd5b6001600460008473ffffffffffffffffffffffffffffffffffffffff1673ffffffffffffffffffffffffffffffffffffffff16815260200190815260200160002060006101000a81548160ff021916908360ff1602179055507f8afeca650897be3183b7c0d24eba96a1b990f75c4bd74a0cfb2c0a71aec48e6182604051808273ffffffffffffffffffffffffffffffffffffffff1673ffffffffffffffffffffffffffffffffffffffff16815260200191505060405180910390a160019050919050565b600160009054906101000a900473ffffffffffffffffffffffffffffffffffffffff1681565b606033600160006101000a81548173ffffffffffffffffffffffffffffffffffffffff021916908373ffffffffffffffffffffffffffffffffffffffff1602179055506001600460003373ffffffffffffffffffffffffffffffffffffffff1673ffffffffffffffffffffffffffffffffffffffff16815260200190815260200160002060009054906101000a900460ff1660ff161415156128f557600080fd5b600b60008373ffffffffffffffffffffffffffffffffffffffff1673ffffffffffffffffffffffffffffffffffffffff1681526020019081526020016000208054600181600116156101000203166002900480601f0160208091040260200160405190810160405280929190818152602001828054600181600116156101000203166002900480156129c85780601f1061299d576101008083540402835291602001916129c8565b820191906000526020600020905b8154815290600101906020018083116129ab57829003601f168201915b50505050509050919050565b600033600160006101000a81548173ffffffffffffffffffffffffffffffffffffffff021916908373ffffffffffffffffffffffffffffffffffffffff1602179055506001600460003373ffffffffffffffffffffffffffffffffffffffff1673ffffffffffffffffffffffffffffffffffffffff16815260200190815260200160002060009054906101000a900460ff1660ff16141515612a7557600080fd5b87602b6000018190555086602b6003019080519060200190612a9892919061517f565b5085602b6001018190555084602b6004019080519060200190612abc92919061517f565b5083602b6002018190555082602b6005019080519060200190612ae092919061517f565b5081602b6006019080519060200190612afa92919061517f565b50602b600a60008b73ffffffffffffffffffffffffffffffffffffffff1673ffffffffffffffffffffffffffffffffffffffff16815260200190815260200160002060008201548160000155600182015481600101556002820154816002015560038201816003019080546001816001161561010002031660029004612b819291906151ff565b5060048201816004019080546001816001161561010002031660029004612ba99291906151ff565b5060058201816005019080546001816001161561010002031660029004612bd19291906151ff565b5060068201816006019080546001816001161561010002031660029004612bf99291906151ff565b509050506040805190810160405280600481526020017f444f4e4500000000000000000000000000000000000000000000000000000000815250600b60008b73ffffffffffffffffffffffffffffffffffffffff1673ffffffffffffffffffffffffffffffffffffffff1681526020019081526020016000209080519060200190612c8592919061517f565b506001905098975050505050505050565b600033600160006101000a81548173ffffffffffffffffffffffffffffffffffffffff021916908373ffffffffffffffffffffffffffffffffffffffff1602179055506001600460003373ffffffffffffffffffffffffffffffffffffffff1673ffffffffffffffffffffffffffffffffffffffff16815260200190815260200160002060009054906101000a900460ff1660ff16141515612d3757600080fd5b876023600001819055508660236003019080519060200190612d5a92919061517f565b508560236004019080519060200190612d7492919061517f565b50426023600101819055508460236005019080519060200190612d9892919061517f565b508360236006019080519060200190612db292919061517f565b508260236007019080519060200190612dcc92919061517f565b50816023600201819055506023600960008b73ffffffffffffffffffffffffffffffffffffffff1673ffffffffffffffffffffffffffffffffffffffff16815260200190815260200160002060008201548160000155600182015481600101556002820154816002015560038201816003019080546001816001161561010002031660029004612e5d9291906151ff565b5060048201816004019080546001816001161561010002031660029004612e859291906151ff565b5060058201816005019080546001816001161561010002031660029004612ead9291906151ff565b5060068201816006019080546001816001161561010002031660029004612ed59291906151ff565b5060078201816007019080546001816001161561010002031660029004612efd9291906151ff565b509050506040805190810160405280600981526020017f50524f434553534f520000000000000000000000000000000000000000000000815250600b60008b73ffffffffffffffffffffffffffffffffffffffff1673ffffffffffffffffffffffffffffffffffffffff1681526020019081526020016000209080519060200190612f8992919061517f565b506001905098975050505050505050565b606080606060006060612fab615286565b33600160006101000a81548173ffffffffffffffffffffffffffffffffffffffff021916908373ffffffffffffffffffffffffffffffffffffffff1602179055506001600460003373ffffffffffffffffffffffffffffffffffffffff1673ffffffffffffffffffffffffffffffffffffffff16815260200190815260200160002060009054906101000a900460ff1660ff1614151561304a57600080fd5b600260008873ffffffffffffffffffffffffffffffffffffffff1673ffffffffffffffffffffffffffffffffffffffff16815260200190815260200160002060806040519081016040529081600082018054600181600116156101000203166002900480601f01602080910402602001604051908101604052809291908181526020018280546001816001161561010002031660029004801561312e5780601f106131035761010080835404028352916020019161312e565b820191906000526020600020905b81548152906001019060200180831161311157829003601f168201915b50505050508152602001600182018054600181600116156101000203166002900480601f0160208091040260200160405190810160405280929190818152602001828054600181600116156101000203166002900480156131d05780601f106131a5576101008083540402835291602001916131d0565b820191906000526020600020905b8154815290600101906020018083116131b357829003601f168201915b505050505081526020016002820160009054906101000a900460ff16151515158152602001600382018054600181600116156101000203166002900480601f01602080910402602001604051908101604052809291908181526020018280546001816001161561010002031660029004801561328d5780601f106132625761010080835404028352916020019161328d565b820191906000526020600020905b81548152906001019060200180831161327057829003601f168201915b505050505081525050905080600001518160200151600360008a73ffffffffffffffffffffffffffffffffffffffff1673ffffffffffffffffffffffffffffffffffffffff16815260200190815260200160002083604001518460600151849450839350828054600181600116156101000203166002900480601f0160208091040260200160405190810160405280929190818152602001828054600181600116156101000203166002900480156133865780601f1061335b57610100808354040283529160200191613386565b820191906000526020600020905b81548152906001019060200180831161336957829003601f168201915b50505050509250809050955095509550955095505091939590929450565b6000809054906101000a900473ffffffffffffffffffffffffffffffffffffffff1673ffffffffffffffffffffffffffffffffffffffff163373ffffffffffffffffffffffffffffffffffffffff161415156133ff57600080fd5b6000809054906101000a900473ffffffffffffffffffffffffffffffffffffffff1673ffffffffffffffffffffffffffffffffffffffff167ff8df31144d9c2f0f6b59d69b8b98abd5459d07f2742c4df920b25aae33c6482060405160405180910390a260008060006101000a81548173ffffffffffffffffffffffffffffffffffffffff021916908373ffffffffffffffffffffffffffffffffffffffff160217905550565b60608060606134b36152b1565b33600160006101000a81548173ffffffffffffffffffffffffffffffffffffffff021916908373ffffffffffffffffffffffffffffffffffffffff1602179055506001600460003373ffffffffffffffffffffffffffffffffffffffff1673ffffffffffffffffffffffffffffffffffffffff16815260200190815260200160002060009054906101000a900460ff1660ff1614151561355257600080fd5b600660008673ffffffffffffffffffffffffffffffffffffffff1673ffffffffffffffffffffffffffffffffffffffff16815260200190815260200160002060606040519081016040529081600082018054600181600116156101000203166002900480601f0160208091040260200160405190810160405280929190818152602001828054600181600116156101000203166002900480156136365780601f1061360b57610100808354040283529160200191613636565b820191906000526020600020905b81548152906001019060200180831161361957829003601f168201915b50505050508152602001600182018054600181600116156101000203166002900480601f0160208091040260200160405190810160405280929190818152602001828054600181600116156101000203166002900480156136d85780601f106136ad576101008083540402835291602001916136d8565b820191906000526020600020905b8154815290600101906020018083116136bb57829003601f168201915b50505050508152602001600282018054600181600116156101000203166002900480601f01602080910402602001604051908101604052809291908181526020018280546001816001161561010002031660029004801561377a5780601f1061374f5761010080835404028352916020019161377a565b820191906000526020600020905b81548152906001019060200180831161375d57829003601f168201915b5050505050815250509050806000015181602001518260400151829250819150809050935093509350509193909250565b6000809054906101000a900473ffffffffffffffffffffffffffffffffffffffff1681565b600033600160006101000a81548173ffffffffffffffffffffffffffffffffffffffff021916908373ffffffffffffffffffffffffffffffffffffffff1602179055506001600460003373ffffffffffffffffffffffffffffffffffffffff1673ffffffffffffffffffffffffffffffffffffffff16815260200190815260200160002060009054906101000a900460ff1660ff1614151561387157600080fd5b86601b6003018190555085601b600001908051906020019061389492919061517f565b5084601b60010190805190602001906138ae92919061517f565b5083601b60020190805190602001906138c892919061517f565b5042601b6004018190555082601b6005018190555081601b60070181905550601b600860008a73ffffffffffffffffffffffffffffffffffffffff1673ffffffffffffffffffffffffffffffffffffffff1681526020019081526020016000206000820181600001908054600181600116156101000203166002900461394f9291906151ff565b50600182018160010190805460018160011615610100020316600290046139779291906151ff565b506002820181600201908054600181600116156101000203166002900461399f9291906151ff565b5060038201548160030155600482015481600401556005820154816005015560068201548160060155600782015481600701559050506040805190810160405280600881526020017f494d504f52544552000000000000000000000000000000000000000000000000815250600b60008a73ffffffffffffffffffffffffffffffffffffffff1673ffffffffffffffffffffffffffffffffffffffff1681526020019081526020016000209080519060200190613a5d92919061517f565b5060019050979650505050505050565b60006060600060606000606080613a826152d3565b33600160006101000a81548173ffffffffffffffffffffffffffffffffffffffff021916908373ffffffffffffffffffffffffffffffffffffffff1602179055506001600460003373ffffffffffffffffffffffffffffffffffffffff1673ffffffffffffffffffffffffffffffffffffffff16815260200190815260200160002060009054906101000a900460ff1660ff16141515613b2157600080fd5b600a60008a73ffffffffffffffffffffffffffffffffffffffff1673ffffffffffffffffffffffffffffffffffffffff16815260200190815260200160002060e06040519081016040529081600082015481526020016001820154815260200160028201548152602001600382018054600181600116156101000203166002900480601f016020809104026020016040519081016040528092919081815260200182805460018160011615610100020316600290048015613c235780601f10613bf857610100808354040283529160200191613c23565b820191906000526020600020905b815481529060010190602001808311613c0657829003601f168201915b50505050508152602001600482018054600181600116156101000203166002900480601f016020809104026020016040519081016040528092919081815260200182805460018160011615610100020316600290048015613cc55780601f10613c9a57610100808354040283529160200191613cc5565b820191906000526020600020905b815481529060010190602001808311613ca857829003601f168201915b50505050508152602001600582018054600181600116156101000203166002900480601f016020809104026020016040519081016040528092919081815260200182805460018160011615610100020316600290048015613d675780601f10613d3c57610100808354040283529160200191613d67565b820191906000526020600020905b815481529060010190602001808311613d4a57829003601f168201915b50505050508152602001600682018054600181600116156101000203166002900480601f016020809104026020016040519081016040528092919081815260200182805460018160011615610100020316600290048015613e095780601f10613dde57610100808354040283529160200191613e09565b820191906000526020600020905b815481529060010190602001808311613dec57829003601f168201915b5050505050815250509050806000015181606001518260200151836080015184604001518560a001518660c00151859550839350819150809050975097509750975097509750975050919395979092949650565b6060806060613e6a615311565b33600160006101000a81548173ffffffffffffffffffffffffffffffffffffffff021916908373ffffffffffffffffffffffffffffffffffffffff1602179055506001600460003373ffffffffffffffffffffffffffffffffffffffff1673ffffffffffffffffffffffffffffffffffffffff16815260200190815260200160002060009054906101000a900460ff1660ff16141515613f0957600080fd5b600760008673ffffffffffffffffffffffffffffffffffffffff1673ffffffffffffffffffffffffffffffffffffffff16815260200190815260200160002060606040519081016040529081600082018054600181600116156101000203166002900480601f016020809104026020016040519081016040528092919081815260200182805460018160011615610100020316600290048015613fed5780601f10613fc257610100808354040283529160200191613fed565b820191906000526020600020905b815481529060010190602001808311613fd057829003601f168201915b50505050508152602001600182018054600181600116156101000203166002900480601f01602080910402602001604051908101604052809291908181526020018280546001816001161561010002031660029004801561408f5780601f106140645761010080835404028352916020019161408f565b820191906000526020600020905b81548152906001019060200180831161407257829003601f168201915b50505050508152602001600282018054600181600116156101000203166002900480601f0160208091040260200160405190810160405280929190818152602001828054600181600116156101000203166002900480156141315780601f1061410657610100808354040283529160200191614131565b820191906000526020600020905b81548152906001019060200180831161411457829003601f168201915b5050505050815250509050806000015181602001518260400151829250819150809050935093509350509193909250565b600080600033600160006101000a81548173ffffffffffffffffffffffffffffffffffffffff021916908373ffffffffffffffffffffffffffffffffffffffff1602179055506001600460003373ffffffffffffffffffffffffffffffffffffffff1673ffffffffffffffffffffffffffffffffffffffff16815260200190815260200160002060009054906101000a900460ff1660ff1614151561420657600080fd5b3342604051808373ffffffffffffffffffffffffffffffffffffffff1673ffffffffffffffffffffffffffffffffffffffff166c01000000000000000000000000028152601401828152602001925050506040518091039020600190049150819050876010600001908051906020019061428192919061517f565b50866010600101908051906020019061429b92919061517f565b5085601060020190805190602001906142b592919061517f565b5084601060030190805190602001906142cf92919061517f565b5083601060040190805190602001906142e992919061517f565b506010600560008373ffffffffffffffffffffffffffffffffffffffff1673ffffffffffffffffffffffffffffffffffffffff168152602001908152602001600020600082018160000190805460018160011615610100020316600290046143529291906151ff565b506001820181600101908054600181600116156101000203166002900461437a9291906151ff565b50600282018160020190805460018160011615610100020316600290046143a29291906151ff565b50600382018160030190805460018160011615610100020316600290046143ca9291906151ff565b50600482018160040190805460018160011615610100020316600290046143f29291906151ff565b509050506040805190810160405280600f81526020017f4641524d5f494e5350454354494f4e0000000000000000000000000000000000815250600b60008373ffffffffffffffffffffffffffffffffffffffff1673ffffffffffffffffffffffffffffffffffffffff168152602001908152602001600020908051906020019061447e92919061517f565b50809250505095945050505050565b606080606080606061449d615333565b33600160006101000a81548173ffffffffffffffffffffffffffffffffffffffff021916908373ffffffffffffffffffffffffffffffffffffffff1602179055506001600460003373ffffffffffffffffffffffffffffffffffffffff1673ffffffffffffffffffffffffffffffffffffffff16815260200190815260200160002060009054906101000a900460ff1660ff1614151561453c57600080fd5b600560008873ffffffffffffffffffffffffffffffffffffffff1673ffffffffffffffffffffffffffffffffffffffff16815260200190815260200160002060a06040519081016040529081600082018054600181600116156101000203166002900480601f0160208091040260200160405190810160405280929190818152602001828054600181600116156101000203166002900480156146205780601f106145f557610100808354040283529160200191614620565b820191906000526020600020905b81548152906001019060200180831161460357829003601f168201915b50505050508152602001600182018054600181600116156101000203166002900480601f0160208091040260200160405190810160405280929190818152602001828054600181600116156101000203166002900480156146c25780601f10614697576101008083540402835291602001916146c2565b820191906000526020600020905b8154815290600101906020018083116146a557829003601f168201915b50505050508152602001600282018054600181600116156101000203166002900480601f0160208091040260200160405190810160405280929190818152602001828054600181600116156101000203166002900480156147645780601f1061473957610100808354040283529160200191614764565b820191906000526020600020905b81548152906001019060200180831161474757829003601f168201915b50505050508152602001600382018054600181600116156101000203166002900480601f0160208091040260200160405190810160405280929190818152602001828054600181600116156101000203166002900480156148065780601f106147db57610100808354040283529160200191614806565b820191906000526020600020905b8154815290600101906020018083116147e957829003601f168201915b50505050508152602001600482018054600181600116156101000203166002900480601f0160208091040260200160405190810160405280929190818152602001828054600181600116156101000203166002900480156148a85780601f1061487d576101008083540402835291602001916148a8565b820191906000526020600020905b81548152906001019060200180831161488b57829003601f168201915b505050505081525050905080600001518160200151826040015183606001518460800151849450839350829250819150809050955095509550955095505091939590929450565b6000809054906101000a900473ffffffffffffffffffffffffffffffffffffffff1673ffffffffffffffffffffffffffffffffffffffff163373ffffffffffffffffffffffffffffffffffffffff1614151561494a57600080fd5b600073ffffffffffffffffffffffffffffffffffffffff168173ffffffffffffffffffffffffffffffffffffffff161415151561498657600080fd5b8073ffffffffffffffffffffffffffffffffffffffff166000809054906101000a900473ffffffffffffffffffffffffffffffffffffffff1673ffffffffffffffffffffffffffffffffffffffff167f8be0079c531659141344cd1fd0a4f28419497f9722a3daafe3b4186f6b6457e060405160405180910390a3806000806101000a81548173ffffffffffffffffffffffffffffffffffffffff021916908373ffffffffffffffffffffffffffffffffffffffff16021790555050565b600033600160006101000a81548173ffffffffffffffffffffffffffffffffffffffff021916908373ffffffffffffffffffffffffffffffffffffffff1602179055506001600460003373ffffffffffffffffffffffffffffffffffffffff1673ffffffffffffffffffffffffffffffffffffffff16815260200190815260200160002060009054906101000a900460ff1660ff16141515614ae557600080fd5b85600c6000019080519060200190614afe92919061517f565b5084600c6001019080519060200190614b1892919061517f565b5082600c60020160006101000a81548160ff02191690831515021790555081600c6003019080519060200190614b4f92919061517f565b50600c600260008973ffffffffffffffffffffffffffffffffffffffff1673ffffffffffffffffffffffffffffffffffffffff16815260200190815260200160002060008201816000019080546001816001161561010002031660029004614bb89291906151ff565b5060018201816001019080546001816001161561010002031660029004614be09291906151ff565b506002820160009054906101000a900460ff168160020160006101000a81548160ff02191690831515021790555060038201816003019080546001816001161561010002031660029004614c359291906151ff565b5090505083600360008973ffffffffffffffffffffffffffffffffffffffff1673ffffffffffffffffffffffffffffffffffffffff1681526020019081526020016000209080519060200190614c8c92919061517f565b50600190509695505050505050565b6000606080600060608060606000614cb1615363565b33600160006101000a81548173ffffffffffffffffffffffffffffffffffffffff021916908373ffffffffffffffffffffffffffffffffffffffff1602179055506001600460003373ffffffffffffffffffffffffffffffffffffffff1673ffffffffffffffffffffffffffffffffffffffff16815260200190815260200160002060009054906101000a900460ff1660ff16141515614d5057600080fd5b600960008b73ffffffffffffffffffffffffffffffffffffffff1673ffffffffffffffffffffffffffffffffffffffff1681526020019081526020016000206101006040519081016040529081600082015481526020016001820154815260200160028201548152602001600382018054600181600116156101000203166002900480601f016020809104026020016040519081016040528092919081815260200182805460018160011615610100020316600290048015614e535780601f10614e2857610100808354040283529160200191614e53565b820191906000526020600020905b815481529060010190602001808311614e3657829003601f168201915b50505050508152602001600482018054600181600116156101000203166002900480601f016020809104026020016040519081016040528092919081815260200182805460018160011615610100020316600290048015614ef55780601f10614eca57610100808354040283529160200191614ef5565b820191906000526020600020905b815481529060010190602001808311614ed857829003601f168201915b50505050508152602001600582018054600181600116156101000203166002900480601f016020809104026020016040519081016040528092919081815260200182805460018160011615610100020316600290048015614f975780601f10614f6c57610100808354040283529160200191614f97565b820191906000526020600020905b815481529060010190602001808311614f7a57829003601f168201915b50505050508152602001600682018054600181600116156101000203166002900480601f0160208091040260200160405190810160405280929190818152602001828054600181600116156101000203166002900480156150395780601f1061500e57610100808354040283529160200191615039565b820191906000526020600020905b81548152906001019060200180831161501c57829003601f168201915b50505050508152602001600782018054600181600116156101000203166002900480601f0160208091040260200160405190810160405280929190818152602001828054600181600116156101000203166002900480156150db5780601f106150b0576101008083540402835291602001916150db565b820191906000526020600020905b8154815290600101906020018083116150be57829003601f168201915b505050505081525050905080600001518160600151826080015183602001518460a001518560c001518660e0015187604001518696508595508393508292508191509850985098509850985098509850985050919395975091939597565b6101006040519081016040528060608152602001606081526020016060815260200160008152602001600081526020016000815260200160008152602001600081525090565b828054600181600116156101000203166002900490600052602060002090601f016020900481019282601f106151c057805160ff19168380011785556151ee565b828001600101855582156151ee579182015b828111156151ed5782518255916020019190600101906151d2565b5b5090506151fb91906153a9565b5090565b828054600181600116156101000203166002900490600052602060002090601f016020900481019282601f106152385780548555615275565b8280016001018555821561527557600052602060002091601f016020900482015b82811115615274578254825591600101919060010190615259565b5b50905061528291906153a9565b5090565b6080604051908101604052806060815260200160608152602001600015158152602001606081525090565b6060604051908101604052806060815260200160608152602001606081525090565b60e060405190810160405280600081526020016000815260200160008152602001606081526020016060815260200160608152602001606081525090565b6060604051908101604052806060815260200160608152602001606081525090565b60a06040519081016040528060608152602001606081526020016060815260200160608152602001606081525090565b6101006040519081016040528060008152602001600081526020016000815260200160608152602001606081526020016060815260200160608152602001606081525090565b6153cb91905b808211156153c75760008160009055506001016153af565b5090565b905600a165627a7a72305820f0afcbde4711bba27c099dc748d645aec40c72df2da325b4a9ddde14a7720c470029",
  "source": "pragma solidity ^0.4.23;\n\nimport \"./SupplyChainStorageOwnable.sol\";\n\ncontract SupplyChainStorage is SupplyChainStorageOwnable {\n    \n    address public lastAccess;\n    constructor() public {\n        authorizedCaller[msg.sender] = 1;\n        emit AuthorizedCaller(msg.sender);\n    }\n    \n    /* Events */\n    event AuthorizedCaller(address caller);\n    event DeAuthorizedCaller(address caller);\n    \n    /* Modifiers */\n    \n    modifier onlyAuthCaller(){\n        lastAccess = msg.sender;\n        require(authorizedCaller[msg.sender] == 1);\n        _;\n    }\n    \n    /* User Related */\n    struct user {\n        string name;\n        string contactNo;\n        bool isActive;\n        string profileHash;\n    } \n    \n    mapping(address => user) userDetails;\n    mapping(address => string) userRole;\n    \n    /* Caller Mapping */\n    mapping(address => uint8) authorizedCaller;\n    \n    /* authorize caller */\n    function authorizeCaller(address _caller) public onlyOwner returns(bool) \n    {\n        authorizedCaller[_caller] = 1;\n        emit AuthorizedCaller(_caller);\n        return true;\n    }\n    \n    /* deauthorize caller */\n    function deAuthorizeCaller(address _caller) public onlyOwner returns(bool) \n    {\n        authorizedCaller[_caller] = 0;\n        emit DeAuthorizedCaller(_caller);\n        return true;\n    }\n    \n    /*User Roles\n        SUPER_ADMIN,\n        FARM_INSPECTION,\n        HARVESTER,\n        EXPORTER,\n        IMPORTER,\n        PROCESSOR\n    */\n    \n    /* Process Related */\n     struct basicDetails {\n        string registrationNo;\n        string farmerName;\n        string farmAddress;\n        string exporterName;\n        string importerName;\n        \n    }\n    \n    struct farmInspector {\n        string coffeeFamily;\n        string typeOfSeed;\n        string fertilizerUsed;\n    }\n    \n    struct harvester {\n        string cropVariety;\n        string temperatureUsed;\n        string humidity;\n    }    \n    \n    struct exporter {\n        string destinationAddress;\n        string shipName;\n        string shipNo;\n        uint256 quantity;\n        uint256 departureDateTime;\n        uint256 estimateDateTime;\n        uint256 plantNo;\n        uint256 exporterId;\n    }\n    \n    struct importer {\n        uint256 quantity;\n        uint256 arrivalDateTime;\n        uint256 importerId;\n        string shipName;\n        string shipNo;\n        string transportInfo;\n        string warehouseName;\n        string warehouseAddress;\n    }\n    \n    struct processor {\n        uint256 quantity;\n        uint256 rostingDuration;\n        uint256 packageDateTime;\n        string temperature;\n        string internalBatchNo;\n        string processorName;\n        string processorAddress;\n    }\n    \n    mapping (address => basicDetails) batchBasicDetails;\n    mapping (address => farmInspector) batchFarmInspector;\n    mapping (address => harvester) batchHarvester;\n    mapping (address => exporter) batchExporter;\n    mapping (address => importer) batchImporter;\n    mapping (address => processor) batchProcessor;\n    mapping (address => string) nextAction;\n    \n    /*Initialize struct pointer*/\n    user userDetail;\n    basicDetails basicDetailsData;\n    farmInspector farmInspectorData;\n    harvester harvesterData;\n    exporter exporterData;\n    importer importerData;\n    processor processorData; \n    \n    \n    \n    /* Get User Role */\n    function getUserRole(address _userAddress) public onlyAuthCaller view returns(string)\n    {\n        return userRole[_userAddress];\n    }\n    \n    /* Get Next Action  */    \n    function getNextAction(address _batchNo) public onlyAuthCaller view returns(string)\n    {\n        return nextAction[_batchNo];\n    }\n        \n    /*set user details*/\n    function setUser(address _userAddress,\n                     string _name, \n                     string _contactNo, \n                     string _role, \n                     bool _isActive,\n                     string _profileHash) public onlyAuthCaller returns(bool){\n        \n        /*store data into struct*/\n        userDetail.name = _name;\n        userDetail.contactNo = _contactNo;\n        userDetail.isActive = _isActive;\n        userDetail.profileHash = _profileHash;\n        \n        /*store data into mapping*/\n        userDetails[_userAddress] = userDetail;\n        userRole[_userAddress] = _role;\n        \n        return true;\n    }  \n    \n    /*get user details*/\n    function getUser(address _userAddress) public onlyAuthCaller view returns(string name, \n                                                                    string contactNo, \n                                                                    string role,\n                                                                    bool isActive, \n                                                                    string profileHash\n                                                                ){\n\n        /*Getting value from struct*/\n        user memory tmpData = userDetails[_userAddress];\n        \n        return (tmpData.name, tmpData.contactNo, userRole[_userAddress], tmpData.isActive, tmpData.profileHash);\n    }\n    \n    /*get batch basicDetails*/\n    function getBasicDetails(address _batchNo) public onlyAuthCaller view returns(string registrationNo,\n                             string farmerName,\n                             string farmAddress,\n                             string exporterName,\n                             string importerName) {\n        \n        basicDetails memory tmpData = batchBasicDetails[_batchNo];\n        \n        return (tmpData.registrationNo,tmpData.farmerName,tmpData.farmAddress,tmpData.exporterName,tmpData.importerName);\n    }\n    \n    /*set batch basicDetails*/\n    function setBasicDetails(string _registrationNo,\n                             string _farmerName,\n                             string _farmAddress,\n                             string _exporterName,\n                             string _importerName\n                             \n                            ) public onlyAuthCaller returns(address) {\n        \n        uint tmpData = uint(keccak256(msg.sender, now));\n        address batchNo = address(tmpData);\n        \n        basicDetailsData.registrationNo = _registrationNo;\n        basicDetailsData.farmerName = _farmerName;\n        basicDetailsData.farmAddress = _farmAddress;\n        basicDetailsData.exporterName = _exporterName;\n        basicDetailsData.importerName = _importerName;\n        \n        batchBasicDetails[batchNo] = basicDetailsData;\n        \n        nextAction[batchNo] = 'FARM_INSPECTION';   \n        \n        \n        return batchNo;\n    }\n    \n    /*set farm Inspector data*/\n    function setFarmInspectorData(address batchNo,\n                                    string _coffeeFamily,\n                                    string _typeOfSeed,\n                                    string _fertilizerUsed) public onlyAuthCaller returns(bool){\n        farmInspectorData.coffeeFamily = _coffeeFamily;\n        farmInspectorData.typeOfSeed = _typeOfSeed;\n        farmInspectorData.fertilizerUsed = _fertilizerUsed;\n        \n        batchFarmInspector[batchNo] = farmInspectorData;\n        \n        nextAction[batchNo] = 'HARVESTER'; \n        \n        return true;\n    }\n    \n    \n    /*get farm inspactor data*/\n    function getFarmInspectorData(address batchNo) public onlyAuthCaller view returns (string coffeeFamily,string typeOfSeed,string fertilizerUsed){\n        \n        farmInspector memory tmpData = batchFarmInspector[batchNo];\n        return (tmpData.coffeeFamily, tmpData.typeOfSeed, tmpData.fertilizerUsed);\n    }\n    \n\n    /*set Harvester data*/\n    function setHarvesterData(address batchNo,\n                              string _cropVariety,\n                              string _temperatureUsed,\n                              string _humidity) public onlyAuthCaller returns(bool){\n        harvesterData.cropVariety = _cropVariety;\n        harvesterData.temperatureUsed = _temperatureUsed;\n        harvesterData.humidity = _humidity;\n        \n        batchHarvester[batchNo] = harvesterData;\n        \n        nextAction[batchNo] = 'EXPORTER'; \n        \n        return true;\n    }\n    \n    /*get farm Harvester data*/\n    function getHarvesterData(address batchNo) public onlyAuthCaller view returns(string cropVariety,\n                                                                                           string temperatureUsed,\n                                                                                           string humidity){\n        \n        harvester memory tmpData = batchHarvester[batchNo];\n        return (tmpData.cropVariety, tmpData.temperatureUsed, tmpData.humidity);\n    }\n    \n    /*set Exporter data*/\n    function setExporterData(address batchNo,\n                              uint256 _quantity,    \n                              string _destinationAddress,\n                              string _shipName,\n                              string _shipNo,\n                              uint256 _estimateDateTime,\n                              uint256 _exporterId) public onlyAuthCaller returns(bool){\n        \n        exporterData.quantity = _quantity;\n        exporterData.destinationAddress = _destinationAddress;\n        exporterData.shipName = _shipName;\n        exporterData.shipNo = _shipNo;\n        exporterData.departureDateTime = now;\n        exporterData.estimateDateTime = _estimateDateTime;\n        exporterData.exporterId = _exporterId;\n        \n        batchExporter[batchNo] = exporterData;\n        \n        nextAction[batchNo] = 'IMPORTER'; \n        \n        return true;\n    }\n    \n    /*get Exporter data*/\n    function getExporterData(address batchNo) public onlyAuthCaller view returns(uint256 quantity,\n                                                                string destinationAddress,\n                                                                string shipName,\n                                                                string shipNo,\n                                                                uint256 departureDateTime,\n                                                                uint256 estimateDateTime,\n                                                                uint256 exporterId){\n        \n        \n        exporter memory tmpData = batchExporter[batchNo];\n        \n        \n        return (tmpData.quantity, \n                tmpData.destinationAddress, \n                tmpData.shipName, \n                tmpData.shipNo, \n                tmpData.departureDateTime, \n                tmpData.estimateDateTime, \n                tmpData.exporterId);\n                \n        \n    }\n\n    \n    /*set Importer data*/\n    function setImporterData(address batchNo,\n                              uint256 _quantity, \n                              string _shipName,\n                              string _shipNo,\n                              string _transportInfo,\n                              string _warehouseName,\n                              string _warehouseAddress,\n                              uint256 _importerId) public onlyAuthCaller returns(bool){\n        \n        importerData.quantity = _quantity;\n        importerData.shipName = _shipName;\n        importerData.shipNo = _shipNo;\n        importerData.arrivalDateTime = now;\n        importerData.transportInfo = _transportInfo;\n        importerData.warehouseName = _warehouseName;\n        importerData.warehouseAddress = _warehouseAddress;\n        importerData.importerId = _importerId;\n        \n        batchImporter[batchNo] = importerData;\n        \n        nextAction[batchNo] = 'PROCESSOR'; \n        \n        return true;\n    }\n    \n    /*get Importer data*/\n    function getImporterData(address batchNo) public onlyAuthCaller view returns(uint256 quantity,\n                                                                                        string shipName,\n                                                                                        string shipNo,\n                                                                                        uint256 arrivalDateTime,\n                                                                                        string transportInfo,\n                                                                                        string warehouseName,\n                                                                                        string warehouseAddress,\n                                                                                        uint256 importerId){\n        \n        importer memory tmpData = batchImporter[batchNo];\n        \n        \n        return (tmpData.quantity, \n                tmpData.shipName, \n                tmpData.shipNo, \n                tmpData.arrivalDateTime, \n                tmpData.transportInfo,\n                tmpData.warehouseName,\n                tmpData.warehouseAddress,\n                tmpData.importerId);\n                \n        \n    }\n\n    /*set Proccessor data*/\n    function setProcessorData(address batchNo,\n                              uint256 _quantity, \n                              string _temperature,\n                              uint256 _rostingDuration,\n                              string _internalBatchNo,\n                              uint256 _packageDateTime,\n                              string _processorName,\n                              string _processorAddress) public onlyAuthCaller returns(bool){\n        \n        \n        processorData.quantity = _quantity;\n        processorData.temperature = _temperature;\n        processorData.rostingDuration = _rostingDuration;\n        processorData.internalBatchNo = _internalBatchNo;\n        processorData.packageDateTime = _packageDateTime;\n        processorData.processorName = _processorName;\n        processorData.processorAddress = _processorAddress;\n        \n        batchProcessor[batchNo] = processorData;\n        \n        nextAction[batchNo] = 'DONE'; \n        \n        return true;\n    }\n    \n    \n    /*get Processor data*/\n    function getProcessorData( address batchNo) public onlyAuthCaller view returns(\n                                                                                        uint256 quantity,\n                                                                                        string temperature,\n                                                                                        uint256 rostingDuration,\n                                                                                        string internalBatchNo,\n                                                                                        uint256 packageDateTime,\n                                                                                        string processorName,\n                                                                                        string processorAddress){\n\n        processor memory tmpData = batchProcessor[batchNo];\n        \n        \n        return (\n                tmpData.quantity, \n                tmpData.temperature, \n                tmpData.rostingDuration, \n                tmpData.internalBatchNo,\n                tmpData.packageDateTime,\n                tmpData.processorName,\n                tmpData.processorAddress);\n                \n        \n    }\n  \n}    \n",
  "sourcePath": "/opt/lampp/htdocs/web3/demo_coffee/coffee-supplychain-ethereum/contracts/SupplyChainStorage.sol",
  "compiler": {
    "name": "solc",
    "version": "0.4.24+commit.e67f0147.Emscripten.clang"
  },
  "schemaVersion": "2.0.1",
  "updatedAt": "2018-09-08T10:06:52.158Z"
}