{
  "contractName": "SupplyChainStorage",
  "abi": [
    {
      "constant": false,
      "inputs": [],
      "name": "renounceOwnership",
      "outputs": [],
      "payable": false,
      "stateMutability": "nonpayable",
      "type": "function"
    },
    {
      "constant": true,
      "inputs": [],
      "name": "owner",
      "outputs": [
        {
          "name": "",
          "type": "address"
        }
      ],
      "payable": false,
      "stateMutability": "view",
      "type": "function"
    },
    {
      "constant": false,
      "inputs": [
        {
          "name": "newOwner",
          "type": "address"
        }
      ],
      "name": "transferOwnership",
      "outputs": [],
      "payable": false,
      "stateMutability": "nonpayable",
      "type": "function"
    },
    {
      "inputs": [],
      "payable": false,
      "stateMutability": "nonpayable",
      "type": "constructor"
    },
    {
      "anonymous": false,
      "inputs": [
        {
          "indexed": false,
          "name": "caller",
          "type": "address"
        }
      ],
      "name": "AuthorizedCaller",
      "type": "event"
    },
    {
      "anonymous": false,
      "inputs": [
        {
          "indexed": false,
          "name": "caller",
          "type": "address"
        }
      ],
      "name": "DeAuthorizedCaller",
      "type": "event"
    },
    {
      "anonymous": false,
      "inputs": [
        {
          "indexed": true,
          "name": "user",
          "type": "address"
        },
        {
          "indexed": true,
          "name": "batchNo",
          "type": "address"
        }
      ],
      "name": "PerformCultivation",
      "type": "event"
    },
    {
      "anonymous": false,
      "inputs": [
        {
          "indexed": true,
          "name": "user",
          "type": "address"
        },
        {
          "indexed": true,
          "name": "batchNo",
          "type": "address"
        }
      ],
      "name": "DoneInspection",
      "type": "event"
    },
    {
      "anonymous": false,
      "inputs": [
        {
          "indexed": true,
          "name": "user",
          "type": "address"
        },
        {
          "indexed": true,
          "name": "batchNo",
          "type": "address"
        }
      ],
      "name": "DoneHarvesting",
      "type": "event"
    },
    {
      "anonymous": false,
      "inputs": [
        {
          "indexed": true,
          "name": "user",
          "type": "address"
        },
        {
          "indexed": true,
          "name": "batchNo",
          "type": "address"
        }
      ],
      "name": "DoneExporting",
      "type": "event"
    },
    {
      "anonymous": false,
      "inputs": [
        {
          "indexed": true,
          "name": "user",
          "type": "address"
        },
        {
          "indexed": true,
          "name": "batchNo",
          "type": "address"
        }
      ],
      "name": "DoneImporting",
      "type": "event"
    },
    {
      "anonymous": false,
      "inputs": [
        {
          "indexed": true,
          "name": "user",
          "type": "address"
        },
        {
          "indexed": false,
          "name": "indexedbatchNo",
          "type": "address"
        }
      ],
      "name": "DoneProcessing",
      "type": "event"
    },
    {
      "anonymous": false,
      "inputs": [
        {
          "indexed": true,
          "name": "user",
          "type": "address"
        },
        {
          "indexed": false,
          "name": "name",
          "type": "string"
        },
        {
          "indexed": false,
          "name": "contactNo",
          "type": "string"
        },
        {
          "indexed": false,
          "name": "role",
          "type": "string"
        },
        {
          "indexed": false,
          "name": "isActive",
          "type": "bool"
        },
        {
          "indexed": false,
          "name": "profileHash",
          "type": "string"
        }
      ],
      "name": "UserUpdate",
      "type": "event"
    },
    {
      "anonymous": false,
      "inputs": [
        {
          "indexed": true,
          "name": "user",
          "type": "address"
        },
        {
          "indexed": true,
          "name": "role",
          "type": "string"
        }
      ],
      "name": "UserRoleUpdate",
      "type": "event"
    },
    {
      "anonymous": false,
      "inputs": [
        {
          "indexed": true,
          "name": "previousOwner",
          "type": "address"
        }
      ],
      "name": "OwnershipRenounced",
      "type": "event"
    },
    {
      "anonymous": false,
      "inputs": [
        {
          "indexed": true,
          "name": "previousOwner",
          "type": "address"
        },
        {
          "indexed": true,
          "name": "newOwner",
          "type": "address"
        }
      ],
      "name": "OwnershipTransferred",
      "type": "event"
    },
    {
      "constant": false,
      "inputs": [
        {
          "name": "_caller",
          "type": "address"
        }
      ],
      "name": "authorizeCaller",
      "outputs": [
        {
          "name": "",
          "type": "bool"
        }
      ],
      "payable": false,
      "stateMutability": "nonpayable",
      "type": "function"
    },
    {
      "constant": false,
      "inputs": [
        {
          "name": "_caller",
          "type": "address"
        }
      ],
      "name": "deAuthorizeCaller",
      "outputs": [
        {
          "name": "",
          "type": "bool"
        }
      ],
      "payable": false,
      "stateMutability": "nonpayable",
      "type": "function"
    },
    {
      "constant": true,
      "inputs": [
        {
          "name": "_userAddress",
          "type": "address"
        }
      ],
      "name": "getUserRole",
      "outputs": [
        {
          "name": "",
          "type": "string"
        }
      ],
      "payable": false,
      "stateMutability": "view",
      "type": "function"
    },
    {
      "constant": true,
      "inputs": [
        {
          "name": "_batchNo",
          "type": "address"
        }
      ],
      "name": "getNextAction",
      "outputs": [
        {
          "name": "",
          "type": "string"
        }
      ],
      "payable": false,
      "stateMutability": "view",
      "type": "function"
    },
    {
      "constant": false,
      "inputs": [
        {
          "name": "_userAddress",
          "type": "address"
        },
        {
          "name": "_name",
          "type": "string"
        },
        {
          "name": "_contactNo",
          "type": "string"
        },
        {
          "name": "_role",
          "type": "string"
        },
        {
          "name": "_isActive",
          "type": "bool"
        },
        {
          "name": "_profileHash",
          "type": "string"
        }
      ],
      "name": "setUser",
      "outputs": [
        {
          "name": "",
          "type": "bool"
        }
      ],
      "payable": false,
      "stateMutability": "nonpayable",
      "type": "function"
    },
    {
      "constant": true,
      "inputs": [
        {
          "name": "_userAddress",
          "type": "address"
        }
      ],
      "name": "getUser",
      "outputs": [
        {
          "name": "name",
          "type": "string"
        },
        {
          "name": "contactNo",
          "type": "string"
        },
        {
          "name": "role",
          "type": "string"
        },
        {
          "name": "isActive",
          "type": "bool"
        },
        {
          "name": "profileHash",
          "type": "string"
        }
      ],
      "payable": false,
      "stateMutability": "view",
      "type": "function"
    },
    {
      "constant": true,
      "inputs": [
        {
          "name": "_batchNo",
          "type": "address"
        }
      ],
      "name": "getBasicDetails",
      "outputs": [
        {
          "name": "registrationNo",
          "type": "string"
        },
        {
          "name": "farmerName",
          "type": "string"
        },
        {
          "name": "farmAddress",
          "type": "string"
        },
        {
          "name": "exporterName",
          "type": "string"
        },
        {
          "name": "importerName",
          "type": "string"
        }
      ],
      "payable": false,
      "stateMutability": "view",
      "type": "function"
    },
    {
      "constant": false,
      "inputs": [
        {
          "name": "_registrationNo",
          "type": "string"
        },
        {
          "name": "_farmerName",
          "type": "string"
        },
        {
          "name": "_farmAddress",
          "type": "string"
        },
        {
          "name": "_exporterName",
          "type": "string"
        },
        {
          "name": "_importerName",
          "type": "string"
        }
      ],
      "name": "setBasicDetails",
      "outputs": [
        {
          "name": "",
          "type": "address"
        }
      ],
      "payable": false,
      "stateMutability": "nonpayable",
      "type": "function"
    },
    {
      "constant": false,
      "inputs": [
        {
          "name": "batchNo",
          "type": "address"
        },
        {
          "name": "_coffeeFamily",
          "type": "string"
        },
        {
          "name": "_typeOfSeed",
          "type": "string"
        },
        {
          "name": "_fertilizerUsed",
          "type": "string"
        }
      ],
      "name": "setFarmInspectorData",
      "outputs": [
        {
          "name": "",
          "type": "bool"
        }
      ],
      "payable": false,
      "stateMutability": "nonpayable",
      "type": "function"
    },
    {
      "constant": true,
      "inputs": [
        {
          "name": "batchNo",
          "type": "address"
        }
      ],
      "name": "getFarmInspectorData",
      "outputs": [
        {
          "name": "coffeeFamily",
          "type": "string"
        },
        {
          "name": "typeOfSeed",
          "type": "string"
        },
        {
          "name": "fertilizerUsed",
          "type": "string"
        }
      ],
      "payable": false,
      "stateMutability": "view",
      "type": "function"
    },
    {
      "constant": false,
      "inputs": [
        {
          "name": "batchNo",
          "type": "address"
        },
        {
          "name": "_cropVariety",
          "type": "string"
        },
        {
          "name": "_temperatureUsed",
          "type": "string"
        },
        {
          "name": "_humidity",
          "type": "string"
        }
      ],
      "name": "setHarvesterData",
      "outputs": [
        {
          "name": "",
          "type": "bool"
        }
      ],
      "payable": false,
      "stateMutability": "nonpayable",
      "type": "function"
    },
    {
      "constant": true,
      "inputs": [
        {
          "name": "batchNo",
          "type": "address"
        }
      ],
      "name": "getHarvesterData",
      "outputs": [
        {
          "name": "cropVariety",
          "type": "string"
        },
        {
          "name": "temperatureUsed",
          "type": "string"
        },
        {
          "name": "humidity",
          "type": "string"
        }
      ],
      "payable": false,
      "stateMutability": "view",
      "type": "function"
    },
    {
      "constant": false,
      "inputs": [
        {
          "name": "batchNo",
          "type": "address"
        },
        {
          "name": "_quantity",
          "type": "uint256"
        },
        {
          "name": "_destinationAddress",
          "type": "string"
        },
        {
          "name": "_shipName",
          "type": "string"
        },
        {
          "name": "_shipNo",
          "type": "string"
        },
        {
          "name": "_estimateDateTime",
          "type": "uint256"
        },
        {
          "name": "_exporterId",
          "type": "uint256"
        }
      ],
      "name": "setExporterData",
      "outputs": [
        {
          "name": "",
          "type": "bool"
        }
      ],
      "payable": false,
      "stateMutability": "nonpayable",
      "type": "function"
    },
    {
      "constant": true,
      "inputs": [
        {
          "name": "batchNo",
          "type": "address"
        }
      ],
      "name": "getExporterData",
      "outputs": [
        {
          "name": "quantity",
          "type": "uint256"
        },
        {
          "name": "destinationAddress",
          "type": "string"
        },
        {
          "name": "shipName",
          "type": "string"
        },
        {
          "name": "shipNo",
          "type": "string"
        },
        {
          "name": "departureDateTime",
          "type": "uint256"
        },
        {
          "name": "estimateDateTime",
          "type": "uint256"
        },
        {
          "name": "exporterId",
          "type": "uint256"
        }
      ],
      "payable": false,
      "stateMutability": "view",
      "type": "function"
    },
    {
      "constant": false,
      "inputs": [
        {
          "name": "batchNo",
          "type": "address"
        },
        {
          "name": "_quantity",
          "type": "uint256"
        },
        {
          "name": "_shipName",
          "type": "string"
        },
        {
          "name": "_shipNo",
          "type": "string"
        },
        {
          "name": "_transportInfo",
          "type": "string"
        },
        {
          "name": "_warehouseName",
          "type": "string"
        },
        {
          "name": "_warehouseAddress",
          "type": "string"
        },
        {
          "name": "_importerId",
          "type": "uint256"
        }
      ],
      "name": "setImporterData",
      "outputs": [
        {
          "name": "",
          "type": "bool"
        }
      ],
      "payable": false,
      "stateMutability": "nonpayable",
      "type": "function"
    },
    {
      "constant": true,
      "inputs": [
        {
          "name": "batchNo",
          "type": "address"
        }
      ],
      "name": "getImporterData",
      "outputs": [
        {
          "name": "quantity",
          "type": "uint256"
        },
        {
          "name": "shipName",
          "type": "string"
        },
        {
          "name": "shipNo",
          "type": "string"
        },
        {
          "name": "arrivalDateTime",
          "type": "uint256"
        },
        {
          "name": "transportInfo",
          "type": "string"
        },
        {
          "name": "warehouseName",
          "type": "string"
        },
        {
          "name": "warehouseAddress",
          "type": "string"
        },
        {
          "name": "importerId",
          "type": "uint256"
        }
      ],
      "payable": false,
      "stateMutability": "view",
      "type": "function"
    },
    {
      "constant": false,
      "inputs": [
        {
          "name": "batchNo",
          "type": "address"
        },
        {
          "name": "_quantity",
          "type": "uint256"
        },
        {
          "name": "_temperature",
          "type": "string"
        },
        {
          "name": "_rostingDuration",
          "type": "uint256"
        },
        {
          "name": "_internalBatchNo",
          "type": "string"
        },
        {
          "name": "_packageDateTime",
          "type": "uint256"
        },
        {
          "name": "_processorName",
          "type": "string"
        },
        {
          "name": "_processorAddress",
          "type": "string"
        }
      ],
      "name": "setProcessorData",
      "outputs": [
        {
          "name": "",
          "type": "bool"
        }
      ],
      "payable": false,
      "stateMutability": "nonpayable",
      "type": "function"
    },
    {
      "constant": true,
      "inputs": [
        {
          "name": "batchNo",
          "type": "address"
        }
      ],
      "name": "getProcessorData",
      "outputs": [
        {
          "name": "quantity",
          "type": "uint256"
        },
        {
          "name": "temperature",
          "type": "string"
        },
        {
          "name": "rostingDuration",
          "type": "uint256"
        },
        {
          "name": "internalBatchNo",
          "type": "string"
        },
        {
          "name": "packageDateTime",
          "type": "uint256"
        },
        {
          "name": "processorName",
          "type": "string"
        },
        {
          "name": "processorAddress",
          "type": "string"
        }
      ],
      "payable": false,
      "stateMutability": "view",
      "type": "function"
    }
  ],
  "bytecode": "0x608060405234801561001057600080fd5b50336000806101000a81548173ffffffffffffffffffffffffffffffffffffffff021916908373ffffffffffffffffffffffffffffffffffffffff1602179055506001600360003373ffffffffffffffffffffffffffffffffffffffff1673ffffffffffffffffffffffffffffffffffffffff16815260200190815260200160002060006101000a81548160ff021916908360ff1602179055507f8afeca650897be3183b7c0d24eba96a1b990f75c4bd74a0cfb2c0a71aec48e6133604051808273ffffffffffffffffffffffffffffffffffffffff1673ffffffffffffffffffffffffffffffffffffffff16815260200191505060405180910390a161544a8061011c6000396000f30060806040526004361061011d576000357c0100000000000000000000000000000000000000000000000000000000900463ffffffff16806306ecd6d4146101225780630ab36749146102d25780631bcd250a146103ff5780631dbcddf41461045a57806327820851146105875780632c388d5d146106435780634d6b5e001461069e57806353a7571f1461075a5780636115eec2146108eb5780636f77926b14610ab8578063715018a614610cc35780637f89e94b14610cda5780638da5cb5b14610e6e578063b51a321614610ec5578063b6959d7314611010578063ca5322e514611225578063cf374674146113b9578063f2997d761461157a578063f2fde38b146117e6578063fb7a20af14611829578063febd0492146119a8575b600080fd5b34801561012e57600080fd5b50610163600480360381019080803573ffffffffffffffffffffffffffffffffffffffff169060200190929190505050611c29565b6040518088815260200180602001806020018060200187815260200186815260200185815260200184810384528a818151815260200191508051906020019080838360005b838110156101c35780820151818401526020810190506101a8565b50505050905090810190601f1680156101f05780820380516001836020036101000a031916815260200191505b50848103835289818151815260200191508051906020019080838360005b8381101561022957808201518184015260208101905061020e565b50505050905090810190601f1680156102565780820380516001836020036101000a031916815260200191505b50848103825288818151815260200191508051906020019080838360005b8381101561028f578082015181840152602081019050610274565b50505050905090810190601f1680156102bc5780820380516001836020036101000a031916815260200191505b509a505050505050505050505060405180910390f35b3480156102de57600080fd5b506103e5600480360381019080803573ffffffffffffffffffffffffffffffffffffffff169060200190929190803590602001908201803590602001908080601f0160208091040260200160405190810160405280939291908181526020018383808284378201915050505050509192919290803590602001908201803590602001908080601f0160208091040260200160405190810160405280939291908181526020018383808284378201915050505050509192919290803590602001908201803590602001908080601f0160208091040260200160405190810160405280939291908181526020018383808284378201915050505050509192919290505050611f47565b604051808215151515815260200191505060405180910390f35b34801561040b57600080fd5b50610440600480360381019080803573ffffffffffffffffffffffffffffffffffffffff1690602001909291905050506121a0565b604051808215151515815260200191505060405180910390f35b34801561046657600080fd5b5061056d600480360381019080803573ffffffffffffffffffffffffffffffffffffffff169060200190929190803590602001908201803590602001908080601f0160208091040260200160405190810160405280939291908181526020018383808284378201915050505050509192919290803590602001908201803590602001908080601f0160208091040260200160405190810160405280939291908181526020018383808284378201915050505050509192919290803590602001908201803590602001908080601f01602080910402602001604051908101604052809392919081815260200183838082843782019150505050505091929192905050506122c2565b604051808215151515815260200191505060405180910390f35b34801561059357600080fd5b506105c8600480360381019080803573ffffffffffffffffffffffffffffffffffffffff16906020019092919050505061251b565b6040518080602001828103825283818151815260200191508051906020019080838360005b838110156106085780820151818401526020810190506105ed565b50505050905090810190601f1680156106355780820380516001836020036101000a031916815260200191505b509250505060405180910390f35b34801561064f57600080fd5b50610684600480360381019080803573ffffffffffffffffffffffffffffffffffffffff16906020019092919050505061265a565b604051808215151515815260200191505060405180910390f35b3480156106aa57600080fd5b506106df600480360381019080803573ffffffffffffffffffffffffffffffffffffffff16906020019092919050505061277c565b6040518080602001828103825283818151815260200191508051906020019080838360005b8381101561071f578082015181840152602081019050610704565b50505050905090810190601f16801561074c5780820380516001836020036101000a031916815260200191505b509250505060405180910390f35b34801561076657600080fd5b506108d1600480360381019080803573ffffffffffffffffffffffffffffffffffffffff16906020019092919080359060200190929190803590602001908201803590602001908080601f016020809104026020016040519081016040528093929190818152602001838380828437820191505050505050919291929080359060200190929190803590602001908201803590602001908080601f016020809104026020016040519081016040528093929190818152602001838380828437820191505050505050919291929080359060200190929190803590602001908201803590602001908080601f0160208091040260200160405190810160405280939291908181526020018383808284378201915050505050509192919290803590602001908201803590602001908080601f01602080910402602001604051908101604052809392919081815260200183838082843782019150505050505091929192905050506128bb565b604051808215151515815260200191505060405180910390f35b3480156108f757600080fd5b50610a9e600480360381019080803573ffffffffffffffffffffffffffffffffffffffff16906020019092919080359060200190929190803590602001908201803590602001908080601f0160208091040260200160405190810160405280939291908181526020018383808284378201915050505050509192919290803590602001908201803590602001908080601f0160208091040260200160405190810160405280939291908181526020018383808284378201915050505050509192919290803590602001908201803590602001908080601f0160208091040260200160405190810160405280939291908181526020018383808284378201915050505050509192919290803590602001908201803590602001908080601f0160208091040260200160405190810160405280939291908181526020018383808284378201915050505050509192919290803590602001908201803590602001908080601f016020809104026020016040519081016040528093929190818152602001838380828437820191505050505050919291929080359060200190929190505050612bb6565b604051808215151515815260200191505060405180910390f35b348015610ac457600080fd5b50610af9600480360381019080803573ffffffffffffffffffffffffffffffffffffffff169060200190929190505050612ed3565b60405180806020018060200180602001861515151581526020018060200185810385528a818151815260200191508051906020019080838360005b83811015610b4f578082015181840152602081019050610b34565b50505050905090810190601f168015610b7c5780820380516001836020036101000a031916815260200191505b50858103845289818151815260200191508051906020019080838360005b83811015610bb5578082015181840152602081019050610b9a565b50505050905090810190601f168015610be25780820380516001836020036101000a031916815260200191505b50858103835288818151815260200191508051906020019080838360005b83811015610c1b578082015181840152602081019050610c00565b50505050905090810190601f168015610c485780820380516001836020036101000a031916815260200191505b50858103825286818151815260200191508051906020019080838360005b83811015610c81578082015181840152602081019050610c66565b50505050905090810190601f168015610cae5780820380516001836020036101000a031916815260200191505b50995050505050505050505060405180910390f35b348015610ccf57600080fd5b50610cd861329c565b005b348015610ce657600080fd5b50610d1b600480360381019080803573ffffffffffffffffffffffffffffffffffffffff16906020019092919050505061339e565b60405180806020018060200180602001848103845287818151815260200191508051906020019080838360005b83811015610d63578082015181840152602081019050610d48565b50505050905090810190601f168015610d905780820380516001836020036101000a031916815260200191505b50848103835286818151815260200191508051906020019080838360005b83811015610dc9578082015181840152602081019050610dae565b50505050905090810190601f168015610df65780820380516001836020036101000a031916815260200191505b50848103825285818151815260200191508051906020019080838360005b83811015610e2f578082015181840152602081019050610e14565b50505050905090810190601f168015610e5c5780820380516001836020036101000a031916815260200191505b50965050505050505060405180910390f35b348015610e7a57600080fd5b50610e83613662565b604051808273ffffffffffffffffffffffffffffffffffffffff1673ffffffffffffffffffffffffffffffffffffffff16815260200191505060405180910390f35b348015610ed157600080fd5b50610ff6600480360381019080803573ffffffffffffffffffffffffffffffffffffffff16906020019092919080359060200190929190803590602001908201803590602001908080601f0160208091040260200160405190810160405280939291908181526020018383808284378201915050505050509192919290803590602001908201803590602001908080601f0160208091040260200160405190810160405280939291908181526020018383808284378201915050505050509192919290803590602001908201803590602001908080601f01602080910402602001604051908101604052809392919081815260200183838082843782019150505050505091929192908035906020019092919080359060200190929190505050613687565b604051808215151515815260200191505060405180910390f35b34801561101c57600080fd5b50611051600480360381019080803573ffffffffffffffffffffffffffffffffffffffff16906020019092919050505061393d565b604051808881526020018060200187815260200180602001868152602001806020018060200185810385528b818151815260200191508051906020019080838360005b838110156110af578082015181840152602081019050611094565b50505050905090810190601f1680156110dc5780820380516001836020036101000a031916815260200191505b50858103845289818151815260200191508051906020019080838360005b838110156111155780820151818401526020810190506110fa565b50505050905090810190601f1680156111425780820380516001836020036101000a031916815260200191505b50858103835287818151815260200191508051906020019080838360005b8381101561117b578082015181840152602081019050611160565b50505050905090810190601f1680156111a85780820380516001836020036101000a031916815260200191505b50858103825286818151815260200191508051906020019080838360005b838110156111e15780820151818401526020810190506111c6565b50505050905090810190601f16801561120e5780820380516001836020036101000a031916815260200191505b509b50505050505050505050505060405180910390f35b34801561123157600080fd5b50611266600480360381019080803573ffffffffffffffffffffffffffffffffffffffff169060200190929190505050613cec565b60405180806020018060200180602001848103845287818151815260200191508051906020019080838360005b838110156112ae578082015181840152602081019050611293565b50505050905090810190601f1680156112db5780820380516001836020036101000a031916815260200191505b50848103835286818151815260200191508051906020019080838360005b838110156113145780820151818401526020810190506112f9565b50505050905090810190601f1680156113415780820380516001836020036101000a031916815260200191505b50848103825285818151815260200191508051906020019080838360005b8381101561137a57808201518184015260208101905061135f565b50505050905090810190601f1680156113a75780820380516001836020036101000a031916815260200191505b50965050505050505060405180910390f35b3480156113c557600080fd5b50611538600480360381019080803590602001908201803590602001908080601f0160208091040260200160405190810160405280939291908181526020018383808284378201915050505050509192919290803590602001908201803590602001908080601f0160208091040260200160405190810160405280939291908181526020018383808284378201915050505050509192919290803590602001908201803590602001908080601f0160208091040260200160405190810160405280939291908181526020018383808284378201915050505050509192919290803590602001908201803590602001908080601f0160208091040260200160405190810160405280939291908181526020018383808284378201915050505050509192919290803590602001908201803590602001908080601f0160208091040260200160405190810160405280939291908181526020018383808284378201915050505050509192919290505050613fb0565b604051808273ffffffffffffffffffffffffffffffffffffffff1673ffffffffffffffffffffffffffffffffffffffff16815260200191505060405180910390f35b34801561158657600080fd5b506115bb600480360381019080803573ffffffffffffffffffffffffffffffffffffffff1690602001909291905050506142f4565b60405180806020018060200180602001806020018060200186810386528b818151815260200191508051906020019080838360005b8381101561160b5780820151818401526020810190506115f0565b50505050905090810190601f1680156116385780820380516001836020036101000a031916815260200191505b5086810385528a818151815260200191508051906020019080838360005b83811015611671578082015181840152602081019050611656565b50505050905090810190601f16801561169e5780820380516001836020036101000a031916815260200191505b50868103845289818151815260200191508051906020019080838360005b838110156116d75780820151818401526020810190506116bc565b50505050905090810190601f1680156117045780820380516001836020036101000a031916815260200191505b50868103835288818151815260200191508051906020019080838360005b8381101561173d578082015181840152602081019050611722565b50505050905090810190601f16801561176a5780820380516001836020036101000a031916815260200191505b50868103825287818151815260200191508051906020019080838360005b838110156117a3578082015181840152602081019050611788565b50505050905090810190601f1680156117d05780820380516001836020036101000a031916815260200191505b509a505050505050505050505060405180910390f35b3480156117f257600080fd5b50611827600480360381019080803573ffffffffffffffffffffffffffffffffffffffff169060200190929190505050614715565b005b34801561183557600080fd5b5061198e600480360381019080803573ffffffffffffffffffffffffffffffffffffffff169060200190929190803590602001908201803590602001908080601f0160208091040260200160405190810160405280939291908181526020018383808284378201915050505050509192919290803590602001908201803590602001908080601f0160208091040260200160405190810160405280939291908181526020018383808284378201915050505050509192919290803590602001908201803590602001908080601f0160208091040260200160405190810160405280939291908181526020018383808284378201915050505050509192919290803515159060200190929190803590602001908201803590602001908080601f016020809104026020016040519081016040528093929190818152602001838380828437820191505050505050919291929050505061486a565b604051808215151515815260200191505060405180910390f35b3480156119b457600080fd5b506119e9600480360381019080803573ffffffffffffffffffffffffffffffffffffffff169060200190929190505050614d2c565b60405180898152602001806020018060200188815260200180602001806020018060200187815260200186810386528d818151815260200191508051906020019080838360005b83811015611a4b578082015181840152602081019050611a30565b50505050905090810190601f168015611a785780820380516001836020036101000a031916815260200191505b5086810385528c818151815260200191508051906020019080838360005b83811015611ab1578082015181840152602081019050611a96565b50505050905090810190601f168015611ade5780820380516001836020036101000a031916815260200191505b5086810384528a818151815260200191508051906020019080838360005b83811015611b17578082015181840152602081019050611afc565b50505050905090810190601f168015611b445780820380516001836020036101000a031916815260200191505b50868103835289818151815260200191508051906020019080838360005b83811015611b7d578082015181840152602081019050611b62565b50505050905090810190601f168015611baa5780820380516001836020036101000a031916815260200191505b50868103825288818151815260200191508051906020019080838360005b83811015611be3578082015181840152602081019050611bc8565b50505050905090810190601f168015611c105780820380516001836020036101000a031916815260200191505b509d505050505050505050505050505060405180910390f35b600060608060606000806000611c3d615189565b6001600360003373ffffffffffffffffffffffffffffffffffffffff1673ffffffffffffffffffffffffffffffffffffffff16815260200190815260200160002060009054906101000a900460ff1660ff16141515611c9b57600080fd5b600760008a73ffffffffffffffffffffffffffffffffffffffff1673ffffffffffffffffffffffffffffffffffffffff1681526020019081526020016000206101006040519081016040529081600082018054600181600116156101000203166002900480601f016020809104026020016040519081016040528092919081815260200182805460018160011615610100020316600290048015611d805780601f10611d5557610100808354040283529160200191611d80565b820191906000526020600020905b815481529060010190602001808311611d6357829003601f168201915b50505050508152602001600182018054600181600116156101000203166002900480601f016020809104026020016040519081016040528092919081815260200182805460018160011615610100020316600290048015611e225780601f10611df757610100808354040283529160200191611e22565b820191906000526020600020905b815481529060010190602001808311611e0557829003601f168201915b50505050508152602001600282018054600181600116156101000203166002900480601f016020809104026020016040519081016040528092919081815260200182805460018160011615610100020316600290048015611ec45780601f10611e9957610100808354040283529160200191611ec4565b820191906000526020600020905b815481529060010190602001808311611ea757829003601f168201915b50505050508152602001600382015481526020016004820154815260200160058201548152602001600682015481526020016007820154815250509050806060015181600001518260200151836040015184608001518560a001518660e00151859550849450839350975097509750975097509750975050919395979092949650565b60006001600360003373ffffffffffffffffffffffffffffffffffffffff1673ffffffffffffffffffffffffffffffffffffffff16815260200190815260200160002060009054906101000a900460ff1660ff16141515611fa757600080fd5b8360176000019080519060200190611fc09291906151cf565b508260176001019080519060200190611fda9291906151cf565b508160176002019080519060200190611ff49291906151cf565b506017600660008773ffffffffffffffffffffffffffffffffffffffff1673ffffffffffffffffffffffffffffffffffffffff1681526020019081526020016000206000820181600001908054600181600116156101000203166002900461205d92919061524f565b506001820181600101908054600181600116156101000203166002900461208592919061524f565b50600282018160020190805460018160011615610100020316600290046120ad92919061524f565b509050506040805190810160405280600881526020017f4558504f52544552000000000000000000000000000000000000000000000000815250600a60008773ffffffffffffffffffffffffffffffffffffffff1673ffffffffffffffffffffffffffffffffffffffff16815260200190815260200160002090805190602001906121399291906151cf565b508473ffffffffffffffffffffffffffffffffffffffff163373ffffffffffffffffffffffffffffffffffffffff167fbb868668319b351e6f49e0d6ed1618eda15ffe73f6f6f371e419b8d3963a6be560405160405180910390a360019050949350505050565b60008060009054906101000a900473ffffffffffffffffffffffffffffffffffffffff1673ffffffffffffffffffffffffffffffffffffffff163373ffffffffffffffffffffffffffffffffffffffff161415156121fd57600080fd5b6000600360008473ffffffffffffffffffffffffffffffffffffffff1673ffffffffffffffffffffffffffffffffffffffff16815260200190815260200160002060006101000a81548160ff021916908360ff1602179055507f9e8ca6ff03906e81e8a6a03d4f96b7edb0b97f0ed9d07ef1b699fff63438549682604051808273ffffffffffffffffffffffffffffffffffffffff1673ffffffffffffffffffffffffffffffffffffffff16815260200191505060405180910390a160019050919050565b60006001600360003373ffffffffffffffffffffffffffffffffffffffff1673ffffffffffffffffffffffffffffffffffffffff16815260200190815260200160002060009054906101000a900460ff1660ff1614151561232257600080fd5b836014600001908051906020019061233b9291906151cf565b5082601460010190805190602001906123559291906151cf565b50816014600201908051906020019061236f9291906151cf565b506014600560008773ffffffffffffffffffffffffffffffffffffffff1673ffffffffffffffffffffffffffffffffffffffff168152602001908152602001600020600082018160000190805460018160011615610100020316600290046123d892919061524f565b506001820181600101908054600181600116156101000203166002900461240092919061524f565b506002820181600201908054600181600116156101000203166002900461242892919061524f565b509050506040805190810160405280600981526020017f4841525645535445520000000000000000000000000000000000000000000000815250600a60008773ffffffffffffffffffffffffffffffffffffffff1673ffffffffffffffffffffffffffffffffffffffff16815260200190815260200160002090805190602001906124b49291906151cf565b508473ffffffffffffffffffffffffffffffffffffffff163373ffffffffffffffffffffffffffffffffffffffff167ff38048a8487a9352f87561aa442e92de7d09d55718b8bfc9b16720ea061c35c760405160405180910390a360019050949350505050565b60606001600360003373ffffffffffffffffffffffffffffffffffffffff1673ffffffffffffffffffffffffffffffffffffffff16815260200190815260200160002060009054906101000a900460ff1660ff1614151561257b57600080fd5b600260008373ffffffffffffffffffffffffffffffffffffffff1673ffffffffffffffffffffffffffffffffffffffff1681526020019081526020016000208054600181600116156101000203166002900480601f01602080910402602001604051908101604052809291908181526020018280546001816001161561010002031660029004801561264e5780601f106126235761010080835404028352916020019161264e565b820191906000526020600020905b81548152906001019060200180831161263157829003601f168201915b50505050509050919050565b60008060009054906101000a900473ffffffffffffffffffffffffffffffffffffffff1673ffffffffffffffffffffffffffffffffffffffff163373ffffffffffffffffffffffffffffffffffffffff161415156126b757600080fd5b6001600360008473ffffffffffffffffffffffffffffffffffffffff1673ffffffffffffffffffffffffffffffffffffffff16815260200190815260200160002060006101000a81548160ff021916908360ff1602179055507f8afeca650897be3183b7c0d24eba96a1b990f75c4bd74a0cfb2c0a71aec48e6182604051808273ffffffffffffffffffffffffffffffffffffffff1673ffffffffffffffffffffffffffffffffffffffff16815260200191505060405180910390a160019050919050565b60606001600360003373ffffffffffffffffffffffffffffffffffffffff1673ffffffffffffffffffffffffffffffffffffffff16815260200190815260200160002060009054906101000a900460ff1660ff161415156127dc57600080fd5b600a60008373ffffffffffffffffffffffffffffffffffffffff1673ffffffffffffffffffffffffffffffffffffffff1681526020019081526020016000208054600181600116156101000203166002900480601f0160208091040260200160405190810160405280929190818152602001828054600181600116156101000203166002900480156128af5780601f10612884576101008083540402835291602001916128af565b820191906000526020600020905b81548152906001019060200180831161289257829003601f168201915b50505050509050919050565b60006001600360003373ffffffffffffffffffffffffffffffffffffffff1673ffffffffffffffffffffffffffffffffffffffff16815260200190815260200160002060009054906101000a900460ff1660ff1614151561291b57600080fd5b87602a6000018190555086602a600301908051906020019061293e9291906151cf565b5085602a6001018190555084602a60040190805190602001906129629291906151cf565b5083602a6002018190555082602a60050190805190602001906129869291906151cf565b5081602a60060190805190602001906129a09291906151cf565b50602a600960008b73ffffffffffffffffffffffffffffffffffffffff1673ffffffffffffffffffffffffffffffffffffffff16815260200190815260200160002060008201548160000155600182015481600101556002820154816002015560038201816003019080546001816001161561010002031660029004612a2792919061524f565b5060048201816004019080546001816001161561010002031660029004612a4f92919061524f565b5060058201816005019080546001816001161561010002031660029004612a7792919061524f565b5060068201816006019080546001816001161561010002031660029004612a9f92919061524f565b509050506040805190810160405280600481526020017f444f4e4500000000000000000000000000000000000000000000000000000000815250600a60008b73ffffffffffffffffffffffffffffffffffffffff1673ffffffffffffffffffffffffffffffffffffffff1681526020019081526020016000209080519060200190612b2b9291906151cf565b503373ffffffffffffffffffffffffffffffffffffffff167fe10398ac963823ae3dc8fc855773d4c9c3d53c5aca656e360a2a5c2ae659f2618a604051808273ffffffffffffffffffffffffffffffffffffffff1673ffffffffffffffffffffffffffffffffffffffff16815260200191505060405180910390a26001905098975050505050505050565b60006001600360003373ffffffffffffffffffffffffffffffffffffffff1673ffffffffffffffffffffffffffffffffffffffff16815260200190815260200160002060009054906101000a900460ff1660ff16141515612c1657600080fd5b876022600001819055508660226003019080519060200190612c399291906151cf565b508560226004019080519060200190612c539291906151cf565b50426022600101819055508460226005019080519060200190612c779291906151cf565b508360226006019080519060200190612c919291906151cf565b508260226007019080519060200190612cab9291906151cf565b50816022600201819055506022600860008b73ffffffffffffffffffffffffffffffffffffffff1673ffffffffffffffffffffffffffffffffffffffff16815260200190815260200160002060008201548160000155600182015481600101556002820154816002015560038201816003019080546001816001161561010002031660029004612d3c92919061524f565b5060048201816004019080546001816001161561010002031660029004612d6492919061524f565b5060058201816005019080546001816001161561010002031660029004612d8c92919061524f565b5060068201816006019080546001816001161561010002031660029004612db492919061524f565b5060078201816007019080546001816001161561010002031660029004612ddc92919061524f565b509050506040805190810160405280600981526020017f50524f434553534f520000000000000000000000000000000000000000000000815250600a60008b73ffffffffffffffffffffffffffffffffffffffff1673ffffffffffffffffffffffffffffffffffffffff1681526020019081526020016000209080519060200190612e689291906151cf565b508873ffffffffffffffffffffffffffffffffffffffff163373ffffffffffffffffffffffffffffffffffffffff167fd42f803be1969ed3d7fe76e90571304a3e70f2f32b20773cbc303eff548cb05f60405160405180910390a36001905098975050505050505050565b606080606060006060612ee46152d6565b6001600360003373ffffffffffffffffffffffffffffffffffffffff1673ffffffffffffffffffffffffffffffffffffffff16815260200190815260200160002060009054906101000a900460ff1660ff16141515612f4257600080fd5b600160008873ffffffffffffffffffffffffffffffffffffffff1673ffffffffffffffffffffffffffffffffffffffff16815260200190815260200160002060806040519081016040529081600082018054600181600116156101000203166002900480601f0160208091040260200160405190810160405280929190818152602001828054600181600116156101000203166002900480156130265780601f10612ffb57610100808354040283529160200191613026565b820191906000526020600020905b81548152906001019060200180831161300957829003601f168201915b50505050508152602001600182018054600181600116156101000203166002900480601f0160208091040260200160405190810160405280929190818152602001828054600181600116156101000203166002900480156130c85780601f1061309d576101008083540402835291602001916130c8565b820191906000526020600020905b8154815290600101906020018083116130ab57829003601f168201915b505050505081526020016002820160009054906101000a900460ff16151515158152602001600382018054600181600116156101000203166002900480601f0160208091040260200160405190810160405280929190818152602001828054600181600116156101000203166002900480156131855780601f1061315a57610100808354040283529160200191613185565b820191906000526020600020905b81548152906001019060200180831161316857829003601f168201915b505050505081525050905080600001518160200151600260008a73ffffffffffffffffffffffffffffffffffffffff1673ffffffffffffffffffffffffffffffffffffffff16815260200190815260200160002083604001518460600151849450839350828054600181600116156101000203166002900480601f01602080910402602001604051908101604052809291908181526020018280546001816001161561010002031660029004801561327e5780601f106132535761010080835404028352916020019161327e565b820191906000526020600020905b81548152906001019060200180831161326157829003601f168201915b50505050509250809050955095509550955095505091939590929450565b6000809054906101000a900473ffffffffffffffffffffffffffffffffffffffff1673ffffffffffffffffffffffffffffffffffffffff163373ffffffffffffffffffffffffffffffffffffffff161415156132f757600080fd5b6000809054906101000a900473ffffffffffffffffffffffffffffffffffffffff1673ffffffffffffffffffffffffffffffffffffffff167ff8df31144d9c2f0f6b59d69b8b98abd5459d07f2742c4df920b25aae33c6482060405160405180910390a260008060006101000a81548173ffffffffffffffffffffffffffffffffffffffff021916908373ffffffffffffffffffffffffffffffffffffffff160217905550565b60608060606133ab615301565b6001600360003373ffffffffffffffffffffffffffffffffffffffff1673ffffffffffffffffffffffffffffffffffffffff16815260200190815260200160002060009054906101000a900460ff1660ff1614151561340957600080fd5b600560008673ffffffffffffffffffffffffffffffffffffffff1673ffffffffffffffffffffffffffffffffffffffff16815260200190815260200160002060606040519081016040529081600082018054600181600116156101000203166002900480601f0160208091040260200160405190810160405280929190818152602001828054600181600116156101000203166002900480156134ed5780601f106134c2576101008083540402835291602001916134ed565b820191906000526020600020905b8154815290600101906020018083116134d057829003601f168201915b50505050508152602001600182018054600181600116156101000203166002900480601f01602080910402602001604051908101604052809291908181526020018280546001816001161561010002031660029004801561358f5780601f106135645761010080835404028352916020019161358f565b820191906000526020600020905b81548152906001019060200180831161357257829003601f168201915b50505050508152602001600282018054600181600116156101000203166002900480601f0160208091040260200160405190810160405280929190818152602001828054600181600116156101000203166002900480156136315780601f1061360657610100808354040283529160200191613631565b820191906000526020600020905b81548152906001019060200180831161361457829003601f168201915b5050505050815250509050806000015181602001518260400151829250819150809050935093509350509193909250565b6000809054906101000a900473ffffffffffffffffffffffffffffffffffffffff1681565b60006001600360003373ffffffffffffffffffffffffffffffffffffffff1673ffffffffffffffffffffffffffffffffffffffff16815260200190815260200160002060009054906101000a900460ff1660ff161415156136e757600080fd5b86601a6003018190555085601a600001908051906020019061370a9291906151cf565b5084601a60010190805190602001906137249291906151cf565b5083601a600201908051906020019061373e9291906151cf565b5042601a6004018190555082601a6005018190555081601a60070181905550601a600760008a73ffffffffffffffffffffffffffffffffffffffff1673ffffffffffffffffffffffffffffffffffffffff168152602001908152602001600020600082018160000190805460018160011615610100020316600290046137c592919061524f565b50600182018160010190805460018160011615610100020316600290046137ed92919061524f565b506002820181600201908054600181600116156101000203166002900461381592919061524f565b5060038201548160030155600482015481600401556005820154816005015560068201548160060155600782015481600701559050506040805190810160405280600881526020017f494d504f52544552000000000000000000000000000000000000000000000000815250600a60008a73ffffffffffffffffffffffffffffffffffffffff1673ffffffffffffffffffffffffffffffffffffffff16815260200190815260200160002090805190602001906138d39291906151cf565b508773ffffffffffffffffffffffffffffffffffffffff163373ffffffffffffffffffffffffffffffffffffffff167feaba9e3c271bb82a9fd28bf677c9ee9b7a261f8ac7340051834c654f445e7db860405160405180910390a360019050979650505050505050565b60006060600060606000606080613952615323565b6001600360003373ffffffffffffffffffffffffffffffffffffffff1673ffffffffffffffffffffffffffffffffffffffff16815260200190815260200160002060009054906101000a900460ff1660ff161415156139b057600080fd5b600960008a73ffffffffffffffffffffffffffffffffffffffff1673ffffffffffffffffffffffffffffffffffffffff16815260200190815260200160002060e06040519081016040529081600082015481526020016001820154815260200160028201548152602001600382018054600181600116156101000203166002900480601f016020809104026020016040519081016040528092919081815260200182805460018160011615610100020316600290048015613ab25780601f10613a8757610100808354040283529160200191613ab2565b820191906000526020600020905b815481529060010190602001808311613a9557829003601f168201915b50505050508152602001600482018054600181600116156101000203166002900480601f016020809104026020016040519081016040528092919081815260200182805460018160011615610100020316600290048015613b545780601f10613b2957610100808354040283529160200191613b54565b820191906000526020600020905b815481529060010190602001808311613b3757829003601f168201915b50505050508152602001600582018054600181600116156101000203166002900480601f016020809104026020016040519081016040528092919081815260200182805460018160011615610100020316600290048015613bf65780601f10613bcb57610100808354040283529160200191613bf6565b820191906000526020600020905b815481529060010190602001808311613bd957829003601f168201915b50505050508152602001600682018054600181600116156101000203166002900480601f016020809104026020016040519081016040528092919081815260200182805460018160011615610100020316600290048015613c985780601f10613c6d57610100808354040283529160200191613c98565b820191906000526020600020905b815481529060010190602001808311613c7b57829003601f168201915b5050505050815250509050806000015181606001518260200151836080015184604001518560a001518660c00151859550839350819150809050975097509750975097509750975050919395979092949650565b6060806060613cf9615361565b6001600360003373ffffffffffffffffffffffffffffffffffffffff1673ffffffffffffffffffffffffffffffffffffffff16815260200190815260200160002060009054906101000a900460ff1660ff16141515613d5757600080fd5b600660008673ffffffffffffffffffffffffffffffffffffffff1673ffffffffffffffffffffffffffffffffffffffff16815260200190815260200160002060606040519081016040529081600082018054600181600116156101000203166002900480601f016020809104026020016040519081016040528092919081815260200182805460018160011615610100020316600290048015613e3b5780601f10613e1057610100808354040283529160200191613e3b565b820191906000526020600020905b815481529060010190602001808311613e1e57829003601f168201915b50505050508152602001600182018054600181600116156101000203166002900480601f016020809104026020016040519081016040528092919081815260200182805460018160011615610100020316600290048015613edd5780601f10613eb257610100808354040283529160200191613edd565b820191906000526020600020905b815481529060010190602001808311613ec057829003601f168201915b50505050508152602001600282018054600181600116156101000203166002900480601f016020809104026020016040519081016040528092919081815260200182805460018160011615610100020316600290048015613f7f5780601f10613f5457610100808354040283529160200191613f7f565b820191906000526020600020905b815481529060010190602001808311613f6257829003601f168201915b5050505050815250509050806000015181602001518260400151829250819150809050935093509350509193909250565b60008060006001600360003373ffffffffffffffffffffffffffffffffffffffff1673ffffffffffffffffffffffffffffffffffffffff16815260200190815260200160002060009054906101000a900460ff1660ff1614151561401357600080fd5b3342604051808373ffffffffffffffffffffffffffffffffffffffff1673ffffffffffffffffffffffffffffffffffffffff166c0100000000000000000000000002815260140182815260200192505050604051809103902060019004915081905087600f600001908051906020019061408e9291906151cf565b5086600f60010190805190602001906140a89291906151cf565b5085600f60020190805190602001906140c29291906151cf565b5084600f60030190805190602001906140dc9291906151cf565b5083600f60040190805190602001906140f69291906151cf565b50600f600460008373ffffffffffffffffffffffffffffffffffffffff1673ffffffffffffffffffffffffffffffffffffffff1681526020019081526020016000206000820181600001908054600181600116156101000203166002900461415f92919061524f565b506001820181600101908054600181600116156101000203166002900461418792919061524f565b50600282018160020190805460018160011615610100020316600290046141af92919061524f565b50600382018160030190805460018160011615610100020316600290046141d792919061524f565b50600482018160040190805460018160011615610100020316600290046141ff92919061524f565b509050506040805190810160405280600f81526020017f4641524d5f494e5350454354494f4e0000000000000000000000000000000000815250600a60008373ffffffffffffffffffffffffffffffffffffffff1673ffffffffffffffffffffffffffffffffffffffff168152602001908152602001600020908051906020019061428b9291906151cf565b508073ffffffffffffffffffffffffffffffffffffffff163373ffffffffffffffffffffffffffffffffffffffff167ffb0cd0976d848f2ad8c4a6963c1295c96186b2f3919c8204b4fcb350fc36a31f60405160405180910390a3809250505095945050505050565b6060806060806060614304615383565b6001600360003373ffffffffffffffffffffffffffffffffffffffff1673ffffffffffffffffffffffffffffffffffffffff16815260200190815260200160002060009054906101000a900460ff1660ff1614151561436257600080fd5b600460008873ffffffffffffffffffffffffffffffffffffffff1673ffffffffffffffffffffffffffffffffffffffff16815260200190815260200160002060a06040519081016040529081600082018054600181600116156101000203166002900480601f0160208091040260200160405190810160405280929190818152602001828054600181600116156101000203166002900480156144465780601f1061441b57610100808354040283529160200191614446565b820191906000526020600020905b81548152906001019060200180831161442957829003601f168201915b50505050508152602001600182018054600181600116156101000203166002900480601f0160208091040260200160405190810160405280929190818152602001828054600181600116156101000203166002900480156144e85780601f106144bd576101008083540402835291602001916144e8565b820191906000526020600020905b8154815290600101906020018083116144cb57829003601f168201915b50505050508152602001600282018054600181600116156101000203166002900480601f01602080910402602001604051908101604052809291908181526020018280546001816001161561010002031660029004801561458a5780601f1061455f5761010080835404028352916020019161458a565b820191906000526020600020905b81548152906001019060200180831161456d57829003601f168201915b50505050508152602001600382018054600181600116156101000203166002900480601f01602080910402602001604051908101604052809291908181526020018280546001816001161561010002031660029004801561462c5780601f106146015761010080835404028352916020019161462c565b820191906000526020600020905b81548152906001019060200180831161460f57829003601f168201915b50505050508152602001600482018054600181600116156101000203166002900480601f0160208091040260200160405190810160405280929190818152602001828054600181600116156101000203166002900480156146ce5780601f106146a3576101008083540402835291602001916146ce565b820191906000526020600020905b8154815290600101906020018083116146b157829003601f168201915b505050505081525050905080600001518160200151826040015183606001518460800151849450839350829250819150809050955095509550955095505091939590929450565b6000809054906101000a900473ffffffffffffffffffffffffffffffffffffffff1673ffffffffffffffffffffffffffffffffffffffff163373ffffffffffffffffffffffffffffffffffffffff1614151561477057600080fd5b600073ffffffffffffffffffffffffffffffffffffffff168173ffffffffffffffffffffffffffffffffffffffff16141515156147ac57600080fd5b8073ffffffffffffffffffffffffffffffffffffffff166000809054906101000a900473ffffffffffffffffffffffffffffffffffffffff1673ffffffffffffffffffffffffffffffffffffffff167f8be0079c531659141344cd1fd0a4f28419497f9722a3daafe3b4186f6b6457e060405160405180910390a3806000806101000a81548173ffffffffffffffffffffffffffffffffffffffff021916908373ffffffffffffffffffffffffffffffffffffffff16021790555050565b60006001600360003373ffffffffffffffffffffffffffffffffffffffff1673ffffffffffffffffffffffffffffffffffffffff16815260200190815260200160002060009054906101000a900460ff1660ff161415156148ca57600080fd5b85600b60000190805190602001906148e39291906151cf565b5084600b60010190805190602001906148fd9291906151cf565b5082600b60020160006101000a81548160ff02191690831515021790555081600b60030190805190602001906149349291906151cf565b50600b600160008973ffffffffffffffffffffffffffffffffffffffff1673ffffffffffffffffffffffffffffffffffffffff1681526020019081526020016000206000820181600001908054600181600116156101000203166002900461499d92919061524f565b50600182018160010190805460018160011615610100020316600290046149c592919061524f565b506002820160009054906101000a900460ff168160020160006101000a81548160ff02191690831515021790555060038201816003019080546001816001161561010002031660029004614a1a92919061524f565b5090505083600260008973ffffffffffffffffffffffffffffffffffffffff1673ffffffffffffffffffffffffffffffffffffffff1681526020019081526020016000209080519060200190614a719291906151cf565b508673ffffffffffffffffffffffffffffffffffffffff167f913673700610456ef7bb668e20badb980d1e4df0ba5bfbdbb6e7bfb0ddbcc6c9878787878760405180806020018060200180602001861515151581526020018060200185810385528a818151815260200191508051906020019080838360005b83811015614b05578082015181840152602081019050614aea565b50505050905090810190601f168015614b325780820380516001836020036101000a031916815260200191505b50858103845289818151815260200191508051906020019080838360005b83811015614b6b578082015181840152602081019050614b50565b50505050905090810190601f168015614b985780820380516001836020036101000a031916815260200191505b50858103835288818151815260200191508051906020019080838360005b83811015614bd1578082015181840152602081019050614bb6565b50505050905090810190601f168015614bfe5780820380516001836020036101000a031916815260200191505b50858103825286818151815260200191508051906020019080838360005b83811015614c37578082015181840152602081019050614c1c565b50505050905090810190601f168015614c645780820380516001836020036101000a031916815260200191505b50995050505050505050505060405180910390a2836040518082805190602001908083835b602083101515614cae5780518252602082019150602081019050602083039250614c89565b6001836020036101000a03801982511681845116808217855250505050505090500191505060405180910390208773ffffffffffffffffffffffffffffffffffffffff167f3b419384c2ac88d62e2daac72f8c6e6398c474d91c63e814a307e3641762c8de60405160405180910390a3600190509695505050505050565b6000606080600060608060606000614d426153b3565b6001600360003373ffffffffffffffffffffffffffffffffffffffff1673ffffffffffffffffffffffffffffffffffffffff16815260200190815260200160002060009054906101000a900460ff1660ff16141515614da057600080fd5b600860008b73ffffffffffffffffffffffffffffffffffffffff1673ffffffffffffffffffffffffffffffffffffffff1681526020019081526020016000206101006040519081016040529081600082015481526020016001820154815260200160028201548152602001600382018054600181600116156101000203166002900480601f016020809104026020016040519081016040528092919081815260200182805460018160011615610100020316600290048015614ea35780601f10614e7857610100808354040283529160200191614ea3565b820191906000526020600020905b815481529060010190602001808311614e8657829003601f168201915b50505050508152602001600482018054600181600116156101000203166002900480601f016020809104026020016040519081016040528092919081815260200182805460018160011615610100020316600290048015614f455780601f10614f1a57610100808354040283529160200191614f45565b820191906000526020600020905b815481529060010190602001808311614f2857829003601f168201915b50505050508152602001600582018054600181600116156101000203166002900480601f016020809104026020016040519081016040528092919081815260200182805460018160011615610100020316600290048015614fe75780601f10614fbc57610100808354040283529160200191614fe7565b820191906000526020600020905b815481529060010190602001808311614fca57829003601f168201915b50505050508152602001600682018054600181600116156101000203166002900480601f0160208091040260200160405190810160405280929190818152602001828054600181600116156101000203166002900480156150895780601f1061505e57610100808354040283529160200191615089565b820191906000526020600020905b81548152906001019060200180831161506c57829003601f168201915b50505050508152602001600782018054600181600116156101000203166002900480601f01602080910402602001604051908101604052809291908181526020018280546001816001161561010002031660029004801561512b5780601f106151005761010080835404028352916020019161512b565b820191906000526020600020905b81548152906001019060200180831161510e57829003601f168201915b505050505081525050905080600001518160600151826080015183602001518460a001518560c001518660e0015187604001518696508595508393508292508191509850985098509850985098509850985050919395975091939597565b6101006040519081016040528060608152602001606081526020016060815260200160008152602001600081526020016000815260200160008152602001600081525090565b828054600181600116156101000203166002900490600052602060002090601f016020900481019282601f1061521057805160ff191683800117855561523e565b8280016001018555821561523e579182015b8281111561523d578251825591602001919060010190615222565b5b50905061524b91906153f9565b5090565b828054600181600116156101000203166002900490600052602060002090601f016020900481019282601f1061528857805485556152c5565b828001600101855582156152c557600052602060002091601f016020900482015b828111156152c45782548255916001019190600101906152a9565b5b5090506152d291906153f9565b5090565b6080604051908101604052806060815260200160608152602001600015158152602001606081525090565b6060604051908101604052806060815260200160608152602001606081525090565b60e060405190810160405280600081526020016000815260200160008152602001606081526020016060815260200160608152602001606081525090565b6060604051908101604052806060815260200160608152602001606081525090565b60a06040519081016040528060608152602001606081526020016060815260200160608152602001606081525090565b6101006040519081016040528060008152602001600081526020016000815260200160608152602001606081526020016060815260200160608152602001606081525090565b61541b91905b808211156154175760008160009055506001016153ff565b5090565b905600a165627a7a72305820d35024382abcb4a893f463eae4b95ed52ee9f8a8f89aa4778a0bc96d839647440029",
  "source": "pragma solidity ^0.4.23;\n\nimport \"./SupplyChainStorageOwnable.sol\";\n\ncontract SupplyChainStorage is SupplyChainStorageOwnable {\n    \n    constructor() public {\n        authorizedCaller[msg.sender] = 1;\n        emit AuthorizedCaller(msg.sender);\n    }\n    \n    /* Events */\n    event AuthorizedCaller(address caller);\n    event DeAuthorizedCaller(address caller);\n\n    event PerformCultivation(address indexed user, address indexed batchNo);\n    event DoneInspection(address indexed user, address indexed batchNo);\n    event DoneHarvesting(address indexed user, address indexed batchNo);\n    event DoneExporting(address indexed user, address indexed batchNo);\n    event DoneImporting(address indexed user, address indexed batchNo);\n    event DoneProcessing(address indexed user, address indexedbatchNo);\n    \n\n    event UserUpdate(address indexed user, string name, string contactNo, string role, bool isActive, string profileHash);\n    event UserRoleUpdate(address indexed user, string indexed role); \n    /* Modifiers */\n    \n    modifier onlyAuthCaller(){\n        require(authorizedCaller[msg.sender] == 1);\n        _;\n    }\n    \n    /* User Related */\n    struct user {\n        string name;\n        string contactNo;\n        bool isActive;\n        string profileHash;\n    } \n    \n    mapping(address => user) userDetails;\n    mapping(address => string) userRole;\n    \n    /* Caller Mapping */\n    mapping(address => uint8) authorizedCaller;\n    \n    /* authorize caller */\n    function authorizeCaller(address _caller) public onlyOwner returns(bool) \n    {\n        authorizedCaller[_caller] = 1;\n        emit AuthorizedCaller(_caller);\n        return true;\n    }\n    \n    /* deauthorize caller */\n    function deAuthorizeCaller(address _caller) public onlyOwner returns(bool) \n    {\n        authorizedCaller[_caller] = 0;\n        emit DeAuthorizedCaller(_caller);\n        return true;\n    }\n    \n    /*User Roles\n        SUPER_ADMIN,\n        FARM_INSPECTION,\n        HARVESTER,\n        EXPORTER,\n        IMPORTER,\n        PROCESSOR\n    */\n    \n    /* Process Related */\n     struct basicDetails {\n        string registrationNo;\n        string farmerName;\n        string farmAddress;\n        string exporterName;\n        string importerName;\n        \n    }\n    \n    struct farmInspector {\n        string coffeeFamily;\n        string typeOfSeed;\n        string fertilizerUsed;\n    }\n    \n    struct harvester {\n        string cropVariety;\n        string temperatureUsed;\n        string humidity;\n    }    \n    \n    struct exporter {\n        string destinationAddress;\n        string shipName;\n        string shipNo;\n        uint256 quantity;\n        uint256 departureDateTime;\n        uint256 estimateDateTime;\n        uint256 plantNo;\n        uint256 exporterId;\n    }\n    \n    struct importer {\n        uint256 quantity;\n        uint256 arrivalDateTime;\n        uint256 importerId;\n        string shipName;\n        string shipNo;\n        string transportInfo;\n        string warehouseName;\n        string warehouseAddress;\n    }\n    \n    struct processor {\n        uint256 quantity;\n        uint256 rostingDuration;\n        uint256 packageDateTime;\n        string temperature;\n        string internalBatchNo;\n        string processorName;\n        string processorAddress;\n    }\n    \n    mapping (address => basicDetails) batchBasicDetails;\n    mapping (address => farmInspector) batchFarmInspector;\n    mapping (address => harvester) batchHarvester;\n    mapping (address => exporter) batchExporter;\n    mapping (address => importer) batchImporter;\n    mapping (address => processor) batchProcessor;\n    mapping (address => string) nextAction;\n    \n    /*Initialize struct pointer*/\n    user userDetail;\n    basicDetails basicDetailsData;\n    farmInspector farmInspectorData;\n    harvester harvesterData;\n    exporter exporterData;\n    importer importerData;\n    processor processorData; \n    \n    \n    \n    /* Get User Role */\n    function getUserRole(address _userAddress) public onlyAuthCaller view returns(string)\n    {\n        return userRole[_userAddress];\n    }\n    \n    /* Get Next Action  */    \n    function getNextAction(address _batchNo) public onlyAuthCaller view returns(string)\n    {\n        return nextAction[_batchNo];\n    }\n        \n    /*set user details*/\n    function setUser(address _userAddress,\n                     string _name, \n                     string _contactNo, \n                     string _role, \n                     bool _isActive,\n                     string _profileHash) public onlyAuthCaller returns(bool){\n        \n        /*store data into struct*/\n        userDetail.name = _name;\n        userDetail.contactNo = _contactNo;\n        userDetail.isActive = _isActive;\n        userDetail.profileHash = _profileHash;\n        \n        /*store data into mapping*/\n        userDetails[_userAddress] = userDetail;\n        userRole[_userAddress] = _role;\n        \n        emit UserUpdate(_userAddress,_name,_contactNo,_role,_isActive,_profileHash);\n        emit UserRoleUpdate(_userAddress,_role);\n\n        return true;\n    }  \n    \n    /*get user details*/\n    function getUser(address _userAddress) public onlyAuthCaller view returns(string name, \n                                                                    string contactNo, \n                                                                    string role,\n                                                                    bool isActive, \n                                                                    string profileHash\n                                                                ){\n\n        /*Getting value from struct*/\n        user memory tmpData = userDetails[_userAddress];\n        \n        return (tmpData.name, tmpData.contactNo, userRole[_userAddress], tmpData.isActive, tmpData.profileHash);\n    }\n    \n    /*get batch basicDetails*/\n    function getBasicDetails(address _batchNo) public onlyAuthCaller view returns(string registrationNo,\n                             string farmerName,\n                             string farmAddress,\n                             string exporterName,\n                             string importerName) {\n        \n        basicDetails memory tmpData = batchBasicDetails[_batchNo];\n        \n        return (tmpData.registrationNo,tmpData.farmerName,tmpData.farmAddress,tmpData.exporterName,tmpData.importerName);\n    }\n    \n    /*set batch basicDetails*/\n    function setBasicDetails(string _registrationNo,\n                             string _farmerName,\n                             string _farmAddress,\n                             string _exporterName,\n                             string _importerName\n                             \n                            ) public onlyAuthCaller returns(address) {\n        \n        uint tmpData = uint(keccak256(msg.sender, now));\n        address batchNo = address(tmpData);\n        \n        basicDetailsData.registrationNo = _registrationNo;\n        basicDetailsData.farmerName = _farmerName;\n        basicDetailsData.farmAddress = _farmAddress;\n        basicDetailsData.exporterName = _exporterName;\n        basicDetailsData.importerName = _importerName;\n        \n        batchBasicDetails[batchNo] = basicDetailsData;\n        \n        nextAction[batchNo] = 'FARM_INSPECTION';   \n        \n        emit PerformCultivation(msg.sender, batchNo);\n        \n        return batchNo;\n    }\n    \n    /*set farm Inspector data*/\n    function setFarmInspectorData(address batchNo,\n                                    string _coffeeFamily,\n                                    string _typeOfSeed,\n                                    string _fertilizerUsed) public onlyAuthCaller returns(bool){\n        farmInspectorData.coffeeFamily = _coffeeFamily;\n        farmInspectorData.typeOfSeed = _typeOfSeed;\n        farmInspectorData.fertilizerUsed = _fertilizerUsed;\n        \n        batchFarmInspector[batchNo] = farmInspectorData;\n        \n        nextAction[batchNo] = 'HARVESTER'; \n        \n        emit DoneInspection(msg.sender, batchNo);\n\n        return true;\n    }\n    \n    \n    /*get farm inspactor data*/\n    function getFarmInspectorData(address batchNo) public onlyAuthCaller view returns (string coffeeFamily,string typeOfSeed,string fertilizerUsed){\n        \n        farmInspector memory tmpData = batchFarmInspector[batchNo];\n        return (tmpData.coffeeFamily, tmpData.typeOfSeed, tmpData.fertilizerUsed);\n    }\n    \n\n    /*set Harvester data*/\n    function setHarvesterData(address batchNo,\n                              string _cropVariety,\n                              string _temperatureUsed,\n                              string _humidity) public onlyAuthCaller returns(bool){\n        harvesterData.cropVariety = _cropVariety;\n        harvesterData.temperatureUsed = _temperatureUsed;\n        harvesterData.humidity = _humidity;\n        \n        batchHarvester[batchNo] = harvesterData;\n        \n        nextAction[batchNo] = 'EXPORTER'; \n        \n        emit DoneHarvesting(msg.sender, batchNo);\n\n        return true;\n    }\n    \n    /*get farm Harvester data*/\n    function getHarvesterData(address batchNo) public onlyAuthCaller view returns(string cropVariety,\n                                                                                           string temperatureUsed,\n                                                                                           string humidity){\n        \n        harvester memory tmpData = batchHarvester[batchNo];\n        return (tmpData.cropVariety, tmpData.temperatureUsed, tmpData.humidity);\n    }\n    \n    /*set Exporter data*/\n    function setExporterData(address batchNo,\n                              uint256 _quantity,    \n                              string _destinationAddress,\n                              string _shipName,\n                              string _shipNo,\n                              uint256 _estimateDateTime,\n                              uint256 _exporterId) public onlyAuthCaller returns(bool){\n        \n        exporterData.quantity = _quantity;\n        exporterData.destinationAddress = _destinationAddress;\n        exporterData.shipName = _shipName;\n        exporterData.shipNo = _shipNo;\n        exporterData.departureDateTime = now;\n        exporterData.estimateDateTime = _estimateDateTime;\n        exporterData.exporterId = _exporterId;\n        \n        batchExporter[batchNo] = exporterData;\n        \n        nextAction[batchNo] = 'IMPORTER'; \n        \n        emit DoneExporting(msg.sender, batchNo);\n\n        return true;\n    }\n    \n    /*get Exporter data*/\n    function getExporterData(address batchNo) public onlyAuthCaller view returns(uint256 quantity,\n                                                                string destinationAddress,\n                                                                string shipName,\n                                                                string shipNo,\n                                                                uint256 departureDateTime,\n                                                                uint256 estimateDateTime,\n                                                                uint256 exporterId){\n        \n        \n        exporter memory tmpData = batchExporter[batchNo];\n        \n        \n        return (tmpData.quantity, \n                tmpData.destinationAddress, \n                tmpData.shipName, \n                tmpData.shipNo, \n                tmpData.departureDateTime, \n                tmpData.estimateDateTime, \n                tmpData.exporterId);\n                \n        \n    }\n\n    \n    /*set Importer data*/\n    function setImporterData(address batchNo,\n                              uint256 _quantity, \n                              string _shipName,\n                              string _shipNo,\n                              string _transportInfo,\n                              string _warehouseName,\n                              string _warehouseAddress,\n                              uint256 _importerId) public onlyAuthCaller returns(bool){\n        \n        importerData.quantity = _quantity;\n        importerData.shipName = _shipName;\n        importerData.shipNo = _shipNo;\n        importerData.arrivalDateTime = now;\n        importerData.transportInfo = _transportInfo;\n        importerData.warehouseName = _warehouseName;\n        importerData.warehouseAddress = _warehouseAddress;\n        importerData.importerId = _importerId;\n        \n        batchImporter[batchNo] = importerData;\n        \n        nextAction[batchNo] = 'PROCESSOR'; \n        \n        emit DoneImporting(msg.sender, batchNo);\n\n        return true;\n    }\n    \n    /*get Importer data*/\n    function getImporterData(address batchNo) public onlyAuthCaller view returns(uint256 quantity,\n                                                                                        string shipName,\n                                                                                        string shipNo,\n                                                                                        uint256 arrivalDateTime,\n                                                                                        string transportInfo,\n                                                                                        string warehouseName,\n                                                                                        string warehouseAddress,\n                                                                                        uint256 importerId){\n        \n        importer memory tmpData = batchImporter[batchNo];\n        \n        \n        return (tmpData.quantity, \n                tmpData.shipName, \n                tmpData.shipNo, \n                tmpData.arrivalDateTime, \n                tmpData.transportInfo,\n                tmpData.warehouseName,\n                tmpData.warehouseAddress,\n                tmpData.importerId);\n                \n        \n    }\n\n    /*set Proccessor data*/\n    function setProcessorData(address batchNo,\n                              uint256 _quantity, \n                              string _temperature,\n                              uint256 _rostingDuration,\n                              string _internalBatchNo,\n                              uint256 _packageDateTime,\n                              string _processorName,\n                              string _processorAddress) public onlyAuthCaller returns(bool){\n        \n        \n        processorData.quantity = _quantity;\n        processorData.temperature = _temperature;\n        processorData.rostingDuration = _rostingDuration;\n        processorData.internalBatchNo = _internalBatchNo;\n        processorData.packageDateTime = _packageDateTime;\n        processorData.processorName = _processorName;\n        processorData.processorAddress = _processorAddress;\n        \n        batchProcessor[batchNo] = processorData;\n        \n        nextAction[batchNo] = 'DONE'; \n        \n        emit DoneProcessing(msg.sender, batchNo);\n\n        return true;\n    }\n    \n    \n    /*get Processor data*/\n    function getProcessorData( address batchNo) public onlyAuthCaller view returns(\n                                                                                        uint256 quantity,\n                                                                                        string temperature,\n                                                                                        uint256 rostingDuration,\n                                                                                        string internalBatchNo,\n                                                                                        uint256 packageDateTime,\n                                                                                        string processorName,\n                                                                                        string processorAddress){\n\n        processor memory tmpData = batchProcessor[batchNo];\n        \n        \n        return (\n                tmpData.quantity, \n                tmpData.temperature, \n                tmpData.rostingDuration, \n                tmpData.internalBatchNo,\n                tmpData.packageDateTime,\n                tmpData.processorName,\n                tmpData.processorAddress);\n                \n        \n    }\n  \n}    \n",
  "sourcePath": "/home/imperial/remix-ide/contracts/coffee-supplychain-contract/contracts/SupplyChainStorage.sol",
  "compiler": {
    "name": "solc",
    "version": "0.4.23+commit.124ca40d.Emscripten.clang"
  },
  "schemaVersion": "2.0.0",
  "updatedAt": "2018-06-08T05:34:58.974Z"
}